{
	"FvckClaim_flattened.sol": {
		"FvckClaim": {
			"abi": [
				{
					"inputs": [
						{
							"internalType": "contract IERC20",
							"name": "_token",
							"type": "address"
						}
					],
					"stateMutability": "nonpayable",
					"type": "constructor"
				},
				{
					"inputs": [
						{
							"internalType": "address",
							"name": "owner",
							"type": "address"
						}
					],
					"name": "OwnableInvalidOwner",
					"type": "error"
				},
				{
					"inputs": [
						{
							"internalType": "address",
							"name": "account",
							"type": "address"
						}
					],
					"name": "OwnableUnauthorizedAccount",
					"type": "error"
				},
				{
					"inputs": [
						{
							"internalType": "address",
							"name": "token",
							"type": "address"
						}
					],
					"name": "SafeERC20FailedOperation",
					"type": "error"
				},
				{
					"anonymous": false,
					"inputs": [
						{
							"indexed": false,
							"internalType": "uint256",
							"name": "newFee",
							"type": "uint256"
						}
					],
					"name": "ClaimApprovalFeeUpdated",
					"type": "event"
				},
				{
					"anonymous": false,
					"inputs": [
						{
							"indexed": true,
							"internalType": "address",
							"name": "account",
							"type": "address"
						}
					],
					"name": "ClaimApproved",
					"type": "event"
				},
				{
					"anonymous": false,
					"inputs": [
						{
							"indexed": true,
							"internalType": "address",
							"name": "account",
							"type": "address"
						},
						{
							"indexed": false,
							"internalType": "bool",
							"name": "isBlocked",
							"type": "bool"
						}
					],
					"name": "ClaimBlockedForAddress",
					"type": "event"
				},
				{
					"anonymous": false,
					"inputs": [
						{
							"indexed": false,
							"internalType": "bool",
							"name": "enabled",
							"type": "bool"
						}
					],
					"name": "ClaimEnabled",
					"type": "event"
				},
				{
					"anonymous": false,
					"inputs": [
						{
							"indexed": true,
							"internalType": "address",
							"name": "beneficiary",
							"type": "address"
						},
						{
							"indexed": false,
							"internalType": "uint256",
							"name": "amount",
							"type": "uint256"
						}
					],
					"name": "ClaimMade",
					"type": "event"
				},
				{
					"anonymous": false,
					"inputs": [
						{
							"indexed": false,
							"internalType": "address[]",
							"name": "accounts",
							"type": "address[]"
						},
						{
							"indexed": false,
							"internalType": "uint256[]",
							"name": "amounts",
							"type": "uint256[]"
						}
					],
					"name": "ClaimableBatchAdded",
					"type": "event"
				},
				{
					"anonymous": false,
					"inputs": [
						{
							"indexed": true,
							"internalType": "address",
							"name": "owner",
							"type": "address"
						},
						{
							"indexed": false,
							"internalType": "uint256",
							"name": "amount",
							"type": "uint256"
						}
					],
					"name": "EmergencyWithdraw",
					"type": "event"
				},
				{
					"anonymous": false,
					"inputs": [
						{
							"indexed": true,
							"internalType": "address",
							"name": "account",
							"type": "address"
						}
					],
					"name": "NewAddressRegistered",
					"type": "event"
				},
				{
					"anonymous": false,
					"inputs": [
						{
							"indexed": true,
							"internalType": "address",
							"name": "previousOwner",
							"type": "address"
						},
						{
							"indexed": true,
							"internalType": "address",
							"name": "newOwner",
							"type": "address"
						}
					],
					"name": "OwnershipTransferred",
					"type": "event"
				},
				{
					"anonymous": false,
					"inputs": [
						{
							"indexed": true,
							"internalType": "address",
							"name": "owner",
							"type": "address"
						},
						{
							"indexed": false,
							"internalType": "uint256",
							"name": "amount",
							"type": "uint256"
						}
					],
					"name": "TokenDeposited",
					"type": "event"
				},
				{
					"anonymous": false,
					"inputs": [
						{
							"indexed": true,
							"internalType": "address",
							"name": "account",
							"type": "address"
						},
						{
							"indexed": false,
							"internalType": "uint256",
							"name": "amount",
							"type": "uint256"
						},
						{
							"indexed": false,
							"internalType": "uint256",
							"name": "totalAllocated",
							"type": "uint256"
						}
					],
					"name": "TokensAllocated",
					"type": "event"
				},
				{
					"anonymous": false,
					"inputs": [
						{
							"indexed": true,
							"internalType": "address",
							"name": "owner",
							"type": "address"
						},
						{
							"indexed": false,
							"internalType": "uint256",
							"name": "amount",
							"type": "uint256"
						}
					],
					"name": "UnallocatedTokensWithdrawn",
					"type": "event"
				},
				{
					"inputs": [
						{
							"internalType": "address[]",
							"name": "_accounts",
							"type": "address[]"
						},
						{
							"internalType": "uint256[]",
							"name": "_amounts",
							"type": "uint256[]"
						}
					],
					"name": "addClaimableBatch",
					"outputs": [],
					"stateMutability": "nonpayable",
					"type": "function"
				},
				{
					"inputs": [],
					"name": "approveClaim",
					"outputs": [],
					"stateMutability": "payable",
					"type": "function"
				},
				{
					"inputs": [
						{
							"internalType": "address",
							"name": "",
							"type": "address"
						}
					],
					"name": "approvedForClaim",
					"outputs": [
						{
							"internalType": "bool",
							"name": "",
							"type": "bool"
						}
					],
					"stateMutability": "view",
					"type": "function"
				},
				{
					"inputs": [
						{
							"internalType": "address",
							"name": "_account",
							"type": "address"
						}
					],
					"name": "canClaim",
					"outputs": [
						{
							"internalType": "bool",
							"name": "",
							"type": "bool"
						}
					],
					"stateMutability": "view",
					"type": "function"
				},
				{
					"inputs": [],
					"name": "claim",
					"outputs": [],
					"stateMutability": "nonpayable",
					"type": "function"
				},
				{
					"inputs": [],
					"name": "claimApprovalFee",
					"outputs": [
						{
							"internalType": "uint256",
							"name": "",
							"type": "uint256"
						}
					],
					"stateMutability": "view",
					"type": "function"
				},
				{
					"inputs": [
						{
							"internalType": "address",
							"name": "",
							"type": "address"
						}
					],
					"name": "claimBlocked",
					"outputs": [
						{
							"internalType": "bool",
							"name": "",
							"type": "bool"
						}
					],
					"stateMutability": "view",
					"type": "function"
				},
				{
					"inputs": [],
					"name": "claimEnabled",
					"outputs": [
						{
							"internalType": "bool",
							"name": "",
							"type": "bool"
						}
					],
					"stateMutability": "view",
					"type": "function"
				},
				{
					"inputs": [],
					"name": "contractTokenBalance",
					"outputs": [
						{
							"internalType": "uint256",
							"name": "",
							"type": "uint256"
						}
					],
					"stateMutability": "view",
					"type": "function"
				},
				{
					"inputs": [
						{
							"internalType": "uint256",
							"name": "_amount",
							"type": "uint256"
						}
					],
					"name": "depositTokens",
					"outputs": [],
					"stateMutability": "nonpayable",
					"type": "function"
				},
				{
					"inputs": [],
					"name": "emergencyWithdraw",
					"outputs": [],
					"stateMutability": "nonpayable",
					"type": "function"
				},
				{
					"inputs": [],
					"name": "emergencyWithdrawCooldown",
					"outputs": [
						{
							"internalType": "uint256",
							"name": "",
							"type": "uint256"
						}
					],
					"stateMutability": "view",
					"type": "function"
				},
				{
					"inputs": [
						{
							"internalType": "address",
							"name": "_account",
							"type": "address"
						}
					],
					"name": "getClaimableBalance",
					"outputs": [
						{
							"internalType": "uint256",
							"name": "",
							"type": "uint256"
						}
					],
					"stateMutability": "view",
					"type": "function"
				},
				{
					"inputs": [],
					"name": "getStats",
					"outputs": [
						{
							"internalType": "uint256",
							"name": "_totalRegistered",
							"type": "uint256"
						},
						{
							"internalType": "uint256",
							"name": "_totalClaimed",
							"type": "uint256"
						},
						{
							"internalType": "uint256",
							"name": "_totalContractBalance",
							"type": "uint256"
						},
						{
							"internalType": "uint256",
							"name": "_totalAllocated",
							"type": "uint256"
						},
						{
							"internalType": "bool",
							"name": "_claimEnabled",
							"type": "bool"
						}
					],
					"stateMutability": "view",
					"type": "function"
				},
				{
					"inputs": [
						{
							"internalType": "address",
							"name": "_account",
							"type": "address"
						}
					],
					"name": "getTotalClaimed",
					"outputs": [
						{
							"internalType": "uint256",
							"name": "",
							"type": "uint256"
						}
					],
					"stateMutability": "view",
					"type": "function"
				},
				{
					"inputs": [],
					"name": "getUnallocatedTokens",
					"outputs": [
						{
							"internalType": "uint256",
							"name": "",
							"type": "uint256"
						}
					],
					"stateMutability": "view",
					"type": "function"
				},
				{
					"inputs": [],
					"name": "lastEmergencyWithdraw",
					"outputs": [
						{
							"internalType": "uint256",
							"name": "",
							"type": "uint256"
						}
					],
					"stateMutability": "view",
					"type": "function"
				},
				{
					"inputs": [],
					"name": "maxAllocationPerAddress",
					"outputs": [
						{
							"internalType": "uint256",
							"name": "",
							"type": "uint256"
						}
					],
					"stateMutability": "view",
					"type": "function"
				},
				{
					"inputs": [],
					"name": "owner",
					"outputs": [
						{
							"internalType": "address",
							"name": "",
							"type": "address"
						}
					],
					"stateMutability": "view",
					"type": "function"
				},
				{
					"inputs": [],
					"name": "renounceOwnership",
					"outputs": [],
					"stateMutability": "nonpayable",
					"type": "function"
				},
				{
					"inputs": [
						{
							"internalType": "uint256",
							"name": "_fee",
							"type": "uint256"
						}
					],
					"name": "setClaimApprovalFee",
					"outputs": [],
					"stateMutability": "nonpayable",
					"type": "function"
				},
				{
					"inputs": [
						{
							"internalType": "address",
							"name": "_account",
							"type": "address"
						},
						{
							"internalType": "bool",
							"name": "_blocked",
							"type": "bool"
						}
					],
					"name": "setClaimBlockedForAddress",
					"outputs": [],
					"stateMutability": "nonpayable",
					"type": "function"
				},
				{
					"inputs": [
						{
							"internalType": "bool",
							"name": "_enabled",
							"type": "bool"
						}
					],
					"name": "setClaimEnabled",
					"outputs": [],
					"stateMutability": "nonpayable",
					"type": "function"
				},
				{
					"inputs": [],
					"name": "token",
					"outputs": [
						{
							"internalType": "contract IERC20",
							"name": "",
							"type": "address"
						}
					],
					"stateMutability": "view",
					"type": "function"
				},
				{
					"inputs": [],
					"name": "totalAddressesClaimed",
					"outputs": [
						{
							"internalType": "uint256",
							"name": "",
							"type": "uint256"
						}
					],
					"stateMutability": "view",
					"type": "function"
				},
				{
					"inputs": [],
					"name": "totalAllocated",
					"outputs": [
						{
							"internalType": "uint256",
							"name": "",
							"type": "uint256"
						}
					],
					"stateMutability": "view",
					"type": "function"
				},
				{
					"inputs": [],
					"name": "totalRegisteredAddresses",
					"outputs": [
						{
							"internalType": "uint256",
							"name": "",
							"type": "uint256"
						}
					],
					"stateMutability": "view",
					"type": "function"
				},
				{
					"inputs": [
						{
							"internalType": "address",
							"name": "newOwner",
							"type": "address"
						}
					],
					"name": "transferOwnership",
					"outputs": [],
					"stateMutability": "nonpayable",
					"type": "function"
				},
				{
					"inputs": [],
					"name": "withdrawApprovalFees",
					"outputs": [],
					"stateMutability": "nonpayable",
					"type": "function"
				},
				{
					"inputs": [],
					"name": "withdrawUnallocatedTokens",
					"outputs": [],
					"stateMutability": "nonpayable",
					"type": "function"
				}
			],
			"devdoc": {
				"errors": {
					"OwnableInvalidOwner(address)": [
						{
							"details": "The owner is not a valid owner account. (eg. `address(0)`)"
						}
					],
					"OwnableUnauthorizedAccount(address)": [
						{
							"details": "The caller account is not authorized to perform an operation."
						}
					],
					"SafeERC20FailedOperation(address)": [
						{
							"details": "An operation with an ERC-20 token failed."
						}
					]
				},
				"kind": "dev",
				"methods": {
					"addClaimableBatch(address[],uint256[])": {
						"params": {
							"_accounts": "List of addresses eligible for claims.",
							"_amounts": "Corresponding token amounts (without decimals) each address can claim."
						}
					},
					"canClaim(address)": {
						"params": {
							"_account": "Address to query."
						}
					},
					"constructor": {
						"details": "Constructor: sets the token to be used and configures the owner.",
						"params": {
							"_token": "Address of the ERC20/BEP20 token contract."
						}
					},
					"depositTokens(uint256)": {
						"params": {
							"_amount": "Amount of tokens to deposit."
						}
					},
					"getClaimableBalance(address)": {
						"params": {
							"_account": "Address to query."
						}
					},
					"getTotalClaimed(address)": {
						"params": {
							"_account": "Address to query."
						}
					},
					"owner()": {
						"details": "Returns the address of the current owner."
					},
					"renounceOwnership()": {
						"details": "Leaves the contract without owner. It will not be possible to call `onlyOwner` functions. Can only be called by the current owner. NOTE: Renouncing ownership will leave the contract without an owner, thereby disabling any functionality that is only available to the owner."
					},
					"setClaimApprovalFee(uint256)": {
						"params": {
							"_fee": "Fee amount in WEI."
						}
					},
					"setClaimBlockedForAddress(address,bool)": {
						"params": {
							"_account": "Address to be blocked/unblocked.",
							"_blocked": "Boolean indicating whether the claim is blocked (true) or unblocked (false)."
						}
					},
					"transferOwnership(address)": {
						"details": "Transfers ownership of the contract to a new account (`newOwner`). Can only be called by the current owner."
					}
				},
				"title": "FVCKCLAIM",
				"version": 1
			},
			"evm": {
				"assembly": "    /* \"FvckClaim_flattened.sol\":33572:44012  contract FvckClaim is Ownable, ReentrancyGuard {... */\n  mstore(0x40, 0xa0)\n    /* \"FvckClaim_flattened.sol\":34659:34667  10 ** 18 */\n  0x0de0b6b3a7640000\n    /* \"FvckClaim_flattened.sol\":34744:34750  500000 */\n  0x07a120\n    /* \"FvckClaim_flattened.sol\":34744:34772  500000 * DECIMALS_MULTIPLIER */\n  tag_1\n  swap2\n  swap1\n  tag_2\n  jump\t// in\ntag_1:\n    /* \"FvckClaim_flattened.sol\":34703:34772  uint256 public maxAllocationPerAddress = 500000 * DECIMALS_MULTIPLIER */\n  0x0b\n  sstore\n    /* \"FvckClaim_flattened.sol\":34936:34943  1 weeks */\n  0x093a80\n    /* \"FvckClaim_flattened.sol\":34893:34943  uint256 public emergencyWithdrawCooldown = 1 weeks */\n  0x0d\n  sstore\n    /* \"FvckClaim_flattened.sol\":35967:36140  constructor(IERC20 _token) Ownable(msg.sender) {... */\n  callvalue\n  dup1\n  iszero\n  tag_3\n  jumpi\n  0x00\n  dup1\n  revert\ntag_3:\n  pop\n  mload(0x40)\n  sub(codesize, bytecodeSize)\n  dup1\n  bytecodeSize\n  dup4\n  codecopy\n  dup2\n  dup2\n  add\n  0x40\n  mstore\n  dup2\n  add\n  swap1\n  tag_4\n  swap2\n  swap1\n  tag_5\n  jump\t// in\ntag_4:\n    /* \"FvckClaim_flattened.sol\":36002:36012  msg.sender */\n  caller\n    /* \"FvckClaim_flattened.sol\":2259:2260  0 */\n  0x00\n    /* \"FvckClaim_flattened.sol\":2235:2261  initialOwner == address(0) */\n  0xffffffffffffffffffffffffffffffffffffffff\n  and\n    /* \"FvckClaim_flattened.sol\":2235:2247  initialOwner */\n  dup2\n    /* \"FvckClaim_flattened.sol\":2235:2261  initialOwner == address(0) */\n  0xffffffffffffffffffffffffffffffffffffffff\n  and\n  sub\n    /* \"FvckClaim_flattened.sol\":2231:2326  if (initialOwner == address(0)) {... */\n  tag_10\n  jumpi\n    /* \"FvckClaim_flattened.sol\":2312:2313  0 */\n  0x00\n    /* \"FvckClaim_flattened.sol\":2284:2315  OwnableInvalidOwner(address(0)) */\n  mload(0x40)\n  0x1e4fbdf700000000000000000000000000000000000000000000000000000000\n  dup2\n  mstore\n  0x04\n  add\n  tag_11\n  swap2\n  swap1\n  tag_12\n  jump\t// in\ntag_11:\n  mload(0x40)\n  dup1\n  swap2\n  sub\n  swap1\n  revert\n    /* \"FvckClaim_flattened.sol\":2231:2326  if (initialOwner == address(0)) {... */\ntag_10:\n    /* \"FvckClaim_flattened.sol\":2335:2367  _transferOwnership(initialOwner) */\n  tag_13\n    /* \"FvckClaim_flattened.sol\":2354:2366  initialOwner */\n  dup2\n    /* \"FvckClaim_flattened.sol\":2335:2353  _transferOwnership */\n  shl(0x20, tag_14)\n    /* \"FvckClaim_flattened.sol\":2335:2367  _transferOwnership(initialOwner) */\n  0x20\n  shr\n  jump\t// in\ntag_13:\n    /* \"FvckClaim_flattened.sol\":2187:2374  constructor(address initialOwner) {... */\n  pop\n    /* \"FvckClaim_flattened.sol\":5813:5814  1 */\n  0x01\n    /* \"FvckClaim_flattened.sol\":5918:5925  _status */\n  dup1\n    /* \"FvckClaim_flattened.sol\":5918:5940  _status = _NOT_ENTERED */\n  dup2\n  swap1\n  sstore\n  pop\n    /* \"FvckClaim_flattened.sol\":36059:36060  0 */\n  0x00\n    /* \"FvckClaim_flattened.sol\":36032:36061  address(_token) != address(0) */\n  0xffffffffffffffffffffffffffffffffffffffff\n  and\n    /* \"FvckClaim_flattened.sol\":36040:36046  _token */\n  dup2\n    /* \"FvckClaim_flattened.sol\":36032:36061  address(_token) != address(0) */\n  0xffffffffffffffffffffffffffffffffffffffff\n  and\n  sub\n    /* \"FvckClaim_flattened.sol\":36024:36079  require(address(_token) != address(0), \"Invalid token\") */\n  tag_17\n  jumpi\n  mload(0x40)\n  0x08c379a000000000000000000000000000000000000000000000000000000000\n  dup2\n  mstore\n  0x04\n  add\n  tag_18\n  swap1\n  tag_19\n  jump\t// in\ntag_18:\n  mload(0x40)\n  dup1\n  swap2\n  sub\n  swap1\n  revert\ntag_17:\n    /* \"FvckClaim_flattened.sol\":36097:36103  _token */\n  dup1\n    /* \"FvckClaim_flattened.sol\":36089:36103  token = _token */\n  0xffffffffffffffffffffffffffffffffffffffff\n  and\n  0x80\n  dup2\n  0xffffffffffffffffffffffffffffffffffffffff\n  and\n  dup2\n  mstore\n  pop\n  pop\n    /* \"FvckClaim_flattened.sol\":36128:36133  false */\n  0x00\n    /* \"FvckClaim_flattened.sol\":36113:36125  claimEnabled */\n  0x02\n  0x00\n    /* \"FvckClaim_flattened.sol\":36113:36133  claimEnabled = false */\n  0x0100\n  exp\n  dup2\n  sload\n  dup2\n  0xff\n  mul\n  not\n  and\n  swap1\n  dup4\n  iszero\n  iszero\n  mul\n  or\n  swap1\n  sstore\n  pop\n    /* \"FvckClaim_flattened.sol\":35967:36140  constructor(IERC20 _token) Ownable(msg.sender) {... */\n  pop\n    /* \"FvckClaim_flattened.sol\":33572:44012  contract FvckClaim is Ownable, ReentrancyGuard {... */\n  jump(tag_20)\n    /* \"FvckClaim_flattened.sol\":3874:4061  function _transferOwnership(address newOwner) internal virtual {... */\ntag_14:\n    /* \"FvckClaim_flattened.sol\":3947:3963  address oldOwner */\n  0x00\n    /* \"FvckClaim_flattened.sol\":3966:3972  _owner */\n  dup1\n  0x00\n  swap1\n  sload\n  swap1\n  0x0100\n  exp\n  swap1\n  div\n  0xffffffffffffffffffffffffffffffffffffffff\n  and\n    /* \"FvckClaim_flattened.sol\":3947:3972  address oldOwner = _owner */\n  swap1\n  pop\n    /* \"FvckClaim_flattened.sol\":3991:3999  newOwner */\n  dup2\n    /* \"FvckClaim_flattened.sol\":3982:3988  _owner */\n  0x00\n  dup1\n    /* \"FvckClaim_flattened.sol\":3982:3999  _owner = newOwner */\n  0x0100\n  exp\n  dup2\n  sload\n  dup2\n  0xffffffffffffffffffffffffffffffffffffffff\n  mul\n  not\n  and\n  swap1\n  dup4\n  0xffffffffffffffffffffffffffffffffffffffff\n  and\n  mul\n  or\n  swap1\n  sstore\n  pop\n    /* \"FvckClaim_flattened.sol\":4045:4053  newOwner */\n  dup2\n    /* \"FvckClaim_flattened.sol\":4014:4054  OwnershipTransferred(oldOwner, newOwner) */\n  0xffffffffffffffffffffffffffffffffffffffff\n  and\n    /* \"FvckClaim_flattened.sol\":4035:4043  oldOwner */\n  dup2\n    /* \"FvckClaim_flattened.sol\":4014:4054  OwnershipTransferred(oldOwner, newOwner) */\n  0xffffffffffffffffffffffffffffffffffffffff\n  and\n  0x8be0079c531659141344cd1fd0a4f28419497f9722a3daafe3b4186f6b6457e0\n  mload(0x40)\n  mload(0x40)\n  dup1\n  swap2\n  sub\n  swap1\n  log3\n    /* \"FvckClaim_flattened.sol\":3937:4061  {... */\n  pop\n    /* \"FvckClaim_flattened.sol\":3874:4061  function _transferOwnership(address newOwner) internal virtual {... */\n  pop\n  jump\t// out\n    /* \"#utility.yul\":7:84   */\ntag_22:\n    /* \"#utility.yul\":44:51   */\n  0x00\n    /* \"#utility.yul\":73:78   */\n  dup2\n    /* \"#utility.yul\":62:78   */\n  swap1\n  pop\n    /* \"#utility.yul\":7:84   */\n  swap2\n  swap1\n  pop\n  jump\t// out\n    /* \"#utility.yul\":90:270   */\ntag_23:\n    /* \"#utility.yul\":138:215   */\n  0x4e487b7100000000000000000000000000000000000000000000000000000000\n    /* \"#utility.yul\":135:136   */\n  0x00\n    /* \"#utility.yul\":128:216   */\n  mstore\n    /* \"#utility.yul\":235:239   */\n  0x11\n    /* \"#utility.yul\":232:233   */\n  0x04\n    /* \"#utility.yul\":225:240   */\n  mstore\n    /* \"#utility.yul\":259:263   */\n  0x24\n    /* \"#utility.yul\":256:257   */\n  0x00\n    /* \"#utility.yul\":249:264   */\n  revert\n    /* \"#utility.yul\":276:686   */\ntag_2:\n    /* \"#utility.yul\":316:323   */\n  0x00\n    /* \"#utility.yul\":339:359   */\n  tag_40\n    /* \"#utility.yul\":357:358   */\n  dup3\n    /* \"#utility.yul\":339:359   */\n  tag_22\n  jump\t// in\ntag_40:\n    /* \"#utility.yul\":334:359   */\n  swap2\n  pop\n    /* \"#utility.yul\":373:393   */\n  tag_41\n    /* \"#utility.yul\":391:392   */\n  dup4\n    /* \"#utility.yul\":373:393   */\n  tag_22\n  jump\t// in\ntag_41:\n    /* \"#utility.yul\":368:393   */\n  swap3\n  pop\n    /* \"#utility.yul\":428:429   */\n  dup3\n    /* \"#utility.yul\":425:426   */\n  dup3\n    /* \"#utility.yul\":421:430   */\n  mul\n    /* \"#utility.yul\":450:480   */\n  tag_42\n    /* \"#utility.yul\":468:479   */\n  dup2\n    /* \"#utility.yul\":450:480   */\n  tag_22\n  jump\t// in\ntag_42:\n    /* \"#utility.yul\":439:480   */\n  swap2\n  pop\n    /* \"#utility.yul\":629:630   */\n  dup3\n    /* \"#utility.yul\":620:627   */\n  dup3\n    /* \"#utility.yul\":616:631   */\n  div\n    /* \"#utility.yul\":613:614   */\n  dup5\n    /* \"#utility.yul\":610:632   */\n  eq\n    /* \"#utility.yul\":590:591   */\n  dup4\n    /* \"#utility.yul\":583:592   */\n  iszero\n    /* \"#utility.yul\":563:646   */\n  or\n    /* \"#utility.yul\":540:679   */\n  tag_43\n  jumpi\n    /* \"#utility.yul\":659:677   */\n  tag_44\n  tag_23\n  jump\t// in\ntag_44:\n    /* \"#utility.yul\":540:679   */\ntag_43:\n    /* \"#utility.yul\":324:686   */\n  pop\n    /* \"#utility.yul\":276:686   */\n  swap3\n  swap2\n  pop\n  pop\n  jump\t// out\n    /* \"#utility.yul\":773:890   */\ntag_25:\n    /* \"#utility.yul\":882:883   */\n  0x00\n    /* \"#utility.yul\":879:880   */\n  dup1\n    /* \"#utility.yul\":872:884   */\n  revert\n    /* \"#utility.yul\":1019:1145   */\ntag_27:\n    /* \"#utility.yul\":1056:1063   */\n  0x00\n    /* \"#utility.yul\":1096:1138   */\n  0xffffffffffffffffffffffffffffffffffffffff\n    /* \"#utility.yul\":1089:1094   */\n  dup3\n    /* \"#utility.yul\":1085:1139   */\n  and\n    /* \"#utility.yul\":1074:1139   */\n  swap1\n  pop\n    /* \"#utility.yul\":1019:1145   */\n  swap2\n  swap1\n  pop\n  jump\t// out\n    /* \"#utility.yul\":1151:1247   */\ntag_28:\n    /* \"#utility.yul\":1188:1195   */\n  0x00\n    /* \"#utility.yul\":1217:1241   */\n  tag_50\n    /* \"#utility.yul\":1235:1240   */\n  dup3\n    /* \"#utility.yul\":1217:1241   */\n  tag_27\n  jump\t// in\ntag_50:\n    /* \"#utility.yul\":1206:1241   */\n  swap1\n  pop\n    /* \"#utility.yul\":1151:1247   */\n  swap2\n  swap1\n  pop\n  jump\t// out\n    /* \"#utility.yul\":1253:1363   */\ntag_29:\n    /* \"#utility.yul\":1304:1311   */\n  0x00\n    /* \"#utility.yul\":1333:1357   */\n  tag_52\n    /* \"#utility.yul\":1351:1356   */\n  dup3\n    /* \"#utility.yul\":1333:1357   */\n  tag_28\n  jump\t// in\ntag_52:\n    /* \"#utility.yul\":1322:1357   */\n  swap1\n  pop\n    /* \"#utility.yul\":1253:1363   */\n  swap2\n  swap1\n  pop\n  jump\t// out\n    /* \"#utility.yul\":1369:1519   */\ntag_30:\n    /* \"#utility.yul\":1456:1494   */\n  tag_54\n    /* \"#utility.yul\":1488:1493   */\n  dup2\n    /* \"#utility.yul\":1456:1494   */\n  tag_29\n  jump\t// in\ntag_54:\n    /* \"#utility.yul\":1449:1454   */\n  dup2\n    /* \"#utility.yul\":1446:1495   */\n  eq\n    /* \"#utility.yul\":1436:1513   */\n  tag_55\n  jumpi\n    /* \"#utility.yul\":1509:1510   */\n  0x00\n    /* \"#utility.yul\":1506:1507   */\n  dup1\n    /* \"#utility.yul\":1499:1511   */\n  revert\n    /* \"#utility.yul\":1436:1513   */\ntag_55:\n    /* \"#utility.yul\":1369:1519   */\n  pop\n  jump\t// out\n    /* \"#utility.yul\":1525:1696   */\ntag_31:\n    /* \"#utility.yul\":1596:1601   */\n  0x00\n    /* \"#utility.yul\":1627:1633   */\n  dup2\n    /* \"#utility.yul\":1621:1634   */\n  mload\n    /* \"#utility.yul\":1612:1634   */\n  swap1\n  pop\n    /* \"#utility.yul\":1643:1690   */\n  tag_57\n    /* \"#utility.yul\":1684:1689   */\n  dup2\n    /* \"#utility.yul\":1643:1690   */\n  tag_30\n  jump\t// in\ntag_57:\n    /* \"#utility.yul\":1525:1696   */\n  swap3\n  swap2\n  pop\n  pop\n  jump\t// out\n    /* \"#utility.yul\":1702:2081   */\ntag_5:\n    /* \"#utility.yul\":1786:1792   */\n  0x00\n    /* \"#utility.yul\":1835:1837   */\n  0x20\n    /* \"#utility.yul\":1823:1832   */\n  dup3\n    /* \"#utility.yul\":1814:1821   */\n  dup5\n    /* \"#utility.yul\":1810:1833   */\n  sub\n    /* \"#utility.yul\":1806:1838   */\n  slt\n    /* \"#utility.yul\":1803:1922   */\n  iszero\n  tag_59\n  jumpi\n    /* \"#utility.yul\":1841:1920   */\n  tag_60\n  tag_25\n  jump\t// in\ntag_60:\n    /* \"#utility.yul\":1803:1922   */\ntag_59:\n    /* \"#utility.yul\":1961:1962   */\n  0x00\n    /* \"#utility.yul\":1986:2064   */\n  tag_61\n    /* \"#utility.yul\":2056:2063   */\n  dup5\n    /* \"#utility.yul\":2047:2053   */\n  dup3\n    /* \"#utility.yul\":2036:2045   */\n  dup6\n    /* \"#utility.yul\":2032:2054   */\n  add\n    /* \"#utility.yul\":1986:2064   */\n  tag_31\n  jump\t// in\ntag_61:\n    /* \"#utility.yul\":1976:2064   */\n  swap2\n  pop\n    /* \"#utility.yul\":1932:2074   */\n  pop\n    /* \"#utility.yul\":1702:2081   */\n  swap3\n  swap2\n  pop\n  pop\n  jump\t// out\n    /* \"#utility.yul\":2087:2205   */\ntag_32:\n    /* \"#utility.yul\":2174:2198   */\n  tag_63\n    /* \"#utility.yul\":2192:2197   */\n  dup2\n    /* \"#utility.yul\":2174:2198   */\n  tag_28\n  jump\t// in\ntag_63:\n    /* \"#utility.yul\":2169:2172   */\n  dup3\n    /* \"#utility.yul\":2162:2199   */\n  mstore\n    /* \"#utility.yul\":2087:2205   */\n  pop\n  pop\n  jump\t// out\n    /* \"#utility.yul\":2211:2433   */\ntag_12:\n    /* \"#utility.yul\":2304:2308   */\n  0x00\n    /* \"#utility.yul\":2342:2344   */\n  0x20\n    /* \"#utility.yul\":2331:2340   */\n  dup3\n    /* \"#utility.yul\":2327:2345   */\n  add\n    /* \"#utility.yul\":2319:2345   */\n  swap1\n  pop\n    /* \"#utility.yul\":2355:2426   */\n  tag_65\n    /* \"#utility.yul\":2423:2424   */\n  0x00\n    /* \"#utility.yul\":2412:2421   */\n  dup4\n    /* \"#utility.yul\":2408:2425   */\n  add\n    /* \"#utility.yul\":2399:2405   */\n  dup5\n    /* \"#utility.yul\":2355:2426   */\n  tag_32\n  jump\t// in\ntag_65:\n    /* \"#utility.yul\":2211:2433   */\n  swap3\n  swap2\n  pop\n  pop\n  jump\t// out\n    /* \"#utility.yul\":2439:2608   */\ntag_33:\n    /* \"#utility.yul\":2523:2534   */\n  0x00\n    /* \"#utility.yul\":2557:2563   */\n  dup3\n    /* \"#utility.yul\":2552:2555   */\n  dup3\n    /* \"#utility.yul\":2545:2564   */\n  mstore\n    /* \"#utility.yul\":2597:2601   */\n  0x20\n    /* \"#utility.yul\":2592:2595   */\n  dup3\n    /* \"#utility.yul\":2588:2602   */\n  add\n    /* \"#utility.yul\":2573:2602   */\n  swap1\n  pop\n    /* \"#utility.yul\":2439:2608   */\n  swap3\n  swap2\n  pop\n  pop\n  jump\t// out\n    /* \"#utility.yul\":2614:2777   */\ntag_34:\n    /* \"#utility.yul\":2754:2769   */\n  0x496e76616c696420746f6b656e00000000000000000000000000000000000000\n    /* \"#utility.yul\":2750:2751   */\n  0x00\n    /* \"#utility.yul\":2742:2748   */\n  dup3\n    /* \"#utility.yul\":2738:2752   */\n  add\n    /* \"#utility.yul\":2731:2770   */\n  mstore\n    /* \"#utility.yul\":2614:2777   */\n  pop\n  jump\t// out\n    /* \"#utility.yul\":2783:3149   */\ntag_35:\n    /* \"#utility.yul\":2925:2928   */\n  0x00\n    /* \"#utility.yul\":2946:3013   */\n  tag_69\n    /* \"#utility.yul\":3010:3012   */\n  0x0d\n    /* \"#utility.yul\":3005:3008   */\n  dup4\n    /* \"#utility.yul\":2946:3013   */\n  tag_33\n  jump\t// in\ntag_69:\n    /* \"#utility.yul\":2939:3013   */\n  swap2\n  pop\n    /* \"#utility.yul\":3022:3115   */\n  tag_70\n    /* \"#utility.yul\":3111:3114   */\n  dup3\n    /* \"#utility.yul\":3022:3115   */\n  tag_34\n  jump\t// in\ntag_70:\n    /* \"#utility.yul\":3140:3142   */\n  0x20\n    /* \"#utility.yul\":3135:3138   */\n  dup3\n    /* \"#utility.yul\":3131:3143   */\n  add\n    /* \"#utility.yul\":3124:3143   */\n  swap1\n  pop\n    /* \"#utility.yul\":2783:3149   */\n  swap2\n  swap1\n  pop\n  jump\t// out\n    /* \"#utility.yul\":3155:3574   */\ntag_19:\n    /* \"#utility.yul\":3321:3325   */\n  0x00\n    /* \"#utility.yul\":3359:3361   */\n  0x20\n    /* \"#utility.yul\":3348:3357   */\n  dup3\n    /* \"#utility.yul\":3344:3362   */\n  add\n    /* \"#utility.yul\":3336:3362   */\n  swap1\n  pop\n    /* \"#utility.yul\":3408:3417   */\n  dup2\n    /* \"#utility.yul\":3402:3406   */\n  dup2\n    /* \"#utility.yul\":3398:3418   */\n  sub\n    /* \"#utility.yul\":3394:3395   */\n  0x00\n    /* \"#utility.yul\":3383:3392   */\n  dup4\n    /* \"#utility.yul\":3379:3396   */\n  add\n    /* \"#utility.yul\":3372:3419   */\n  mstore\n    /* \"#utility.yul\":3436:3567   */\n  tag_72\n    /* \"#utility.yul\":3562:3566   */\n  dup2\n    /* \"#utility.yul\":3436:3567   */\n  tag_35\n  jump\t// in\ntag_72:\n    /* \"#utility.yul\":3428:3567   */\n  swap1\n  pop\n    /* \"#utility.yul\":3155:3574   */\n  swap2\n  swap1\n  pop\n  jump\t// out\n    /* \"FvckClaim_flattened.sol\":33572:44012  contract FvckClaim is Ownable, ReentrancyGuard {... */\ntag_20:\n  mload(0x80)\n  codecopy(0x00, dataOffset(sub_0), dataSize(sub_0))\n  0x00\n  assignImmutable(\"0xe9e0475224745f570c2fa5a2212581dbb763b0b604cf1588d130cda3bdffbf52\")\n  return(0x00, dataSize(sub_0))\nstop\n\nsub_0: assembly {\n        /* \"FvckClaim_flattened.sol\":33572:44012  contract FvckClaim is Ownable, ReentrancyGuard {... */\n      mstore(0x40, 0x80)\n      jumpi(tag_1, lt(calldatasize, 0x04))\n      shr(0xe0, calldataload(0x00))\n      dup1\n      0x8f060da9\n      gt\n      tag_32\n      jumpi\n      dup1\n      0xd7bebac0\n      gt\n      tag_33\n      jumpi\n      dup1\n      0xe1413163\n      gt\n      tag_34\n      jumpi\n      dup1\n      0xe1413163\n      eq\n      tag_28\n      jumpi\n      dup1\n      0xe1ffba62\n      eq\n      tag_29\n      jumpi\n      dup1\n      0xf2fde38b\n      eq\n      tag_30\n      jumpi\n      dup1\n      0xfc0c546a\n      eq\n      tag_31\n      jumpi\n      jump(tag_1)\n    tag_34:\n      dup1\n      0xd7bebac0\n      eq\n      tag_24\n      jumpi\n      dup1\n      0xdb2e21bc\n      eq\n      tag_25\n      jumpi\n      dup1\n      0xdc7f9e34\n      eq\n      tag_26\n      jumpi\n      dup1\n      0xdd49756e\n      eq\n      tag_27\n      jumpi\n      jump(tag_1)\n    tag_33:\n      dup1\n      0x9e9aed62\n      gt\n      tag_35\n      jumpi\n      dup1\n      0x9e9aed62\n      eq\n      tag_20\n      jumpi\n      dup1\n      0xa0470cb4\n      eq\n      tag_21\n      jumpi\n      dup1\n      0xbf3506c1\n      eq\n      tag_22\n      jumpi\n      dup1\n      0xc59d4847\n      eq\n      tag_23\n      jumpi\n      jump(tag_1)\n    tag_35:\n      dup1\n      0x8f060da9\n      eq\n      tag_17\n      jumpi\n      dup1\n      0x92929a09\n      eq\n      tag_18\n      jumpi\n      dup1\n      0x94192b9f\n      eq\n      tag_19\n      jumpi\n      jump(tag_1)\n    tag_32:\n      dup1\n      0x4243fc4e\n      gt\n      tag_36\n      jumpi\n      dup1\n      0x6104f4b5\n      gt\n      tag_37\n      jumpi\n      dup1\n      0x6104f4b5\n      eq\n      tag_13\n      jumpi\n      dup1\n      0x715018a6\n      eq\n      tag_14\n      jumpi\n      dup1\n      0x86e755c6\n      eq\n      tag_15\n      jumpi\n      dup1\n      0x8da5cb5b\n      eq\n      tag_16\n      jumpi\n      jump(tag_1)\n    tag_37:\n      dup1\n      0x4243fc4e\n      eq\n      tag_9\n      jumpi\n      dup1\n      0x45f7f249\n      eq\n      tag_10\n      jumpi\n      dup1\n      0x4e71d92d\n      eq\n      tag_11\n      jumpi\n      dup1\n      0x522bf1d4\n      eq\n      tag_12\n      jumpi\n      jump(tag_1)\n    tag_36:\n      dup1\n      0x26155e53\n      gt\n      tag_38\n      jumpi\n      dup1\n      0x26155e53\n      eq\n      tag_5\n      jumpi\n      dup1\n      0x28607bc6\n      eq\n      tag_6\n      jumpi\n      dup1\n      0x2866ed21\n      eq\n      tag_7\n      jumpi\n      dup1\n      0x2bb2ed39\n      eq\n      tag_8\n      jumpi\n      jump(tag_1)\n    tag_38:\n      dup1\n      0x06def802\n      eq\n      tag_2\n      jumpi\n      dup1\n      0x1f322564\n      eq\n      tag_3\n      jumpi\n      dup1\n      0x2019ddf8\n      eq\n      tag_4\n      jumpi\n    tag_1:\n      0x00\n      dup1\n      revert\n        /* \"FvckClaim_flattened.sol\":42695:42825  function getClaimableBalance(address _account) external view returns (uint256) {... */\n    tag_2:\n      callvalue\n      dup1\n      iszero\n      tag_39\n      jumpi\n      0x00\n      dup1\n      revert\n    tag_39:\n      pop\n      tag_40\n      0x04\n      dup1\n      calldatasize\n      sub\n      dup2\n      add\n      swap1\n      tag_41\n      swap2\n      swap1\n      tag_42\n      jump\t// in\n    tag_41:\n      tag_43\n      jump\t// in\n    tag_40:\n      mload(0x40)\n      tag_44\n      swap2\n      swap1\n      tag_45\n      jump\t// in\n    tag_44:\n      mload(0x40)\n      dup1\n      swap2\n      sub\n      swap1\n      return\n        /* \"FvckClaim_flattened.sol\":35028:35059  uint256 public claimApprovalFee */\n    tag_3:\n      callvalue\n      dup1\n      iszero\n      tag_46\n      jumpi\n      0x00\n      dup1\n      revert\n    tag_46:\n      pop\n      tag_47\n      tag_48\n      jump\t// in\n    tag_47:\n      mload(0x40)\n      tag_49\n      swap2\n      swap1\n      tag_45\n      jump\t// in\n    tag_49:\n      mload(0x40)\n      dup1\n      swap2\n      sub\n      swap1\n      return\n        /* \"FvckClaim_flattened.sol\":37242:37436  function setClaimBlockedForAddress(address _account, bool _blocked) external onlyOwner {... */\n    tag_4:\n      callvalue\n      dup1\n      iszero\n      tag_50\n      jumpi\n      0x00\n      dup1\n      revert\n    tag_50:\n      pop\n      tag_51\n      0x04\n      dup1\n      calldatasize\n      sub\n      dup2\n      add\n      swap1\n      tag_52\n      swap2\n      swap1\n      tag_53\n      jump\t// in\n    tag_52:\n      tag_54\n      jump\t// in\n    tag_51:\n      stop\n        /* \"FvckClaim_flattened.sol\":34812:34848  uint256 public lastEmergencyWithdraw */\n    tag_5:\n      callvalue\n      dup1\n      iszero\n      tag_55\n      jumpi\n      0x00\n      dup1\n      revert\n    tag_55:\n      pop\n      tag_56\n      tag_57\n      jump\t// in\n    tag_56:\n      mload(0x40)\n      tag_58\n      swap2\n      swap1\n      tag_45\n      jump\t// in\n    tag_58:\n      mload(0x40)\n      dup1\n      swap2\n      sub\n      swap1\n      return\n        /* \"FvckClaim_flattened.sol\":34893:34943  uint256 public emergencyWithdrawCooldown = 1 weeks */\n    tag_6:\n      callvalue\n      dup1\n      iszero\n      tag_59\n      jumpi\n      0x00\n      dup1\n      revert\n    tag_59:\n      pop\n      tag_60\n      tag_61\n      jump\t// in\n    tag_60:\n      mload(0x40)\n      tag_62\n      swap2\n      swap1\n      tag_45\n      jump\t// in\n    tag_62:\n      mload(0x40)\n      dup1\n      swap2\n      sub\n      swap1\n      return\n        /* \"FvckClaim_flattened.sol\":33808:33832  bool public claimEnabled */\n    tag_7:\n      callvalue\n      dup1\n      iszero\n      tag_63\n      jumpi\n      0x00\n      dup1\n      revert\n    tag_63:\n      pop\n      tag_64\n      tag_65\n      jump\t// in\n    tag_64:\n      mload(0x40)\n      tag_66\n      swap2\n      swap1\n      tag_67\n      jump\t// in\n    tag_66:\n      mload(0x40)\n      dup1\n      swap2\n      sub\n      swap1\n      return\n        /* \"FvckClaim_flattened.sol\":34364:34400  uint256 public totalAddressesClaimed */\n    tag_8:\n      callvalue\n      dup1\n      iszero\n      tag_68\n      jumpi\n      0x00\n      dup1\n      revert\n    tag_68:\n      pop\n      tag_69\n      tag_70\n      jump\t// in\n    tag_69:\n      mload(0x40)\n      tag_71\n      swap2\n      swap1\n      tag_45\n      jump\t// in\n    tag_71:\n      mload(0x40)\n      dup1\n      swap2\n      sub\n      swap1\n      return\n        /* \"FvckClaim_flattened.sol\":41007:41222  function getUnallocatedTokens() public view returns (uint256) {... */\n    tag_9:\n      callvalue\n      dup1\n      iszero\n      tag_72\n      jumpi\n      0x00\n      dup1\n      revert\n    tag_72:\n      pop\n      tag_73\n      tag_74\n      jump\t// in\n    tag_73:\n      mload(0x40)\n      tag_75\n      swap2\n      swap1\n      tag_45\n      jump\t// in\n    tag_75:\n      mload(0x40)\n      dup1\n      swap2\n      sub\n      swap1\n      return\n        /* \"FvckClaim_flattened.sol\":34438:34467  uint256 public totalAllocated */\n    tag_10:\n      callvalue\n      dup1\n      iszero\n      tag_76\n      jumpi\n      0x00\n      dup1\n      revert\n    tag_76:\n      pop\n      tag_77\n      tag_78\n      jump\t// in\n    tag_77:\n      mload(0x40)\n      tag_79\n      swap2\n      swap1\n      tag_45\n      jump\t// in\n    tag_79:\n      mload(0x40)\n      dup1\n      swap2\n      sub\n      swap1\n      return\n        /* \"FvckClaim_flattened.sol\":39688:40382  function claim() external nonReentrant {... */\n    tag_11:\n      callvalue\n      dup1\n      iszero\n      tag_80\n      jumpi\n      0x00\n      dup1\n      revert\n    tag_80:\n      pop\n      tag_81\n      tag_82\n      jump\t// in\n    tag_81:\n      stop\n        /* \"FvckClaim_flattened.sol\":42966:43090  function getTotalClaimed(address _account) external view returns (uint256) {... */\n    tag_12:\n      callvalue\n      dup1\n      iszero\n      tag_83\n      jumpi\n      0x00\n      dup1\n      revert\n    tag_83:\n      pop\n      tag_84\n      0x04\n      dup1\n      calldatasize\n      sub\n      dup2\n      add\n      swap1\n      tag_85\n      swap2\n      swap1\n      tag_42\n      jump\t// in\n    tag_85:\n      tag_86\n      jump\t// in\n    tag_84:\n      mload(0x40)\n      tag_87\n      swap2\n      swap1\n      tag_45\n      jump\t// in\n    tag_87:\n      mload(0x40)\n      dup1\n      swap2\n      sub\n      swap1\n      return\n        /* \"FvckClaim_flattened.sol\":34289:34328  uint256 public totalRegisteredAddresses */\n    tag_13:\n      callvalue\n      dup1\n      iszero\n      tag_88\n      jumpi\n      0x00\n      dup1\n      revert\n    tag_88:\n      pop\n      tag_89\n      tag_90\n      jump\t// in\n    tag_89:\n      mload(0x40)\n      tag_91\n      swap2\n      swap1\n      tag_45\n      jump\t// in\n    tag_91:\n      mload(0x40)\n      dup1\n      swap2\n      sub\n      swap1\n      return\n        /* \"FvckClaim_flattened.sol\":3255:3356  function renounceOwnership() public virtual onlyOwner {... */\n    tag_14:\n      callvalue\n      dup1\n      iszero\n      tag_92\n      jumpi\n      0x00\n      dup1\n      revert\n    tag_92:\n      pop\n      tag_93\n      tag_94\n      jump\t// in\n    tag_93:\n      stop\n        /* \"FvckClaim_flattened.sol\":34703:34772  uint256 public maxAllocationPerAddress = 500000 * DECIMALS_MULTIPLIER */\n    tag_15:\n      callvalue\n      dup1\n      iszero\n      tag_95\n      jumpi\n      0x00\n      dup1\n      revert\n    tag_95:\n      pop\n      tag_96\n      tag_97\n      jump\t// in\n    tag_96:\n      mload(0x40)\n      tag_98\n      swap2\n      swap1\n      tag_45\n      jump\t// in\n    tag_98:\n      mload(0x40)\n      dup1\n      swap2\n      sub\n      swap1\n      return\n        /* \"FvckClaim_flattened.sol\":2600:2685  function owner() public view virtual returns (address) {... */\n    tag_16:\n      callvalue\n      dup1\n      iszero\n      tag_99\n      jumpi\n      0x00\n      dup1\n      revert\n    tag_99:\n      pop\n      tag_100\n      tag_101\n      jump\t// in\n    tag_100:\n      mload(0x40)\n      tag_102\n      swap2\n      swap1\n      tag_103\n      jump\t// in\n    tag_102:\n      mload(0x40)\n      dup1\n      swap2\n      sub\n      swap1\n      return\n        /* \"FvckClaim_flattened.sol\":34096:34140  mapping(address => bool) public claimBlocked */\n    tag_17:\n      callvalue\n      dup1\n      iszero\n      tag_104\n      jumpi\n      0x00\n      dup1\n      revert\n    tag_104:\n      pop\n      tag_105\n      0x04\n      dup1\n      calldatasize\n      sub\n      dup2\n      add\n      swap1\n      tag_106\n      swap2\n      swap1\n      tag_42\n      jump\t// in\n    tag_106:\n      tag_107\n      jump\t// in\n    tag_105:\n      mload(0x40)\n      tag_108\n      swap2\n      swap1\n      tag_67\n      jump\t// in\n    tag_108:\n      mload(0x40)\n      dup1\n      swap2\n      sub\n      swap1\n      return\n        /* \"FvckClaim_flattened.sol\":36828:36964  function setClaimEnabled(bool _enabled) external onlyOwner {... */\n    tag_18:\n      callvalue\n      dup1\n      iszero\n      tag_109\n      jumpi\n      0x00\n      dup1\n      revert\n    tag_109:\n      pop\n      tag_110\n      0x04\n      dup1\n      calldatasize\n      sub\n      dup2\n      add\n      swap1\n      tag_111\n      swap2\n      swap1\n      tag_112\n      jump\t// in\n    tag_111:\n      tag_113\n      jump\t// in\n    tag_110:\n      stop\n        /* \"FvckClaim_flattened.sol\":34199:34247  mapping(address => bool) public approvedForClaim */\n    tag_19:\n      callvalue\n      dup1\n      iszero\n      tag_114\n      jumpi\n      0x00\n      dup1\n      revert\n    tag_114:\n      pop\n      tag_115\n      0x04\n      dup1\n      calldatasize\n      sub\n      dup2\n      add\n      swap1\n      tag_116\n      swap2\n      swap1\n      tag_42\n      jump\t// in\n    tag_116:\n      tag_117\n      jump\t// in\n    tag_115:\n      mload(0x40)\n      tag_118\n      swap2\n      swap1\n      tag_67\n      jump\t// in\n    tag_118:\n      mload(0x40)\n      dup1\n      swap2\n      sub\n      swap1\n      return\n        /* \"FvckClaim_flattened.sol\":40791:40907  function contractTokenBalance() public view returns (uint256) {... */\n    tag_20:\n      callvalue\n      dup1\n      iszero\n      tag_119\n      jumpi\n      0x00\n      dup1\n      revert\n    tag_119:\n      pop\n      tag_120\n      tag_121\n      jump\t// in\n    tag_120:\n      mload(0x40)\n      tag_122\n      swap2\n      swap1\n      tag_45\n      jump\t// in\n    tag_122:\n      mload(0x40)\n      dup1\n      swap2\n      sub\n      swap1\n      return\n        /* \"FvckClaim_flattened.sol\":36514:36719  function approveClaim() external payable {... */\n    tag_21:\n      tag_123\n      tag_124\n      jump\t// in\n    tag_123:\n      stop\n        /* \"FvckClaim_flattened.sol\":43220:43415  function canClaim(address _account) external view returns (bool) {... */\n    tag_22:\n      callvalue\n      dup1\n      iszero\n      tag_125\n      jumpi\n      0x00\n      dup1\n      revert\n    tag_125:\n      pop\n      tag_126\n      0x04\n      dup1\n      calldatasize\n      sub\n      dup2\n      add\n      swap1\n      tag_127\n      swap2\n      swap1\n      tag_42\n      jump\t// in\n    tag_127:\n      tag_128\n      jump\t// in\n    tag_126:\n      mload(0x40)\n      tag_129\n      swap2\n      swap1\n      tag_67\n      jump\t// in\n    tag_129:\n      mload(0x40)\n      dup1\n      swap2\n      sub\n      swap1\n      return\n        /* \"FvckClaim_flattened.sol\":43501:44010  function getStats()... */\n    tag_23:\n      callvalue\n      dup1\n      iszero\n      tag_130\n      jumpi\n      0x00\n      dup1\n      revert\n    tag_130:\n      pop\n      tag_131\n      tag_132\n      jump\t// in\n    tag_131:\n      mload(0x40)\n      tag_133\n      swap6\n      swap5\n      swap4\n      swap3\n      swap2\n      swap1\n      tag_134\n      jump\t// in\n    tag_133:\n      mload(0x40)\n      dup1\n      swap2\n      sub\n      swap1\n      return\n        /* \"FvckClaim_flattened.sol\":38223:39571  function addClaimableBatch(... */\n    tag_24:\n      callvalue\n      dup1\n      iszero\n      tag_135\n      jumpi\n      0x00\n      dup1\n      revert\n    tag_135:\n      pop\n      tag_136\n      0x04\n      dup1\n      calldatasize\n      sub\n      dup2\n      add\n      swap1\n      tag_137\n      swap2\n      swap1\n      tag_138\n      jump\t// in\n    tag_137:\n      tag_139\n      jump\t// in\n    tag_136:\n      stop\n        /* \"FvckClaim_flattened.sol\":41324:41831  function emergencyWithdraw() external onlyOwner nonReentrant {... */\n    tag_25:\n      callvalue\n      dup1\n      iszero\n      tag_140\n      jumpi\n      0x00\n      dup1\n      revert\n    tag_140:\n      pop\n      tag_141\n      tag_142\n      jump\t// in\n    tag_141:\n      stop\n        /* \"FvckClaim_flattened.sol\":41947:42481  function withdrawUnallocatedTokens() external onlyOwner nonReentrant {... */\n    tag_26:\n      callvalue\n      dup1\n      iszero\n      tag_143\n      jumpi\n      0x00\n      dup1\n      revert\n    tag_143:\n      pop\n      tag_144\n      tag_145\n      jump\t// in\n    tag_144:\n      stop\n        /* \"FvckClaim_flattened.sol\":37595:37936  function depositTokens(uint256 _amount) external onlyOwner {... */\n    tag_27:\n      callvalue\n      dup1\n      iszero\n      tag_146\n      jumpi\n      0x00\n      dup1\n      revert\n    tag_146:\n      pop\n      tag_147\n      0x04\n      dup1\n      calldatasize\n      sub\n      dup2\n      add\n      swap1\n      tag_148\n      swap2\n      swap1\n      tag_149\n      jump\t// in\n    tag_148:\n      tag_150\n      jump\t// in\n    tag_147:\n      stop\n        /* \"FvckClaim_flattened.sol\":40477:40705  function withdrawApprovalFees() external onlyOwner {... */\n    tag_28:\n      callvalue\n      dup1\n      iszero\n      tag_151\n      jumpi\n      0x00\n      dup1\n      revert\n    tag_151:\n      pop\n      tag_152\n      tag_153\n      jump\t// in\n    tag_152:\n      stop\n        /* \"FvckClaim_flattened.sol\":36263:36409  function setClaimApprovalFee(uint256 _fee) external onlyOwner {... */\n    tag_29:\n      callvalue\n      dup1\n      iszero\n      tag_154\n      jumpi\n      0x00\n      dup1\n      revert\n    tag_154:\n      pop\n      tag_155\n      0x04\n      dup1\n      calldatasize\n      sub\n      dup2\n      add\n      swap1\n      tag_156\n      swap2\n      swap1\n      tag_149\n      jump\t// in\n    tag_156:\n      tag_157\n      jump\t// in\n    tag_155:\n      stop\n        /* \"FvckClaim_flattened.sol\":3505:3720  function transferOwnership(address newOwner) public virtual onlyOwner {... */\n    tag_30:\n      callvalue\n      dup1\n      iszero\n      tag_158\n      jumpi\n      0x00\n      dup1\n      revert\n    tag_158:\n      pop\n      tag_159\n      0x04\n      dup1\n      calldatasize\n      sub\n      dup2\n      add\n      swap1\n      tag_160\n      swap2\n      swap1\n      tag_42\n      jump\t// in\n    tag_160:\n      tag_161\n      jump\t// in\n    tag_159:\n      stop\n        /* \"FvckClaim_flattened.sol\":33717:33746  IERC20 public immutable token */\n    tag_31:\n      callvalue\n      dup1\n      iszero\n      tag_162\n      jumpi\n      0x00\n      dup1\n      revert\n    tag_162:\n      pop\n      tag_163\n      tag_164\n      jump\t// in\n    tag_163:\n      mload(0x40)\n      tag_165\n      swap2\n      swap1\n      tag_166\n      jump\t// in\n    tag_165:\n      mload(0x40)\n      dup1\n      swap2\n      sub\n      swap1\n      return\n        /* \"FvckClaim_flattened.sol\":42695:42825  function getClaimableBalance(address _account) external view returns (uint256) {... */\n    tag_43:\n        /* \"FvckClaim_flattened.sol\":42765:42772  uint256 */\n      0x00\n        /* \"FvckClaim_flattened.sol\":42791:42808  claimableBalances */\n      0x03\n        /* \"FvckClaim_flattened.sol\":42791:42818  claimableBalances[_account] */\n      0x00\n        /* \"FvckClaim_flattened.sol\":42809:42817  _account */\n      dup4\n        /* \"FvckClaim_flattened.sol\":42791:42818  claimableBalances[_account] */\n      0xffffffffffffffffffffffffffffffffffffffff\n      and\n      0xffffffffffffffffffffffffffffffffffffffff\n      and\n      dup2\n      mstore\n      0x20\n      add\n      swap1\n      dup2\n      mstore\n      0x20\n      add\n      0x00\n      keccak256\n      sload\n        /* \"FvckClaim_flattened.sol\":42784:42818  return claimableBalances[_account] */\n      swap1\n      pop\n        /* \"FvckClaim_flattened.sol\":42695:42825  function getClaimableBalance(address _account) external view returns (uint256) {... */\n      swap2\n      swap1\n      pop\n      jump\t// out\n        /* \"FvckClaim_flattened.sol\":35028:35059  uint256 public claimApprovalFee */\n    tag_48:\n      sload(0x0e)\n      dup2\n      jump\t// out\n        /* \"FvckClaim_flattened.sol\":37242:37436  function setClaimBlockedForAddress(address _account, bool _blocked) external onlyOwner {... */\n    tag_54:\n        /* \"FvckClaim_flattened.sol\":2493:2506  _checkOwner() */\n      tag_169\n        /* \"FvckClaim_flattened.sol\":2493:2504  _checkOwner */\n      tag_170\n        /* \"FvckClaim_flattened.sol\":2493:2506  _checkOwner() */\n      jump\t// in\n    tag_169:\n        /* \"FvckClaim_flattened.sol\":37364:37372  _blocked */\n      dup1\n        /* \"FvckClaim_flattened.sol\":37339:37351  claimBlocked */\n      0x05\n        /* \"FvckClaim_flattened.sol\":37339:37361  claimBlocked[_account] */\n      0x00\n        /* \"FvckClaim_flattened.sol\":37352:37360  _account */\n      dup5\n        /* \"FvckClaim_flattened.sol\":37339:37361  claimBlocked[_account] */\n      0xffffffffffffffffffffffffffffffffffffffff\n      and\n      0xffffffffffffffffffffffffffffffffffffffff\n      and\n      dup2\n      mstore\n      0x20\n      add\n      swap1\n      dup2\n      mstore\n      0x20\n      add\n      0x00\n      keccak256\n      0x00\n        /* \"FvckClaim_flattened.sol\":37339:37372  claimBlocked[_account] = _blocked */\n      0x0100\n      exp\n      dup2\n      sload\n      dup2\n      0xff\n      mul\n      not\n      and\n      swap1\n      dup4\n      iszero\n      iszero\n      mul\n      or\n      swap1\n      sstore\n      pop\n        /* \"FvckClaim_flattened.sol\":37410:37418  _account */\n      dup2\n        /* \"FvckClaim_flattened.sol\":37387:37429  ClaimBlockedForAddress(_account, _blocked) */\n      0xffffffffffffffffffffffffffffffffffffffff\n      and\n      0x129e15046dd77be10c4cdac8841646b9f3b6d22a00544b93362e9b84c05e6960\n        /* \"FvckClaim_flattened.sol\":37420:37428  _blocked */\n      dup3\n        /* \"FvckClaim_flattened.sol\":37387:37429  ClaimBlockedForAddress(_account, _blocked) */\n      mload(0x40)\n      tag_172\n      swap2\n      swap1\n      tag_67\n      jump\t// in\n    tag_172:\n      mload(0x40)\n      dup1\n      swap2\n      sub\n      swap1\n      log2\n        /* \"FvckClaim_flattened.sol\":37242:37436  function setClaimBlockedForAddress(address _account, bool _blocked) external onlyOwner {... */\n      pop\n      pop\n      jump\t// out\n        /* \"FvckClaim_flattened.sol\":34812:34848  uint256 public lastEmergencyWithdraw */\n    tag_57:\n      sload(0x0c)\n      dup2\n      jump\t// out\n        /* \"FvckClaim_flattened.sol\":34893:34943  uint256 public emergencyWithdrawCooldown = 1 weeks */\n    tag_61:\n      sload(0x0d)\n      dup2\n      jump\t// out\n        /* \"FvckClaim_flattened.sol\":33808:33832  bool public claimEnabled */\n    tag_65:\n      0x02\n      0x00\n      swap1\n      sload\n      swap1\n      0x0100\n      exp\n      swap1\n      div\n      0xff\n      and\n      dup2\n      jump\t// out\n        /* \"FvckClaim_flattened.sol\":34364:34400  uint256 public totalAddressesClaimed */\n    tag_70:\n      sload(0x08)\n      dup2\n      jump\t// out\n        /* \"FvckClaim_flattened.sol\":41007:41222  function getUnallocatedTokens() public view returns (uint256) {... */\n    tag_74:\n        /* \"FvckClaim_flattened.sol\":41060:41067  uint256 */\n      0x00\n        /* \"FvckClaim_flattened.sol\":41079:41102  uint256 contractBalance */\n      dup1\n        /* \"FvckClaim_flattened.sol\":41105:41127  contractTokenBalance() */\n      tag_174\n        /* \"FvckClaim_flattened.sol\":41105:41125  contractTokenBalance */\n      tag_121\n        /* \"FvckClaim_flattened.sol\":41105:41127  contractTokenBalance() */\n      jump\t// in\n    tag_174:\n        /* \"FvckClaim_flattened.sol\":41079:41127  uint256 contractBalance = contractTokenBalance() */\n      swap1\n      pop\n        /* \"FvckClaim_flattened.sol\":41162:41176  totalAllocated */\n      sload(0x09)\n        /* \"FvckClaim_flattened.sol\":41144:41159  contractBalance */\n      dup2\n        /* \"FvckClaim_flattened.sol\":41144:41176  contractBalance > totalAllocated */\n      gt\n        /* \"FvckClaim_flattened.sol\":41144:41215  contractBalance > totalAllocated ? contractBalance - totalAllocated : 0 */\n      tag_175\n      jumpi\n        /* \"FvckClaim_flattened.sol\":41214:41215  0 */\n      0x00\n        /* \"FvckClaim_flattened.sol\":41144:41215  contractBalance > totalAllocated ? contractBalance - totalAllocated : 0 */\n      jump(tag_176)\n    tag_175:\n        /* \"FvckClaim_flattened.sol\":41197:41211  totalAllocated */\n      sload(0x09)\n        /* \"FvckClaim_flattened.sol\":41179:41194  contractBalance */\n      dup2\n        /* \"FvckClaim_flattened.sol\":41179:41211  contractBalance - totalAllocated */\n      tag_177\n      swap2\n      swap1\n      tag_178\n      jump\t// in\n    tag_177:\n        /* \"FvckClaim_flattened.sol\":41144:41215  contractBalance > totalAllocated ? contractBalance - totalAllocated : 0 */\n    tag_176:\n        /* \"FvckClaim_flattened.sol\":41137:41215  return contractBalance > totalAllocated ? contractBalance - totalAllocated : 0 */\n      swap2\n      pop\n      pop\n        /* \"FvckClaim_flattened.sol\":41007:41222  function getUnallocatedTokens() public view returns (uint256) {... */\n      swap1\n      jump\t// out\n        /* \"FvckClaim_flattened.sol\":34438:34467  uint256 public totalAllocated */\n    tag_78:\n      sload(0x09)\n      dup2\n      jump\t// out\n        /* \"FvckClaim_flattened.sol\":39688:40382  function claim() external nonReentrant {... */\n    tag_82:\n        /* \"FvckClaim_flattened.sol\":6358:6379  _nonReentrantBefore() */\n      tag_180\n        /* \"FvckClaim_flattened.sol\":6358:6377  _nonReentrantBefore */\n      tag_181\n        /* \"FvckClaim_flattened.sol\":6358:6379  _nonReentrantBefore() */\n      jump\t// in\n    tag_180:\n        /* \"FvckClaim_flattened.sol\":39745:39757  claimEnabled */\n      0x02\n      0x00\n      swap1\n      sload\n      swap1\n      0x0100\n      exp\n      swap1\n      div\n      0xff\n      and\n        /* \"FvckClaim_flattened.sol\":39737:39779  require(claimEnabled, \"Claim not enabled\") */\n      tag_183\n      jumpi\n      mload(0x40)\n      0x08c379a000000000000000000000000000000000000000000000000000000000\n      dup2\n      mstore\n      0x04\n      add\n      tag_184\n      swap1\n      tag_185\n      jump\t// in\n    tag_184:\n      mload(0x40)\n      dup1\n      swap2\n      sub\n      swap1\n      revert\n    tag_183:\n        /* \"FvckClaim_flattened.sol\":39798:39810  claimBlocked */\n      0x05\n        /* \"FvckClaim_flattened.sol\":39798:39822  claimBlocked[msg.sender] */\n      0x00\n        /* \"FvckClaim_flattened.sol\":39811:39821  msg.sender */\n      caller\n        /* \"FvckClaim_flattened.sol\":39798:39822  claimBlocked[msg.sender] */\n      0xffffffffffffffffffffffffffffffffffffffff\n      and\n      0xffffffffffffffffffffffffffffffffffffffff\n      and\n      dup2\n      mstore\n      0x20\n      add\n      swap1\n      dup2\n      mstore\n      0x20\n      add\n      0x00\n      keccak256\n      0x00\n      swap1\n      sload\n      swap1\n      0x0100\n      exp\n      swap1\n      div\n      0xff\n      and\n        /* \"FvckClaim_flattened.sol\":39797:39822  !claimBlocked[msg.sender] */\n      iszero\n        /* \"FvckClaim_flattened.sol\":39789:39857  require(!claimBlocked[msg.sender], \"Claim blocked for this address\") */\n      tag_186\n      jumpi\n      mload(0x40)\n      0x08c379a000000000000000000000000000000000000000000000000000000000\n      dup2\n      mstore\n      0x04\n      add\n      tag_187\n      swap1\n      tag_188\n      jump\t// in\n    tag_187:\n      mload(0x40)\n      dup1\n      swap2\n      sub\n      swap1\n      revert\n    tag_186:\n        /* \"FvckClaim_flattened.sol\":39875:39891  approvedForClaim */\n      0x06\n        /* \"FvckClaim_flattened.sol\":39875:39903  approvedForClaim[msg.sender] */\n      0x00\n        /* \"FvckClaim_flattened.sol\":39892:39902  msg.sender */\n      caller\n        /* \"FvckClaim_flattened.sol\":39875:39903  approvedForClaim[msg.sender] */\n      0xffffffffffffffffffffffffffffffffffffffff\n      and\n      0xffffffffffffffffffffffffffffffffffffffff\n      and\n      dup2\n      mstore\n      0x20\n      add\n      swap1\n      dup2\n      mstore\n      0x20\n      add\n      0x00\n      keccak256\n      0x00\n      swap1\n      sload\n      swap1\n      0x0100\n      exp\n      swap1\n      div\n      0xff\n      and\n        /* \"FvckClaim_flattened.sol\":39867:39929  require(approvedForClaim[msg.sender], \"Approval fee not paid\") */\n      tag_189\n      jumpi\n      mload(0x40)\n      0x08c379a000000000000000000000000000000000000000000000000000000000\n      dup2\n      mstore\n      0x04\n      add\n      tag_190\n      swap1\n      tag_191\n      jump\t// in\n    tag_190:\n      mload(0x40)\n      dup1\n      swap2\n      sub\n      swap1\n      revert\n    tag_189:\n        /* \"FvckClaim_flattened.sol\":39939:39953  uint256 amount */\n      0x00\n        /* \"FvckClaim_flattened.sol\":39956:39973  claimableBalances */\n      0x03\n        /* \"FvckClaim_flattened.sol\":39956:39985  claimableBalances[msg.sender] */\n      0x00\n        /* \"FvckClaim_flattened.sol\":39974:39984  msg.sender */\n      caller\n        /* \"FvckClaim_flattened.sol\":39956:39985  claimableBalances[msg.sender] */\n      0xffffffffffffffffffffffffffffffffffffffff\n      and\n      0xffffffffffffffffffffffffffffffffffffffff\n      and\n      dup2\n      mstore\n      0x20\n      add\n      swap1\n      dup2\n      mstore\n      0x20\n      add\n      0x00\n      keccak256\n      sload\n        /* \"FvckClaim_flattened.sol\":39939:39985  uint256 amount = claimableBalances[msg.sender] */\n      swap1\n      pop\n        /* \"FvckClaim_flattened.sol\":40012:40013  0 */\n      0x00\n        /* \"FvckClaim_flattened.sol\":40003:40009  amount */\n      dup2\n        /* \"FvckClaim_flattened.sol\":40003:40013  amount > 0 */\n      gt\n        /* \"FvckClaim_flattened.sol\":39995:40046  require(amount > 0, \"You have no balance to claim\") */\n      tag_192\n      jumpi\n      mload(0x40)\n      0x08c379a000000000000000000000000000000000000000000000000000000000\n      dup2\n      mstore\n      0x04\n      add\n      tag_193\n      swap1\n      tag_194\n      jump\t// in\n    tag_193:\n      mload(0x40)\n      dup1\n      swap2\n      sub\n      swap1\n      revert\n    tag_192:\n        /* \"FvckClaim_flattened.sol\":40072:40082  msg.sender */\n      caller\n        /* \"FvckClaim_flattened.sol\":40062:40091  ClaimMade(msg.sender, amount) */\n      0xffffffffffffffffffffffffffffffffffffffff\n      and\n      0x9e09de4b8e45666deb3ec2bc8225f07988e54ef533eec97cb0b4610127183d79\n        /* \"FvckClaim_flattened.sol\":40084:40090  amount */\n      dup3\n        /* \"FvckClaim_flattened.sol\":40062:40091  ClaimMade(msg.sender, amount) */\n      mload(0x40)\n      tag_195\n      swap2\n      swap1\n      tag_45\n      jump\t// in\n    tag_195:\n      mload(0x40)\n      dup1\n      swap2\n      sub\n      swap1\n      log2\n        /* \"FvckClaim_flattened.sol\":40134:40135  0 */\n      0x00\n        /* \"FvckClaim_flattened.sol\":40102:40119  claimableBalances */\n      0x03\n        /* \"FvckClaim_flattened.sol\":40102:40131  claimableBalances[msg.sender] */\n      0x00\n        /* \"FvckClaim_flattened.sol\":40120:40130  msg.sender */\n      caller\n        /* \"FvckClaim_flattened.sol\":40102:40131  claimableBalances[msg.sender] */\n      0xffffffffffffffffffffffffffffffffffffffff\n      and\n      0xffffffffffffffffffffffffffffffffffffffff\n      and\n      dup2\n      mstore\n      0x20\n      add\n      swap1\n      dup2\n      mstore\n      0x20\n      add\n      0x00\n      keccak256\n        /* \"FvckClaim_flattened.sol\":40102:40135  claimableBalances[msg.sender] = 0 */\n      dup2\n      swap1\n      sstore\n      pop\n        /* \"FvckClaim_flattened.sol\":40163:40169  amount */\n      dup1\n        /* \"FvckClaim_flattened.sol\":40145:40159  totalAllocated */\n      0x09\n      0x00\n        /* \"FvckClaim_flattened.sol\":40145:40169  totalAllocated -= amount */\n      dup3\n      dup3\n      sload\n      tag_196\n      swap2\n      swap1\n      tag_178\n      jump\t// in\n    tag_196:\n      swap3\n      pop\n      pop\n      dup2\n      swap1\n      sstore\n      pop\n        /* \"FvckClaim_flattened.sol\":40179:40200  totalAddressesClaimed */\n      0x08\n      0x00\n        /* \"FvckClaim_flattened.sol\":40179:40202  totalAddressesClaimed++ */\n      dup2\n      sload\n      dup1\n      swap3\n      swap2\n      swap1\n      tag_197\n      swap1\n      tag_198\n      jump\t// in\n    tag_197:\n      swap2\n      swap1\n      pop\n      sstore\n      pop\n        /* \"FvckClaim_flattened.sol\":40243:40249  amount */\n      dup1\n        /* \"FvckClaim_flattened.sol\":40212:40227  claimedBalances */\n      0x04\n        /* \"FvckClaim_flattened.sol\":40212:40239  claimedBalances[msg.sender] */\n      0x00\n        /* \"FvckClaim_flattened.sol\":40228:40238  msg.sender */\n      caller\n        /* \"FvckClaim_flattened.sol\":40212:40239  claimedBalances[msg.sender] */\n      0xffffffffffffffffffffffffffffffffffffffff\n      and\n      0xffffffffffffffffffffffffffffffffffffffff\n      and\n      dup2\n      mstore\n      0x20\n      add\n      swap1\n      dup2\n      mstore\n      0x20\n      add\n      0x00\n      keccak256\n      0x00\n        /* \"FvckClaim_flattened.sol\":40212:40249  claimedBalances[msg.sender] += amount */\n      dup3\n      dup3\n      sload\n      tag_199\n      swap2\n      swap1\n      tag_200\n      jump\t// in\n    tag_199:\n      swap3\n      pop\n      pop\n      dup2\n      swap1\n      sstore\n      pop\n        /* \"FvckClaim_flattened.sol\":40291:40296  false */\n      0x00\n        /* \"FvckClaim_flattened.sol\":40260:40276  approvedForClaim */\n      0x06\n        /* \"FvckClaim_flattened.sol\":40260:40288  approvedForClaim[msg.sender] */\n      0x00\n        /* \"FvckClaim_flattened.sol\":40277:40287  msg.sender */\n      caller\n        /* \"FvckClaim_flattened.sol\":40260:40288  approvedForClaim[msg.sender] */\n      0xffffffffffffffffffffffffffffffffffffffff\n      and\n      0xffffffffffffffffffffffffffffffffffffffff\n      and\n      dup2\n      mstore\n      0x20\n      add\n      swap1\n      dup2\n      mstore\n      0x20\n      add\n      0x00\n      keccak256\n      0x00\n        /* \"FvckClaim_flattened.sol\":40260:40296  approvedForClaim[msg.sender] = false */\n      0x0100\n      exp\n      dup2\n      sload\n      dup2\n      0xff\n      mul\n      not\n      and\n      swap1\n      dup4\n      iszero\n      iszero\n      mul\n      or\n      swap1\n      sstore\n      pop\n        /* \"FvckClaim_flattened.sol\":40337:40375  token.safeTransfer(msg.sender, amount) */\n      tag_201\n        /* \"FvckClaim_flattened.sol\":40356:40366  msg.sender */\n      caller\n        /* \"FvckClaim_flattened.sol\":40368:40374  amount */\n      dup3\n        /* \"FvckClaim_flattened.sol\":40337:40342  token */\n      immutable(\"0xe9e0475224745f570c2fa5a2212581dbb763b0b604cf1588d130cda3bdffbf52\")\n        /* \"FvckClaim_flattened.sol\":40337:40355  token.safeTransfer */\n      0xffffffffffffffffffffffffffffffffffffffff\n      and\n      tag_202\n      swap1\n        /* \"FvckClaim_flattened.sol\":40337:40375  token.safeTransfer(msg.sender, amount) */\n      swap3\n      swap2\n      swap1\n      0xffffffff\n      and\n      jump\t// in\n    tag_201:\n        /* \"FvckClaim_flattened.sol\":39727:40382  {... */\n      pop\n        /* \"FvckClaim_flattened.sol\":6400:6420  _nonReentrantAfter() */\n      tag_203\n        /* \"FvckClaim_flattened.sol\":6400:6418  _nonReentrantAfter */\n      tag_204\n        /* \"FvckClaim_flattened.sol\":6400:6420  _nonReentrantAfter() */\n      jump\t// in\n    tag_203:\n        /* \"FvckClaim_flattened.sol\":39688:40382  function claim() external nonReentrant {... */\n      jump\t// out\n        /* \"FvckClaim_flattened.sol\":42966:43090  function getTotalClaimed(address _account) external view returns (uint256) {... */\n    tag_86:\n        /* \"FvckClaim_flattened.sol\":43032:43039  uint256 */\n      0x00\n        /* \"FvckClaim_flattened.sol\":43058:43073  claimedBalances */\n      0x04\n        /* \"FvckClaim_flattened.sol\":43058:43083  claimedBalances[_account] */\n      0x00\n        /* \"FvckClaim_flattened.sol\":43074:43082  _account */\n      dup4\n        /* \"FvckClaim_flattened.sol\":43058:43083  claimedBalances[_account] */\n      0xffffffffffffffffffffffffffffffffffffffff\n      and\n      0xffffffffffffffffffffffffffffffffffffffff\n      and\n      dup2\n      mstore\n      0x20\n      add\n      swap1\n      dup2\n      mstore\n      0x20\n      add\n      0x00\n      keccak256\n      sload\n        /* \"FvckClaim_flattened.sol\":43051:43083  return claimedBalances[_account] */\n      swap1\n      pop\n        /* \"FvckClaim_flattened.sol\":42966:43090  function getTotalClaimed(address _account) external view returns (uint256) {... */\n      swap2\n      swap1\n      pop\n      jump\t// out\n        /* \"FvckClaim_flattened.sol\":34289:34328  uint256 public totalRegisteredAddresses */\n    tag_90:\n      sload(0x07)\n      dup2\n      jump\t// out\n        /* \"FvckClaim_flattened.sol\":3255:3356  function renounceOwnership() public virtual onlyOwner {... */\n    tag_94:\n        /* \"FvckClaim_flattened.sol\":2493:2506  _checkOwner() */\n      tag_207\n        /* \"FvckClaim_flattened.sol\":2493:2504  _checkOwner */\n      tag_170\n        /* \"FvckClaim_flattened.sol\":2493:2506  _checkOwner() */\n      jump\t// in\n    tag_207:\n        /* \"FvckClaim_flattened.sol\":3319:3349  _transferOwnership(address(0)) */\n      tag_209\n        /* \"FvckClaim_flattened.sol\":3346:3347  0 */\n      0x00\n        /* \"FvckClaim_flattened.sol\":3319:3337  _transferOwnership */\n      tag_210\n        /* \"FvckClaim_flattened.sol\":3319:3349  _transferOwnership(address(0)) */\n      jump\t// in\n    tag_209:\n        /* \"FvckClaim_flattened.sol\":3255:3356  function renounceOwnership() public virtual onlyOwner {... */\n      jump\t// out\n        /* \"FvckClaim_flattened.sol\":34703:34772  uint256 public maxAllocationPerAddress = 500000 * DECIMALS_MULTIPLIER */\n    tag_97:\n      sload(0x0b)\n      dup2\n      jump\t// out\n        /* \"FvckClaim_flattened.sol\":2600:2685  function owner() public view virtual returns (address) {... */\n    tag_101:\n        /* \"FvckClaim_flattened.sol\":2646:2653  address */\n      0x00\n        /* \"FvckClaim_flattened.sol\":2672:2678  _owner */\n      dup1\n      0x00\n      swap1\n      sload\n      swap1\n      0x0100\n      exp\n      swap1\n      div\n      0xffffffffffffffffffffffffffffffffffffffff\n      and\n        /* \"FvckClaim_flattened.sol\":2665:2678  return _owner */\n      swap1\n      pop\n        /* \"FvckClaim_flattened.sol\":2600:2685  function owner() public view virtual returns (address) {... */\n      swap1\n      jump\t// out\n        /* \"FvckClaim_flattened.sol\":34096:34140  mapping(address => bool) public claimBlocked */\n    tag_107:\n      mstore(0x20, 0x05)\n      dup1\n      0x00\n      mstore\n      keccak256(0x00, 0x40)\n      0x00\n      swap2\n      pop\n      sload\n      swap1\n      0x0100\n      exp\n      swap1\n      div\n      0xff\n      and\n      dup2\n      jump\t// out\n        /* \"FvckClaim_flattened.sol\":36828:36964  function setClaimEnabled(bool _enabled) external onlyOwner {... */\n    tag_113:\n        /* \"FvckClaim_flattened.sol\":2493:2506  _checkOwner() */\n      tag_213\n        /* \"FvckClaim_flattened.sol\":2493:2504  _checkOwner */\n      tag_170\n        /* \"FvckClaim_flattened.sol\":2493:2506  _checkOwner() */\n      jump\t// in\n    tag_213:\n        /* \"FvckClaim_flattened.sol\":36912:36920  _enabled */\n      dup1\n        /* \"FvckClaim_flattened.sol\":36897:36909  claimEnabled */\n      0x02\n      0x00\n        /* \"FvckClaim_flattened.sol\":36897:36920  claimEnabled = _enabled */\n      0x0100\n      exp\n      dup2\n      sload\n      dup2\n      0xff\n      mul\n      not\n      and\n      swap1\n      dup4\n      iszero\n      iszero\n      mul\n      or\n      swap1\n      sstore\n      pop\n        /* \"FvckClaim_flattened.sol\":36935:36957  ClaimEnabled(_enabled) */\n      0x1edd4dc7f91a5992aba0f39c0428bcf4df13d001eebc26eb188307d057f14a07\n        /* \"FvckClaim_flattened.sol\":36948:36956  _enabled */\n      dup2\n        /* \"FvckClaim_flattened.sol\":36935:36957  ClaimEnabled(_enabled) */\n      mload(0x40)\n      tag_215\n      swap2\n      swap1\n      tag_67\n      jump\t// in\n    tag_215:\n      mload(0x40)\n      dup1\n      swap2\n      sub\n      swap1\n      log1\n        /* \"FvckClaim_flattened.sol\":36828:36964  function setClaimEnabled(bool _enabled) external onlyOwner {... */\n      pop\n      jump\t// out\n        /* \"FvckClaim_flattened.sol\":34199:34247  mapping(address => bool) public approvedForClaim */\n    tag_117:\n      mstore(0x20, 0x06)\n      dup1\n      0x00\n      mstore\n      keccak256(0x00, 0x40)\n      0x00\n      swap2\n      pop\n      sload\n      swap1\n      0x0100\n      exp\n      swap1\n      div\n      0xff\n      and\n      dup2\n      jump\t// out\n        /* \"FvckClaim_flattened.sol\":40791:40907  function contractTokenBalance() public view returns (uint256) {... */\n    tag_121:\n        /* \"FvckClaim_flattened.sol\":40844:40851  uint256 */\n      0x00\n        /* \"FvckClaim_flattened.sol\":40870:40875  token */\n      immutable(\"0xe9e0475224745f570c2fa5a2212581dbb763b0b604cf1588d130cda3bdffbf52\")\n        /* \"FvckClaim_flattened.sol\":40870:40885  token.balanceOf */\n      0xffffffffffffffffffffffffffffffffffffffff\n      and\n      0x70a08231\n        /* \"FvckClaim_flattened.sol\":40894:40898  this */\n      address\n        /* \"FvckClaim_flattened.sol\":40870:40900  token.balanceOf(address(this)) */\n      mload(0x40)\n      dup3\n      0xffffffff\n      and\n      0xe0\n      shl\n      dup2\n      mstore\n      0x04\n      add\n      tag_217\n      swap2\n      swap1\n      tag_103\n      jump\t// in\n    tag_217:\n      0x20\n      mload(0x40)\n      dup1\n      dup4\n      sub\n      dup2\n      dup7\n      gas\n      staticcall\n      iszero\n      dup1\n      iszero\n      tag_219\n      jumpi\n      returndatasize\n      0x00\n      dup1\n      returndatacopy\n      revert(0x00, returndatasize)\n    tag_219:\n      pop\n      pop\n      pop\n      pop\n      mload(0x40)\n      returndatasize\n      not(0x1f)\n      0x1f\n      dup3\n      add\n      and\n      dup3\n      add\n      dup1\n      0x40\n      mstore\n      pop\n      dup2\n      add\n      swap1\n      tag_220\n      swap2\n      swap1\n      tag_221\n      jump\t// in\n    tag_220:\n        /* \"FvckClaim_flattened.sol\":40863:40900  return token.balanceOf(address(this)) */\n      swap1\n      pop\n        /* \"FvckClaim_flattened.sol\":40791:40907  function contractTokenBalance() public view returns (uint256) {... */\n      swap1\n      jump\t// out\n        /* \"FvckClaim_flattened.sol\":36514:36719  function approveClaim() external payable {... */\n    tag_124:\n        /* \"FvckClaim_flattened.sol\":36586:36602  claimApprovalFee */\n      sload(0x0e)\n        /* \"FvckClaim_flattened.sol\":36573:36582  msg.value */\n      callvalue\n        /* \"FvckClaim_flattened.sol\":36573:36602  msg.value == claimApprovalFee */\n      eq\n        /* \"FvckClaim_flattened.sol\":36565:36627  require(msg.value == claimApprovalFee, \"Incorrect fee amount\") */\n      tag_223\n      jumpi\n      mload(0x40)\n      0x08c379a000000000000000000000000000000000000000000000000000000000\n      dup2\n      mstore\n      0x04\n      add\n      tag_224\n      swap1\n      tag_225\n      jump\t// in\n    tag_224:\n      mload(0x40)\n      dup1\n      swap2\n      sub\n      swap1\n      revert\n    tag_223:\n        /* \"FvckClaim_flattened.sol\":36668:36672  true */\n      0x01\n        /* \"FvckClaim_flattened.sol\":36637:36653  approvedForClaim */\n      0x06\n        /* \"FvckClaim_flattened.sol\":36637:36665  approvedForClaim[msg.sender] */\n      0x00\n        /* \"FvckClaim_flattened.sol\":36654:36664  msg.sender */\n      caller\n        /* \"FvckClaim_flattened.sol\":36637:36665  approvedForClaim[msg.sender] */\n      0xffffffffffffffffffffffffffffffffffffffff\n      and\n      0xffffffffffffffffffffffffffffffffffffffff\n      and\n      dup2\n      mstore\n      0x20\n      add\n      swap1\n      dup2\n      mstore\n      0x20\n      add\n      0x00\n      keccak256\n      0x00\n        /* \"FvckClaim_flattened.sol\":36637:36672  approvedForClaim[msg.sender] = true */\n      0x0100\n      exp\n      dup2\n      sload\n      dup2\n      0xff\n      mul\n      not\n      and\n      swap1\n      dup4\n      iszero\n      iszero\n      mul\n      or\n      swap1\n      sstore\n      pop\n        /* \"FvckClaim_flattened.sol\":36701:36711  msg.sender */\n      caller\n        /* \"FvckClaim_flattened.sol\":36687:36712  ClaimApproved(msg.sender) */\n      0xffffffffffffffffffffffffffffffffffffffff\n      and\n      0xb7fa0f30e1ede3196616147dfdf6c94e47523298677b4f7b0c61027a9f0ebf54\n      mload(0x40)\n      mload(0x40)\n      dup1\n      swap2\n      sub\n      swap1\n      log2\n        /* \"FvckClaim_flattened.sol\":36514:36719  function approveClaim() external payable {... */\n      jump\t// out\n        /* \"FvckClaim_flattened.sol\":43220:43415  function canClaim(address _account) external view returns (bool) {... */\n    tag_128:\n        /* \"FvckClaim_flattened.sol\":43279:43283  bool */\n      0x00\n        /* \"FvckClaim_flattened.sol\":43303:43315  claimEnabled */\n      0x02\n      0x00\n      swap1\n      sload\n      swap1\n      0x0100\n      exp\n      swap1\n      div\n      0xff\n      and\n        /* \"FvckClaim_flattened.sol\":43303:43342  claimEnabled && !claimBlocked[_account] */\n      dup1\n      iszero\n      tag_227\n      jumpi\n      pop\n        /* \"FvckClaim_flattened.sol\":43320:43332  claimBlocked */\n      0x05\n        /* \"FvckClaim_flattened.sol\":43320:43342  claimBlocked[_account] */\n      0x00\n        /* \"FvckClaim_flattened.sol\":43333:43341  _account */\n      dup4\n        /* \"FvckClaim_flattened.sol\":43320:43342  claimBlocked[_account] */\n      0xffffffffffffffffffffffffffffffffffffffff\n      and\n      0xffffffffffffffffffffffffffffffffffffffff\n      and\n      dup2\n      mstore\n      0x20\n      add\n      swap1\n      dup2\n      mstore\n      0x20\n      add\n      0x00\n      keccak256\n      0x00\n      swap1\n      sload\n      swap1\n      0x0100\n      exp\n      swap1\n      div\n      0xff\n      and\n        /* \"FvckClaim_flattened.sol\":43319:43342  !claimBlocked[_account] */\n      iszero\n        /* \"FvckClaim_flattened.sol\":43303:43342  claimEnabled && !claimBlocked[_account] */\n    tag_227:\n        /* \"FvckClaim_flattened.sol\":43303:43372  claimEnabled && !claimBlocked[_account] && approvedForClaim[_account] */\n      dup1\n      iszero\n      tag_228\n      jumpi\n      pop\n        /* \"FvckClaim_flattened.sol\":43346:43362  approvedForClaim */\n      0x06\n        /* \"FvckClaim_flattened.sol\":43346:43372  approvedForClaim[_account] */\n      0x00\n        /* \"FvckClaim_flattened.sol\":43363:43371  _account */\n      dup4\n        /* \"FvckClaim_flattened.sol\":43346:43372  approvedForClaim[_account] */\n      0xffffffffffffffffffffffffffffffffffffffff\n      and\n      0xffffffffffffffffffffffffffffffffffffffff\n      and\n      dup2\n      mstore\n      0x20\n      add\n      swap1\n      dup2\n      mstore\n      0x20\n      add\n      0x00\n      keccak256\n      0x00\n      swap1\n      sload\n      swap1\n      0x0100\n      exp\n      swap1\n      div\n      0xff\n      and\n        /* \"FvckClaim_flattened.sol\":43303:43372  claimEnabled && !claimBlocked[_account] && approvedForClaim[_account] */\n    tag_228:\n        /* \"FvckClaim_flattened.sol\":43303:43407  claimEnabled && !claimBlocked[_account] && approvedForClaim[_account] && claimableBalances[_account] > 0 */\n      dup1\n      iszero\n      tag_229\n      jumpi\n      pop\n        /* \"FvckClaim_flattened.sol\":43406:43407  0 */\n      0x00\n        /* \"FvckClaim_flattened.sol\":43376:43393  claimableBalances */\n      0x03\n        /* \"FvckClaim_flattened.sol\":43376:43403  claimableBalances[_account] */\n      0x00\n        /* \"FvckClaim_flattened.sol\":43394:43402  _account */\n      dup5\n        /* \"FvckClaim_flattened.sol\":43376:43403  claimableBalances[_account] */\n      0xffffffffffffffffffffffffffffffffffffffff\n      and\n      0xffffffffffffffffffffffffffffffffffffffff\n      and\n      dup2\n      mstore\n      0x20\n      add\n      swap1\n      dup2\n      mstore\n      0x20\n      add\n      0x00\n      keccak256\n      sload\n        /* \"FvckClaim_flattened.sol\":43376:43407  claimableBalances[_account] > 0 */\n      gt\n        /* \"FvckClaim_flattened.sol\":43303:43407  claimEnabled && !claimBlocked[_account] && approvedForClaim[_account] && claimableBalances[_account] > 0 */\n    tag_229:\n        /* \"FvckClaim_flattened.sol\":43295:43408  return (claimEnabled && !claimBlocked[_account] && approvedForClaim[_account] && claimableBalances[_account] > 0) */\n      swap1\n      pop\n        /* \"FvckClaim_flattened.sol\":43220:43415  function canClaim(address _account) external view returns (bool) {... */\n      swap2\n      swap1\n      pop\n      jump\t// out\n        /* \"FvckClaim_flattened.sol\":43501:44010  function getStats()... */\n    tag_132:\n        /* \"FvckClaim_flattened.sol\":43581:43605  uint256 _totalRegistered */\n      0x00\n        /* \"FvckClaim_flattened.sol\":43619:43640  uint256 _totalClaimed */\n      dup1\n        /* \"FvckClaim_flattened.sol\":43654:43683  uint256 _totalContractBalance */\n      0x00\n        /* \"FvckClaim_flattened.sol\":43697:43720  uint256 _totalAllocated */\n      dup1\n        /* \"FvckClaim_flattened.sol\":43734:43752  bool _claimEnabled */\n      0x00\n        /* \"FvckClaim_flattened.sol\":43796:43820  totalRegisteredAddresses */\n      sload(0x07)\n        /* \"FvckClaim_flattened.sol\":43777:43820  _totalRegistered = totalRegisteredAddresses */\n      swap5\n      pop\n        /* \"FvckClaim_flattened.sol\":43846:43867  totalAddressesClaimed */\n      sload(0x08)\n        /* \"FvckClaim_flattened.sol\":43830:43867  _totalClaimed = totalAddressesClaimed */\n      swap4\n      pop\n        /* \"FvckClaim_flattened.sol\":43901:43923  contractTokenBalance() */\n      tag_231\n        /* \"FvckClaim_flattened.sol\":43901:43921  contractTokenBalance */\n      tag_121\n        /* \"FvckClaim_flattened.sol\":43901:43923  contractTokenBalance() */\n      jump\t// in\n    tag_231:\n        /* \"FvckClaim_flattened.sol\":43877:43923  _totalContractBalance = contractTokenBalance() */\n      swap3\n      pop\n        /* \"FvckClaim_flattened.sol\":43951:43965  totalAllocated */\n      sload(0x09)\n        /* \"FvckClaim_flattened.sol\":43933:43965  _totalAllocated = totalAllocated */\n      swap2\n      pop\n        /* \"FvckClaim_flattened.sol\":43991:44003  claimEnabled */\n      0x02\n      0x00\n      swap1\n      sload\n      swap1\n      0x0100\n      exp\n      swap1\n      div\n      0xff\n      and\n        /* \"FvckClaim_flattened.sol\":43975:44003  _claimEnabled = claimEnabled */\n      swap1\n      pop\n        /* \"FvckClaim_flattened.sol\":43501:44010  function getStats()... */\n      swap1\n      swap2\n      swap3\n      swap4\n      swap5\n      jump\t// out\n        /* \"FvckClaim_flattened.sol\":38223:39571  function addClaimableBatch(... */\n    tag_139:\n        /* \"FvckClaim_flattened.sol\":2493:2506  _checkOwner() */\n      tag_233\n        /* \"FvckClaim_flattened.sol\":2493:2504  _checkOwner */\n      tag_170\n        /* \"FvckClaim_flattened.sol\":2493:2506  _checkOwner() */\n      jump\t// in\n    tag_233:\n        /* \"FvckClaim_flattened.sol\":38401:38409  _amounts */\n      dup2\n      dup2\n        /* \"FvckClaim_flattened.sol\":38401:38416  _amounts.length */\n      swap1\n      pop\n        /* \"FvckClaim_flattened.sol\":38381:38390  _accounts */\n      dup5\n      dup5\n        /* \"FvckClaim_flattened.sol\":38381:38397  _accounts.length */\n      swap1\n      pop\n        /* \"FvckClaim_flattened.sol\":38381:38416  _accounts.length == _amounts.length */\n      eq\n        /* \"FvckClaim_flattened.sol\":38360:38468  require(... */\n      tag_235\n      jumpi\n      mload(0x40)\n      0x08c379a000000000000000000000000000000000000000000000000000000000\n      dup2\n      mstore\n      0x04\n      add\n      tag_236\n      swap1\n      tag_237\n      jump\t// in\n    tag_236:\n      mload(0x40)\n      dup1\n      swap2\n      sub\n      swap1\n      revert\n    tag_235:\n        /* \"FvckClaim_flattened.sol\":38479:38505  uint256 newTotalToAllocate */\n      0x00\n        /* \"FvckClaim_flattened.sol\":38525:38534  uint256 i */\n      dup1\n        /* \"FvckClaim_flattened.sol\":38520:39299  for (uint256 i = 0; i < _accounts.length; i++) {... */\n    tag_238:\n        /* \"FvckClaim_flattened.sol\":38544:38553  _accounts */\n      dup6\n      dup6\n        /* \"FvckClaim_flattened.sol\":38544:38560  _accounts.length */\n      swap1\n      pop\n        /* \"FvckClaim_flattened.sol\":38540:38541  i */\n      dup2\n        /* \"FvckClaim_flattened.sol\":38540:38560  i < _accounts.length */\n      lt\n        /* \"FvckClaim_flattened.sol\":38520:39299  for (uint256 i = 0; i < _accounts.length; i++) {... */\n      iszero\n      tag_239\n      jumpi\n        /* \"FvckClaim_flattened.sol\":38581:38596  address account */\n      0x00\n        /* \"FvckClaim_flattened.sol\":38599:38608  _accounts */\n      dup7\n      dup7\n        /* \"FvckClaim_flattened.sol\":38609:38610  i */\n      dup4\n        /* \"FvckClaim_flattened.sol\":38599:38611  _accounts[i] */\n      dup2\n      dup2\n      lt\n      tag_241\n      jumpi\n      tag_242\n      tag_243\n      jump\t// in\n    tag_242:\n    tag_241:\n      swap1\n      pop\n      0x20\n      mul\n      add\n      0x20\n      dup2\n      add\n      swap1\n      tag_244\n      swap2\n      swap1\n      tag_42\n      jump\t// in\n    tag_244:\n        /* \"FvckClaim_flattened.sol\":38581:38611  address account = _accounts[i] */\n      swap1\n      pop\n        /* \"FvckClaim_flattened.sol\":38625:38639  uint256 amount */\n      0x00\n        /* \"FvckClaim_flattened.sol\":34659:34667  10 ** 18 */\n      0x0de0b6b3a7640000\n        /* \"FvckClaim_flattened.sol\":38642:38650  _amounts */\n      dup7\n      dup7\n        /* \"FvckClaim_flattened.sol\":38651:38652  i */\n      dup6\n        /* \"FvckClaim_flattened.sol\":38642:38653  _amounts[i] */\n      dup2\n      dup2\n      lt\n      tag_245\n      jumpi\n      tag_246\n      tag_243\n      jump\t// in\n    tag_246:\n    tag_245:\n      swap1\n      pop\n      0x20\n      mul\n      add\n      calldataload\n        /* \"FvckClaim_flattened.sol\":38642:38675  _amounts[i] * DECIMALS_MULTIPLIER */\n      tag_247\n      swap2\n      swap1\n      tag_248\n      jump\t// in\n    tag_247:\n        /* \"FvckClaim_flattened.sol\":38625:38675  uint256 amount = _amounts[i] * DECIMALS_MULTIPLIER */\n      swap1\n      pop\n        /* \"FvckClaim_flattened.sol\":38721:38722  0 */\n      0x00\n        /* \"FvckClaim_flattened.sol\":38698:38705  account */\n      dup3\n        /* \"FvckClaim_flattened.sol\":38698:38717  account.code.length */\n      0xffffffffffffffffffffffffffffffffffffffff\n      and\n      extcodesize\n        /* \"FvckClaim_flattened.sol\":38698:38722  account.code.length == 0 */\n      eq\n        /* \"FvckClaim_flattened.sol\":38690:38747  require(account.code.length == 0, \"Cannot be a contract\") */\n      tag_249\n      jumpi\n      mload(0x40)\n      0x08c379a000000000000000000000000000000000000000000000000000000000\n      dup2\n      mstore\n      0x04\n      add\n      tag_250\n      swap1\n      tag_251\n      jump\t// in\n    tag_250:\n      mload(0x40)\n      dup1\n      swap2\n      sub\n      swap1\n      revert\n    tag_249:\n        /* \"FvckClaim_flattened.sol\":38825:38848  maxAllocationPerAddress */\n      sload(0x0b)\n        /* \"FvckClaim_flattened.sol\":38815:38821  amount */\n      dup2\n        /* \"FvckClaim_flattened.sol\":38786:38803  claimableBalances */\n      0x03\n        /* \"FvckClaim_flattened.sol\":38786:38812  claimableBalances[account] */\n      0x00\n        /* \"FvckClaim_flattened.sol\":38804:38811  account */\n      dup6\n        /* \"FvckClaim_flattened.sol\":38786:38812  claimableBalances[account] */\n      0xffffffffffffffffffffffffffffffffffffffff\n      and\n      0xffffffffffffffffffffffffffffffffffffffff\n      and\n      dup2\n      mstore\n      0x20\n      add\n      swap1\n      dup2\n      mstore\n      0x20\n      add\n      0x00\n      keccak256\n      sload\n        /* \"FvckClaim_flattened.sol\":38786:38821  claimableBalances[account] + amount */\n      tag_252\n      swap2\n      swap1\n      tag_200\n      jump\t// in\n    tag_252:\n        /* \"FvckClaim_flattened.sol\":38786:38848  claimableBalances[account] + amount <= maxAllocationPerAddress */\n      gt\n      iszero\n        /* \"FvckClaim_flattened.sol\":38761:38914  require(... */\n      tag_253\n      jumpi\n      mload(0x40)\n      0x08c379a000000000000000000000000000000000000000000000000000000000\n      dup2\n      mstore\n      0x04\n      add\n      tag_254\n      swap1\n      tag_255\n      jump\t// in\n    tag_254:\n      mload(0x40)\n      dup1\n      swap2\n      sub\n      swap1\n      revert\n    tag_253:\n        /* \"FvckClaim_flattened.sol\":38934:38947  _isRegistered */\n      0x0a\n        /* \"FvckClaim_flattened.sol\":38934:38956  _isRegistered[account] */\n      0x00\n        /* \"FvckClaim_flattened.sol\":38948:38955  account */\n      dup4\n        /* \"FvckClaim_flattened.sol\":38934:38956  _isRegistered[account] */\n      0xffffffffffffffffffffffffffffffffffffffff\n      and\n      0xffffffffffffffffffffffffffffffffffffffff\n      and\n      dup2\n      mstore\n      0x20\n      add\n      swap1\n      dup2\n      mstore\n      0x20\n      add\n      0x00\n      keccak256\n      0x00\n      swap1\n      sload\n      swap1\n      0x0100\n      exp\n      swap1\n      div\n      0xff\n      and\n        /* \"FvckClaim_flattened.sol\":38929:39116  if (!_isRegistered[account]) {... */\n      tag_256\n      jumpi\n        /* \"FvckClaim_flattened.sol\":39001:39005  true */\n      0x01\n        /* \"FvckClaim_flattened.sol\":38976:38989  _isRegistered */\n      0x0a\n        /* \"FvckClaim_flattened.sol\":38976:38998  _isRegistered[account] */\n      0x00\n        /* \"FvckClaim_flattened.sol\":38990:38997  account */\n      dup5\n        /* \"FvckClaim_flattened.sol\":38976:38998  _isRegistered[account] */\n      0xffffffffffffffffffffffffffffffffffffffff\n      and\n      0xffffffffffffffffffffffffffffffffffffffff\n      and\n      dup2\n      mstore\n      0x20\n      add\n      swap1\n      dup2\n      mstore\n      0x20\n      add\n      0x00\n      keccak256\n      0x00\n        /* \"FvckClaim_flattened.sol\":38976:39005  _isRegistered[account] = true */\n      0x0100\n      exp\n      dup2\n      sload\n      dup2\n      0xff\n      mul\n      not\n      and\n      swap1\n      dup4\n      iszero\n      iszero\n      mul\n      or\n      swap1\n      sstore\n      pop\n        /* \"FvckClaim_flattened.sol\":39023:39047  totalRegisteredAddresses */\n      0x07\n      0x00\n        /* \"FvckClaim_flattened.sol\":39023:39049  totalRegisteredAddresses++ */\n      dup2\n      sload\n      dup1\n      swap3\n      swap2\n      swap1\n      tag_257\n      swap1\n      tag_198\n      jump\t// in\n    tag_257:\n      swap2\n      swap1\n      pop\n      sstore\n      pop\n        /* \"FvckClaim_flattened.sol\":39093:39100  account */\n      dup2\n        /* \"FvckClaim_flattened.sol\":39072:39101  NewAddressRegistered(account) */\n      0xffffffffffffffffffffffffffffffffffffffff\n      and\n      0x1837db44f707818dfce8415ef80a201e86882bc1bffabdded272512a96c0799e\n      mload(0x40)\n      mload(0x40)\n      dup1\n      swap2\n      sub\n      swap1\n      log2\n        /* \"FvckClaim_flattened.sol\":38929:39116  if (!_isRegistered[account]) {... */\n    tag_256:\n        /* \"FvckClaim_flattened.sol\":39160:39166  amount */\n      dup1\n        /* \"FvckClaim_flattened.sol\":39130:39147  claimableBalances */\n      0x03\n        /* \"FvckClaim_flattened.sol\":39130:39156  claimableBalances[account] */\n      0x00\n        /* \"FvckClaim_flattened.sol\":39148:39155  account */\n      dup5\n        /* \"FvckClaim_flattened.sol\":39130:39156  claimableBalances[account] */\n      0xffffffffffffffffffffffffffffffffffffffff\n      and\n      0xffffffffffffffffffffffffffffffffffffffff\n      and\n      dup2\n      mstore\n      0x20\n      add\n      swap1\n      dup2\n      mstore\n      0x20\n      add\n      0x00\n      keccak256\n      0x00\n        /* \"FvckClaim_flattened.sol\":39130:39166  claimableBalances[account] += amount */\n      dup3\n      dup3\n      sload\n      tag_258\n      swap2\n      swap1\n      tag_200\n      jump\t// in\n    tag_258:\n      swap3\n      pop\n      pop\n      dup2\n      swap1\n      sstore\n      pop\n        /* \"FvckClaim_flattened.sol\":39202:39208  amount */\n      dup1\n        /* \"FvckClaim_flattened.sol\":39180:39208  newTotalToAllocate += amount */\n      dup5\n      tag_259\n      swap2\n      swap1\n      tag_200\n      jump\t// in\n    tag_259:\n      swap4\n      pop\n        /* \"FvckClaim_flattened.sol\":39244:39251  account */\n      dup2\n        /* \"FvckClaim_flattened.sol\":39228:39288  TokensAllocated(account, amount, claimableBalances[account]) */\n      0xffffffffffffffffffffffffffffffffffffffff\n      and\n      0x4885d73252b9e2c420b677d64d50e8a5798773dbb4cb99c5a2ab2824f725d9a8\n        /* \"FvckClaim_flattened.sol\":39253:39259  amount */\n      dup3\n        /* \"FvckClaim_flattened.sol\":39261:39278  claimableBalances */\n      0x03\n        /* \"FvckClaim_flattened.sol\":39261:39287  claimableBalances[account] */\n      0x00\n        /* \"FvckClaim_flattened.sol\":39279:39286  account */\n      dup7\n        /* \"FvckClaim_flattened.sol\":39261:39287  claimableBalances[account] */\n      0xffffffffffffffffffffffffffffffffffffffff\n      and\n      0xffffffffffffffffffffffffffffffffffffffff\n      and\n      dup2\n      mstore\n      0x20\n      add\n      swap1\n      dup2\n      mstore\n      0x20\n      add\n      0x00\n      keccak256\n      sload\n        /* \"FvckClaim_flattened.sol\":39228:39288  TokensAllocated(account, amount, claimableBalances[account]) */\n      mload(0x40)\n      tag_260\n      swap3\n      swap2\n      swap1\n      tag_261\n      jump\t// in\n    tag_260:\n      mload(0x40)\n      dup1\n      swap2\n      sub\n      swap1\n      log2\n        /* \"FvckClaim_flattened.sol\":38567:39299  {... */\n      pop\n      pop\n        /* \"FvckClaim_flattened.sol\":38562:38565  i++ */\n      dup1\n      dup1\n      tag_262\n      swap1\n      tag_198\n      jump\t// in\n    tag_262:\n      swap2\n      pop\n      pop\n        /* \"FvckClaim_flattened.sol\":38520:39299  for (uint256 i = 0; i < _accounts.length; i++) {... */\n      jump(tag_238)\n    tag_239:\n      pop\n        /* \"FvckClaim_flattened.sol\":39373:39391  newTotalToAllocate */\n      dup1\n        /* \"FvckClaim_flattened.sol\":39356:39370  totalAllocated */\n      sload(0x09)\n        /* \"FvckClaim_flattened.sol\":39356:39391  totalAllocated + newTotalToAllocate */\n      tag_263\n      swap2\n      swap1\n      tag_200\n      jump\t// in\n    tag_263:\n        /* \"FvckClaim_flattened.sol\":39330:39352  contractTokenBalance() */\n      tag_264\n        /* \"FvckClaim_flattened.sol\":39330:39350  contractTokenBalance */\n      tag_121\n        /* \"FvckClaim_flattened.sol\":39330:39352  contractTokenBalance() */\n      jump\t// in\n    tag_264:\n        /* \"FvckClaim_flattened.sol\":39330:39391  contractTokenBalance() >= totalAllocated + newTotalToAllocate */\n      lt\n      iszero\n        /* \"FvckClaim_flattened.sol\":39309:39461  require(... */\n      tag_265\n      jumpi\n      mload(0x40)\n      0x08c379a000000000000000000000000000000000000000000000000000000000\n      dup2\n      mstore\n      0x04\n      add\n      tag_266\n      swap1\n      tag_267\n      jump\t// in\n    tag_266:\n      mload(0x40)\n      dup1\n      swap2\n      sub\n      swap1\n      revert\n    tag_265:\n        /* \"FvckClaim_flattened.sol\":39490:39508  newTotalToAllocate */\n      dup1\n        /* \"FvckClaim_flattened.sol\":39472:39486  totalAllocated */\n      0x09\n      0x00\n        /* \"FvckClaim_flattened.sol\":39472:39508  totalAllocated += newTotalToAllocate */\n      dup3\n      dup3\n      sload\n      tag_268\n      swap2\n      swap1\n      tag_200\n      jump\t// in\n    tag_268:\n      swap3\n      pop\n      pop\n      dup2\n      swap1\n      sstore\n      pop\n        /* \"FvckClaim_flattened.sol\":39524:39564  ClaimableBatchAdded(_accounts, _amounts) */\n      0xf14d1c8e59d4cd079b88d0e19cf0de41c86b7a761d5032c0947977002b3ad93a\n        /* \"FvckClaim_flattened.sol\":39544:39553  _accounts */\n      dup6\n      dup6\n        /* \"FvckClaim_flattened.sol\":39555:39563  _amounts */\n      dup6\n      dup6\n        /* \"FvckClaim_flattened.sol\":39524:39564  ClaimableBatchAdded(_accounts, _amounts) */\n      mload(0x40)\n      tag_269\n      swap5\n      swap4\n      swap3\n      swap2\n      swap1\n      tag_270\n      jump\t// in\n    tag_269:\n      mload(0x40)\n      dup1\n      swap2\n      sub\n      swap1\n      log1\n        /* \"FvckClaim_flattened.sol\":38350:39571  {... */\n      pop\n        /* \"FvckClaim_flattened.sol\":38223:39571  function addClaimableBatch(... */\n      pop\n      pop\n      pop\n      pop\n      jump\t// out\n        /* \"FvckClaim_flattened.sol\":41324:41831  function emergencyWithdraw() external onlyOwner nonReentrant {... */\n    tag_142:\n        /* \"FvckClaim_flattened.sol\":2493:2506  _checkOwner() */\n      tag_272\n        /* \"FvckClaim_flattened.sol\":2493:2504  _checkOwner */\n      tag_170\n        /* \"FvckClaim_flattened.sol\":2493:2506  _checkOwner() */\n      jump\t// in\n    tag_272:\n        /* \"FvckClaim_flattened.sol\":6358:6379  _nonReentrantBefore() */\n      tag_274\n        /* \"FvckClaim_flattened.sol\":6358:6377  _nonReentrantBefore */\n      tag_181\n        /* \"FvckClaim_flattened.sol\":6358:6379  _nonReentrantBefore() */\n      jump\t// in\n    tag_274:\n        /* \"FvckClaim_flattened.sol\":41395:41418  uint256 contractBalance */\n      0x00\n        /* \"FvckClaim_flattened.sol\":41421:41426  token */\n      immutable(\"0xe9e0475224745f570c2fa5a2212581dbb763b0b604cf1588d130cda3bdffbf52\")\n        /* \"FvckClaim_flattened.sol\":41421:41436  token.balanceOf */\n      0xffffffffffffffffffffffffffffffffffffffff\n      and\n      0x70a08231\n        /* \"FvckClaim_flattened.sol\":41445:41449  this */\n      address\n        /* \"FvckClaim_flattened.sol\":41421:41451  token.balanceOf(address(this)) */\n      mload(0x40)\n      dup3\n      0xffffffff\n      and\n      0xe0\n      shl\n      dup2\n      mstore\n      0x04\n      add\n      tag_276\n      swap2\n      swap1\n      tag_103\n      jump\t// in\n    tag_276:\n      0x20\n      mload(0x40)\n      dup1\n      dup4\n      sub\n      dup2\n      dup7\n      gas\n      staticcall\n      iszero\n      dup1\n      iszero\n      tag_278\n      jumpi\n      returndatasize\n      0x00\n      dup1\n      returndatacopy\n      revert(0x00, returndatasize)\n    tag_278:\n      pop\n      pop\n      pop\n      pop\n      mload(0x40)\n      returndatasize\n      not(0x1f)\n      0x1f\n      dup3\n      add\n      and\n      dup3\n      add\n      dup1\n      0x40\n      mstore\n      pop\n      dup2\n      add\n      swap1\n      tag_279\n      swap2\n      swap1\n      tag_221\n      jump\t// in\n    tag_279:\n        /* \"FvckClaim_flattened.sol\":41395:41451  uint256 contractBalance = token.balanceOf(address(this)) */\n      swap1\n      pop\n        /* \"FvckClaim_flattened.sol\":41487:41488  0 */\n      0x00\n        /* \"FvckClaim_flattened.sol\":41469:41484  contractBalance */\n      dup2\n        /* \"FvckClaim_flattened.sol\":41469:41488  contractBalance > 0 */\n      gt\n        /* \"FvckClaim_flattened.sol\":41461:41516  require(contractBalance > 0, \"Contract has no balance\") */\n      tag_280\n      jumpi\n      mload(0x40)\n      0x08c379a000000000000000000000000000000000000000000000000000000000\n      dup2\n      mstore\n      0x04\n      add\n      tag_281\n      swap1\n      tag_282\n      jump\t// in\n    tag_281:\n      mload(0x40)\n      dup1\n      swap2\n      sub\n      swap1\n      revert\n    tag_280:\n        /* \"FvckClaim_flattened.sol\":41590:41615  emergencyWithdrawCooldown */\n      sload(0x0d)\n        /* \"FvckClaim_flattened.sol\":41566:41587  lastEmergencyWithdraw */\n      sload(0x0c)\n        /* \"FvckClaim_flattened.sol\":41566:41615  lastEmergencyWithdraw + emergencyWithdrawCooldown */\n      tag_283\n      swap2\n      swap1\n      tag_200\n      jump\t// in\n    tag_283:\n        /* \"FvckClaim_flattened.sol\":41547:41562  block.timestamp */\n      timestamp\n        /* \"FvckClaim_flattened.sol\":41547:41615  block.timestamp >= lastEmergencyWithdraw + emergencyWithdrawCooldown */\n      lt\n      iszero\n        /* \"FvckClaim_flattened.sol\":41526:41661  require(... */\n      tag_284\n      jumpi\n      mload(0x40)\n      0x08c379a000000000000000000000000000000000000000000000000000000000\n      dup2\n      mstore\n      0x04\n      add\n      tag_285\n      swap1\n      tag_286\n      jump\t// in\n    tag_285:\n      mload(0x40)\n      dup1\n      swap2\n      sub\n      swap1\n      revert\n    tag_284:\n        /* \"FvckClaim_flattened.sol\":41696:41711  block.timestamp */\n      timestamp\n        /* \"FvckClaim_flattened.sol\":41672:41693  lastEmergencyWithdraw */\n      0x0c\n        /* \"FvckClaim_flattened.sol\":41672:41711  lastEmergencyWithdraw = block.timestamp */\n      dup2\n      swap1\n      sstore\n      pop\n        /* \"FvckClaim_flattened.sol\":41721:41765  token.safeTransfer(owner(), contractBalance) */\n      tag_287\n        /* \"FvckClaim_flattened.sol\":41740:41747  owner() */\n      tag_288\n        /* \"FvckClaim_flattened.sol\":41740:41745  owner */\n      tag_101\n        /* \"FvckClaim_flattened.sol\":41740:41747  owner() */\n      jump\t// in\n    tag_288:\n        /* \"FvckClaim_flattened.sol\":41749:41764  contractBalance */\n      dup3\n        /* \"FvckClaim_flattened.sol\":41721:41726  token */\n      immutable(\"0xe9e0475224745f570c2fa5a2212581dbb763b0b604cf1588d130cda3bdffbf52\")\n        /* \"FvckClaim_flattened.sol\":41721:41739  token.safeTransfer */\n      0xffffffffffffffffffffffffffffffffffffffff\n      and\n      tag_202\n      swap1\n        /* \"FvckClaim_flattened.sol\":41721:41765  token.safeTransfer(owner(), contractBalance) */\n      swap3\n      swap2\n      swap1\n      0xffffffff\n      and\n      jump\t// in\n    tag_287:\n        /* \"FvckClaim_flattened.sol\":41799:41806  owner() */\n      tag_289\n        /* \"FvckClaim_flattened.sol\":41799:41804  owner */\n      tag_101\n        /* \"FvckClaim_flattened.sol\":41799:41806  owner() */\n      jump\t// in\n    tag_289:\n        /* \"FvckClaim_flattened.sol\":41781:41824  EmergencyWithdraw(owner(), contractBalance) */\n      0xffffffffffffffffffffffffffffffffffffffff\n      and\n      0x5fafa99d0643513820be26656b45130b01e1c03062e1266bf36f88cbd3bd9695\n        /* \"FvckClaim_flattened.sol\":41808:41823  contractBalance */\n      dup3\n        /* \"FvckClaim_flattened.sol\":41781:41824  EmergencyWithdraw(owner(), contractBalance) */\n      mload(0x40)\n      tag_290\n      swap2\n      swap1\n      tag_45\n      jump\t// in\n    tag_290:\n      mload(0x40)\n      dup1\n      swap2\n      sub\n      swap1\n      log2\n        /* \"FvckClaim_flattened.sol\":41385:41831  {... */\n      pop\n        /* \"FvckClaim_flattened.sol\":6400:6420  _nonReentrantAfter() */\n      tag_291\n        /* \"FvckClaim_flattened.sol\":6400:6418  _nonReentrantAfter */\n      tag_204\n        /* \"FvckClaim_flattened.sol\":6400:6420  _nonReentrantAfter() */\n      jump\t// in\n    tag_291:\n        /* \"FvckClaim_flattened.sol\":41324:41831  function emergencyWithdraw() external onlyOwner nonReentrant {... */\n      jump\t// out\n        /* \"FvckClaim_flattened.sol\":41947:42481  function withdrawUnallocatedTokens() external onlyOwner nonReentrant {... */\n    tag_145:\n        /* \"FvckClaim_flattened.sol\":2493:2506  _checkOwner() */\n      tag_293\n        /* \"FvckClaim_flattened.sol\":2493:2504  _checkOwner */\n      tag_170\n        /* \"FvckClaim_flattened.sol\":2493:2506  _checkOwner() */\n      jump\t// in\n    tag_293:\n        /* \"FvckClaim_flattened.sol\":6358:6379  _nonReentrantBefore() */\n      tag_295\n        /* \"FvckClaim_flattened.sol\":6358:6377  _nonReentrantBefore */\n      tag_181\n        /* \"FvckClaim_flattened.sol\":6358:6379  _nonReentrantBefore() */\n      jump\t// in\n    tag_295:\n        /* \"FvckClaim_flattened.sol\":42026:42051  uint256 unallocatedTokens */\n      0x00\n        /* \"FvckClaim_flattened.sol\":42054:42076  getUnallocatedTokens() */\n      tag_297\n        /* \"FvckClaim_flattened.sol\":42054:42074  getUnallocatedTokens */\n      tag_74\n        /* \"FvckClaim_flattened.sol\":42054:42076  getUnallocatedTokens() */\n      jump\t// in\n    tag_297:\n        /* \"FvckClaim_flattened.sol\":42026:42076  uint256 unallocatedTokens = getUnallocatedTokens() */\n      swap1\n      pop\n        /* \"FvckClaim_flattened.sol\":42114:42115  0 */\n      0x00\n        /* \"FvckClaim_flattened.sol\":42094:42111  unallocatedTokens */\n      dup2\n        /* \"FvckClaim_flattened.sol\":42094:42115  unallocatedTokens > 0 */\n      gt\n        /* \"FvckClaim_flattened.sol\":42086:42153  require(unallocatedTokens > 0, \"No unallocated tokens to withdraw\") */\n      tag_298\n      jumpi\n      mload(0x40)\n      0x08c379a000000000000000000000000000000000000000000000000000000000\n      dup2\n      mstore\n      0x04\n      add\n      tag_299\n      swap1\n      tag_300\n      jump\t// in\n    tag_299:\n      mload(0x40)\n      dup1\n      swap2\n      sub\n      swap1\n      revert\n    tag_298:\n        /* \"FvckClaim_flattened.sol\":42227:42252  emergencyWithdrawCooldown */\n      sload(0x0d)\n        /* \"FvckClaim_flattened.sol\":42203:42224  lastEmergencyWithdraw */\n      sload(0x0c)\n        /* \"FvckClaim_flattened.sol\":42203:42252  lastEmergencyWithdraw + emergencyWithdrawCooldown */\n      tag_301\n      swap2\n      swap1\n      tag_200\n      jump\t// in\n    tag_301:\n        /* \"FvckClaim_flattened.sol\":42184:42199  block.timestamp */\n      timestamp\n        /* \"FvckClaim_flattened.sol\":42184:42252  block.timestamp >= lastEmergencyWithdraw + emergencyWithdrawCooldown */\n      lt\n      iszero\n        /* \"FvckClaim_flattened.sol\":42163:42298  require(... */\n      tag_302\n      jumpi\n      mload(0x40)\n      0x08c379a000000000000000000000000000000000000000000000000000000000\n      dup2\n      mstore\n      0x04\n      add\n      tag_303\n      swap1\n      tag_286\n      jump\t// in\n    tag_303:\n      mload(0x40)\n      dup1\n      swap2\n      sub\n      swap1\n      revert\n    tag_302:\n        /* \"FvckClaim_flattened.sol\":42333:42348  block.timestamp */\n      timestamp\n        /* \"FvckClaim_flattened.sol\":42309:42330  lastEmergencyWithdraw */\n      0x0c\n        /* \"FvckClaim_flattened.sol\":42309:42348  lastEmergencyWithdraw = block.timestamp */\n      dup2\n      swap1\n      sstore\n      pop\n        /* \"FvckClaim_flattened.sol\":42358:42404  token.safeTransfer(owner(), unallocatedTokens) */\n      tag_304\n        /* \"FvckClaim_flattened.sol\":42377:42384  owner() */\n      tag_305\n        /* \"FvckClaim_flattened.sol\":42377:42382  owner */\n      tag_101\n        /* \"FvckClaim_flattened.sol\":42377:42384  owner() */\n      jump\t// in\n    tag_305:\n        /* \"FvckClaim_flattened.sol\":42386:42403  unallocatedTokens */\n      dup3\n        /* \"FvckClaim_flattened.sol\":42358:42363  token */\n      immutable(\"0xe9e0475224745f570c2fa5a2212581dbb763b0b604cf1588d130cda3bdffbf52\")\n        /* \"FvckClaim_flattened.sol\":42358:42376  token.safeTransfer */\n      0xffffffffffffffffffffffffffffffffffffffff\n      and\n      tag_202\n      swap1\n        /* \"FvckClaim_flattened.sol\":42358:42404  token.safeTransfer(owner(), unallocatedTokens) */\n      swap3\n      swap2\n      swap1\n      0xffffffff\n      and\n      jump\t// in\n    tag_304:\n        /* \"FvckClaim_flattened.sol\":42447:42454  owner() */\n      tag_306\n        /* \"FvckClaim_flattened.sol\":42447:42452  owner */\n      tag_101\n        /* \"FvckClaim_flattened.sol\":42447:42454  owner() */\n      jump\t// in\n    tag_306:\n        /* \"FvckClaim_flattened.sol\":42420:42474  UnallocatedTokensWithdrawn(owner(), unallocatedTokens) */\n      0xffffffffffffffffffffffffffffffffffffffff\n      and\n      0x4f03851532cb76253fe3dddbcbe99f0a83446922731a7bdfd2cb44d35ffcb1d9\n        /* \"FvckClaim_flattened.sol\":42456:42473  unallocatedTokens */\n      dup3\n        /* \"FvckClaim_flattened.sol\":42420:42474  UnallocatedTokensWithdrawn(owner(), unallocatedTokens) */\n      mload(0x40)\n      tag_307\n      swap2\n      swap1\n      tag_45\n      jump\t// in\n    tag_307:\n      mload(0x40)\n      dup1\n      swap2\n      sub\n      swap1\n      log2\n        /* \"FvckClaim_flattened.sol\":42016:42481  {... */\n      pop\n        /* \"FvckClaim_flattened.sol\":6400:6420  _nonReentrantAfter() */\n      tag_308\n        /* \"FvckClaim_flattened.sol\":6400:6418  _nonReentrantAfter */\n      tag_204\n        /* \"FvckClaim_flattened.sol\":6400:6420  _nonReentrantAfter() */\n      jump\t// in\n    tag_308:\n        /* \"FvckClaim_flattened.sol\":41947:42481  function withdrawUnallocatedTokens() external onlyOwner nonReentrant {... */\n      jump\t// out\n        /* \"FvckClaim_flattened.sol\":37595:37936  function depositTokens(uint256 _amount) external onlyOwner {... */\n    tag_150:\n        /* \"FvckClaim_flattened.sol\":2493:2506  _checkOwner() */\n      tag_310\n        /* \"FvckClaim_flattened.sol\":2493:2504  _checkOwner */\n      tag_170\n        /* \"FvckClaim_flattened.sol\":2493:2506  _checkOwner() */\n      jump\t// in\n    tag_310:\n        /* \"FvckClaim_flattened.sol\":37682:37683  0 */\n      0x00\n        /* \"FvckClaim_flattened.sol\":37672:37679  _amount */\n      dup2\n        /* \"FvckClaim_flattened.sol\":37672:37683  _amount > 0 */\n      gt\n        /* \"FvckClaim_flattened.sol\":37664:37728  require(_amount > 0, \"Deposit amount must be greater than zero\") */\n      tag_312\n      jumpi\n      mload(0x40)\n      0x08c379a000000000000000000000000000000000000000000000000000000000\n      dup2\n      mstore\n      0x04\n      add\n      tag_313\n      swap1\n      tag_314\n      jump\t// in\n    tag_313:\n      mload(0x40)\n      dup1\n      swap2\n      sub\n      swap1\n      revert\n    tag_312:\n        /* \"FvckClaim_flattened.sol\":37777:37784  _amount */\n      dup1\n        /* \"FvckClaim_flattened.sol\":37746:37751  token */\n      immutable(\"0xe9e0475224745f570c2fa5a2212581dbb763b0b604cf1588d130cda3bdffbf52\")\n        /* \"FvckClaim_flattened.sol\":37746:37761  token.balanceOf */\n      0xffffffffffffffffffffffffffffffffffffffff\n      and\n      0x70a08231\n        /* \"FvckClaim_flattened.sol\":37762:37772  msg.sender */\n      caller\n        /* \"FvckClaim_flattened.sol\":37746:37773  token.balanceOf(msg.sender) */\n      mload(0x40)\n      dup3\n      0xffffffff\n      and\n      0xe0\n      shl\n      dup2\n      mstore\n      0x04\n      add\n      tag_315\n      swap2\n      swap1\n      tag_103\n      jump\t// in\n    tag_315:\n      0x20\n      mload(0x40)\n      dup1\n      dup4\n      sub\n      dup2\n      dup7\n      gas\n      staticcall\n      iszero\n      dup1\n      iszero\n      tag_317\n      jumpi\n      returndatasize\n      0x00\n      dup1\n      returndatacopy\n      revert(0x00, returndatasize)\n    tag_317:\n      pop\n      pop\n      pop\n      pop\n      mload(0x40)\n      returndatasize\n      not(0x1f)\n      0x1f\n      dup3\n      add\n      and\n      dup3\n      add\n      dup1\n      0x40\n      mstore\n      pop\n      dup2\n      add\n      swap1\n      tag_318\n      swap2\n      swap1\n      tag_221\n      jump\t// in\n    tag_318:\n        /* \"FvckClaim_flattened.sol\":37746:37784  token.balanceOf(msg.sender) >= _amount */\n      lt\n      iszero\n        /* \"FvckClaim_flattened.sol\":37738:37809  require(token.balanceOf(msg.sender) >= _amount, \"Insufficient balance\") */\n      tag_319\n      jumpi\n      mload(0x40)\n      0x08c379a000000000000000000000000000000000000000000000000000000000\n      dup2\n      mstore\n      0x04\n      add\n      tag_320\n      swap1\n      tag_321\n      jump\t// in\n    tag_320:\n      mload(0x40)\n      dup1\n      swap2\n      sub\n      swap1\n      revert\n    tag_319:\n        /* \"FvckClaim_flattened.sol\":37820:37878  token.safeTransferFrom(msg.sender, address(this), _amount) */\n      tag_322\n        /* \"FvckClaim_flattened.sol\":37843:37853  msg.sender */\n      caller\n        /* \"FvckClaim_flattened.sol\":37863:37867  this */\n      address\n        /* \"FvckClaim_flattened.sol\":37870:37877  _amount */\n      dup4\n        /* \"FvckClaim_flattened.sol\":37820:37825  token */\n      immutable(\"0xe9e0475224745f570c2fa5a2212581dbb763b0b604cf1588d130cda3bdffbf52\")\n        /* \"FvckClaim_flattened.sol\":37820:37842  token.safeTransferFrom */\n      0xffffffffffffffffffffffffffffffffffffffff\n      and\n      tag_323\n      swap1\n        /* \"FvckClaim_flattened.sol\":37820:37878  token.safeTransferFrom(msg.sender, address(this), _amount) */\n      swap4\n      swap3\n      swap2\n      swap1\n      0xffffffff\n      and\n      jump\t// in\n    tag_322:\n        /* \"FvckClaim_flattened.sol\":37909:37919  msg.sender */\n      caller\n        /* \"FvckClaim_flattened.sol\":37894:37929  TokenDeposited(msg.sender, _amount) */\n      0xffffffffffffffffffffffffffffffffffffffff\n      and\n      0xbc7c8a4d8049a3f99a02f2a20640c206a2e4d3f2fa54fd20da9f01fda3620cda\n        /* \"FvckClaim_flattened.sol\":37921:37928  _amount */\n      dup3\n        /* \"FvckClaim_flattened.sol\":37894:37929  TokenDeposited(msg.sender, _amount) */\n      mload(0x40)\n      tag_324\n      swap2\n      swap1\n      tag_45\n      jump\t// in\n    tag_324:\n      mload(0x40)\n      dup1\n      swap2\n      sub\n      swap1\n      log2\n        /* \"FvckClaim_flattened.sol\":37595:37936  function depositTokens(uint256 _amount) external onlyOwner {... */\n      pop\n      jump\t// out\n        /* \"FvckClaim_flattened.sol\":40477:40705  function withdrawApprovalFees() external onlyOwner {... */\n    tag_153:\n        /* \"FvckClaim_flattened.sol\":2493:2506  _checkOwner() */\n      tag_326\n        /* \"FvckClaim_flattened.sol\":2493:2504  _checkOwner */\n      tag_170\n        /* \"FvckClaim_flattened.sol\":2493:2506  _checkOwner() */\n      jump\t// in\n    tag_326:\n        /* \"FvckClaim_flattened.sol\":40538:40561  uint256 contractBalance */\n      0x00\n        /* \"FvckClaim_flattened.sol\":40564:40585  address(this).balance */\n      selfbalance\n        /* \"FvckClaim_flattened.sol\":40538:40585  uint256 contractBalance = address(this).balance */\n      swap1\n      pop\n        /* \"FvckClaim_flattened.sol\":40621:40622  0 */\n      0x00\n        /* \"FvckClaim_flattened.sol\":40603:40618  contractBalance */\n      dup2\n        /* \"FvckClaim_flattened.sol\":40603:40622  contractBalance > 0 */\n      gt\n        /* \"FvckClaim_flattened.sol\":40595:40646  require(contractBalance > 0, \"No fees to withdraw\") */\n      tag_328\n      jumpi\n      mload(0x40)\n      0x08c379a000000000000000000000000000000000000000000000000000000000\n      dup2\n      mstore\n      0x04\n      add\n      tag_329\n      swap1\n      tag_330\n      jump\t// in\n    tag_329:\n      mload(0x40)\n      dup1\n      swap2\n      sub\n      swap1\n      revert\n    tag_328:\n        /* \"FvckClaim_flattened.sol\":40664:40671  owner() */\n      tag_331\n        /* \"FvckClaim_flattened.sol\":40664:40669  owner */\n      tag_101\n        /* \"FvckClaim_flattened.sol\":40664:40671  owner() */\n      jump\t// in\n    tag_331:\n        /* \"FvckClaim_flattened.sol\":40656:40681  payable(owner()).transfer */\n      0xffffffffffffffffffffffffffffffffffffffff\n      and\n        /* \"FvckClaim_flattened.sol\":40656:40698  payable(owner()).transfer(contractBalance) */\n      0x08fc\n        /* \"FvckClaim_flattened.sol\":40682:40697  contractBalance */\n      dup3\n        /* \"FvckClaim_flattened.sol\":40656:40698  payable(owner()).transfer(contractBalance) */\n      swap1\n      dup2\n      iszero\n      mul\n      swap1\n      mload(0x40)\n      0x00\n      mload(0x40)\n      dup1\n      dup4\n      sub\n      dup2\n      dup6\n      dup9\n      dup9\n      call\n      swap4\n      pop\n      pop\n      pop\n      pop\n      iszero\n      dup1\n      iszero\n      tag_333\n      jumpi\n      returndatasize\n      0x00\n      dup1\n      returndatacopy\n      revert(0x00, returndatasize)\n    tag_333:\n      pop\n        /* \"FvckClaim_flattened.sol\":40528:40705  {... */\n      pop\n        /* \"FvckClaim_flattened.sol\":40477:40705  function withdrawApprovalFees() external onlyOwner {... */\n      jump\t// out\n        /* \"FvckClaim_flattened.sol\":36263:36409  function setClaimApprovalFee(uint256 _fee) external onlyOwner {... */\n    tag_157:\n        /* \"FvckClaim_flattened.sol\":2493:2506  _checkOwner() */\n      tag_335\n        /* \"FvckClaim_flattened.sol\":2493:2504  _checkOwner */\n      tag_170\n        /* \"FvckClaim_flattened.sol\":2493:2506  _checkOwner() */\n      jump\t// in\n    tag_335:\n        /* \"FvckClaim_flattened.sol\":36354:36358  _fee */\n      dup1\n        /* \"FvckClaim_flattened.sol\":36335:36351  claimApprovalFee */\n      0x0e\n        /* \"FvckClaim_flattened.sol\":36335:36358  claimApprovalFee = _fee */\n      dup2\n      swap1\n      sstore\n      pop\n        /* \"FvckClaim_flattened.sol\":36373:36402  ClaimApprovalFeeUpdated(_fee) */\n      0x046767aa5821ba6f1a985f8cf0134cb534cba0b26ff165803d3602c7ff046cd4\n        /* \"FvckClaim_flattened.sol\":36397:36401  _fee */\n      dup2\n        /* \"FvckClaim_flattened.sol\":36373:36402  ClaimApprovalFeeUpdated(_fee) */\n      mload(0x40)\n      tag_337\n      swap2\n      swap1\n      tag_45\n      jump\t// in\n    tag_337:\n      mload(0x40)\n      dup1\n      swap2\n      sub\n      swap1\n      log1\n        /* \"FvckClaim_flattened.sol\":36263:36409  function setClaimApprovalFee(uint256 _fee) external onlyOwner {... */\n      pop\n      jump\t// out\n        /* \"FvckClaim_flattened.sol\":3505:3720  function transferOwnership(address newOwner) public virtual onlyOwner {... */\n    tag_161:\n        /* \"FvckClaim_flattened.sol\":2493:2506  _checkOwner() */\n      tag_339\n        /* \"FvckClaim_flattened.sol\":2493:2504  _checkOwner */\n      tag_170\n        /* \"FvckClaim_flattened.sol\":2493:2506  _checkOwner() */\n      jump\t// in\n    tag_339:\n        /* \"FvckClaim_flattened.sol\":3609:3610  0 */\n      0x00\n        /* \"FvckClaim_flattened.sol\":3589:3611  newOwner == address(0) */\n      0xffffffffffffffffffffffffffffffffffffffff\n      and\n        /* \"FvckClaim_flattened.sol\":3589:3597  newOwner */\n      dup2\n        /* \"FvckClaim_flattened.sol\":3589:3611  newOwner == address(0) */\n      0xffffffffffffffffffffffffffffffffffffffff\n      and\n      sub\n        /* \"FvckClaim_flattened.sol\":3585:3676  if (newOwner == address(0)) {... */\n      tag_341\n      jumpi\n        /* \"FvckClaim_flattened.sol\":3662:3663  0 */\n      0x00\n        /* \"FvckClaim_flattened.sol\":3634:3665  OwnableInvalidOwner(address(0)) */\n      mload(0x40)\n      0x1e4fbdf700000000000000000000000000000000000000000000000000000000\n      dup2\n      mstore\n      0x04\n      add\n      tag_342\n      swap2\n      swap1\n      tag_103\n      jump\t// in\n    tag_342:\n      mload(0x40)\n      dup1\n      swap2\n      sub\n      swap1\n      revert\n        /* \"FvckClaim_flattened.sol\":3585:3676  if (newOwner == address(0)) {... */\n    tag_341:\n        /* \"FvckClaim_flattened.sol\":3685:3713  _transferOwnership(newOwner) */\n      tag_343\n        /* \"FvckClaim_flattened.sol\":3704:3712  newOwner */\n      dup2\n        /* \"FvckClaim_flattened.sol\":3685:3703  _transferOwnership */\n      tag_210\n        /* \"FvckClaim_flattened.sol\":3685:3713  _transferOwnership(newOwner) */\n      jump\t// in\n    tag_343:\n        /* \"FvckClaim_flattened.sol\":3505:3720  function transferOwnership(address newOwner) public virtual onlyOwner {... */\n      pop\n      jump\t// out\n        /* \"FvckClaim_flattened.sol\":33717:33746  IERC20 public immutable token */\n    tag_164:\n      immutable(\"0xe9e0475224745f570c2fa5a2212581dbb763b0b604cf1588d130cda3bdffbf52\")\n      dup2\n      jump\t// out\n        /* \"FvckClaim_flattened.sol\":2758:2920  function _checkOwner() internal view virtual {... */\n    tag_170:\n        /* \"FvckClaim_flattened.sol\":2828:2840  _msgSender() */\n      tag_345\n        /* \"FvckClaim_flattened.sol\":2828:2838  _msgSender */\n      tag_346\n        /* \"FvckClaim_flattened.sol\":2828:2840  _msgSender() */\n      jump\t// in\n    tag_345:\n        /* \"FvckClaim_flattened.sol\":2817:2840  owner() != _msgSender() */\n      0xffffffffffffffffffffffffffffffffffffffff\n      and\n        /* \"FvckClaim_flattened.sol\":2817:2824  owner() */\n      tag_347\n        /* \"FvckClaim_flattened.sol\":2817:2822  owner */\n      tag_101\n        /* \"FvckClaim_flattened.sol\":2817:2824  owner() */\n      jump\t// in\n    tag_347:\n        /* \"FvckClaim_flattened.sol\":2817:2840  owner() != _msgSender() */\n      0xffffffffffffffffffffffffffffffffffffffff\n      and\n      eq\n        /* \"FvckClaim_flattened.sol\":2813:2914  if (owner() != _msgSender()) {... */\n      tag_348\n      jumpi\n        /* \"FvckClaim_flattened.sol\":2890:2902  _msgSender() */\n      tag_349\n        /* \"FvckClaim_flattened.sol\":2890:2900  _msgSender */\n      tag_346\n        /* \"FvckClaim_flattened.sol\":2890:2902  _msgSender() */\n      jump\t// in\n    tag_349:\n        /* \"FvckClaim_flattened.sol\":2863:2903  OwnableUnauthorizedAccount(_msgSender()) */\n      mload(0x40)\n      0x118cdaa700000000000000000000000000000000000000000000000000000000\n      dup2\n      mstore\n      0x04\n      add\n      tag_350\n      swap2\n      swap1\n      tag_103\n      jump\t// in\n    tag_350:\n      mload(0x40)\n      dup1\n      swap2\n      sub\n      swap1\n      revert\n        /* \"FvckClaim_flattened.sol\":2813:2914  if (owner() != _msgSender()) {... */\n    tag_348:\n        /* \"FvckClaim_flattened.sol\":2758:2920  function _checkOwner() internal view virtual {... */\n      jump\t// out\n        /* \"FvckClaim_flattened.sol\":6433:6720  function _nonReentrantBefore() private {... */\n    tag_181:\n        /* \"FvckClaim_flattened.sol\":5856:5857  2 */\n      0x02\n        /* \"FvckClaim_flattened.sol\":6565:6572  _status */\n      sload(0x01)\n        /* \"FvckClaim_flattened.sol\":6565:6584  _status != _ENTERED */\n      sub\n        /* \"FvckClaim_flattened.sol\":6557:6620  require(_status != _ENTERED, \"ReentrancyGuard: reentrant call\") */\n      tag_352\n      jumpi\n      mload(0x40)\n      0x08c379a000000000000000000000000000000000000000000000000000000000\n      dup2\n      mstore\n      0x04\n      add\n      tag_353\n      swap1\n      tag_354\n      jump\t// in\n    tag_353:\n      mload(0x40)\n      dup1\n      swap2\n      sub\n      swap1\n      revert\n    tag_352:\n        /* \"FvckClaim_flattened.sol\":5856:5857  2 */\n      0x02\n        /* \"FvckClaim_flattened.sol\":6695:6702  _status */\n      0x01\n        /* \"FvckClaim_flattened.sol\":6695:6713  _status = _ENTERED */\n      dup2\n      swap1\n      sstore\n      pop\n        /* \"FvckClaim_flattened.sol\":6433:6720  function _nonReentrantBefore() private {... */\n      jump\t// out\n        /* \"FvckClaim_flattened.sol\":23755:23915  function safeTransfer(IERC20 token, address to, uint256 value) internal {... */\n    tag_202:\n        /* \"FvckClaim_flattened.sol\":23837:23908  _callOptionalReturn(token, abi.encodeCall(token.transfer, (to, value))) */\n      tag_356\n        /* \"FvckClaim_flattened.sol\":23857:23862  token */\n      dup4\n        /* \"FvckClaim_flattened.sol\":23879:23884  token */\n      dup5\n        /* \"FvckClaim_flattened.sol\":23879:23893  token.transfer */\n      0xffffffffffffffffffffffffffffffffffffffff\n      and\n      0xa9059cbb\n        /* \"FvckClaim_flattened.sol\":23896:23898  to */\n      dup6\n        /* \"FvckClaim_flattened.sol\":23900:23905  value */\n      dup6\n        /* \"FvckClaim_flattened.sol\":23864:23907  abi.encodeCall(token.transfer, (to, value)) */\n      add(0x24, mload(0x40))\n      tag_357\n      swap3\n      swap2\n      swap1\n      tag_358\n      jump\t// in\n    tag_357:\n      mload(0x40)\n      0x20\n      dup2\n      dup4\n      sub\n      sub\n      dup2\n      mstore\n      swap1\n      0x40\n      mstore\n      swap2\n      pop\n      0xe0\n      shl\n      0x20\n      dup3\n      add\n      dup1\n      mload\n      0xffffffffffffffffffffffffffffffffffffffffffffffffffffffff\n      dup4\n      dup2\n      dup4\n      and\n      or\n      dup4\n      mstore\n      pop\n      pop\n      pop\n      pop\n        /* \"FvckClaim_flattened.sol\":23837:23856  _callOptionalReturn */\n      tag_359\n        /* \"FvckClaim_flattened.sol\":23837:23908  _callOptionalReturn(token, abi.encodeCall(token.transfer, (to, value))) */\n      jump\t// in\n    tag_356:\n        /* \"FvckClaim_flattened.sol\":23755:23915  function safeTransfer(IERC20 token, address to, uint256 value) internal {... */\n      pop\n      pop\n      pop\n      jump\t// out\n        /* \"FvckClaim_flattened.sol\":6726:6935  function _nonReentrantAfter() private {... */\n    tag_204:\n        /* \"FvckClaim_flattened.sol\":5813:5814  1 */\n      0x01\n        /* \"FvckClaim_flattened.sol\":6906:6913  _status */\n      dup1\n        /* \"FvckClaim_flattened.sol\":6906:6928  _status = _NOT_ENTERED */\n      dup2\n      swap1\n      sstore\n      pop\n        /* \"FvckClaim_flattened.sol\":6726:6935  function _nonReentrantAfter() private {... */\n      jump\t// out\n        /* \"FvckClaim_flattened.sol\":3874:4061  function _transferOwnership(address newOwner) internal virtual {... */\n    tag_210:\n        /* \"FvckClaim_flattened.sol\":3947:3963  address oldOwner */\n      0x00\n        /* \"FvckClaim_flattened.sol\":3966:3972  _owner */\n      dup1\n      0x00\n      swap1\n      sload\n      swap1\n      0x0100\n      exp\n      swap1\n      div\n      0xffffffffffffffffffffffffffffffffffffffff\n      and\n        /* \"FvckClaim_flattened.sol\":3947:3972  address oldOwner = _owner */\n      swap1\n      pop\n        /* \"FvckClaim_flattened.sol\":3991:3999  newOwner */\n      dup2\n        /* \"FvckClaim_flattened.sol\":3982:3988  _owner */\n      0x00\n      dup1\n        /* \"FvckClaim_flattened.sol\":3982:3999  _owner = newOwner */\n      0x0100\n      exp\n      dup2\n      sload\n      dup2\n      0xffffffffffffffffffffffffffffffffffffffff\n      mul\n      not\n      and\n      swap1\n      dup4\n      0xffffffffffffffffffffffffffffffffffffffff\n      and\n      mul\n      or\n      swap1\n      sstore\n      pop\n        /* \"FvckClaim_flattened.sol\":4045:4053  newOwner */\n      dup2\n        /* \"FvckClaim_flattened.sol\":4014:4054  OwnershipTransferred(oldOwner, newOwner) */\n      0xffffffffffffffffffffffffffffffffffffffff\n      and\n        /* \"FvckClaim_flattened.sol\":4035:4043  oldOwner */\n      dup2\n        /* \"FvckClaim_flattened.sol\":4014:4054  OwnershipTransferred(oldOwner, newOwner) */\n      0xffffffffffffffffffffffffffffffffffffffff\n      and\n      0x8be0079c531659141344cd1fd0a4f28419497f9722a3daafe3b4186f6b6457e0\n      mload(0x40)\n      mload(0x40)\n      dup1\n      swap2\n      sub\n      swap1\n      log3\n        /* \"FvckClaim_flattened.sol\":3937:4061  {... */\n      pop\n        /* \"FvckClaim_flattened.sol\":3874:4061  function _transferOwnership(address newOwner) internal virtual {... */\n      pop\n      jump\t// out\n        /* \"FvckClaim_flattened.sol\":24154:24342  function safeTransferFrom(IERC20 token, address from, address to, uint256 value) internal {... */\n    tag_323:\n        /* \"FvckClaim_flattened.sol\":24254:24335  _callOptionalReturn(token, abi.encodeCall(token.transferFrom, (from, to, value))) */\n      tag_363\n        /* \"FvckClaim_flattened.sol\":24274:24279  token */\n      dup5\n        /* \"FvckClaim_flattened.sol\":24296:24301  token */\n      dup6\n        /* \"FvckClaim_flattened.sol\":24296:24314  token.transferFrom */\n      0xffffffffffffffffffffffffffffffffffffffff\n      and\n      0x23b872dd\n        /* \"FvckClaim_flattened.sol\":24317:24321  from */\n      dup7\n        /* \"FvckClaim_flattened.sol\":24323:24325  to */\n      dup7\n        /* \"FvckClaim_flattened.sol\":24327:24332  value */\n      dup7\n        /* \"FvckClaim_flattened.sol\":24281:24334  abi.encodeCall(token.transferFrom, (from, to, value)) */\n      add(0x24, mload(0x40))\n      tag_364\n      swap4\n      swap3\n      swap2\n      swap1\n      tag_365\n      jump\t// in\n    tag_364:\n      mload(0x40)\n      0x20\n      dup2\n      dup4\n      sub\n      sub\n      dup2\n      mstore\n      swap1\n      0x40\n      mstore\n      swap2\n      pop\n      0xe0\n      shl\n      0x20\n      dup3\n      add\n      dup1\n      mload\n      0xffffffffffffffffffffffffffffffffffffffffffffffffffffffff\n      dup4\n      dup2\n      dup4\n      and\n      or\n      dup4\n      mstore\n      pop\n      pop\n      pop\n      pop\n        /* \"FvckClaim_flattened.sol\":24254:24273  _callOptionalReturn */\n      tag_359\n        /* \"FvckClaim_flattened.sol\":24254:24335  _callOptionalReturn(token, abi.encodeCall(token.transferFrom, (from, to, value))) */\n      jump\t// in\n    tag_363:\n        /* \"FvckClaim_flattened.sol\":24154:24342  function safeTransferFrom(IERC20 token, address from, address to, uint256 value) internal {... */\n      pop\n      pop\n      pop\n      pop\n      jump\t// out\n        /* \"FvckClaim_flattened.sol\":678:774  function _msgSender() internal view virtual returns (address) {... */\n    tag_346:\n        /* \"FvckClaim_flattened.sol\":731:738  address */\n      0x00\n        /* \"FvckClaim_flattened.sol\":757:767  msg.sender */\n      caller\n        /* \"FvckClaim_flattened.sol\":750:767  return msg.sender */\n      swap1\n      pop\n        /* \"FvckClaim_flattened.sol\":678:774  function _msgSender() internal view virtual returns (address) {... */\n      swap1\n      jump\t// out\n        /* \"FvckClaim_flattened.sol\":30222:30942  function _callOptionalReturn(IERC20 token, bytes memory data) private {... */\n    tag_359:\n        /* \"FvckClaim_flattened.sol\":30302:30320  uint256 returnSize */\n      0x00\n        /* \"FvckClaim_flattened.sol\":30330:30349  uint256 returnValue */\n      dup1\n        /* \"FvckClaim_flattened.sol\":30468:30472  0x20 */\n      0x20\n        /* \"FvckClaim_flattened.sol\":30465:30466  0 */\n      0x00\n        /* \"FvckClaim_flattened.sol\":30458:30462  data */\n      dup5\n        /* \"FvckClaim_flattened.sol\":30452:30463  mload(data) */\n      mload\n        /* \"FvckClaim_flattened.sol\":30445:30449  0x20 */\n      0x20\n        /* \"FvckClaim_flattened.sol\":30439:30443  data */\n      dup7\n        /* \"FvckClaim_flattened.sol\":30435:30450  add(data, 0x20) */\n      add\n        /* \"FvckClaim_flattened.sol\":30432:30433  0 */\n      0x00\n        /* \"FvckClaim_flattened.sol\":30425:30430  token */\n      dup9\n        /* \"FvckClaim_flattened.sol\":30418:30423  gas() */\n      gas\n        /* \"FvckClaim_flattened.sol\":30413:30473  call(gas(), token, 0, add(data, 0x20), mload(data), 0, 0x20) */\n      call\n        /* \"FvckClaim_flattened.sol\":30525:30532  success */\n      dup1\n        /* \"FvckClaim_flattened.sol\":30515:30691  if iszero(success) {... */\n      tag_368\n      jumpi\n        /* \"FvckClaim_flattened.sol\":30569:30573  0x40 */\n      0x40\n        /* \"FvckClaim_flattened.sol\":30563:30574  mload(0x40) */\n      mload\n        /* \"FvckClaim_flattened.sol\":30614:30630  returndatasize() */\n      returndatasize\n        /* \"FvckClaim_flattened.sol\":30611:30612  0 */\n      0x00\n        /* \"FvckClaim_flattened.sol\":30606:30609  ptr */\n      dup3\n        /* \"FvckClaim_flattened.sol\":30591:30631  returndatacopy(ptr, 0, returndatasize()) */\n      returndatacopy\n        /* \"FvckClaim_flattened.sol\":30660:30676  returndatasize() */\n      returndatasize\n        /* \"FvckClaim_flattened.sol\":30655:30658  ptr */\n      dup2\n        /* \"FvckClaim_flattened.sol\":30648:30677  revert(ptr, returndatasize()) */\n      revert\n        /* \"FvckClaim_flattened.sol\":30515:30691  if iszero(success) {... */\n    tag_368:\n        /* \"FvckClaim_flattened.sol\":30718:30734  returndatasize() */\n      returndatasize\n        /* \"FvckClaim_flattened.sol\":30704:30734  returnSize := returndatasize() */\n      swap3\n      pop\n        /* \"FvckClaim_flattened.sol\":30768:30769  0 */\n      0x00\n        /* \"FvckClaim_flattened.sol\":30762:30770  mload(0) */\n      mload\n        /* \"FvckClaim_flattened.sol\":30747:30770  returnValue := mload(0) */\n      swap2\n      pop\n        /* \"FvckClaim_flattened.sol\":30384:30780  {... */\n      pop\n        /* \"FvckClaim_flattened.sol\":30808:30809  0 */\n      0x00\n        /* \"FvckClaim_flattened.sol\":30794:30804  returnSize */\n      dup3\n        /* \"FvckClaim_flattened.sol\":30794:30809  returnSize == 0 */\n      eq\n        /* \"FvckClaim_flattened.sol\":30794:30862  returnSize == 0 ? address(token).code.length == 0 : returnValue != 1 */\n      tag_369\n      jumpi\n        /* \"FvckClaim_flattened.sol\":30861:30862  1 */\n      0x01\n        /* \"FvckClaim_flattened.sol\":30846:30857  returnValue */\n      dup2\n        /* \"FvckClaim_flattened.sol\":30846:30862  returnValue != 1 */\n      eq\n      iszero\n        /* \"FvckClaim_flattened.sol\":30794:30862  returnSize == 0 ? address(token).code.length == 0 : returnValue != 1 */\n      jump(tag_370)\n    tag_369:\n        /* \"FvckClaim_flattened.sol\":30842:30843  0 */\n      0x00\n        /* \"FvckClaim_flattened.sol\":30820:30825  token */\n      dup5\n        /* \"FvckClaim_flattened.sol\":30812:30838  address(token).code.length */\n      0xffffffffffffffffffffffffffffffffffffffff\n      and\n      extcodesize\n        /* \"FvckClaim_flattened.sol\":30812:30843  address(token).code.length == 0 */\n      eq\n        /* \"FvckClaim_flattened.sol\":30794:30862  returnSize == 0 ? address(token).code.length == 0 : returnValue != 1 */\n    tag_370:\n        /* \"FvckClaim_flattened.sol\":30790:30936  if (returnSize == 0 ? address(token).code.length == 0 : returnValue != 1) {... */\n      iszero\n      tag_371\n      jumpi\n        /* \"FvckClaim_flattened.sol\":30918:30923  token */\n      dup4\n        /* \"FvckClaim_flattened.sol\":30885:30925  SafeERC20FailedOperation(address(token)) */\n      mload(0x40)\n      0x5274afe700000000000000000000000000000000000000000000000000000000\n      dup2\n      mstore\n      0x04\n      add\n      tag_372\n      swap2\n      swap1\n      tag_103\n      jump\t// in\n    tag_372:\n      mload(0x40)\n      dup1\n      swap2\n      sub\n      swap1\n      revert\n        /* \"FvckClaim_flattened.sol\":30790:30936  if (returnSize == 0 ? address(token).code.length == 0 : returnValue != 1) {... */\n    tag_371:\n        /* \"FvckClaim_flattened.sol\":30292:30942  {... */\n      pop\n      pop\n        /* \"FvckClaim_flattened.sol\":30222:30942  function _callOptionalReturn(IERC20 token, bytes memory data) private {... */\n      pop\n      pop\n      jump\t// out\n        /* \"#utility.yul\":88:205   */\n    tag_374:\n        /* \"#utility.yul\":197:198   */\n      0x00\n        /* \"#utility.yul\":194:195   */\n      dup1\n        /* \"#utility.yul\":187:199   */\n      revert\n        /* \"#utility.yul\":211:328   */\n    tag_375:\n        /* \"#utility.yul\":320:321   */\n      0x00\n        /* \"#utility.yul\":317:318   */\n      dup1\n        /* \"#utility.yul\":310:322   */\n      revert\n        /* \"#utility.yul\":334:460   */\n    tag_376:\n        /* \"#utility.yul\":371:378   */\n      0x00\n        /* \"#utility.yul\":411:453   */\n      0xffffffffffffffffffffffffffffffffffffffff\n        /* \"#utility.yul\":404:409   */\n      dup3\n        /* \"#utility.yul\":400:454   */\n      and\n        /* \"#utility.yul\":389:454   */\n      swap1\n      pop\n        /* \"#utility.yul\":334:460   */\n      swap2\n      swap1\n      pop\n      jump\t// out\n        /* \"#utility.yul\":466:562   */\n    tag_377:\n        /* \"#utility.yul\":503:510   */\n      0x00\n        /* \"#utility.yul\":532:556   */\n      tag_451\n        /* \"#utility.yul\":550:555   */\n      dup3\n        /* \"#utility.yul\":532:556   */\n      tag_376\n      jump\t// in\n    tag_451:\n        /* \"#utility.yul\":521:556   */\n      swap1\n      pop\n        /* \"#utility.yul\":466:562   */\n      swap2\n      swap1\n      pop\n      jump\t// out\n        /* \"#utility.yul\":568:690   */\n    tag_378:\n        /* \"#utility.yul\":641:665   */\n      tag_453\n        /* \"#utility.yul\":659:664   */\n      dup2\n        /* \"#utility.yul\":641:665   */\n      tag_377\n      jump\t// in\n    tag_453:\n        /* \"#utility.yul\":634:639   */\n      dup2\n        /* \"#utility.yul\":631:666   */\n      eq\n        /* \"#utility.yul\":621:684   */\n      tag_454\n      jumpi\n        /* \"#utility.yul\":680:681   */\n      0x00\n        /* \"#utility.yul\":677:678   */\n      dup1\n        /* \"#utility.yul\":670:682   */\n      revert\n        /* \"#utility.yul\":621:684   */\n    tag_454:\n        /* \"#utility.yul\":568:690   */\n      pop\n      jump\t// out\n        /* \"#utility.yul\":696:835   */\n    tag_379:\n        /* \"#utility.yul\":742:747   */\n      0x00\n        /* \"#utility.yul\":780:786   */\n      dup2\n        /* \"#utility.yul\":767:787   */\n      calldataload\n        /* \"#utility.yul\":758:787   */\n      swap1\n      pop\n        /* \"#utility.yul\":796:829   */\n      tag_456\n        /* \"#utility.yul\":823:828   */\n      dup2\n        /* \"#utility.yul\":796:829   */\n      tag_378\n      jump\t// in\n    tag_456:\n        /* \"#utility.yul\":696:835   */\n      swap3\n      swap2\n      pop\n      pop\n      jump\t// out\n        /* \"#utility.yul\":841:1170   */\n    tag_42:\n        /* \"#utility.yul\":900:906   */\n      0x00\n        /* \"#utility.yul\":949:951   */\n      0x20\n        /* \"#utility.yul\":937:946   */\n      dup3\n        /* \"#utility.yul\":928:935   */\n      dup5\n        /* \"#utility.yul\":924:947   */\n      sub\n        /* \"#utility.yul\":920:952   */\n      slt\n        /* \"#utility.yul\":917:1036   */\n      iszero\n      tag_458\n      jumpi\n        /* \"#utility.yul\":955:1034   */\n      tag_459\n      tag_374\n      jump\t// in\n    tag_459:\n        /* \"#utility.yul\":917:1036   */\n    tag_458:\n        /* \"#utility.yul\":1075:1076   */\n      0x00\n        /* \"#utility.yul\":1100:1153   */\n      tag_460\n        /* \"#utility.yul\":1145:1152   */\n      dup5\n        /* \"#utility.yul\":1136:1142   */\n      dup3\n        /* \"#utility.yul\":1125:1134   */\n      dup6\n        /* \"#utility.yul\":1121:1143   */\n      add\n        /* \"#utility.yul\":1100:1153   */\n      tag_379\n      jump\t// in\n    tag_460:\n        /* \"#utility.yul\":1090:1153   */\n      swap2\n      pop\n        /* \"#utility.yul\":1046:1163   */\n      pop\n        /* \"#utility.yul\":841:1170   */\n      swap3\n      swap2\n      pop\n      pop\n      jump\t// out\n        /* \"#utility.yul\":1176:1253   */\n    tag_380:\n        /* \"#utility.yul\":1213:1220   */\n      0x00\n        /* \"#utility.yul\":1242:1247   */\n      dup2\n        /* \"#utility.yul\":1231:1247   */\n      swap1\n      pop\n        /* \"#utility.yul\":1176:1253   */\n      swap2\n      swap1\n      pop\n      jump\t// out\n        /* \"#utility.yul\":1259:1377   */\n    tag_381:\n        /* \"#utility.yul\":1346:1370   */\n      tag_463\n        /* \"#utility.yul\":1364:1369   */\n      dup2\n        /* \"#utility.yul\":1346:1370   */\n      tag_380\n      jump\t// in\n    tag_463:\n        /* \"#utility.yul\":1341:1344   */\n      dup3\n        /* \"#utility.yul\":1334:1371   */\n      mstore\n        /* \"#utility.yul\":1259:1377   */\n      pop\n      pop\n      jump\t// out\n        /* \"#utility.yul\":1383:1605   */\n    tag_45:\n        /* \"#utility.yul\":1476:1480   */\n      0x00\n        /* \"#utility.yul\":1514:1516   */\n      0x20\n        /* \"#utility.yul\":1503:1512   */\n      dup3\n        /* \"#utility.yul\":1499:1517   */\n      add\n        /* \"#utility.yul\":1491:1517   */\n      swap1\n      pop\n        /* \"#utility.yul\":1527:1598   */\n      tag_465\n        /* \"#utility.yul\":1595:1596   */\n      0x00\n        /* \"#utility.yul\":1584:1593   */\n      dup4\n        /* \"#utility.yul\":1580:1597   */\n      add\n        /* \"#utility.yul\":1571:1577   */\n      dup5\n        /* \"#utility.yul\":1527:1598   */\n      tag_381\n      jump\t// in\n    tag_465:\n        /* \"#utility.yul\":1383:1605   */\n      swap3\n      swap2\n      pop\n      pop\n      jump\t// out\n        /* \"#utility.yul\":1611:1701   */\n    tag_382:\n        /* \"#utility.yul\":1645:1652   */\n      0x00\n        /* \"#utility.yul\":1688:1693   */\n      dup2\n        /* \"#utility.yul\":1681:1694   */\n      iszero\n        /* \"#utility.yul\":1674:1695   */\n      iszero\n        /* \"#utility.yul\":1663:1695   */\n      swap1\n      pop\n        /* \"#utility.yul\":1611:1701   */\n      swap2\n      swap1\n      pop\n      jump\t// out\n        /* \"#utility.yul\":1707:1823   */\n    tag_383:\n        /* \"#utility.yul\":1777:1798   */\n      tag_468\n        /* \"#utility.yul\":1792:1797   */\n      dup2\n        /* \"#utility.yul\":1777:1798   */\n      tag_382\n      jump\t// in\n    tag_468:\n        /* \"#utility.yul\":1770:1775   */\n      dup2\n        /* \"#utility.yul\":1767:1799   */\n      eq\n        /* \"#utility.yul\":1757:1817   */\n      tag_469\n      jumpi\n        /* \"#utility.yul\":1813:1814   */\n      0x00\n        /* \"#utility.yul\":1810:1811   */\n      dup1\n        /* \"#utility.yul\":1803:1815   */\n      revert\n        /* \"#utility.yul\":1757:1817   */\n    tag_469:\n        /* \"#utility.yul\":1707:1823   */\n      pop\n      jump\t// out\n        /* \"#utility.yul\":1829:1962   */\n    tag_384:\n        /* \"#utility.yul\":1872:1877   */\n      0x00\n        /* \"#utility.yul\":1910:1916   */\n      dup2\n        /* \"#utility.yul\":1897:1917   */\n      calldataload\n        /* \"#utility.yul\":1888:1917   */\n      swap1\n      pop\n        /* \"#utility.yul\":1926:1956   */\n      tag_471\n        /* \"#utility.yul\":1950:1955   */\n      dup2\n        /* \"#utility.yul\":1926:1956   */\n      tag_383\n      jump\t// in\n    tag_471:\n        /* \"#utility.yul\":1829:1962   */\n      swap3\n      swap2\n      pop\n      pop\n      jump\t// out\n        /* \"#utility.yul\":1968:2436   */\n    tag_53:\n        /* \"#utility.yul\":2033:2039   */\n      0x00\n        /* \"#utility.yul\":2041:2047   */\n      dup1\n        /* \"#utility.yul\":2090:2092   */\n      0x40\n        /* \"#utility.yul\":2078:2087   */\n      dup4\n        /* \"#utility.yul\":2069:2076   */\n      dup6\n        /* \"#utility.yul\":2065:2088   */\n      sub\n        /* \"#utility.yul\":2061:2093   */\n      slt\n        /* \"#utility.yul\":2058:2177   */\n      iszero\n      tag_473\n      jumpi\n        /* \"#utility.yul\":2096:2175   */\n      tag_474\n      tag_374\n      jump\t// in\n    tag_474:\n        /* \"#utility.yul\":2058:2177   */\n    tag_473:\n        /* \"#utility.yul\":2216:2217   */\n      0x00\n        /* \"#utility.yul\":2241:2294   */\n      tag_475\n        /* \"#utility.yul\":2286:2293   */\n      dup6\n        /* \"#utility.yul\":2277:2283   */\n      dup3\n        /* \"#utility.yul\":2266:2275   */\n      dup7\n        /* \"#utility.yul\":2262:2284   */\n      add\n        /* \"#utility.yul\":2241:2294   */\n      tag_379\n      jump\t// in\n    tag_475:\n        /* \"#utility.yul\":2231:2294   */\n      swap3\n      pop\n        /* \"#utility.yul\":2187:2304   */\n      pop\n        /* \"#utility.yul\":2343:2345   */\n      0x20\n        /* \"#utility.yul\":2369:2419   */\n      tag_476\n        /* \"#utility.yul\":2411:2418   */\n      dup6\n        /* \"#utility.yul\":2402:2408   */\n      dup3\n        /* \"#utility.yul\":2391:2400   */\n      dup7\n        /* \"#utility.yul\":2387:2409   */\n      add\n        /* \"#utility.yul\":2369:2419   */\n      tag_384\n      jump\t// in\n    tag_476:\n        /* \"#utility.yul\":2359:2419   */\n      swap2\n      pop\n        /* \"#utility.yul\":2314:2429   */\n      pop\n        /* \"#utility.yul\":1968:2436   */\n      swap3\n      pop\n      swap3\n      swap1\n      pop\n      jump\t// out\n        /* \"#utility.yul\":2442:2551   */\n    tag_385:\n        /* \"#utility.yul\":2523:2544   */\n      tag_478\n        /* \"#utility.yul\":2538:2543   */\n      dup2\n        /* \"#utility.yul\":2523:2544   */\n      tag_382\n      jump\t// in\n    tag_478:\n        /* \"#utility.yul\":2518:2521   */\n      dup3\n        /* \"#utility.yul\":2511:2545   */\n      mstore\n        /* \"#utility.yul\":2442:2551   */\n      pop\n      pop\n      jump\t// out\n        /* \"#utility.yul\":2557:2767   */\n    tag_67:\n        /* \"#utility.yul\":2644:2648   */\n      0x00\n        /* \"#utility.yul\":2682:2684   */\n      0x20\n        /* \"#utility.yul\":2671:2680   */\n      dup3\n        /* \"#utility.yul\":2667:2685   */\n      add\n        /* \"#utility.yul\":2659:2685   */\n      swap1\n      pop\n        /* \"#utility.yul\":2695:2760   */\n      tag_480\n        /* \"#utility.yul\":2757:2758   */\n      0x00\n        /* \"#utility.yul\":2746:2755   */\n      dup4\n        /* \"#utility.yul\":2742:2759   */\n      add\n        /* \"#utility.yul\":2733:2739   */\n      dup5\n        /* \"#utility.yul\":2695:2760   */\n      tag_385\n      jump\t// in\n    tag_480:\n        /* \"#utility.yul\":2557:2767   */\n      swap3\n      swap2\n      pop\n      pop\n      jump\t// out\n        /* \"#utility.yul\":2773:2891   */\n    tag_386:\n        /* \"#utility.yul\":2860:2884   */\n      tag_482\n        /* \"#utility.yul\":2878:2883   */\n      dup2\n        /* \"#utility.yul\":2860:2884   */\n      tag_377\n      jump\t// in\n    tag_482:\n        /* \"#utility.yul\":2855:2858   */\n      dup3\n        /* \"#utility.yul\":2848:2885   */\n      mstore\n        /* \"#utility.yul\":2773:2891   */\n      pop\n      pop\n      jump\t// out\n        /* \"#utility.yul\":2897:3119   */\n    tag_103:\n        /* \"#utility.yul\":2990:2994   */\n      0x00\n        /* \"#utility.yul\":3028:3030   */\n      0x20\n        /* \"#utility.yul\":3017:3026   */\n      dup3\n        /* \"#utility.yul\":3013:3031   */\n      add\n        /* \"#utility.yul\":3005:3031   */\n      swap1\n      pop\n        /* \"#utility.yul\":3041:3112   */\n      tag_484\n        /* \"#utility.yul\":3109:3110   */\n      0x00\n        /* \"#utility.yul\":3098:3107   */\n      dup4\n        /* \"#utility.yul\":3094:3111   */\n      add\n        /* \"#utility.yul\":3085:3091   */\n      dup5\n        /* \"#utility.yul\":3041:3112   */\n      tag_386\n      jump\t// in\n    tag_484:\n        /* \"#utility.yul\":2897:3119   */\n      swap3\n      swap2\n      pop\n      pop\n      jump\t// out\n        /* \"#utility.yul\":3125:3448   */\n    tag_112:\n        /* \"#utility.yul\":3181:3187   */\n      0x00\n        /* \"#utility.yul\":3230:3232   */\n      0x20\n        /* \"#utility.yul\":3218:3227   */\n      dup3\n        /* \"#utility.yul\":3209:3216   */\n      dup5\n        /* \"#utility.yul\":3205:3228   */\n      sub\n        /* \"#utility.yul\":3201:3233   */\n      slt\n        /* \"#utility.yul\":3198:3317   */\n      iszero\n      tag_486\n      jumpi\n        /* \"#utility.yul\":3236:3315   */\n      tag_487\n      tag_374\n      jump\t// in\n    tag_487:\n        /* \"#utility.yul\":3198:3317   */\n    tag_486:\n        /* \"#utility.yul\":3356:3357   */\n      0x00\n        /* \"#utility.yul\":3381:3431   */\n      tag_488\n        /* \"#utility.yul\":3423:3430   */\n      dup5\n        /* \"#utility.yul\":3414:3420   */\n      dup3\n        /* \"#utility.yul\":3403:3412   */\n      dup6\n        /* \"#utility.yul\":3399:3421   */\n      add\n        /* \"#utility.yul\":3381:3431   */\n      tag_384\n      jump\t// in\n    tag_488:\n        /* \"#utility.yul\":3371:3431   */\n      swap2\n      pop\n        /* \"#utility.yul\":3327:3441   */\n      pop\n        /* \"#utility.yul\":3125:3448   */\n      swap3\n      swap2\n      pop\n      pop\n      jump\t// out\n        /* \"#utility.yul\":3454:4106   */\n    tag_134:\n        /* \"#utility.yul\":3653:3657   */\n      0x00\n        /* \"#utility.yul\":3691:3694   */\n      0xa0\n        /* \"#utility.yul\":3680:3689   */\n      dup3\n        /* \"#utility.yul\":3676:3695   */\n      add\n        /* \"#utility.yul\":3668:3695   */\n      swap1\n      pop\n        /* \"#utility.yul\":3705:3776   */\n      tag_490\n        /* \"#utility.yul\":3773:3774   */\n      0x00\n        /* \"#utility.yul\":3762:3771   */\n      dup4\n        /* \"#utility.yul\":3758:3775   */\n      add\n        /* \"#utility.yul\":3749:3755   */\n      dup9\n        /* \"#utility.yul\":3705:3776   */\n      tag_381\n      jump\t// in\n    tag_490:\n        /* \"#utility.yul\":3786:3858   */\n      tag_491\n        /* \"#utility.yul\":3854:3856   */\n      0x20\n        /* \"#utility.yul\":3843:3852   */\n      dup4\n        /* \"#utility.yul\":3839:3857   */\n      add\n        /* \"#utility.yul\":3830:3836   */\n      dup8\n        /* \"#utility.yul\":3786:3858   */\n      tag_381\n      jump\t// in\n    tag_491:\n        /* \"#utility.yul\":3868:3940   */\n      tag_492\n        /* \"#utility.yul\":3936:3938   */\n      0x40\n        /* \"#utility.yul\":3925:3934   */\n      dup4\n        /* \"#utility.yul\":3921:3939   */\n      add\n        /* \"#utility.yul\":3912:3918   */\n      dup7\n        /* \"#utility.yul\":3868:3940   */\n      tag_381\n      jump\t// in\n    tag_492:\n        /* \"#utility.yul\":3950:4022   */\n      tag_493\n        /* \"#utility.yul\":4018:4020   */\n      0x60\n        /* \"#utility.yul\":4007:4016   */\n      dup4\n        /* \"#utility.yul\":4003:4021   */\n      add\n        /* \"#utility.yul\":3994:4000   */\n      dup6\n        /* \"#utility.yul\":3950:4022   */\n      tag_381\n      jump\t// in\n    tag_493:\n        /* \"#utility.yul\":4032:4099   */\n      tag_494\n        /* \"#utility.yul\":4094:4097   */\n      0x80\n        /* \"#utility.yul\":4083:4092   */\n      dup4\n        /* \"#utility.yul\":4079:4098   */\n      add\n        /* \"#utility.yul\":4070:4076   */\n      dup5\n        /* \"#utility.yul\":4032:4099   */\n      tag_385\n      jump\t// in\n    tag_494:\n        /* \"#utility.yul\":3454:4106   */\n      swap7\n      swap6\n      pop\n      pop\n      pop\n      pop\n      pop\n      pop\n      jump\t// out\n        /* \"#utility.yul\":4112:4229   */\n    tag_387:\n        /* \"#utility.yul\":4221:4222   */\n      0x00\n        /* \"#utility.yul\":4218:4219   */\n      dup1\n        /* \"#utility.yul\":4211:4223   */\n      revert\n        /* \"#utility.yul\":4235:4352   */\n    tag_388:\n        /* \"#utility.yul\":4344:4345   */\n      0x00\n        /* \"#utility.yul\":4341:4342   */\n      dup1\n        /* \"#utility.yul\":4334:4346   */\n      revert\n        /* \"#utility.yul\":4358:4475   */\n    tag_389:\n        /* \"#utility.yul\":4467:4468   */\n      0x00\n        /* \"#utility.yul\":4464:4465   */\n      dup1\n        /* \"#utility.yul\":4457:4469   */\n      revert\n        /* \"#utility.yul\":4498:5066   */\n    tag_390:\n        /* \"#utility.yul\":4571:4579   */\n      0x00\n        /* \"#utility.yul\":4581:4587   */\n      dup1\n        /* \"#utility.yul\":4631:4634   */\n      dup4\n        /* \"#utility.yul\":4624:4628   */\n      0x1f\n        /* \"#utility.yul\":4616:4622   */\n      dup5\n        /* \"#utility.yul\":4612:4629   */\n      add\n        /* \"#utility.yul\":4608:4635   */\n      slt\n        /* \"#utility.yul\":4598:4720   */\n      tag_499\n      jumpi\n        /* \"#utility.yul\":4639:4718   */\n      tag_500\n      tag_387\n      jump\t// in\n    tag_500:\n        /* \"#utility.yul\":4598:4720   */\n    tag_499:\n        /* \"#utility.yul\":4752:4758   */\n      dup3\n        /* \"#utility.yul\":4739:4759   */\n      calldataload\n        /* \"#utility.yul\":4729:4759   */\n      swap1\n      pop\n        /* \"#utility.yul\":4782:4800   */\n      0xffffffffffffffff\n        /* \"#utility.yul\":4774:4780   */\n      dup2\n        /* \"#utility.yul\":4771:4801   */\n      gt\n        /* \"#utility.yul\":4768:4885   */\n      iszero\n      tag_501\n      jumpi\n        /* \"#utility.yul\":4804:4883   */\n      tag_502\n      tag_388\n      jump\t// in\n    tag_502:\n        /* \"#utility.yul\":4768:4885   */\n    tag_501:\n        /* \"#utility.yul\":4918:4922   */\n      0x20\n        /* \"#utility.yul\":4910:4916   */\n      dup4\n        /* \"#utility.yul\":4906:4923   */\n      add\n        /* \"#utility.yul\":4894:4923   */\n      swap2\n      pop\n        /* \"#utility.yul\":4972:4975   */\n      dup4\n        /* \"#utility.yul\":4964:4968   */\n      0x20\n        /* \"#utility.yul\":4956:4962   */\n      dup3\n        /* \"#utility.yul\":4952:4969   */\n      mul\n        /* \"#utility.yul\":4942:4950   */\n      dup4\n        /* \"#utility.yul\":4938:4970   */\n      add\n        /* \"#utility.yul\":4935:4976   */\n      gt\n        /* \"#utility.yul\":4932:5060   */\n      iszero\n      tag_503\n      jumpi\n        /* \"#utility.yul\":4979:5058   */\n      tag_504\n      tag_389\n      jump\t// in\n    tag_504:\n        /* \"#utility.yul\":4932:5060   */\n    tag_503:\n        /* \"#utility.yul\":4498:5066   */\n      swap3\n      pop\n      swap3\n      swap1\n      pop\n      jump\t// out\n        /* \"#utility.yul\":5089:5657   */\n    tag_391:\n        /* \"#utility.yul\":5162:5170   */\n      0x00\n        /* \"#utility.yul\":5172:5178   */\n      dup1\n        /* \"#utility.yul\":5222:5225   */\n      dup4\n        /* \"#utility.yul\":5215:5219   */\n      0x1f\n        /* \"#utility.yul\":5207:5213   */\n      dup5\n        /* \"#utility.yul\":5203:5220   */\n      add\n        /* \"#utility.yul\":5199:5226   */\n      slt\n        /* \"#utility.yul\":5189:5311   */\n      tag_506\n      jumpi\n        /* \"#utility.yul\":5230:5309   */\n      tag_507\n      tag_387\n      jump\t// in\n    tag_507:\n        /* \"#utility.yul\":5189:5311   */\n    tag_506:\n        /* \"#utility.yul\":5343:5349   */\n      dup3\n        /* \"#utility.yul\":5330:5350   */\n      calldataload\n        /* \"#utility.yul\":5320:5350   */\n      swap1\n      pop\n        /* \"#utility.yul\":5373:5391   */\n      0xffffffffffffffff\n        /* \"#utility.yul\":5365:5371   */\n      dup2\n        /* \"#utility.yul\":5362:5392   */\n      gt\n        /* \"#utility.yul\":5359:5476   */\n      iszero\n      tag_508\n      jumpi\n        /* \"#utility.yul\":5395:5474   */\n      tag_509\n      tag_388\n      jump\t// in\n    tag_509:\n        /* \"#utility.yul\":5359:5476   */\n    tag_508:\n        /* \"#utility.yul\":5509:5513   */\n      0x20\n        /* \"#utility.yul\":5501:5507   */\n      dup4\n        /* \"#utility.yul\":5497:5514   */\n      add\n        /* \"#utility.yul\":5485:5514   */\n      swap2\n      pop\n        /* \"#utility.yul\":5563:5566   */\n      dup4\n        /* \"#utility.yul\":5555:5559   */\n      0x20\n        /* \"#utility.yul\":5547:5553   */\n      dup3\n        /* \"#utility.yul\":5543:5560   */\n      mul\n        /* \"#utility.yul\":5533:5541   */\n      dup4\n        /* \"#utility.yul\":5529:5561   */\n      add\n        /* \"#utility.yul\":5526:5567   */\n      gt\n        /* \"#utility.yul\":5523:5651   */\n      iszero\n      tag_510\n      jumpi\n        /* \"#utility.yul\":5570:5649   */\n      tag_511\n      tag_389\n      jump\t// in\n    tag_511:\n        /* \"#utility.yul\":5523:5651   */\n    tag_510:\n        /* \"#utility.yul\":5089:5657   */\n      swap3\n      pop\n      swap3\n      swap1\n      pop\n      jump\t// out\n        /* \"#utility.yul\":5663:6597   */\n    tag_138:\n        /* \"#utility.yul\":5785:5791   */\n      0x00\n        /* \"#utility.yul\":5793:5799   */\n      dup1\n        /* \"#utility.yul\":5801:5807   */\n      0x00\n        /* \"#utility.yul\":5809:5815   */\n      dup1\n        /* \"#utility.yul\":5858:5860   */\n      0x40\n        /* \"#utility.yul\":5846:5855   */\n      dup6\n        /* \"#utility.yul\":5837:5844   */\n      dup8\n        /* \"#utility.yul\":5833:5856   */\n      sub\n        /* \"#utility.yul\":5829:5861   */\n      slt\n        /* \"#utility.yul\":5826:5945   */\n      iszero\n      tag_513\n      jumpi\n        /* \"#utility.yul\":5864:5943   */\n      tag_514\n      tag_374\n      jump\t// in\n    tag_514:\n        /* \"#utility.yul\":5826:5945   */\n    tag_513:\n        /* \"#utility.yul\":6012:6013   */\n      0x00\n        /* \"#utility.yul\":6001:6010   */\n      dup6\n        /* \"#utility.yul\":5997:6014   */\n      add\n        /* \"#utility.yul\":5984:6015   */\n      calldataload\n        /* \"#utility.yul\":6042:6060   */\n      0xffffffffffffffff\n        /* \"#utility.yul\":6034:6040   */\n      dup2\n        /* \"#utility.yul\":6031:6061   */\n      gt\n        /* \"#utility.yul\":6028:6145   */\n      iszero\n      tag_515\n      jumpi\n        /* \"#utility.yul\":6064:6143   */\n      tag_516\n      tag_375\n      jump\t// in\n    tag_516:\n        /* \"#utility.yul\":6028:6145   */\n    tag_515:\n        /* \"#utility.yul\":6177:6257   */\n      tag_517\n        /* \"#utility.yul\":6249:6256   */\n      dup8\n        /* \"#utility.yul\":6240:6246   */\n      dup3\n        /* \"#utility.yul\":6229:6238   */\n      dup9\n        /* \"#utility.yul\":6225:6247   */\n      add\n        /* \"#utility.yul\":6177:6257   */\n      tag_390\n      jump\t// in\n    tag_517:\n        /* \"#utility.yul\":6159:6257   */\n      swap5\n      pop\n      swap5\n      pop\n        /* \"#utility.yul\":5955:6267   */\n      pop\n        /* \"#utility.yul\":6334:6336   */\n      0x20\n        /* \"#utility.yul\":6323:6332   */\n      dup6\n        /* \"#utility.yul\":6319:6337   */\n      add\n        /* \"#utility.yul\":6306:6338   */\n      calldataload\n        /* \"#utility.yul\":6365:6383   */\n      0xffffffffffffffff\n        /* \"#utility.yul\":6357:6363   */\n      dup2\n        /* \"#utility.yul\":6354:6384   */\n      gt\n        /* \"#utility.yul\":6351:6468   */\n      iszero\n      tag_518\n      jumpi\n        /* \"#utility.yul\":6387:6466   */\n      tag_519\n      tag_375\n      jump\t// in\n    tag_519:\n        /* \"#utility.yul\":6351:6468   */\n    tag_518:\n        /* \"#utility.yul\":6500:6580   */\n      tag_520\n        /* \"#utility.yul\":6572:6579   */\n      dup8\n        /* \"#utility.yul\":6563:6569   */\n      dup3\n        /* \"#utility.yul\":6552:6561   */\n      dup9\n        /* \"#utility.yul\":6548:6570   */\n      add\n        /* \"#utility.yul\":6500:6580   */\n      tag_391\n      jump\t// in\n    tag_520:\n        /* \"#utility.yul\":6482:6580   */\n      swap3\n      pop\n      swap3\n      pop\n        /* \"#utility.yul\":6277:6590   */\n      pop\n        /* \"#utility.yul\":5663:6597   */\n      swap3\n      swap6\n      swap2\n      swap5\n      pop\n      swap3\n      pop\n      jump\t// out\n        /* \"#utility.yul\":6603:6725   */\n    tag_392:\n        /* \"#utility.yul\":6676:6700   */\n      tag_522\n        /* \"#utility.yul\":6694:6699   */\n      dup2\n        /* \"#utility.yul\":6676:6700   */\n      tag_380\n      jump\t// in\n    tag_522:\n        /* \"#utility.yul\":6669:6674   */\n      dup2\n        /* \"#utility.yul\":6666:6701   */\n      eq\n        /* \"#utility.yul\":6656:6719   */\n      tag_523\n      jumpi\n        /* \"#utility.yul\":6715:6716   */\n      0x00\n        /* \"#utility.yul\":6712:6713   */\n      dup1\n        /* \"#utility.yul\":6705:6717   */\n      revert\n        /* \"#utility.yul\":6656:6719   */\n    tag_523:\n        /* \"#utility.yul\":6603:6725   */\n      pop\n      jump\t// out\n        /* \"#utility.yul\":6731:6870   */\n    tag_393:\n        /* \"#utility.yul\":6777:6782   */\n      0x00\n        /* \"#utility.yul\":6815:6821   */\n      dup2\n        /* \"#utility.yul\":6802:6822   */\n      calldataload\n        /* \"#utility.yul\":6793:6822   */\n      swap1\n      pop\n        /* \"#utility.yul\":6831:6864   */\n      tag_525\n        /* \"#utility.yul\":6858:6863   */\n      dup2\n        /* \"#utility.yul\":6831:6864   */\n      tag_392\n      jump\t// in\n    tag_525:\n        /* \"#utility.yul\":6731:6870   */\n      swap3\n      swap2\n      pop\n      pop\n      jump\t// out\n        /* \"#utility.yul\":6876:7205   */\n    tag_149:\n        /* \"#utility.yul\":6935:6941   */\n      0x00\n        /* \"#utility.yul\":6984:6986   */\n      0x20\n        /* \"#utility.yul\":6972:6981   */\n      dup3\n        /* \"#utility.yul\":6963:6970   */\n      dup5\n        /* \"#utility.yul\":6959:6982   */\n      sub\n        /* \"#utility.yul\":6955:6987   */\n      slt\n        /* \"#utility.yul\":6952:7071   */\n      iszero\n      tag_527\n      jumpi\n        /* \"#utility.yul\":6990:7069   */\n      tag_528\n      tag_374\n      jump\t// in\n    tag_528:\n        /* \"#utility.yul\":6952:7071   */\n    tag_527:\n        /* \"#utility.yul\":7110:7111   */\n      0x00\n        /* \"#utility.yul\":7135:7188   */\n      tag_529\n        /* \"#utility.yul\":7180:7187   */\n      dup5\n        /* \"#utility.yul\":7171:7177   */\n      dup3\n        /* \"#utility.yul\":7160:7169   */\n      dup6\n        /* \"#utility.yul\":7156:7178   */\n      add\n        /* \"#utility.yul\":7135:7188   */\n      tag_393\n      jump\t// in\n    tag_529:\n        /* \"#utility.yul\":7125:7188   */\n      swap2\n      pop\n        /* \"#utility.yul\":7081:7198   */\n      pop\n        /* \"#utility.yul\":6876:7205   */\n      swap3\n      swap2\n      pop\n      pop\n      jump\t// out\n        /* \"#utility.yul\":7211:7271   */\n    tag_394:\n        /* \"#utility.yul\":7239:7242   */\n      0x00\n        /* \"#utility.yul\":7260:7265   */\n      dup2\n        /* \"#utility.yul\":7253:7265   */\n      swap1\n      pop\n        /* \"#utility.yul\":7211:7271   */\n      swap2\n      swap1\n      pop\n      jump\t// out\n        /* \"#utility.yul\":7277:7419   */\n    tag_395:\n        /* \"#utility.yul\":7327:7336   */\n      0x00\n        /* \"#utility.yul\":7360:7413   */\n      tag_532\n        /* \"#utility.yul\":7378:7412   */\n      tag_533\n        /* \"#utility.yul\":7387:7411   */\n      tag_534\n        /* \"#utility.yul\":7405:7410   */\n      dup5\n        /* \"#utility.yul\":7387:7411   */\n      tag_376\n      jump\t// in\n    tag_534:\n        /* \"#utility.yul\":7378:7412   */\n      tag_394\n      jump\t// in\n    tag_533:\n        /* \"#utility.yul\":7360:7413   */\n      tag_376\n      jump\t// in\n    tag_532:\n        /* \"#utility.yul\":7347:7413   */\n      swap1\n      pop\n        /* \"#utility.yul\":7277:7419   */\n      swap2\n      swap1\n      pop\n      jump\t// out\n        /* \"#utility.yul\":7425:7551   */\n    tag_396:\n        /* \"#utility.yul\":7475:7484   */\n      0x00\n        /* \"#utility.yul\":7508:7545   */\n      tag_536\n        /* \"#utility.yul\":7539:7544   */\n      dup3\n        /* \"#utility.yul\":7508:7545   */\n      tag_395\n      jump\t// in\n    tag_536:\n        /* \"#utility.yul\":7495:7545   */\n      swap1\n      pop\n        /* \"#utility.yul\":7425:7551   */\n      swap2\n      swap1\n      pop\n      jump\t// out\n        /* \"#utility.yul\":7557:7697   */\n    tag_397:\n        /* \"#utility.yul\":7621:7630   */\n      0x00\n        /* \"#utility.yul\":7654:7691   */\n      tag_538\n        /* \"#utility.yul\":7685:7690   */\n      dup3\n        /* \"#utility.yul\":7654:7691   */\n      tag_396\n      jump\t// in\n    tag_538:\n        /* \"#utility.yul\":7641:7691   */\n      swap1\n      pop\n        /* \"#utility.yul\":7557:7697   */\n      swap2\n      swap1\n      pop\n      jump\t// out\n        /* \"#utility.yul\":7703:7862   */\n    tag_398:\n        /* \"#utility.yul\":7804:7855   */\n      tag_540\n        /* \"#utility.yul\":7849:7854   */\n      dup2\n        /* \"#utility.yul\":7804:7855   */\n      tag_397\n      jump\t// in\n    tag_540:\n        /* \"#utility.yul\":7799:7802   */\n      dup3\n        /* \"#utility.yul\":7792:7856   */\n      mstore\n        /* \"#utility.yul\":7703:7862   */\n      pop\n      pop\n      jump\t// out\n        /* \"#utility.yul\":7868:8118   */\n    tag_166:\n        /* \"#utility.yul\":7975:7979   */\n      0x00\n        /* \"#utility.yul\":8013:8015   */\n      0x20\n        /* \"#utility.yul\":8002:8011   */\n      dup3\n        /* \"#utility.yul\":7998:8016   */\n      add\n        /* \"#utility.yul\":7990:8016   */\n      swap1\n      pop\n        /* \"#utility.yul\":8026:8111   */\n      tag_542\n        /* \"#utility.yul\":8108:8109   */\n      0x00\n        /* \"#utility.yul\":8097:8106   */\n      dup4\n        /* \"#utility.yul\":8093:8110   */\n      add\n        /* \"#utility.yul\":8084:8090   */\n      dup5\n        /* \"#utility.yul\":8026:8111   */\n      tag_398\n      jump\t// in\n    tag_542:\n        /* \"#utility.yul\":7868:8118   */\n      swap3\n      swap2\n      pop\n      pop\n      jump\t// out\n        /* \"#utility.yul\":8124:8304   */\n    tag_399:\n        /* \"#utility.yul\":8172:8249   */\n      0x4e487b7100000000000000000000000000000000000000000000000000000000\n        /* \"#utility.yul\":8169:8170   */\n      0x00\n        /* \"#utility.yul\":8162:8250   */\n      mstore\n        /* \"#utility.yul\":8269:8273   */\n      0x11\n        /* \"#utility.yul\":8266:8267   */\n      0x04\n        /* \"#utility.yul\":8259:8274   */\n      mstore\n        /* \"#utility.yul\":8293:8297   */\n      0x24\n        /* \"#utility.yul\":8290:8291   */\n      0x00\n        /* \"#utility.yul\":8283:8298   */\n      revert\n        /* \"#utility.yul\":8310:8504   */\n    tag_178:\n        /* \"#utility.yul\":8350:8354   */\n      0x00\n        /* \"#utility.yul\":8370:8390   */\n      tag_545\n        /* \"#utility.yul\":8388:8389   */\n      dup3\n        /* \"#utility.yul\":8370:8390   */\n      tag_380\n      jump\t// in\n    tag_545:\n        /* \"#utility.yul\":8365:8390   */\n      swap2\n      pop\n        /* \"#utility.yul\":8404:8424   */\n      tag_546\n        /* \"#utility.yul\":8422:8423   */\n      dup4\n        /* \"#utility.yul\":8404:8424   */\n      tag_380\n      jump\t// in\n    tag_546:\n        /* \"#utility.yul\":8399:8424   */\n      swap3\n      pop\n        /* \"#utility.yul\":8448:8449   */\n      dup3\n        /* \"#utility.yul\":8445:8446   */\n      dup3\n        /* \"#utility.yul\":8441:8450   */\n      sub\n        /* \"#utility.yul\":8433:8450   */\n      swap1\n      pop\n        /* \"#utility.yul\":8472:8473   */\n      dup2\n        /* \"#utility.yul\":8466:8470   */\n      dup2\n        /* \"#utility.yul\":8463:8474   */\n      gt\n        /* \"#utility.yul\":8460:8497   */\n      iszero\n      tag_547\n      jumpi\n        /* \"#utility.yul\":8477:8495   */\n      tag_548\n      tag_399\n      jump\t// in\n    tag_548:\n        /* \"#utility.yul\":8460:8497   */\n    tag_547:\n        /* \"#utility.yul\":8310:8504   */\n      swap3\n      swap2\n      pop\n      pop\n      jump\t// out\n        /* \"#utility.yul\":8510:8679   */\n    tag_400:\n        /* \"#utility.yul\":8594:8605   */\n      0x00\n        /* \"#utility.yul\":8628:8634   */\n      dup3\n        /* \"#utility.yul\":8623:8626   */\n      dup3\n        /* \"#utility.yul\":8616:8635   */\n      mstore\n        /* \"#utility.yul\":8668:8672   */\n      0x20\n        /* \"#utility.yul\":8663:8666   */\n      dup3\n        /* \"#utility.yul\":8659:8673   */\n      add\n        /* \"#utility.yul\":8644:8673   */\n      swap1\n      pop\n        /* \"#utility.yul\":8510:8679   */\n      swap3\n      swap2\n      pop\n      pop\n      jump\t// out\n        /* \"#utility.yul\":8685:8852   */\n    tag_401:\n        /* \"#utility.yul\":8825:8844   */\n      0x436c61696d206e6f7420656e61626c6564000000000000000000000000000000\n        /* \"#utility.yul\":8821:8822   */\n      0x00\n        /* \"#utility.yul\":8813:8819   */\n      dup3\n        /* \"#utility.yul\":8809:8823   */\n      add\n        /* \"#utility.yul\":8802:8845   */\n      mstore\n        /* \"#utility.yul\":8685:8852   */\n      pop\n      jump\t// out\n        /* \"#utility.yul\":8858:9224   */\n    tag_402:\n        /* \"#utility.yul\":9000:9003   */\n      0x00\n        /* \"#utility.yul\":9021:9088   */\n      tag_552\n        /* \"#utility.yul\":9085:9087   */\n      0x11\n        /* \"#utility.yul\":9080:9083   */\n      dup4\n        /* \"#utility.yul\":9021:9088   */\n      tag_400\n      jump\t// in\n    tag_552:\n        /* \"#utility.yul\":9014:9088   */\n      swap2\n      pop\n        /* \"#utility.yul\":9097:9190   */\n      tag_553\n        /* \"#utility.yul\":9186:9189   */\n      dup3\n        /* \"#utility.yul\":9097:9190   */\n      tag_401\n      jump\t// in\n    tag_553:\n        /* \"#utility.yul\":9215:9217   */\n      0x20\n        /* \"#utility.yul\":9210:9213   */\n      dup3\n        /* \"#utility.yul\":9206:9218   */\n      add\n        /* \"#utility.yul\":9199:9218   */\n      swap1\n      pop\n        /* \"#utility.yul\":8858:9224   */\n      swap2\n      swap1\n      pop\n      jump\t// out\n        /* \"#utility.yul\":9230:9649   */\n    tag_185:\n        /* \"#utility.yul\":9396:9400   */\n      0x00\n        /* \"#utility.yul\":9434:9436   */\n      0x20\n        /* \"#utility.yul\":9423:9432   */\n      dup3\n        /* \"#utility.yul\":9419:9437   */\n      add\n        /* \"#utility.yul\":9411:9437   */\n      swap1\n      pop\n        /* \"#utility.yul\":9483:9492   */\n      dup2\n        /* \"#utility.yul\":9477:9481   */\n      dup2\n        /* \"#utility.yul\":9473:9493   */\n      sub\n        /* \"#utility.yul\":9469:9470   */\n      0x00\n        /* \"#utility.yul\":9458:9467   */\n      dup4\n        /* \"#utility.yul\":9454:9471   */\n      add\n        /* \"#utility.yul\":9447:9494   */\n      mstore\n        /* \"#utility.yul\":9511:9642   */\n      tag_555\n        /* \"#utility.yul\":9637:9641   */\n      dup2\n        /* \"#utility.yul\":9511:9642   */\n      tag_402\n      jump\t// in\n    tag_555:\n        /* \"#utility.yul\":9503:9642   */\n      swap1\n      pop\n        /* \"#utility.yul\":9230:9649   */\n      swap2\n      swap1\n      pop\n      jump\t// out\n        /* \"#utility.yul\":9655:9835   */\n    tag_403:\n        /* \"#utility.yul\":9795:9827   */\n      0x436c61696d20626c6f636b656420666f72207468697320616464726573730000\n        /* \"#utility.yul\":9791:9792   */\n      0x00\n        /* \"#utility.yul\":9783:9789   */\n      dup3\n        /* \"#utility.yul\":9779:9793   */\n      add\n        /* \"#utility.yul\":9772:9828   */\n      mstore\n        /* \"#utility.yul\":9655:9835   */\n      pop\n      jump\t// out\n        /* \"#utility.yul\":9841:10207   */\n    tag_404:\n        /* \"#utility.yul\":9983:9986   */\n      0x00\n        /* \"#utility.yul\":10004:10071   */\n      tag_558\n        /* \"#utility.yul\":10068:10070   */\n      0x1e\n        /* \"#utility.yul\":10063:10066   */\n      dup4\n        /* \"#utility.yul\":10004:10071   */\n      tag_400\n      jump\t// in\n    tag_558:\n        /* \"#utility.yul\":9997:10071   */\n      swap2\n      pop\n        /* \"#utility.yul\":10080:10173   */\n      tag_559\n        /* \"#utility.yul\":10169:10172   */\n      dup3\n        /* \"#utility.yul\":10080:10173   */\n      tag_403\n      jump\t// in\n    tag_559:\n        /* \"#utility.yul\":10198:10200   */\n      0x20\n        /* \"#utility.yul\":10193:10196   */\n      dup3\n        /* \"#utility.yul\":10189:10201   */\n      add\n        /* \"#utility.yul\":10182:10201   */\n      swap1\n      pop\n        /* \"#utility.yul\":9841:10207   */\n      swap2\n      swap1\n      pop\n      jump\t// out\n        /* \"#utility.yul\":10213:10632   */\n    tag_188:\n        /* \"#utility.yul\":10379:10383   */\n      0x00\n        /* \"#utility.yul\":10417:10419   */\n      0x20\n        /* \"#utility.yul\":10406:10415   */\n      dup3\n        /* \"#utility.yul\":10402:10420   */\n      add\n        /* \"#utility.yul\":10394:10420   */\n      swap1\n      pop\n        /* \"#utility.yul\":10466:10475   */\n      dup2\n        /* \"#utility.yul\":10460:10464   */\n      dup2\n        /* \"#utility.yul\":10456:10476   */\n      sub\n        /* \"#utility.yul\":10452:10453   */\n      0x00\n        /* \"#utility.yul\":10441:10450   */\n      dup4\n        /* \"#utility.yul\":10437:10454   */\n      add\n        /* \"#utility.yul\":10430:10477   */\n      mstore\n        /* \"#utility.yul\":10494:10625   */\n      tag_561\n        /* \"#utility.yul\":10620:10624   */\n      dup2\n        /* \"#utility.yul\":10494:10625   */\n      tag_404\n      jump\t// in\n    tag_561:\n        /* \"#utility.yul\":10486:10625   */\n      swap1\n      pop\n        /* \"#utility.yul\":10213:10632   */\n      swap2\n      swap1\n      pop\n      jump\t// out\n        /* \"#utility.yul\":10638:10809   */\n    tag_405:\n        /* \"#utility.yul\":10778:10801   */\n      0x417070726f76616c20666565206e6f7420706169640000000000000000000000\n        /* \"#utility.yul\":10774:10775   */\n      0x00\n        /* \"#utility.yul\":10766:10772   */\n      dup3\n        /* \"#utility.yul\":10762:10776   */\n      add\n        /* \"#utility.yul\":10755:10802   */\n      mstore\n        /* \"#utility.yul\":10638:10809   */\n      pop\n      jump\t// out\n        /* \"#utility.yul\":10815:11181   */\n    tag_406:\n        /* \"#utility.yul\":10957:10960   */\n      0x00\n        /* \"#utility.yul\":10978:11045   */\n      tag_564\n        /* \"#utility.yul\":11042:11044   */\n      0x15\n        /* \"#utility.yul\":11037:11040   */\n      dup4\n        /* \"#utility.yul\":10978:11045   */\n      tag_400\n      jump\t// in\n    tag_564:\n        /* \"#utility.yul\":10971:11045   */\n      swap2\n      pop\n        /* \"#utility.yul\":11054:11147   */\n      tag_565\n        /* \"#utility.yul\":11143:11146   */\n      dup3\n        /* \"#utility.yul\":11054:11147   */\n      tag_405\n      jump\t// in\n    tag_565:\n        /* \"#utility.yul\":11172:11174   */\n      0x20\n        /* \"#utility.yul\":11167:11170   */\n      dup3\n        /* \"#utility.yul\":11163:11175   */\n      add\n        /* \"#utility.yul\":11156:11175   */\n      swap1\n      pop\n        /* \"#utility.yul\":10815:11181   */\n      swap2\n      swap1\n      pop\n      jump\t// out\n        /* \"#utility.yul\":11187:11606   */\n    tag_191:\n        /* \"#utility.yul\":11353:11357   */\n      0x00\n        /* \"#utility.yul\":11391:11393   */\n      0x20\n        /* \"#utility.yul\":11380:11389   */\n      dup3\n        /* \"#utility.yul\":11376:11394   */\n      add\n        /* \"#utility.yul\":11368:11394   */\n      swap1\n      pop\n        /* \"#utility.yul\":11440:11449   */\n      dup2\n        /* \"#utility.yul\":11434:11438   */\n      dup2\n        /* \"#utility.yul\":11430:11450   */\n      sub\n        /* \"#utility.yul\":11426:11427   */\n      0x00\n        /* \"#utility.yul\":11415:11424   */\n      dup4\n        /* \"#utility.yul\":11411:11428   */\n      add\n        /* \"#utility.yul\":11404:11451   */\n      mstore\n        /* \"#utility.yul\":11468:11599   */\n      tag_567\n        /* \"#utility.yul\":11594:11598   */\n      dup2\n        /* \"#utility.yul\":11468:11599   */\n      tag_406\n      jump\t// in\n    tag_567:\n        /* \"#utility.yul\":11460:11599   */\n      swap1\n      pop\n        /* \"#utility.yul\":11187:11606   */\n      swap2\n      swap1\n      pop\n      jump\t// out\n        /* \"#utility.yul\":11612:11790   */\n    tag_407:\n        /* \"#utility.yul\":11752:11782   */\n      0x596f752068617665206e6f2062616c616e636520746f20636c61696d00000000\n        /* \"#utility.yul\":11748:11749   */\n      0x00\n        /* \"#utility.yul\":11740:11746   */\n      dup3\n        /* \"#utility.yul\":11736:11750   */\n      add\n        /* \"#utility.yul\":11729:11783   */\n      mstore\n        /* \"#utility.yul\":11612:11790   */\n      pop\n      jump\t// out\n        /* \"#utility.yul\":11796:12162   */\n    tag_408:\n        /* \"#utility.yul\":11938:11941   */\n      0x00\n        /* \"#utility.yul\":11959:12026   */\n      tag_570\n        /* \"#utility.yul\":12023:12025   */\n      0x1c\n        /* \"#utility.yul\":12018:12021   */\n      dup4\n        /* \"#utility.yul\":11959:12026   */\n      tag_400\n      jump\t// in\n    tag_570:\n        /* \"#utility.yul\":11952:12026   */\n      swap2\n      pop\n        /* \"#utility.yul\":12035:12128   */\n      tag_571\n        /* \"#utility.yul\":12124:12127   */\n      dup3\n        /* \"#utility.yul\":12035:12128   */\n      tag_407\n      jump\t// in\n    tag_571:\n        /* \"#utility.yul\":12153:12155   */\n      0x20\n        /* \"#utility.yul\":12148:12151   */\n      dup3\n        /* \"#utility.yul\":12144:12156   */\n      add\n        /* \"#utility.yul\":12137:12156   */\n      swap1\n      pop\n        /* \"#utility.yul\":11796:12162   */\n      swap2\n      swap1\n      pop\n      jump\t// out\n        /* \"#utility.yul\":12168:12587   */\n    tag_194:\n        /* \"#utility.yul\":12334:12338   */\n      0x00\n        /* \"#utility.yul\":12372:12374   */\n      0x20\n        /* \"#utility.yul\":12361:12370   */\n      dup3\n        /* \"#utility.yul\":12357:12375   */\n      add\n        /* \"#utility.yul\":12349:12375   */\n      swap1\n      pop\n        /* \"#utility.yul\":12421:12430   */\n      dup2\n        /* \"#utility.yul\":12415:12419   */\n      dup2\n        /* \"#utility.yul\":12411:12431   */\n      sub\n        /* \"#utility.yul\":12407:12408   */\n      0x00\n        /* \"#utility.yul\":12396:12405   */\n      dup4\n        /* \"#utility.yul\":12392:12409   */\n      add\n        /* \"#utility.yul\":12385:12432   */\n      mstore\n        /* \"#utility.yul\":12449:12580   */\n      tag_573\n        /* \"#utility.yul\":12575:12579   */\n      dup2\n        /* \"#utility.yul\":12449:12580   */\n      tag_408\n      jump\t// in\n    tag_573:\n        /* \"#utility.yul\":12441:12580   */\n      swap1\n      pop\n        /* \"#utility.yul\":12168:12587   */\n      swap2\n      swap1\n      pop\n      jump\t// out\n        /* \"#utility.yul\":12593:12826   */\n    tag_198:\n        /* \"#utility.yul\":12632:12635   */\n      0x00\n        /* \"#utility.yul\":12655:12679   */\n      tag_575\n        /* \"#utility.yul\":12673:12678   */\n      dup3\n        /* \"#utility.yul\":12655:12679   */\n      tag_380\n      jump\t// in\n    tag_575:\n        /* \"#utility.yul\":12646:12679   */\n      swap2\n      pop\n        /* \"#utility.yul\":12701:12767   */\n      0xffffffffffffffffffffffffffffffffffffffffffffffffffffffffffffffff\n        /* \"#utility.yul\":12694:12699   */\n      dup3\n        /* \"#utility.yul\":12691:12768   */\n      sub\n        /* \"#utility.yul\":12688:12791   */\n      tag_576\n      jumpi\n        /* \"#utility.yul\":12771:12789   */\n      tag_577\n      tag_399\n      jump\t// in\n    tag_577:\n        /* \"#utility.yul\":12688:12791   */\n    tag_576:\n        /* \"#utility.yul\":12818:12819   */\n      0x01\n        /* \"#utility.yul\":12811:12816   */\n      dup3\n        /* \"#utility.yul\":12807:12820   */\n      add\n        /* \"#utility.yul\":12800:12820   */\n      swap1\n      pop\n        /* \"#utility.yul\":12593:12826   */\n      swap2\n      swap1\n      pop\n      jump\t// out\n        /* \"#utility.yul\":12832:13023   */\n    tag_200:\n        /* \"#utility.yul\":12872:12875   */\n      0x00\n        /* \"#utility.yul\":12891:12911   */\n      tag_579\n        /* \"#utility.yul\":12909:12910   */\n      dup3\n        /* \"#utility.yul\":12891:12911   */\n      tag_380\n      jump\t// in\n    tag_579:\n        /* \"#utility.yul\":12886:12911   */\n      swap2\n      pop\n        /* \"#utility.yul\":12925:12945   */\n      tag_580\n        /* \"#utility.yul\":12943:12944   */\n      dup4\n        /* \"#utility.yul\":12925:12945   */\n      tag_380\n      jump\t// in\n    tag_580:\n        /* \"#utility.yul\":12920:12945   */\n      swap3\n      pop\n        /* \"#utility.yul\":12968:12969   */\n      dup3\n        /* \"#utility.yul\":12965:12966   */\n      dup3\n        /* \"#utility.yul\":12961:12970   */\n      add\n        /* \"#utility.yul\":12954:12970   */\n      swap1\n      pop\n        /* \"#utility.yul\":12989:12992   */\n      dup1\n        /* \"#utility.yul\":12986:12987   */\n      dup3\n        /* \"#utility.yul\":12983:12993   */\n      gt\n        /* \"#utility.yul\":12980:13016   */\n      iszero\n      tag_581\n      jumpi\n        /* \"#utility.yul\":12996:13014   */\n      tag_582\n      tag_399\n      jump\t// in\n    tag_582:\n        /* \"#utility.yul\":12980:13016   */\n    tag_581:\n        /* \"#utility.yul\":12832:13023   */\n      swap3\n      swap2\n      pop\n      pop\n      jump\t// out\n        /* \"#utility.yul\":13029:13172   */\n    tag_409:\n        /* \"#utility.yul\":13086:13091   */\n      0x00\n        /* \"#utility.yul\":13117:13123   */\n      dup2\n        /* \"#utility.yul\":13111:13124   */\n      mload\n        /* \"#utility.yul\":13102:13124   */\n      swap1\n      pop\n        /* \"#utility.yul\":13133:13166   */\n      tag_584\n        /* \"#utility.yul\":13160:13165   */\n      dup2\n        /* \"#utility.yul\":13133:13166   */\n      tag_392\n      jump\t// in\n    tag_584:\n        /* \"#utility.yul\":13029:13172   */\n      swap3\n      swap2\n      pop\n      pop\n      jump\t// out\n        /* \"#utility.yul\":13178:13529   */\n    tag_221:\n        /* \"#utility.yul\":13248:13254   */\n      0x00\n        /* \"#utility.yul\":13297:13299   */\n      0x20\n        /* \"#utility.yul\":13285:13294   */\n      dup3\n        /* \"#utility.yul\":13276:13283   */\n      dup5\n        /* \"#utility.yul\":13272:13295   */\n      sub\n        /* \"#utility.yul\":13268:13300   */\n      slt\n        /* \"#utility.yul\":13265:13384   */\n      iszero\n      tag_586\n      jumpi\n        /* \"#utility.yul\":13303:13382   */\n      tag_587\n      tag_374\n      jump\t// in\n    tag_587:\n        /* \"#utility.yul\":13265:13384   */\n    tag_586:\n        /* \"#utility.yul\":13423:13424   */\n      0x00\n        /* \"#utility.yul\":13448:13512   */\n      tag_588\n        /* \"#utility.yul\":13504:13511   */\n      dup5\n        /* \"#utility.yul\":13495:13501   */\n      dup3\n        /* \"#utility.yul\":13484:13493   */\n      dup6\n        /* \"#utility.yul\":13480:13502   */\n      add\n        /* \"#utility.yul\":13448:13512   */\n      tag_409\n      jump\t// in\n    tag_588:\n        /* \"#utility.yul\":13438:13512   */\n      swap2\n      pop\n        /* \"#utility.yul\":13394:13522   */\n      pop\n        /* \"#utility.yul\":13178:13529   */\n      swap3\n      swap2\n      pop\n      pop\n      jump\t// out\n        /* \"#utility.yul\":13535:13705   */\n    tag_410:\n        /* \"#utility.yul\":13675:13697   */\n      0x496e636f72726563742066656520616d6f756e74000000000000000000000000\n        /* \"#utility.yul\":13671:13672   */\n      0x00\n        /* \"#utility.yul\":13663:13669   */\n      dup3\n        /* \"#utility.yul\":13659:13673   */\n      add\n        /* \"#utility.yul\":13652:13698   */\n      mstore\n        /* \"#utility.yul\":13535:13705   */\n      pop\n      jump\t// out\n        /* \"#utility.yul\":13711:14077   */\n    tag_411:\n        /* \"#utility.yul\":13853:13856   */\n      0x00\n        /* \"#utility.yul\":13874:13941   */\n      tag_591\n        /* \"#utility.yul\":13938:13940   */\n      0x14\n        /* \"#utility.yul\":13933:13936   */\n      dup4\n        /* \"#utility.yul\":13874:13941   */\n      tag_400\n      jump\t// in\n    tag_591:\n        /* \"#utility.yul\":13867:13941   */\n      swap2\n      pop\n        /* \"#utility.yul\":13950:14043   */\n      tag_592\n        /* \"#utility.yul\":14039:14042   */\n      dup3\n        /* \"#utility.yul\":13950:14043   */\n      tag_410\n      jump\t// in\n    tag_592:\n        /* \"#utility.yul\":14068:14070   */\n      0x20\n        /* \"#utility.yul\":14063:14066   */\n      dup3\n        /* \"#utility.yul\":14059:14071   */\n      add\n        /* \"#utility.yul\":14052:14071   */\n      swap1\n      pop\n        /* \"#utility.yul\":13711:14077   */\n      swap2\n      swap1\n      pop\n      jump\t// out\n        /* \"#utility.yul\":14083:14502   */\n    tag_225:\n        /* \"#utility.yul\":14249:14253   */\n      0x00\n        /* \"#utility.yul\":14287:14289   */\n      0x20\n        /* \"#utility.yul\":14276:14285   */\n      dup3\n        /* \"#utility.yul\":14272:14290   */\n      add\n        /* \"#utility.yul\":14264:14290   */\n      swap1\n      pop\n        /* \"#utility.yul\":14336:14345   */\n      dup2\n        /* \"#utility.yul\":14330:14334   */\n      dup2\n        /* \"#utility.yul\":14326:14346   */\n      sub\n        /* \"#utility.yul\":14322:14323   */\n      0x00\n        /* \"#utility.yul\":14311:14320   */\n      dup4\n        /* \"#utility.yul\":14307:14324   */\n      add\n        /* \"#utility.yul\":14300:14347   */\n      mstore\n        /* \"#utility.yul\":14364:14495   */\n      tag_594\n        /* \"#utility.yul\":14490:14494   */\n      dup2\n        /* \"#utility.yul\":14364:14495   */\n      tag_411\n      jump\t// in\n    tag_594:\n        /* \"#utility.yul\":14356:14495   */\n      swap1\n      pop\n        /* \"#utility.yul\":14083:14502   */\n      swap2\n      swap1\n      pop\n      jump\t// out\n        /* \"#utility.yul\":14508:14684   */\n    tag_412:\n        /* \"#utility.yul\":14648:14676   */\n      0x4172726179206c656e6774687320646f206e6f74206d61746368000000000000\n        /* \"#utility.yul\":14644:14645   */\n      0x00\n        /* \"#utility.yul\":14636:14642   */\n      dup3\n        /* \"#utility.yul\":14632:14646   */\n      add\n        /* \"#utility.yul\":14625:14677   */\n      mstore\n        /* \"#utility.yul\":14508:14684   */\n      pop\n      jump\t// out\n        /* \"#utility.yul\":14690:15056   */\n    tag_413:\n        /* \"#utility.yul\":14832:14835   */\n      0x00\n        /* \"#utility.yul\":14853:14920   */\n      tag_597\n        /* \"#utility.yul\":14917:14919   */\n      0x1a\n        /* \"#utility.yul\":14912:14915   */\n      dup4\n        /* \"#utility.yul\":14853:14920   */\n      tag_400\n      jump\t// in\n    tag_597:\n        /* \"#utility.yul\":14846:14920   */\n      swap2\n      pop\n        /* \"#utility.yul\":14929:15022   */\n      tag_598\n        /* \"#utility.yul\":15018:15021   */\n      dup3\n        /* \"#utility.yul\":14929:15022   */\n      tag_412\n      jump\t// in\n    tag_598:\n        /* \"#utility.yul\":15047:15049   */\n      0x20\n        /* \"#utility.yul\":15042:15045   */\n      dup3\n        /* \"#utility.yul\":15038:15050   */\n      add\n        /* \"#utility.yul\":15031:15050   */\n      swap1\n      pop\n        /* \"#utility.yul\":14690:15056   */\n      swap2\n      swap1\n      pop\n      jump\t// out\n        /* \"#utility.yul\":15062:15481   */\n    tag_237:\n        /* \"#utility.yul\":15228:15232   */\n      0x00\n        /* \"#utility.yul\":15266:15268   */\n      0x20\n        /* \"#utility.yul\":15255:15264   */\n      dup3\n        /* \"#utility.yul\":15251:15269   */\n      add\n        /* \"#utility.yul\":15243:15269   */\n      swap1\n      pop\n        /* \"#utility.yul\":15315:15324   */\n      dup2\n        /* \"#utility.yul\":15309:15313   */\n      dup2\n        /* \"#utility.yul\":15305:15325   */\n      sub\n        /* \"#utility.yul\":15301:15302   */\n      0x00\n        /* \"#utility.yul\":15290:15299   */\n      dup4\n        /* \"#utility.yul\":15286:15303   */\n      add\n        /* \"#utility.yul\":15279:15326   */\n      mstore\n        /* \"#utility.yul\":15343:15474   */\n      tag_600\n        /* \"#utility.yul\":15469:15473   */\n      dup2\n        /* \"#utility.yul\":15343:15474   */\n      tag_413\n      jump\t// in\n    tag_600:\n        /* \"#utility.yul\":15335:15474   */\n      swap1\n      pop\n        /* \"#utility.yul\":15062:15481   */\n      swap2\n      swap1\n      pop\n      jump\t// out\n        /* \"#utility.yul\":15487:15667   */\n    tag_243:\n        /* \"#utility.yul\":15535:15612   */\n      0x4e487b7100000000000000000000000000000000000000000000000000000000\n        /* \"#utility.yul\":15532:15533   */\n      0x00\n        /* \"#utility.yul\":15525:15613   */\n      mstore\n        /* \"#utility.yul\":15632:15636   */\n      0x32\n        /* \"#utility.yul\":15629:15630   */\n      0x04\n        /* \"#utility.yul\":15622:15637   */\n      mstore\n        /* \"#utility.yul\":15656:15660   */\n      0x24\n        /* \"#utility.yul\":15653:15654   */\n      0x00\n        /* \"#utility.yul\":15646:15661   */\n      revert\n        /* \"#utility.yul\":15673:16083   */\n    tag_248:\n        /* \"#utility.yul\":15713:15720   */\n      0x00\n        /* \"#utility.yul\":15736:15756   */\n      tag_603\n        /* \"#utility.yul\":15754:15755   */\n      dup3\n        /* \"#utility.yul\":15736:15756   */\n      tag_380\n      jump\t// in\n    tag_603:\n        /* \"#utility.yul\":15731:15756   */\n      swap2\n      pop\n        /* \"#utility.yul\":15770:15790   */\n      tag_604\n        /* \"#utility.yul\":15788:15789   */\n      dup4\n        /* \"#utility.yul\":15770:15790   */\n      tag_380\n      jump\t// in\n    tag_604:\n        /* \"#utility.yul\":15765:15790   */\n      swap3\n      pop\n        /* \"#utility.yul\":15825:15826   */\n      dup3\n        /* \"#utility.yul\":15822:15823   */\n      dup3\n        /* \"#utility.yul\":15818:15827   */\n      mul\n        /* \"#utility.yul\":15847:15877   */\n      tag_605\n        /* \"#utility.yul\":15865:15876   */\n      dup2\n        /* \"#utility.yul\":15847:15877   */\n      tag_380\n      jump\t// in\n    tag_605:\n        /* \"#utility.yul\":15836:15877   */\n      swap2\n      pop\n        /* \"#utility.yul\":16026:16027   */\n      dup3\n        /* \"#utility.yul\":16017:16024   */\n      dup3\n        /* \"#utility.yul\":16013:16028   */\n      div\n        /* \"#utility.yul\":16010:16011   */\n      dup5\n        /* \"#utility.yul\":16007:16029   */\n      eq\n        /* \"#utility.yul\":15987:15988   */\n      dup4\n        /* \"#utility.yul\":15980:15989   */\n      iszero\n        /* \"#utility.yul\":15960:16043   */\n      or\n        /* \"#utility.yul\":15937:16076   */\n      tag_606\n      jumpi\n        /* \"#utility.yul\":16056:16074   */\n      tag_607\n      tag_399\n      jump\t// in\n    tag_607:\n        /* \"#utility.yul\":15937:16076   */\n    tag_606:\n        /* \"#utility.yul\":15721:16083   */\n      pop\n        /* \"#utility.yul\":15673:16083   */\n      swap3\n      swap2\n      pop\n      pop\n      jump\t// out\n        /* \"#utility.yul\":16089:16259   */\n    tag_414:\n        /* \"#utility.yul\":16229:16251   */\n      0x43616e6e6f74206265206120636f6e7472616374000000000000000000000000\n        /* \"#utility.yul\":16225:16226   */\n      0x00\n        /* \"#utility.yul\":16217:16223   */\n      dup3\n        /* \"#utility.yul\":16213:16227   */\n      add\n        /* \"#utility.yul\":16206:16252   */\n      mstore\n        /* \"#utility.yul\":16089:16259   */\n      pop\n      jump\t// out\n        /* \"#utility.yul\":16265:16631   */\n    tag_415:\n        /* \"#utility.yul\":16407:16410   */\n      0x00\n        /* \"#utility.yul\":16428:16495   */\n      tag_610\n        /* \"#utility.yul\":16492:16494   */\n      0x14\n        /* \"#utility.yul\":16487:16490   */\n      dup4\n        /* \"#utility.yul\":16428:16495   */\n      tag_400\n      jump\t// in\n    tag_610:\n        /* \"#utility.yul\":16421:16495   */\n      swap2\n      pop\n        /* \"#utility.yul\":16504:16597   */\n      tag_611\n        /* \"#utility.yul\":16593:16596   */\n      dup3\n        /* \"#utility.yul\":16504:16597   */\n      tag_414\n      jump\t// in\n    tag_611:\n        /* \"#utility.yul\":16622:16624   */\n      0x20\n        /* \"#utility.yul\":16617:16620   */\n      dup3\n        /* \"#utility.yul\":16613:16625   */\n      add\n        /* \"#utility.yul\":16606:16625   */\n      swap1\n      pop\n        /* \"#utility.yul\":16265:16631   */\n      swap2\n      swap1\n      pop\n      jump\t// out\n        /* \"#utility.yul\":16637:17056   */\n    tag_251:\n        /* \"#utility.yul\":16803:16807   */\n      0x00\n        /* \"#utility.yul\":16841:16843   */\n      0x20\n        /* \"#utility.yul\":16830:16839   */\n      dup3\n        /* \"#utility.yul\":16826:16844   */\n      add\n        /* \"#utility.yul\":16818:16844   */\n      swap1\n      pop\n        /* \"#utility.yul\":16890:16899   */\n      dup2\n        /* \"#utility.yul\":16884:16888   */\n      dup2\n        /* \"#utility.yul\":16880:16900   */\n      sub\n        /* \"#utility.yul\":16876:16877   */\n      0x00\n        /* \"#utility.yul\":16865:16874   */\n      dup4\n        /* \"#utility.yul\":16861:16878   */\n      add\n        /* \"#utility.yul\":16854:16901   */\n      mstore\n        /* \"#utility.yul\":16918:17049   */\n      tag_613\n        /* \"#utility.yul\":17044:17048   */\n      dup2\n        /* \"#utility.yul\":16918:17049   */\n      tag_415\n      jump\t// in\n    tag_613:\n        /* \"#utility.yul\":16910:17049   */\n      swap1\n      pop\n        /* \"#utility.yul\":16637:17056   */\n      swap2\n      swap1\n      pop\n      jump\t// out\n        /* \"#utility.yul\":17062:17244   */\n    tag_416:\n        /* \"#utility.yul\":17202:17236   */\n      0x416c6c6f636174696f6e206578636565647320616c6c6f776564206c696d6974\n        /* \"#utility.yul\":17198:17199   */\n      0x00\n        /* \"#utility.yul\":17190:17196   */\n      dup3\n        /* \"#utility.yul\":17186:17200   */\n      add\n        /* \"#utility.yul\":17179:17237   */\n      mstore\n        /* \"#utility.yul\":17062:17244   */\n      pop\n      jump\t// out\n        /* \"#utility.yul\":17250:17616   */\n    tag_417:\n        /* \"#utility.yul\":17392:17395   */\n      0x00\n        /* \"#utility.yul\":17413:17480   */\n      tag_616\n        /* \"#utility.yul\":17477:17479   */\n      0x20\n        /* \"#utility.yul\":17472:17475   */\n      dup4\n        /* \"#utility.yul\":17413:17480   */\n      tag_400\n      jump\t// in\n    tag_616:\n        /* \"#utility.yul\":17406:17480   */\n      swap2\n      pop\n        /* \"#utility.yul\":17489:17582   */\n      tag_617\n        /* \"#utility.yul\":17578:17581   */\n      dup3\n        /* \"#utility.yul\":17489:17582   */\n      tag_416\n      jump\t// in\n    tag_617:\n        /* \"#utility.yul\":17607:17609   */\n      0x20\n        /* \"#utility.yul\":17602:17605   */\n      dup3\n        /* \"#utility.yul\":17598:17610   */\n      add\n        /* \"#utility.yul\":17591:17610   */\n      swap1\n      pop\n        /* \"#utility.yul\":17250:17616   */\n      swap2\n      swap1\n      pop\n      jump\t// out\n        /* \"#utility.yul\":17622:18041   */\n    tag_255:\n        /* \"#utility.yul\":17788:17792   */\n      0x00\n        /* \"#utility.yul\":17826:17828   */\n      0x20\n        /* \"#utility.yul\":17815:17824   */\n      dup3\n        /* \"#utility.yul\":17811:17829   */\n      add\n        /* \"#utility.yul\":17803:17829   */\n      swap1\n      pop\n        /* \"#utility.yul\":17875:17884   */\n      dup2\n        /* \"#utility.yul\":17869:17873   */\n      dup2\n        /* \"#utility.yul\":17865:17885   */\n      sub\n        /* \"#utility.yul\":17861:17862   */\n      0x00\n        /* \"#utility.yul\":17850:17859   */\n      dup4\n        /* \"#utility.yul\":17846:17863   */\n      add\n        /* \"#utility.yul\":17839:17886   */\n      mstore\n        /* \"#utility.yul\":17903:18034   */\n      tag_619\n        /* \"#utility.yul\":18029:18033   */\n      dup2\n        /* \"#utility.yul\":17903:18034   */\n      tag_417\n      jump\t// in\n    tag_619:\n        /* \"#utility.yul\":17895:18034   */\n      swap1\n      pop\n        /* \"#utility.yul\":17622:18041   */\n      swap2\n      swap1\n      pop\n      jump\t// out\n        /* \"#utility.yul\":18047:18379   */\n    tag_261:\n        /* \"#utility.yul\":18168:18172   */\n      0x00\n        /* \"#utility.yul\":18206:18208   */\n      0x40\n        /* \"#utility.yul\":18195:18204   */\n      dup3\n        /* \"#utility.yul\":18191:18209   */\n      add\n        /* \"#utility.yul\":18183:18209   */\n      swap1\n      pop\n        /* \"#utility.yul\":18219:18290   */\n      tag_621\n        /* \"#utility.yul\":18287:18288   */\n      0x00\n        /* \"#utility.yul\":18276:18285   */\n      dup4\n        /* \"#utility.yul\":18272:18289   */\n      add\n        /* \"#utility.yul\":18263:18269   */\n      dup6\n        /* \"#utility.yul\":18219:18290   */\n      tag_381\n      jump\t// in\n    tag_621:\n        /* \"#utility.yul\":18300:18372   */\n      tag_622\n        /* \"#utility.yul\":18368:18370   */\n      0x20\n        /* \"#utility.yul\":18357:18366   */\n      dup4\n        /* \"#utility.yul\":18353:18371   */\n      add\n        /* \"#utility.yul\":18344:18350   */\n      dup5\n        /* \"#utility.yul\":18300:18372   */\n      tag_381\n      jump\t// in\n    tag_622:\n        /* \"#utility.yul\":18047:18379   */\n      swap4\n      swap3\n      pop\n      pop\n      pop\n      jump\t// out\n        /* \"#utility.yul\":18385:18616   */\n    tag_418:\n        /* \"#utility.yul\":18525:18559   */\n      0x496e73756666696369656e7420636f6e74726163742062616c616e636520666f\n        /* \"#utility.yul\":18521:18522   */\n      0x00\n        /* \"#utility.yul\":18513:18519   */\n      dup3\n        /* \"#utility.yul\":18509:18523   */\n      add\n        /* \"#utility.yul\":18502:18560   */\n      mstore\n        /* \"#utility.yul\":18594:18608   */\n      0x7220616c6c6f636174696f6e0000000000000000000000000000000000000000\n        /* \"#utility.yul\":18589:18591   */\n      0x20\n        /* \"#utility.yul\":18581:18587   */\n      dup3\n        /* \"#utility.yul\":18577:18592   */\n      add\n        /* \"#utility.yul\":18570:18609   */\n      mstore\n        /* \"#utility.yul\":18385:18616   */\n      pop\n      jump\t// out\n        /* \"#utility.yul\":18622:18988   */\n    tag_419:\n        /* \"#utility.yul\":18764:18767   */\n      0x00\n        /* \"#utility.yul\":18785:18852   */\n      tag_625\n        /* \"#utility.yul\":18849:18851   */\n      0x2c\n        /* \"#utility.yul\":18844:18847   */\n      dup4\n        /* \"#utility.yul\":18785:18852   */\n      tag_400\n      jump\t// in\n    tag_625:\n        /* \"#utility.yul\":18778:18852   */\n      swap2\n      pop\n        /* \"#utility.yul\":18861:18954   */\n      tag_626\n        /* \"#utility.yul\":18950:18953   */\n      dup3\n        /* \"#utility.yul\":18861:18954   */\n      tag_418\n      jump\t// in\n    tag_626:\n        /* \"#utility.yul\":18979:18981   */\n      0x40\n        /* \"#utility.yul\":18974:18977   */\n      dup3\n        /* \"#utility.yul\":18970:18982   */\n      add\n        /* \"#utility.yul\":18963:18982   */\n      swap1\n      pop\n        /* \"#utility.yul\":18622:18988   */\n      swap2\n      swap1\n      pop\n      jump\t// out\n        /* \"#utility.yul\":18994:19413   */\n    tag_267:\n        /* \"#utility.yul\":19160:19164   */\n      0x00\n        /* \"#utility.yul\":19198:19200   */\n      0x20\n        /* \"#utility.yul\":19187:19196   */\n      dup3\n        /* \"#utility.yul\":19183:19201   */\n      add\n        /* \"#utility.yul\":19175:19201   */\n      swap1\n      pop\n        /* \"#utility.yul\":19247:19256   */\n      dup2\n        /* \"#utility.yul\":19241:19245   */\n      dup2\n        /* \"#utility.yul\":19237:19257   */\n      sub\n        /* \"#utility.yul\":19233:19234   */\n      0x00\n        /* \"#utility.yul\":19222:19231   */\n      dup4\n        /* \"#utility.yul\":19218:19235   */\n      add\n        /* \"#utility.yul\":19211:19258   */\n      mstore\n        /* \"#utility.yul\":19275:19406   */\n      tag_628\n        /* \"#utility.yul\":19401:19405   */\n      dup2\n        /* \"#utility.yul\":19275:19406   */\n      tag_419\n      jump\t// in\n    tag_628:\n        /* \"#utility.yul\":19267:19406   */\n      swap1\n      pop\n        /* \"#utility.yul\":18994:19413   */\n      swap2\n      swap1\n      pop\n      jump\t// out\n        /* \"#utility.yul\":19419:19603   */\n    tag_420:\n        /* \"#utility.yul\":19518:19529   */\n      0x00\n        /* \"#utility.yul\":19552:19558   */\n      dup3\n        /* \"#utility.yul\":19547:19550   */\n      dup3\n        /* \"#utility.yul\":19540:19559   */\n      mstore\n        /* \"#utility.yul\":19592:19596   */\n      0x20\n        /* \"#utility.yul\":19587:19590   */\n      dup3\n        /* \"#utility.yul\":19583:19597   */\n      add\n        /* \"#utility.yul\":19568:19597   */\n      swap1\n      pop\n        /* \"#utility.yul\":19419:19603   */\n      swap3\n      swap2\n      pop\n      pop\n      jump\t// out\n        /* \"#utility.yul\":19609:19711   */\n    tag_421:\n        /* \"#utility.yul\":19678:19682   */\n      0x00\n        /* \"#utility.yul\":19701:19704   */\n      dup2\n        /* \"#utility.yul\":19693:19704   */\n      swap1\n      pop\n        /* \"#utility.yul\":19609:19711   */\n      swap2\n      swap1\n      pop\n      jump\t// out\n        /* \"#utility.yul\":19717:19825   */\n    tag_422:\n        /* \"#utility.yul\":19794:19818   */\n      tag_632\n        /* \"#utility.yul\":19812:19817   */\n      dup2\n        /* \"#utility.yul\":19794:19818   */\n      tag_377\n      jump\t// in\n    tag_632:\n        /* \"#utility.yul\":19789:19792   */\n      dup3\n        /* \"#utility.yul\":19782:19819   */\n      mstore\n        /* \"#utility.yul\":19717:19825   */\n      pop\n      pop\n      jump\t// out\n        /* \"#utility.yul\":19831:20010   */\n    tag_423:\n        /* \"#utility.yul\":19900:19910   */\n      0x00\n        /* \"#utility.yul\":19921:19967   */\n      tag_634\n        /* \"#utility.yul\":19963:19966   */\n      dup4\n        /* \"#utility.yul\":19955:19961   */\n      dup4\n        /* \"#utility.yul\":19921:19967   */\n      tag_422\n      jump\t// in\n    tag_634:\n        /* \"#utility.yul\":19999:20003   */\n      0x20\n        /* \"#utility.yul\":19994:19997   */\n      dup4\n        /* \"#utility.yul\":19990:20004   */\n      add\n        /* \"#utility.yul\":19976:20004   */\n      swap1\n      pop\n        /* \"#utility.yul\":19831:20010   */\n      swap3\n      swap2\n      pop\n      pop\n      jump\t// out\n        /* \"#utility.yul\":20016:20138   */\n    tag_424:\n        /* \"#utility.yul\":20068:20073   */\n      0x00\n        /* \"#utility.yul\":20093:20132   */\n      tag_636\n        /* \"#utility.yul\":20128:20130   */\n      0x20\n        /* \"#utility.yul\":20123:20126   */\n      dup5\n        /* \"#utility.yul\":20119:20131   */\n      add\n        /* \"#utility.yul\":20114:20117   */\n      dup5\n        /* \"#utility.yul\":20093:20132   */\n      tag_379\n      jump\t// in\n    tag_636:\n        /* \"#utility.yul\":20084:20132   */\n      swap1\n      pop\n        /* \"#utility.yul\":20016:20138   */\n      swap3\n      swap2\n      pop\n      pop\n      jump\t// out\n        /* \"#utility.yul\":20144:20259   */\n    tag_425:\n        /* \"#utility.yul\":20216:20220   */\n      0x00\n        /* \"#utility.yul\":20248:20252   */\n      0x20\n        /* \"#utility.yul\":20243:20246   */\n      dup3\n        /* \"#utility.yul\":20239:20253   */\n      add\n        /* \"#utility.yul\":20231:20253   */\n      swap1\n      pop\n        /* \"#utility.yul\":20144:20259   */\n      swap2\n      swap1\n      pop\n      jump\t// out\n        /* \"#utility.yul\":20295:20994   */\n    tag_426:\n        /* \"#utility.yul\":20424:20427   */\n      0x00\n        /* \"#utility.yul\":20447:20533   */\n      tag_639\n        /* \"#utility.yul\":20526:20532   */\n      dup4\n        /* \"#utility.yul\":20521:20524   */\n      dup6\n        /* \"#utility.yul\":20447:20533   */\n      tag_420\n      jump\t// in\n    tag_639:\n        /* \"#utility.yul\":20440:20533   */\n      swap4\n      pop\n        /* \"#utility.yul\":20557:20615   */\n      tag_640\n        /* \"#utility.yul\":20609:20614   */\n      dup3\n        /* \"#utility.yul\":20557:20615   */\n      tag_421\n      jump\t// in\n    tag_640:\n        /* \"#utility.yul\":20638:20645   */\n      dup1\n        /* \"#utility.yul\":20669:20670   */\n      0x00\n        /* \"#utility.yul\":20654:20969   */\n    tag_641:\n        /* \"#utility.yul\":20679:20685   */\n      dup6\n        /* \"#utility.yul\":20676:20677   */\n      dup2\n        /* \"#utility.yul\":20673:20686   */\n      lt\n        /* \"#utility.yul\":20654:20969   */\n      iszero\n      tag_643\n      jumpi\n        /* \"#utility.yul\":20749:20791   */\n      tag_644\n        /* \"#utility.yul\":20784:20790   */\n      dup3\n        /* \"#utility.yul\":20775:20782   */\n      dup5\n        /* \"#utility.yul\":20749:20791   */\n      tag_424\n      jump\t// in\n    tag_644:\n        /* \"#utility.yul\":20811:20874   */\n      tag_645\n        /* \"#utility.yul\":20870:20873   */\n      dup9\n        /* \"#utility.yul\":20855:20868   */\n      dup3\n        /* \"#utility.yul\":20811:20874   */\n      tag_423\n      jump\t// in\n    tag_645:\n        /* \"#utility.yul\":20804:20874   */\n      swap8\n      pop\n        /* \"#utility.yul\":20897:20959   */\n      tag_646\n        /* \"#utility.yul\":20952:20958   */\n      dup4\n        /* \"#utility.yul\":20897:20959   */\n      tag_425\n      jump\t// in\n    tag_646:\n        /* \"#utility.yul\":20887:20959   */\n      swap3\n      pop\n        /* \"#utility.yul\":20714:20969   */\n      pop\n        /* \"#utility.yul\":20701:20702   */\n      0x01\n        /* \"#utility.yul\":20698:20699   */\n      dup2\n        /* \"#utility.yul\":20694:20703   */\n      add\n        /* \"#utility.yul\":20689:20703   */\n      swap1\n      pop\n        /* \"#utility.yul\":20654:20969   */\n      jump(tag_641)\n    tag_643:\n        /* \"#utility.yul\":20658:20672   */\n      pop\n        /* \"#utility.yul\":20985:20988   */\n      dup6\n        /* \"#utility.yul\":20978:20988   */\n      swap3\n      pop\n        /* \"#utility.yul\":20429:20994   */\n      pop\n      pop\n        /* \"#utility.yul\":20295:20994   */\n      swap4\n      swap3\n      pop\n      pop\n      pop\n      jump\t// out\n        /* \"#utility.yul\":21000:21184   */\n    tag_427:\n        /* \"#utility.yul\":21099:21110   */\n      0x00\n        /* \"#utility.yul\":21133:21139   */\n      dup3\n        /* \"#utility.yul\":21128:21131   */\n      dup3\n        /* \"#utility.yul\":21121:21140   */\n      mstore\n        /* \"#utility.yul\":21173:21177   */\n      0x20\n        /* \"#utility.yul\":21168:21171   */\n      dup3\n        /* \"#utility.yul\":21164:21178   */\n      add\n        /* \"#utility.yul\":21149:21178   */\n      swap1\n      pop\n        /* \"#utility.yul\":21000:21184   */\n      swap3\n      swap2\n      pop\n      pop\n      jump\t// out\n        /* \"#utility.yul\":21190:21307   */\n    tag_428:\n        /* \"#utility.yul\":21299:21300   */\n      0x00\n        /* \"#utility.yul\":21296:21297   */\n      dup1\n        /* \"#utility.yul\":21289:21301   */\n      revert\n        /* \"#utility.yul\":21313:21411   */\n    tag_429:\n        /* \"#utility.yul\":21397:21403   */\n      dup3\n        /* \"#utility.yul\":21392:21395   */\n      dup2\n        /* \"#utility.yul\":21387:21390   */\n      dup4\n        /* \"#utility.yul\":21374:21404   */\n      calldatacopy\n        /* \"#utility.yul\":21313:21411   */\n      pop\n      pop\n      pop\n      jump\t// out\n        /* \"#utility.yul\":21447:21984   */\n    tag_430:\n        /* \"#utility.yul\":21575:21578   */\n      0x00\n        /* \"#utility.yul\":21596:21682   */\n      tag_651\n        /* \"#utility.yul\":21675:21681   */\n      dup4\n        /* \"#utility.yul\":21670:21673   */\n      dup6\n        /* \"#utility.yul\":21596:21682   */\n      tag_427\n      jump\t// in\n    tag_651:\n        /* \"#utility.yul\":21589:21682   */\n      swap4\n      pop\n        /* \"#utility.yul\":21706:21772   */\n      0x07ffffffffffffffffffffffffffffffffffffffffffffffffffffffffffffff\n        /* \"#utility.yul\":21698:21704   */\n      dup4\n        /* \"#utility.yul\":21695:21773   */\n      gt\n        /* \"#utility.yul\":21692:21857   */\n      iszero\n      tag_652\n      jumpi\n        /* \"#utility.yul\":21776:21855   */\n      tag_653\n      tag_428\n      jump\t// in\n    tag_653:\n        /* \"#utility.yul\":21692:21857   */\n    tag_652:\n        /* \"#utility.yul\":21888:21892   */\n      0x20\n        /* \"#utility.yul\":21880:21886   */\n      dup4\n        /* \"#utility.yul\":21876:21893   */\n      mul\n        /* \"#utility.yul\":21866:21893   */\n      swap3\n      pop\n        /* \"#utility.yul\":21903:21946   */\n      tag_654\n        /* \"#utility.yul\":21939:21945   */\n      dup4\n        /* \"#utility.yul\":21934:21937   */\n      dup6\n        /* \"#utility.yul\":21927:21932   */\n      dup5\n        /* \"#utility.yul\":21903:21946   */\n      tag_429\n      jump\t// in\n    tag_654:\n        /* \"#utility.yul\":21971:21977   */\n      dup3\n        /* \"#utility.yul\":21966:21969   */\n      dup5\n        /* \"#utility.yul\":21962:21978   */\n      add\n        /* \"#utility.yul\":21955:21978   */\n      swap1\n      pop\n        /* \"#utility.yul\":21447:21984   */\n      swap4\n      swap3\n      pop\n      pop\n      pop\n      jump\t// out\n        /* \"#utility.yul\":21990:22664   */\n    tag_270:\n        /* \"#utility.yul\":22231:22235   */\n      0x00\n        /* \"#utility.yul\":22269:22271   */\n      0x40\n        /* \"#utility.yul\":22258:22267   */\n      dup3\n        /* \"#utility.yul\":22254:22272   */\n      add\n        /* \"#utility.yul\":22246:22272   */\n      swap1\n      pop\n        /* \"#utility.yul\":22318:22327   */\n      dup2\n        /* \"#utility.yul\":22312:22316   */\n      dup2\n        /* \"#utility.yul\":22308:22328   */\n      sub\n        /* \"#utility.yul\":22304:22305   */\n      0x00\n        /* \"#utility.yul\":22293:22302   */\n      dup4\n        /* \"#utility.yul\":22289:22306   */\n      add\n        /* \"#utility.yul\":22282:22329   */\n      mstore\n        /* \"#utility.yul\":22346:22464   */\n      tag_656\n        /* \"#utility.yul\":22459:22463   */\n      dup2\n        /* \"#utility.yul\":22450:22456   */\n      dup7\n        /* \"#utility.yul\":22442:22448   */\n      dup9\n        /* \"#utility.yul\":22346:22464   */\n      tag_426\n      jump\t// in\n    tag_656:\n        /* \"#utility.yul\":22338:22464   */\n      swap1\n      pop\n        /* \"#utility.yul\":22511:22520   */\n      dup2\n        /* \"#utility.yul\":22505:22509   */\n      dup2\n        /* \"#utility.yul\":22501:22521   */\n      sub\n        /* \"#utility.yul\":22496:22498   */\n      0x20\n        /* \"#utility.yul\":22485:22494   */\n      dup4\n        /* \"#utility.yul\":22481:22499   */\n      add\n        /* \"#utility.yul\":22474:22522   */\n      mstore\n        /* \"#utility.yul\":22539:22657   */\n      tag_657\n        /* \"#utility.yul\":22652:22656   */\n      dup2\n        /* \"#utility.yul\":22643:22649   */\n      dup5\n        /* \"#utility.yul\":22635:22641   */\n      dup7\n        /* \"#utility.yul\":22539:22657   */\n      tag_430\n      jump\t// in\n    tag_657:\n        /* \"#utility.yul\":22531:22657   */\n      swap1\n      pop\n        /* \"#utility.yul\":21990:22664   */\n      swap6\n      swap5\n      pop\n      pop\n      pop\n      pop\n      pop\n      jump\t// out\n        /* \"#utility.yul\":22670:22843   */\n    tag_431:\n        /* \"#utility.yul\":22810:22835   */\n      0x436f6e747261637420686173206e6f2062616c616e6365000000000000000000\n        /* \"#utility.yul\":22806:22807   */\n      0x00\n        /* \"#utility.yul\":22798:22804   */\n      dup3\n        /* \"#utility.yul\":22794:22808   */\n      add\n        /* \"#utility.yul\":22787:22836   */\n      mstore\n        /* \"#utility.yul\":22670:22843   */\n      pop\n      jump\t// out\n        /* \"#utility.yul\":22849:23215   */\n    tag_432:\n        /* \"#utility.yul\":22991:22994   */\n      0x00\n        /* \"#utility.yul\":23012:23079   */\n      tag_660\n        /* \"#utility.yul\":23076:23078   */\n      0x17\n        /* \"#utility.yul\":23071:23074   */\n      dup4\n        /* \"#utility.yul\":23012:23079   */\n      tag_400\n      jump\t// in\n    tag_660:\n        /* \"#utility.yul\":23005:23079   */\n      swap2\n      pop\n        /* \"#utility.yul\":23088:23181   */\n      tag_661\n        /* \"#utility.yul\":23177:23180   */\n      dup3\n        /* \"#utility.yul\":23088:23181   */\n      tag_431\n      jump\t// in\n    tag_661:\n        /* \"#utility.yul\":23206:23208   */\n      0x20\n        /* \"#utility.yul\":23201:23204   */\n      dup3\n        /* \"#utility.yul\":23197:23209   */\n      add\n        /* \"#utility.yul\":23190:23209   */\n      swap1\n      pop\n        /* \"#utility.yul\":22849:23215   */\n      swap2\n      swap1\n      pop\n      jump\t// out\n        /* \"#utility.yul\":23221:23640   */\n    tag_282:\n        /* \"#utility.yul\":23387:23391   */\n      0x00\n        /* \"#utility.yul\":23425:23427   */\n      0x20\n        /* \"#utility.yul\":23414:23423   */\n      dup3\n        /* \"#utility.yul\":23410:23428   */\n      add\n        /* \"#utility.yul\":23402:23428   */\n      swap1\n      pop\n        /* \"#utility.yul\":23474:23483   */\n      dup2\n        /* \"#utility.yul\":23468:23472   */\n      dup2\n        /* \"#utility.yul\":23464:23484   */\n      sub\n        /* \"#utility.yul\":23460:23461   */\n      0x00\n        /* \"#utility.yul\":23449:23458   */\n      dup4\n        /* \"#utility.yul\":23445:23462   */\n      add\n        /* \"#utility.yul\":23438:23485   */\n      mstore\n        /* \"#utility.yul\":23502:23633   */\n      tag_663\n        /* \"#utility.yul\":23628:23632   */\n      dup2\n        /* \"#utility.yul\":23502:23633   */\n      tag_432\n      jump\t// in\n    tag_663:\n        /* \"#utility.yul\":23494:23633   */\n      swap1\n      pop\n        /* \"#utility.yul\":23221:23640   */\n      swap2\n      swap1\n      pop\n      jump\t// out\n        /* \"#utility.yul\":23646:23816   */\n    tag_433:\n        /* \"#utility.yul\":23786:23808   */\n      0x436f6f6c646f776e20696e2070726f6772657373000000000000000000000000\n        /* \"#utility.yul\":23782:23783   */\n      0x00\n        /* \"#utility.yul\":23774:23780   */\n      dup3\n        /* \"#utility.yul\":23770:23784   */\n      add\n        /* \"#utility.yul\":23763:23809   */\n      mstore\n        /* \"#utility.yul\":23646:23816   */\n      pop\n      jump\t// out\n        /* \"#utility.yul\":23822:24188   */\n    tag_434:\n        /* \"#utility.yul\":23964:23967   */\n      0x00\n        /* \"#utility.yul\":23985:24052   */\n      tag_666\n        /* \"#utility.yul\":24049:24051   */\n      0x14\n        /* \"#utility.yul\":24044:24047   */\n      dup4\n        /* \"#utility.yul\":23985:24052   */\n      tag_400\n      jump\t// in\n    tag_666:\n        /* \"#utility.yul\":23978:24052   */\n      swap2\n      pop\n        /* \"#utility.yul\":24061:24154   */\n      tag_667\n        /* \"#utility.yul\":24150:24153   */\n      dup3\n        /* \"#utility.yul\":24061:24154   */\n      tag_433\n      jump\t// in\n    tag_667:\n        /* \"#utility.yul\":24179:24181   */\n      0x20\n        /* \"#utility.yul\":24174:24177   */\n      dup3\n        /* \"#utility.yul\":24170:24182   */\n      add\n        /* \"#utility.yul\":24163:24182   */\n      swap1\n      pop\n        /* \"#utility.yul\":23822:24188   */\n      swap2\n      swap1\n      pop\n      jump\t// out\n        /* \"#utility.yul\":24194:24613   */\n    tag_286:\n        /* \"#utility.yul\":24360:24364   */\n      0x00\n        /* \"#utility.yul\":24398:24400   */\n      0x20\n        /* \"#utility.yul\":24387:24396   */\n      dup3\n        /* \"#utility.yul\":24383:24401   */\n      add\n        /* \"#utility.yul\":24375:24401   */\n      swap1\n      pop\n        /* \"#utility.yul\":24447:24456   */\n      dup2\n        /* \"#utility.yul\":24441:24445   */\n      dup2\n        /* \"#utility.yul\":24437:24457   */\n      sub\n        /* \"#utility.yul\":24433:24434   */\n      0x00\n        /* \"#utility.yul\":24422:24431   */\n      dup4\n        /* \"#utility.yul\":24418:24435   */\n      add\n        /* \"#utility.yul\":24411:24458   */\n      mstore\n        /* \"#utility.yul\":24475:24606   */\n      tag_669\n        /* \"#utility.yul\":24601:24605   */\n      dup2\n        /* \"#utility.yul\":24475:24606   */\n      tag_434\n      jump\t// in\n    tag_669:\n        /* \"#utility.yul\":24467:24606   */\n      swap1\n      pop\n        /* \"#utility.yul\":24194:24613   */\n      swap2\n      swap1\n      pop\n      jump\t// out\n        /* \"#utility.yul\":24619:24839   */\n    tag_435:\n        /* \"#utility.yul\":24759:24793   */\n      0x4e6f20756e616c6c6f636174656420746f6b656e7320746f2077697468647261\n        /* \"#utility.yul\":24755:24756   */\n      0x00\n        /* \"#utility.yul\":24747:24753   */\n      dup3\n        /* \"#utility.yul\":24743:24757   */\n      add\n        /* \"#utility.yul\":24736:24794   */\n      mstore\n        /* \"#utility.yul\":24828:24831   */\n      0x7700000000000000000000000000000000000000000000000000000000000000\n        /* \"#utility.yul\":24823:24825   */\n      0x20\n        /* \"#utility.yul\":24815:24821   */\n      dup3\n        /* \"#utility.yul\":24811:24826   */\n      add\n        /* \"#utility.yul\":24804:24832   */\n      mstore\n        /* \"#utility.yul\":24619:24839   */\n      pop\n      jump\t// out\n        /* \"#utility.yul\":24845:25211   */\n    tag_436:\n        /* \"#utility.yul\":24987:24990   */\n      0x00\n        /* \"#utility.yul\":25008:25075   */\n      tag_672\n        /* \"#utility.yul\":25072:25074   */\n      0x21\n        /* \"#utility.yul\":25067:25070   */\n      dup4\n        /* \"#utility.yul\":25008:25075   */\n      tag_400\n      jump\t// in\n    tag_672:\n        /* \"#utility.yul\":25001:25075   */\n      swap2\n      pop\n        /* \"#utility.yul\":25084:25177   */\n      tag_673\n        /* \"#utility.yul\":25173:25176   */\n      dup3\n        /* \"#utility.yul\":25084:25177   */\n      tag_435\n      jump\t// in\n    tag_673:\n        /* \"#utility.yul\":25202:25204   */\n      0x40\n        /* \"#utility.yul\":25197:25200   */\n      dup3\n        /* \"#utility.yul\":25193:25205   */\n      add\n        /* \"#utility.yul\":25186:25205   */\n      swap1\n      pop\n        /* \"#utility.yul\":24845:25211   */\n      swap2\n      swap1\n      pop\n      jump\t// out\n        /* \"#utility.yul\":25217:25636   */\n    tag_300:\n        /* \"#utility.yul\":25383:25387   */\n      0x00\n        /* \"#utility.yul\":25421:25423   */\n      0x20\n        /* \"#utility.yul\":25410:25419   */\n      dup3\n        /* \"#utility.yul\":25406:25424   */\n      add\n        /* \"#utility.yul\":25398:25424   */\n      swap1\n      pop\n        /* \"#utility.yul\":25470:25479   */\n      dup2\n        /* \"#utility.yul\":25464:25468   */\n      dup2\n        /* \"#utility.yul\":25460:25480   */\n      sub\n        /* \"#utility.yul\":25456:25457   */\n      0x00\n        /* \"#utility.yul\":25445:25454   */\n      dup4\n        /* \"#utility.yul\":25441:25458   */\n      add\n        /* \"#utility.yul\":25434:25481   */\n      mstore\n        /* \"#utility.yul\":25498:25629   */\n      tag_675\n        /* \"#utility.yul\":25624:25628   */\n      dup2\n        /* \"#utility.yul\":25498:25629   */\n      tag_436\n      jump\t// in\n    tag_675:\n        /* \"#utility.yul\":25490:25629   */\n      swap1\n      pop\n        /* \"#utility.yul\":25217:25636   */\n      swap2\n      swap1\n      pop\n      jump\t// out\n        /* \"#utility.yul\":25642:25869   */\n    tag_437:\n        /* \"#utility.yul\":25782:25816   */\n      0x4465706f73697420616d6f756e74206d75737420626520677265617465722074\n        /* \"#utility.yul\":25778:25779   */\n      0x00\n        /* \"#utility.yul\":25770:25776   */\n      dup3\n        /* \"#utility.yul\":25766:25780   */\n      add\n        /* \"#utility.yul\":25759:25817   */\n      mstore\n        /* \"#utility.yul\":25851:25861   */\n      0x68616e207a65726f000000000000000000000000000000000000000000000000\n        /* \"#utility.yul\":25846:25848   */\n      0x20\n        /* \"#utility.yul\":25838:25844   */\n      dup3\n        /* \"#utility.yul\":25834:25849   */\n      add\n        /* \"#utility.yul\":25827:25862   */\n      mstore\n        /* \"#utility.yul\":25642:25869   */\n      pop\n      jump\t// out\n        /* \"#utility.yul\":25875:26241   */\n    tag_438:\n        /* \"#utility.yul\":26017:26020   */\n      0x00\n        /* \"#utility.yul\":26038:26105   */\n      tag_678\n        /* \"#utility.yul\":26102:26104   */\n      0x28\n        /* \"#utility.yul\":26097:26100   */\n      dup4\n        /* \"#utility.yul\":26038:26105   */\n      tag_400\n      jump\t// in\n    tag_678:\n        /* \"#utility.yul\":26031:26105   */\n      swap2\n      pop\n        /* \"#utility.yul\":26114:26207   */\n      tag_679\n        /* \"#utility.yul\":26203:26206   */\n      dup3\n        /* \"#utility.yul\":26114:26207   */\n      tag_437\n      jump\t// in\n    tag_679:\n        /* \"#utility.yul\":26232:26234   */\n      0x40\n        /* \"#utility.yul\":26227:26230   */\n      dup3\n        /* \"#utility.yul\":26223:26235   */\n      add\n        /* \"#utility.yul\":26216:26235   */\n      swap1\n      pop\n        /* \"#utility.yul\":25875:26241   */\n      swap2\n      swap1\n      pop\n      jump\t// out\n        /* \"#utility.yul\":26247:26666   */\n    tag_314:\n        /* \"#utility.yul\":26413:26417   */\n      0x00\n        /* \"#utility.yul\":26451:26453   */\n      0x20\n        /* \"#utility.yul\":26440:26449   */\n      dup3\n        /* \"#utility.yul\":26436:26454   */\n      add\n        /* \"#utility.yul\":26428:26454   */\n      swap1\n      pop\n        /* \"#utility.yul\":26500:26509   */\n      dup2\n        /* \"#utility.yul\":26494:26498   */\n      dup2\n        /* \"#utility.yul\":26490:26510   */\n      sub\n        /* \"#utility.yul\":26486:26487   */\n      0x00\n        /* \"#utility.yul\":26475:26484   */\n      dup4\n        /* \"#utility.yul\":26471:26488   */\n      add\n        /* \"#utility.yul\":26464:26511   */\n      mstore\n        /* \"#utility.yul\":26528:26659   */\n      tag_681\n        /* \"#utility.yul\":26654:26658   */\n      dup2\n        /* \"#utility.yul\":26528:26659   */\n      tag_438\n      jump\t// in\n    tag_681:\n        /* \"#utility.yul\":26520:26659   */\n      swap1\n      pop\n        /* \"#utility.yul\":26247:26666   */\n      swap2\n      swap1\n      pop\n      jump\t// out\n        /* \"#utility.yul\":26672:26842   */\n    tag_439:\n        /* \"#utility.yul\":26812:26834   */\n      0x496e73756666696369656e742062616c616e6365000000000000000000000000\n        /* \"#utility.yul\":26808:26809   */\n      0x00\n        /* \"#utility.yul\":26800:26806   */\n      dup3\n        /* \"#utility.yul\":26796:26810   */\n      add\n        /* \"#utility.yul\":26789:26835   */\n      mstore\n        /* \"#utility.yul\":26672:26842   */\n      pop\n      jump\t// out\n        /* \"#utility.yul\":26848:27214   */\n    tag_440:\n        /* \"#utility.yul\":26990:26993   */\n      0x00\n        /* \"#utility.yul\":27011:27078   */\n      tag_684\n        /* \"#utility.yul\":27075:27077   */\n      0x14\n        /* \"#utility.yul\":27070:27073   */\n      dup4\n        /* \"#utility.yul\":27011:27078   */\n      tag_400\n      jump\t// in\n    tag_684:\n        /* \"#utility.yul\":27004:27078   */\n      swap2\n      pop\n        /* \"#utility.yul\":27087:27180   */\n      tag_685\n        /* \"#utility.yul\":27176:27179   */\n      dup3\n        /* \"#utility.yul\":27087:27180   */\n      tag_439\n      jump\t// in\n    tag_685:\n        /* \"#utility.yul\":27205:27207   */\n      0x20\n        /* \"#utility.yul\":27200:27203   */\n      dup3\n        /* \"#utility.yul\":27196:27208   */\n      add\n        /* \"#utility.yul\":27189:27208   */\n      swap1\n      pop\n        /* \"#utility.yul\":26848:27214   */\n      swap2\n      swap1\n      pop\n      jump\t// out\n        /* \"#utility.yul\":27220:27639   */\n    tag_321:\n        /* \"#utility.yul\":27386:27390   */\n      0x00\n        /* \"#utility.yul\":27424:27426   */\n      0x20\n        /* \"#utility.yul\":27413:27422   */\n      dup3\n        /* \"#utility.yul\":27409:27427   */\n      add\n        /* \"#utility.yul\":27401:27427   */\n      swap1\n      pop\n        /* \"#utility.yul\":27473:27482   */\n      dup2\n        /* \"#utility.yul\":27467:27471   */\n      dup2\n        /* \"#utility.yul\":27463:27483   */\n      sub\n        /* \"#utility.yul\":27459:27460   */\n      0x00\n        /* \"#utility.yul\":27448:27457   */\n      dup4\n        /* \"#utility.yul\":27444:27461   */\n      add\n        /* \"#utility.yul\":27437:27484   */\n      mstore\n        /* \"#utility.yul\":27501:27632   */\n      tag_687\n        /* \"#utility.yul\":27627:27631   */\n      dup2\n        /* \"#utility.yul\":27501:27632   */\n      tag_440\n      jump\t// in\n    tag_687:\n        /* \"#utility.yul\":27493:27632   */\n      swap1\n      pop\n        /* \"#utility.yul\":27220:27639   */\n      swap2\n      swap1\n      pop\n      jump\t// out\n        /* \"#utility.yul\":27645:27814   */\n    tag_441:\n        /* \"#utility.yul\":27785:27806   */\n      0x4e6f206665657320746f20776974686472617700000000000000000000000000\n        /* \"#utility.yul\":27781:27782   */\n      0x00\n        /* \"#utility.yul\":27773:27779   */\n      dup3\n        /* \"#utility.yul\":27769:27783   */\n      add\n        /* \"#utility.yul\":27762:27807   */\n      mstore\n        /* \"#utility.yul\":27645:27814   */\n      pop\n      jump\t// out\n        /* \"#utility.yul\":27820:28186   */\n    tag_442:\n        /* \"#utility.yul\":27962:27965   */\n      0x00\n        /* \"#utility.yul\":27983:28050   */\n      tag_690\n        /* \"#utility.yul\":28047:28049   */\n      0x13\n        /* \"#utility.yul\":28042:28045   */\n      dup4\n        /* \"#utility.yul\":27983:28050   */\n      tag_400\n      jump\t// in\n    tag_690:\n        /* \"#utility.yul\":27976:28050   */\n      swap2\n      pop\n        /* \"#utility.yul\":28059:28152   */\n      tag_691\n        /* \"#utility.yul\":28148:28151   */\n      dup3\n        /* \"#utility.yul\":28059:28152   */\n      tag_441\n      jump\t// in\n    tag_691:\n        /* \"#utility.yul\":28177:28179   */\n      0x20\n        /* \"#utility.yul\":28172:28175   */\n      dup3\n        /* \"#utility.yul\":28168:28180   */\n      add\n        /* \"#utility.yul\":28161:28180   */\n      swap1\n      pop\n        /* \"#utility.yul\":27820:28186   */\n      swap2\n      swap1\n      pop\n      jump\t// out\n        /* \"#utility.yul\":28192:28611   */\n    tag_330:\n        /* \"#utility.yul\":28358:28362   */\n      0x00\n        /* \"#utility.yul\":28396:28398   */\n      0x20\n        /* \"#utility.yul\":28385:28394   */\n      dup3\n        /* \"#utility.yul\":28381:28399   */\n      add\n        /* \"#utility.yul\":28373:28399   */\n      swap1\n      pop\n        /* \"#utility.yul\":28445:28454   */\n      dup2\n        /* \"#utility.yul\":28439:28443   */\n      dup2\n        /* \"#utility.yul\":28435:28455   */\n      sub\n        /* \"#utility.yul\":28431:28432   */\n      0x00\n        /* \"#utility.yul\":28420:28429   */\n      dup4\n        /* \"#utility.yul\":28416:28433   */\n      add\n        /* \"#utility.yul\":28409:28456   */\n      mstore\n        /* \"#utility.yul\":28473:28604   */\n      tag_693\n        /* \"#utility.yul\":28599:28603   */\n      dup2\n        /* \"#utility.yul\":28473:28604   */\n      tag_442\n      jump\t// in\n    tag_693:\n        /* \"#utility.yul\":28465:28604   */\n      swap1\n      pop\n        /* \"#utility.yul\":28192:28611   */\n      swap2\n      swap1\n      pop\n      jump\t// out\n        /* \"#utility.yul\":28617:28798   */\n    tag_443:\n        /* \"#utility.yul\":28757:28790   */\n      0x5265656e7472616e637947756172643a207265656e7472616e742063616c6c00\n        /* \"#utility.yul\":28753:28754   */\n      0x00\n        /* \"#utility.yul\":28745:28751   */\n      dup3\n        /* \"#utility.yul\":28741:28755   */\n      add\n        /* \"#utility.yul\":28734:28791   */\n      mstore\n        /* \"#utility.yul\":28617:28798   */\n      pop\n      jump\t// out\n        /* \"#utility.yul\":28804:29170   */\n    tag_444:\n        /* \"#utility.yul\":28946:28949   */\n      0x00\n        /* \"#utility.yul\":28967:29034   */\n      tag_696\n        /* \"#utility.yul\":29031:29033   */\n      0x1f\n        /* \"#utility.yul\":29026:29029   */\n      dup4\n        /* \"#utility.yul\":28967:29034   */\n      tag_400\n      jump\t// in\n    tag_696:\n        /* \"#utility.yul\":28960:29034   */\n      swap2\n      pop\n        /* \"#utility.yul\":29043:29136   */\n      tag_697\n        /* \"#utility.yul\":29132:29135   */\n      dup3\n        /* \"#utility.yul\":29043:29136   */\n      tag_443\n      jump\t// in\n    tag_697:\n        /* \"#utility.yul\":29161:29163   */\n      0x20\n        /* \"#utility.yul\":29156:29159   */\n      dup3\n        /* \"#utility.yul\":29152:29164   */\n      add\n        /* \"#utility.yul\":29145:29164   */\n      swap1\n      pop\n        /* \"#utility.yul\":28804:29170   */\n      swap2\n      swap1\n      pop\n      jump\t// out\n        /* \"#utility.yul\":29176:29595   */\n    tag_354:\n        /* \"#utility.yul\":29342:29346   */\n      0x00\n        /* \"#utility.yul\":29380:29382   */\n      0x20\n        /* \"#utility.yul\":29369:29378   */\n      dup3\n        /* \"#utility.yul\":29365:29383   */\n      add\n        /* \"#utility.yul\":29357:29383   */\n      swap1\n      pop\n        /* \"#utility.yul\":29429:29438   */\n      dup2\n        /* \"#utility.yul\":29423:29427   */\n      dup2\n        /* \"#utility.yul\":29419:29439   */\n      sub\n        /* \"#utility.yul\":29415:29416   */\n      0x00\n        /* \"#utility.yul\":29404:29413   */\n      dup4\n        /* \"#utility.yul\":29400:29417   */\n      add\n        /* \"#utility.yul\":29393:29440   */\n      mstore\n        /* \"#utility.yul\":29457:29588   */\n      tag_699\n        /* \"#utility.yul\":29583:29587   */\n      dup2\n        /* \"#utility.yul\":29457:29588   */\n      tag_444\n      jump\t// in\n    tag_699:\n        /* \"#utility.yul\":29449:29588   */\n      swap1\n      pop\n        /* \"#utility.yul\":29176:29595   */\n      swap2\n      swap1\n      pop\n      jump\t// out\n        /* \"#utility.yul\":29601:29933   */\n    tag_358:\n        /* \"#utility.yul\":29722:29726   */\n      0x00\n        /* \"#utility.yul\":29760:29762   */\n      0x40\n        /* \"#utility.yul\":29749:29758   */\n      dup3\n        /* \"#utility.yul\":29745:29763   */\n      add\n        /* \"#utility.yul\":29737:29763   */\n      swap1\n      pop\n        /* \"#utility.yul\":29773:29844   */\n      tag_701\n        /* \"#utility.yul\":29841:29842   */\n      0x00\n        /* \"#utility.yul\":29830:29839   */\n      dup4\n        /* \"#utility.yul\":29826:29843   */\n      add\n        /* \"#utility.yul\":29817:29823   */\n      dup6\n        /* \"#utility.yul\":29773:29844   */\n      tag_386\n      jump\t// in\n    tag_701:\n        /* \"#utility.yul\":29854:29926   */\n      tag_702\n        /* \"#utility.yul\":29922:29924   */\n      0x20\n        /* \"#utility.yul\":29911:29920   */\n      dup4\n        /* \"#utility.yul\":29907:29925   */\n      add\n        /* \"#utility.yul\":29898:29904   */\n      dup5\n        /* \"#utility.yul\":29854:29926   */\n      tag_381\n      jump\t// in\n    tag_702:\n        /* \"#utility.yul\":29601:29933   */\n      swap4\n      swap3\n      pop\n      pop\n      pop\n      jump\t// out\n        /* \"#utility.yul\":29939:30381   */\n    tag_365:\n        /* \"#utility.yul\":30088:30092   */\n      0x00\n        /* \"#utility.yul\":30126:30128   */\n      0x60\n        /* \"#utility.yul\":30115:30124   */\n      dup3\n        /* \"#utility.yul\":30111:30129   */\n      add\n        /* \"#utility.yul\":30103:30129   */\n      swap1\n      pop\n        /* \"#utility.yul\":30139:30210   */\n      tag_704\n        /* \"#utility.yul\":30207:30208   */\n      0x00\n        /* \"#utility.yul\":30196:30205   */\n      dup4\n        /* \"#utility.yul\":30192:30209   */\n      add\n        /* \"#utility.yul\":30183:30189   */\n      dup7\n        /* \"#utility.yul\":30139:30210   */\n      tag_386\n      jump\t// in\n    tag_704:\n        /* \"#utility.yul\":30220:30292   */\n      tag_705\n        /* \"#utility.yul\":30288:30290   */\n      0x20\n        /* \"#utility.yul\":30277:30286   */\n      dup4\n        /* \"#utility.yul\":30273:30291   */\n      add\n        /* \"#utility.yul\":30264:30270   */\n      dup6\n        /* \"#utility.yul\":30220:30292   */\n      tag_386\n      jump\t// in\n    tag_705:\n        /* \"#utility.yul\":30302:30374   */\n      tag_706\n        /* \"#utility.yul\":30370:30372   */\n      0x40\n        /* \"#utility.yul\":30359:30368   */\n      dup4\n        /* \"#utility.yul\":30355:30373   */\n      add\n        /* \"#utility.yul\":30346:30352   */\n      dup5\n        /* \"#utility.yul\":30302:30374   */\n      tag_381\n      jump\t// in\n    tag_706:\n        /* \"#utility.yul\":29939:30381   */\n      swap5\n      swap4\n      pop\n      pop\n      pop\n      pop\n      jump\t// out\n\n    auxdata: 0xa2646970667358221220ee015d0b1857fcb4f9e6d2e8595de2eab22cc7b7ab69283a54e2b29f8e7e9a1564736f6c63430008140033\n}\n",
				"bytecode": {
					"linkReferences": {},
					"object": "60a0604052670de0b6b3a76400006207a1206200001d9190620002a2565b600b5562093a80600d5534801562000033575f80fd5b50604051620030d4380380620030d4833981810160405281019062000059919062000364565b335f73ffffffffffffffffffffffffffffffffffffffff168173ffffffffffffffffffffffffffffffffffffffff1603620000cd575f6040517f1e4fbdf7000000000000000000000000000000000000000000000000000000008152600401620000c49190620003a5565b60405180910390fd5b620000de81620001ab60201b60201c565b50600180819055505f73ffffffffffffffffffffffffffffffffffffffff168173ffffffffffffffffffffffffffffffffffffffff160362000157576040517f08c379a00000000000000000000000000000000000000000000000000000000081526004016200014e906200041e565b60405180910390fd5b8073ffffffffffffffffffffffffffffffffffffffff1660808173ffffffffffffffffffffffffffffffffffffffff16815250505f60025f6101000a81548160ff021916908315150217905550506200043e565b5f805f9054906101000a900473ffffffffffffffffffffffffffffffffffffffff169050815f806101000a81548173ffffffffffffffffffffffffffffffffffffffff021916908373ffffffffffffffffffffffffffffffffffffffff1602179055508173ffffffffffffffffffffffffffffffffffffffff168173ffffffffffffffffffffffffffffffffffffffff167f8be0079c531659141344cd1fd0a4f28419497f9722a3daafe3b4186f6b6457e060405160405180910390a35050565b5f819050919050565b7f4e487b71000000000000000000000000000000000000000000000000000000005f52601160045260245ffd5b5f620002ae826200026c565b9150620002bb836200026c565b9250828202620002cb816200026c565b91508282048414831517620002e557620002e462000275565b5b5092915050565b5f80fd5b5f73ffffffffffffffffffffffffffffffffffffffff82169050919050565b5f6200031b82620002f0565b9050919050565b5f6200032e826200030f565b9050919050565b620003408162000322565b81146200034b575f80fd5b50565b5f815190506200035e8162000335565b92915050565b5f602082840312156200037c576200037b620002ec565b5b5f6200038b848285016200034e565b91505092915050565b6200039f816200030f565b82525050565b5f602082019050620003ba5f83018462000394565b92915050565b5f82825260208201905092915050565b7f496e76616c696420746f6b656e000000000000000000000000000000000000005f82015250565b5f62000406600d83620003c0565b91506200041382620003d0565b602082019050919050565b5f6020820190508181035f8301526200043781620003f8565b9050919050565b608051612c4c620004885f395f8181610b3701528181610caa015281816113c4015281816115050152818161166d0152818161175e0152818161183d0152611a3e0152612c4c5ff3fe6080604052600436106101cc575f3560e01c80638f060da9116100f6578063d7bebac011610094578063e141316311610063578063e1413163146105fa578063e1ffba6214610610578063f2fde38b14610638578063fc0c546a14610660576101cc565b8063d7bebac01461057e578063db2e21bc146105a6578063dc7f9e34146105bc578063dd49756e146105d2576101cc565b80639e9aed62116100d05780639e9aed62146104e0578063a0470cb41461050a578063bf3506c114610514578063c59d484714610550576101cc565b80638f060da91461044057806392929a091461047c57806394192b9f146104a4576101cc565b80634243fc4e1161016e5780636104f4b51161013d5780636104f4b5146103ac578063715018a6146103d657806386e755c6146103ec5780638da5cb5b14610416576101cc565b80634243fc4e1461030657806345f7f249146103305780634e71d92d1461035a578063522bf1d414610370576101cc565b806326155e53116101aa57806326155e531461025e57806328607bc6146102885780632866ed21146102b25780632bb2ed39146102dc576101cc565b806306def802146101d05780631f3225641461020c5780632019ddf814610236575b5f80fd5b3480156101db575f80fd5b506101f660048036038101906101f19190611e05565b61068a565b6040516102039190611e48565b60405180910390f35b348015610217575f80fd5b506102206106d0565b60405161022d9190611e48565b60405180910390f35b348015610241575f80fd5b5061025c60048036038101906102579190611e96565b6106d6565b005b348015610269575f80fd5b50610272610784565b60405161027f9190611e48565b60405180910390f35b348015610293575f80fd5b5061029c61078a565b6040516102a99190611e48565b60405180910390f35b3480156102bd575f80fd5b506102c6610790565b6040516102d39190611ee3565b60405180910390f35b3480156102e7575f80fd5b506102f06107a2565b6040516102fd9190611e48565b60405180910390f35b348015610311575f80fd5b5061031a6107a8565b6040516103279190611e48565b60405180910390f35b34801561033b575f80fd5b506103446107d8565b6040516103519190611e48565b60405180910390f35b348015610365575f80fd5b5061036e6107de565b005b34801561037b575f80fd5b5061039660048036038101906103919190611e05565b610b86565b6040516103a39190611e48565b60405180910390f35b3480156103b7575f80fd5b506103c0610bcc565b6040516103cd9190611e48565b60405180910390f35b3480156103e1575f80fd5b506103ea610bd2565b005b3480156103f7575f80fd5b50610400610be5565b60405161040d9190611e48565b60405180910390f35b348015610421575f80fd5b5061042a610beb565b6040516104379190611f0b565b60405180910390f35b34801561044b575f80fd5b5061046660048036038101906104619190611e05565b610c12565b6040516104739190611ee3565b60405180910390f35b348015610487575f80fd5b506104a2600480360381019061049d9190611f24565b610c2f565b005b3480156104af575f80fd5b506104ca60048036038101906104c59190611e05565b610c8a565b6040516104d79190611ee3565b60405180910390f35b3480156104eb575f80fd5b506104f4610ca7565b6040516105019190611e48565b60405180910390f35b610512610d45565b005b34801561051f575f80fd5b5061053a60048036038101906105359190611e05565b610e23565b6040516105479190611ee3565b60405180910390f35b34801561055b575f80fd5b50610564610f27565b604051610575959493929190611f4f565b60405180910390f35b348015610589575f80fd5b506105a4600480360381019061059f9190612056565b610f5d565b005b3480156105b1575f80fd5b506105ba6113b1565b005b3480156105c7575f80fd5b506105d06115a9565b005b3480156105dd575f80fd5b506105f860048036038101906105f391906120fe565b611711565b005b348015610605575f80fd5b5061060e6118d3565b005b34801561061b575f80fd5b50610636600480360381019061063191906120fe565b61196f565b005b348015610643575f80fd5b5061065e60048036038101906106599190611e05565b6119b8565b005b34801561066b575f80fd5b50610674611a3c565b6040516106819190612184565b60405180910390f35b5f60035f8373ffffffffffffffffffffffffffffffffffffffff1673ffffffffffffffffffffffffffffffffffffffff1681526020019081526020015f20549050919050565b600e5481565b6106de611a60565b8060055f8473ffffffffffffffffffffffffffffffffffffffff1673ffffffffffffffffffffffffffffffffffffffff1681526020019081526020015f205f6101000a81548160ff0219169083151502179055508173ffffffffffffffffffffffffffffffffffffffff167f129e15046dd77be10c4cdac8841646b9f3b6d22a00544b93362e9b84c05e6960826040516107789190611ee3565b60405180910390a25050565b600c5481565b600d5481565b60025f9054906101000a900460ff1681565b60085481565b5f806107b2610ca7565b905060095481116107c3575f6107d2565b600954816107d191906121ca565b5b91505090565b60095481565b6107e6611ae7565b60025f9054906101000a900460ff16610834576040517f08c379a000000000000000000000000000000000000000000000000000000000815260040161082b90612257565b60405180910390fd5b60055f3373ffffffffffffffffffffffffffffffffffffffff1673ffffffffffffffffffffffffffffffffffffffff1681526020019081526020015f205f9054906101000a900460ff16156108be576040517f08c379a00000000000000000000000000000000000000000000000000000000081526004016108b5906122bf565b60405180910390fd5b60065f3373ffffffffffffffffffffffffffffffffffffffff1673ffffffffffffffffffffffffffffffffffffffff1681526020019081526020015f205f9054906101000a900460ff16610947576040517f08c379a000000000000000000000000000000000000000000000000000000000815260040161093e90612327565b60405180910390fd5b5f60035f3373ffffffffffffffffffffffffffffffffffffffff1673ffffffffffffffffffffffffffffffffffffffff1681526020019081526020015f205490505f81116109ca576040517f08c379a00000000000000000000000000000000000000000000000000000000081526004016109c19061238f565b60405180910390fd5b3373ffffffffffffffffffffffffffffffffffffffff167f9e09de4b8e45666deb3ec2bc8225f07988e54ef533eec97cb0b4610127183d7982604051610a109190611e48565b60405180910390a25f60035f3373ffffffffffffffffffffffffffffffffffffffff1673ffffffffffffffffffffffffffffffffffffffff1681526020019081526020015f20819055508060095f828254610a6b91906121ca565b9250508190555060085f815480929190610a84906123ad565b91905055508060045f3373ffffffffffffffffffffffffffffffffffffffff1673ffffffffffffffffffffffffffffffffffffffff1681526020019081526020015f205f828254610ad591906123f4565b925050819055505f60065f3373ffffffffffffffffffffffffffffffffffffffff1673ffffffffffffffffffffffffffffffffffffffff1681526020019081526020015f205f6101000a81548160ff021916908315150217905550610b7b33827f000000000000000000000000000000000000000000000000000000000000000073ffffffffffffffffffffffffffffffffffffffff16611b369092919063ffffffff16565b50610b84611bb5565b565b5f60045f8373ffffffffffffffffffffffffffffffffffffffff1673ffffffffffffffffffffffffffffffffffffffff1681526020019081526020015f20549050919050565b60075481565b610bda611a60565b610be35f611bbe565b565b600b5481565b5f805f9054906101000a900473ffffffffffffffffffffffffffffffffffffffff16905090565b6005602052805f5260405f205f915054906101000a900460ff1681565b610c37611a60565b8060025f6101000a81548160ff0219169083151502179055507f1edd4dc7f91a5992aba0f39c0428bcf4df13d001eebc26eb188307d057f14a0781604051610c7f9190611ee3565b60405180910390a150565b6006602052805f5260405f205f915054906101000a900460ff1681565b5f7f000000000000000000000000000000000000000000000000000000000000000073ffffffffffffffffffffffffffffffffffffffff166370a08231306040518263ffffffff1660e01b8152600401610d019190611f0b565b602060405180830381865afa158015610d1c573d5f803e3d5ffd5b505050506040513d601f19601f82011682018060405250810190610d40919061243b565b905090565b600e543414610d89576040517f08c379a0000000000000000000000000000000000000000000000000000000008152600401610d80906124b0565b60405180910390fd5b600160065f3373ffffffffffffffffffffffffffffffffffffffff1673ffffffffffffffffffffffffffffffffffffffff1681526020019081526020015f205f6101000a81548160ff0219169083151502179055503373ffffffffffffffffffffffffffffffffffffffff167fb7fa0f30e1ede3196616147dfdf6c94e47523298677b4f7b0c61027a9f0ebf5460405160405180910390a2565b5f60025f9054906101000a900460ff168015610e86575060055f8373ffffffffffffffffffffffffffffffffffffffff1673ffffffffffffffffffffffffffffffffffffffff1681526020019081526020015f205f9054906101000a900460ff16155b8015610ed8575060065f8373ffffffffffffffffffffffffffffffffffffffff1673ffffffffffffffffffffffffffffffffffffffff1681526020019081526020015f205f9054906101000a900460ff165b8015610f2057505f60035f8473ffffffffffffffffffffffffffffffffffffffff1673ffffffffffffffffffffffffffffffffffffffff1681526020019081526020015f2054115b9050919050565b5f805f805f60075494506008549350610f3e610ca7565b9250600954915060025f9054906101000a900460ff1690509091929394565b610f65611a60565b818190508484905014610fad576040517f08c379a0000000000000000000000000000000000000000000000000000000008152600401610fa490612518565b60405180910390fd5b5f805b858590508110156112fd575f868683818110610fcf57610fce612536565b5b9050602002016020810190610fe49190611e05565b90505f670de0b6b3a764000086868581811061100357611002612536565b5b905060200201356110149190612563565b90505f8273ffffffffffffffffffffffffffffffffffffffff163b1461106f576040517f08c379a0000000000000000000000000000000000000000000000000000000008152600401611066906125ee565b60405180910390fd5b600b548160035f8573ffffffffffffffffffffffffffffffffffffffff1673ffffffffffffffffffffffffffffffffffffffff1681526020019081526020015f20546110bb91906123f4565b11156110fc576040517f08c379a00000000000000000000000000000000000000000000000000000000081526004016110f390612656565b60405180910390fd5b600a5f8373ffffffffffffffffffffffffffffffffffffffff1673ffffffffffffffffffffffffffffffffffffffff1681526020019081526020015f205f9054906101000a900460ff166111fa576001600a5f8473ffffffffffffffffffffffffffffffffffffffff1673ffffffffffffffffffffffffffffffffffffffff1681526020019081526020015f205f6101000a81548160ff02191690831515021790555060075f8154809291906111b1906123ad565b91905055508173ffffffffffffffffffffffffffffffffffffffff167f1837db44f707818dfce8415ef80a201e86882bc1bffabdded272512a96c0799e60405160405180910390a25b8060035f8473ffffffffffffffffffffffffffffffffffffffff1673ffffffffffffffffffffffffffffffffffffffff1681526020019081526020015f205f82825461124691906123f4565b92505081905550808461125991906123f4565b93508173ffffffffffffffffffffffffffffffffffffffff167f4885d73252b9e2c420b677d64d50e8a5798773dbb4cb99c5a2ab2824f725d9a88260035f8673ffffffffffffffffffffffffffffffffffffffff1673ffffffffffffffffffffffffffffffffffffffff1681526020019081526020015f20546040516112e0929190612674565b60405180910390a2505080806112f5906123ad565b915050610fb0565b508060095461130c91906123f4565b611314610ca7565b1015611355576040517f08c379a000000000000000000000000000000000000000000000000000000000815260040161134c9061270b565b60405180910390fd5b8060095f82825461136691906123f4565b925050819055507ff14d1c8e59d4cd079b88d0e19cf0de41c86b7a761d5032c0947977002b3ad93a858585856040516113a2949392919061285d565b60405180910390a15050505050565b6113b9611a60565b6113c1611ae7565b5f7f000000000000000000000000000000000000000000000000000000000000000073ffffffffffffffffffffffffffffffffffffffff166370a08231306040518263ffffffff1660e01b815260040161141b9190611f0b565b602060405180830381865afa158015611436573d5f803e3d5ffd5b505050506040513d601f19601f8201168201806040525081019061145a919061243b565b90505f811161149e576040517f08c379a0000000000000000000000000000000000000000000000000000000008152600401611495906128e0565b60405180910390fd5b600d54600c546114ae91906123f4565b4210156114f0576040517f08c379a00000000000000000000000000000000000000000000000000000000081526004016114e790612948565b60405180910390fd5b42600c81905550611549611502610beb565b827f000000000000000000000000000000000000000000000000000000000000000073ffffffffffffffffffffffffffffffffffffffff16611b369092919063ffffffff16565b611551610beb565b73ffffffffffffffffffffffffffffffffffffffff167f5fafa99d0643513820be26656b45130b01e1c03062e1266bf36f88cbd3bd9695826040516115969190611e48565b60405180910390a2506115a7611bb5565b565b6115b1611a60565b6115b9611ae7565b5f6115c26107a8565b90505f8111611606576040517f08c379a00000000000000000000000000000000000000000000000000000000081526004016115fd906129d6565b60405180910390fd5b600d54600c5461161691906123f4565b421015611658576040517f08c379a000000000000000000000000000000000000000000000000000000000815260040161164f90612948565b60405180910390fd5b42600c819055506116b161166a610beb565b827f000000000000000000000000000000000000000000000000000000000000000073ffffffffffffffffffffffffffffffffffffffff16611b369092919063ffffffff16565b6116b9610beb565b73ffffffffffffffffffffffffffffffffffffffff167f4f03851532cb76253fe3dddbcbe99f0a83446922731a7bdfd2cb44d35ffcb1d9826040516116fe9190611e48565b60405180910390a25061170f611bb5565b565b611719611a60565b5f811161175b576040517f08c379a000000000000000000000000000000000000000000000000000000000815260040161175290612a64565b60405180910390fd5b807f000000000000000000000000000000000000000000000000000000000000000073ffffffffffffffffffffffffffffffffffffffff166370a08231336040518263ffffffff1660e01b81526004016117b59190611f0b565b602060405180830381865afa1580156117d0573d5f803e3d5ffd5b505050506040513d601f19601f820116820180604052508101906117f4919061243b565b1015611835576040517f08c379a000000000000000000000000000000000000000000000000000000000815260040161182c90612acc565b60405180910390fd5b6118823330837f000000000000000000000000000000000000000000000000000000000000000073ffffffffffffffffffffffffffffffffffffffff16611c7f909392919063ffffffff16565b3373ffffffffffffffffffffffffffffffffffffffff167fbc7c8a4d8049a3f99a02f2a20640c206a2e4d3f2fa54fd20da9f01fda3620cda826040516118c89190611e48565b60405180910390a250565b6118db611a60565b5f4790505f8111611921576040517f08c379a000000000000000000000000000000000000000000000000000000000815260040161191890612b34565b60405180910390fd5b611929610beb565b73ffffffffffffffffffffffffffffffffffffffff166108fc8290811502906040515f60405180830381858888f1935050505015801561196b573d5f803e3d5ffd5b5050565b611977611a60565b80600e819055507f046767aa5821ba6f1a985f8cf0134cb534cba0b26ff165803d3602c7ff046cd4816040516119ad9190611e48565b60405180910390a150565b6119c0611a60565b5f73ffffffffffffffffffffffffffffffffffffffff168173ffffffffffffffffffffffffffffffffffffffff1603611a30575f6040517f1e4fbdf7000000000000000000000000000000000000000000000000000000008152600401611a279190611f0b565b60405180910390fd5b611a3981611bbe565b50565b7f000000000000000000000000000000000000000000000000000000000000000081565b611a68611d01565b73ffffffffffffffffffffffffffffffffffffffff16611a86610beb565b73ffffffffffffffffffffffffffffffffffffffff1614611ae557611aa9611d01565b6040517f118cdaa7000000000000000000000000000000000000000000000000000000008152600401611adc9190611f0b565b60405180910390fd5b565b600260015403611b2c576040517f08c379a0000000000000000000000000000000000000000000000000000000008152600401611b2390612b9c565b60405180910390fd5b6002600181905550565b611bb0838473ffffffffffffffffffffffffffffffffffffffff1663a9059cbb8585604051602401611b69929190612bba565b604051602081830303815290604052915060e01b6020820180517bffffffffffffffffffffffffffffffffffffffffffffffffffffffff8381831617835250505050611d08565b505050565b60018081905550565b5f805f9054906101000a900473ffffffffffffffffffffffffffffffffffffffff169050815f806101000a81548173ffffffffffffffffffffffffffffffffffffffff021916908373ffffffffffffffffffffffffffffffffffffffff1602179055508173ffffffffffffffffffffffffffffffffffffffff168173ffffffffffffffffffffffffffffffffffffffff167f8be0079c531659141344cd1fd0a4f28419497f9722a3daafe3b4186f6b6457e060405160405180910390a35050565b611cfb848573ffffffffffffffffffffffffffffffffffffffff166323b872dd868686604051602401611cb493929190612be1565b604051602081830303815290604052915060e01b6020820180517bffffffffffffffffffffffffffffffffffffffffffffffffffffffff8381831617835250505050611d08565b50505050565b5f33905090565b5f8060205f8451602086015f885af180611d27576040513d5f823e3d81fd5b3d92505f519150505f8214611d40576001811415611d5b565b5f8473ffffffffffffffffffffffffffffffffffffffff163b145b15611d9d57836040517f5274afe7000000000000000000000000000000000000000000000000000000008152600401611d949190611f0b565b60405180910390fd5b50505050565b5f80fd5b5f80fd5b5f73ffffffffffffffffffffffffffffffffffffffff82169050919050565b5f611dd482611dab565b9050919050565b611de481611dca565b8114611dee575f80fd5b50565b5f81359050611dff81611ddb565b92915050565b5f60208284031215611e1a57611e19611da3565b5b5f611e2784828501611df1565b91505092915050565b5f819050919050565b611e4281611e30565b82525050565b5f602082019050611e5b5f830184611e39565b92915050565b5f8115159050919050565b611e7581611e61565b8114611e7f575f80fd5b50565b5f81359050611e9081611e6c565b92915050565b5f8060408385031215611eac57611eab611da3565b5b5f611eb985828601611df1565b9250506020611eca85828601611e82565b9150509250929050565b611edd81611e61565b82525050565b5f602082019050611ef65f830184611ed4565b92915050565b611f0581611dca565b82525050565b5f602082019050611f1e5f830184611efc565b92915050565b5f60208284031215611f3957611f38611da3565b5b5f611f4684828501611e82565b91505092915050565b5f60a082019050611f625f830188611e39565b611f6f6020830187611e39565b611f7c6040830186611e39565b611f896060830185611e39565b611f966080830184611ed4565b9695505050505050565b5f80fd5b5f80fd5b5f80fd5b5f8083601f840112611fc157611fc0611fa0565b5b8235905067ffffffffffffffff811115611fde57611fdd611fa4565b5b602083019150836020820283011115611ffa57611ff9611fa8565b5b9250929050565b5f8083601f84011261201657612015611fa0565b5b8235905067ffffffffffffffff81111561203357612032611fa4565b5b60208301915083602082028301111561204f5761204e611fa8565b5b9250929050565b5f805f806040858703121561206e5761206d611da3565b5b5f85013567ffffffffffffffff81111561208b5761208a611da7565b5b61209787828801611fac565b9450945050602085013567ffffffffffffffff8111156120ba576120b9611da7565b5b6120c687828801612001565b925092505092959194509250565b6120dd81611e30565b81146120e7575f80fd5b50565b5f813590506120f8816120d4565b92915050565b5f6020828403121561211357612112611da3565b5b5f612120848285016120ea565b91505092915050565b5f819050919050565b5f61214c61214761214284611dab565b612129565b611dab565b9050919050565b5f61215d82612132565b9050919050565b5f61216e82612153565b9050919050565b61217e81612164565b82525050565b5f6020820190506121975f830184612175565b92915050565b7f4e487b71000000000000000000000000000000000000000000000000000000005f52601160045260245ffd5b5f6121d482611e30565b91506121df83611e30565b92508282039050818111156121f7576121f661219d565b5b92915050565b5f82825260208201905092915050565b7f436c61696d206e6f7420656e61626c65640000000000000000000000000000005f82015250565b5f6122416011836121fd565b915061224c8261220d565b602082019050919050565b5f6020820190508181035f83015261226e81612235565b9050919050565b7f436c61696d20626c6f636b656420666f722074686973206164647265737300005f82015250565b5f6122a9601e836121fd565b91506122b482612275565b602082019050919050565b5f6020820190508181035f8301526122d68161229d565b9050919050565b7f417070726f76616c20666565206e6f74207061696400000000000000000000005f82015250565b5f6123116015836121fd565b915061231c826122dd565b602082019050919050565b5f6020820190508181035f83015261233e81612305565b9050919050565b7f596f752068617665206e6f2062616c616e636520746f20636c61696d000000005f82015250565b5f612379601c836121fd565b915061238482612345565b602082019050919050565b5f6020820190508181035f8301526123a68161236d565b9050919050565b5f6123b782611e30565b91507fffffffffffffffffffffffffffffffffffffffffffffffffffffffffffffffff82036123e9576123e861219d565b5b600182019050919050565b5f6123fe82611e30565b915061240983611e30565b92508282019050808211156124215761242061219d565b5b92915050565b5f81519050612435816120d4565b92915050565b5f602082840312156124505761244f611da3565b5b5f61245d84828501612427565b91505092915050565b7f496e636f72726563742066656520616d6f756e740000000000000000000000005f82015250565b5f61249a6014836121fd565b91506124a582612466565b602082019050919050565b5f6020820190508181035f8301526124c78161248e565b9050919050565b7f4172726179206c656e6774687320646f206e6f74206d617463680000000000005f82015250565b5f612502601a836121fd565b915061250d826124ce565b602082019050919050565b5f6020820190508181035f83015261252f816124f6565b9050919050565b7f4e487b71000000000000000000000000000000000000000000000000000000005f52603260045260245ffd5b5f61256d82611e30565b915061257883611e30565b925082820261258681611e30565b9150828204841483151761259d5761259c61219d565b5b5092915050565b7f43616e6e6f74206265206120636f6e74726163740000000000000000000000005f82015250565b5f6125d86014836121fd565b91506125e3826125a4565b602082019050919050565b5f6020820190508181035f830152612605816125cc565b9050919050565b7f416c6c6f636174696f6e206578636565647320616c6c6f776564206c696d69745f82015250565b5f6126406020836121fd565b915061264b8261260c565b602082019050919050565b5f6020820190508181035f83015261266d81612634565b9050919050565b5f6040820190506126875f830185611e39565b6126946020830184611e39565b9392505050565b7f496e73756666696369656e7420636f6e74726163742062616c616e636520666f5f8201527f7220616c6c6f636174696f6e0000000000000000000000000000000000000000602082015250565b5f6126f5602c836121fd565b91506127008261269b565b604082019050919050565b5f6020820190508181035f830152612722816126e9565b9050919050565b5f82825260208201905092915050565b5f819050919050565b61274b81611dca565b82525050565b5f61275c8383612742565b60208301905092915050565b5f6127766020840184611df1565b905092915050565b5f602082019050919050565b5f6127958385612729565b93506127a082612739565b805f5b858110156127d8576127b58284612768565b6127bf8882612751565b97506127ca8361277e565b9250506001810190506127a3565b5085925050509392505050565b5f82825260208201905092915050565b5f80fd5b82818337505050565b5f61280d83856127e5565b93507f07ffffffffffffffffffffffffffffffffffffffffffffffffffffffffffffff8311156128405761283f6127f5565b5b6020830292506128518385846127f9565b82840190509392505050565b5f6040820190508181035f83015261287681868861278a565b9050818103602083015261288b818486612802565b905095945050505050565b7f436f6e747261637420686173206e6f2062616c616e63650000000000000000005f82015250565b5f6128ca6017836121fd565b91506128d582612896565b602082019050919050565b5f6020820190508181035f8301526128f7816128be565b9050919050565b7f436f6f6c646f776e20696e2070726f67726573730000000000000000000000005f82015250565b5f6129326014836121fd565b915061293d826128fe565b602082019050919050565b5f6020820190508181035f83015261295f81612926565b9050919050565b7f4e6f20756e616c6c6f636174656420746f6b656e7320746f20776974686472615f8201527f7700000000000000000000000000000000000000000000000000000000000000602082015250565b5f6129c06021836121fd565b91506129cb82612966565b604082019050919050565b5f6020820190508181035f8301526129ed816129b4565b9050919050565b7f4465706f73697420616d6f756e74206d757374206265206772656174657220745f8201527f68616e207a65726f000000000000000000000000000000000000000000000000602082015250565b5f612a4e6028836121fd565b9150612a59826129f4565b604082019050919050565b5f6020820190508181035f830152612a7b81612a42565b9050919050565b7f496e73756666696369656e742062616c616e63650000000000000000000000005f82015250565b5f612ab66014836121fd565b9150612ac182612a82565b602082019050919050565b5f6020820190508181035f830152612ae381612aaa565b9050919050565b7f4e6f206665657320746f207769746864726177000000000000000000000000005f82015250565b5f612b1e6013836121fd565b9150612b2982612aea565b602082019050919050565b5f6020820190508181035f830152612b4b81612b12565b9050919050565b7f5265656e7472616e637947756172643a207265656e7472616e742063616c6c005f82015250565b5f612b86601f836121fd565b9150612b9182612b52565b602082019050919050565b5f6020820190508181035f830152612bb381612b7a565b9050919050565b5f604082019050612bcd5f830185611efc565b612bda6020830184611e39565b9392505050565b5f606082019050612bf45f830186611efc565b612c016020830185611efc565b612c0e6040830184611e39565b94935050505056fea2646970667358221220ee015d0b1857fcb4f9e6d2e8595de2eab22cc7b7ab69283a54e2b29f8e7e9a1564736f6c63430008140033",
					"opcodes": "PUSH1 0xA0 PUSH1 0x40 MSTORE PUSH8 0xDE0B6B3A7640000 PUSH3 0x7A120 PUSH3 0x1D SWAP2 SWAP1 PUSH3 0x2A2 JUMP JUMPDEST PUSH1 0xB SSTORE PUSH3 0x93A80 PUSH1 0xD SSTORE CALLVALUE DUP1 ISZERO PUSH3 0x33 JUMPI PUSH0 DUP1 REVERT JUMPDEST POP PUSH1 0x40 MLOAD PUSH3 0x30D4 CODESIZE SUB DUP1 PUSH3 0x30D4 DUP4 CODECOPY DUP2 DUP2 ADD PUSH1 0x40 MSTORE DUP2 ADD SWAP1 PUSH3 0x59 SWAP2 SWAP1 PUSH3 0x364 JUMP JUMPDEST CALLER PUSH0 PUSH20 0xFFFFFFFFFFFFFFFFFFFFFFFFFFFFFFFFFFFFFFFF AND DUP2 PUSH20 0xFFFFFFFFFFFFFFFFFFFFFFFFFFFFFFFFFFFFFFFF AND SUB PUSH3 0xCD JUMPI PUSH0 PUSH1 0x40 MLOAD PUSH32 0x1E4FBDF700000000000000000000000000000000000000000000000000000000 DUP2 MSTORE PUSH1 0x4 ADD PUSH3 0xC4 SWAP2 SWAP1 PUSH3 0x3A5 JUMP JUMPDEST PUSH1 0x40 MLOAD DUP1 SWAP2 SUB SWAP1 REVERT JUMPDEST PUSH3 0xDE DUP2 PUSH3 0x1AB PUSH1 0x20 SHL PUSH1 0x20 SHR JUMP JUMPDEST POP PUSH1 0x1 DUP1 DUP2 SWAP1 SSTORE POP PUSH0 PUSH20 0xFFFFFFFFFFFFFFFFFFFFFFFFFFFFFFFFFFFFFFFF AND DUP2 PUSH20 0xFFFFFFFFFFFFFFFFFFFFFFFFFFFFFFFFFFFFFFFF AND SUB PUSH3 0x157 JUMPI PUSH1 0x40 MLOAD PUSH32 0x8C379A000000000000000000000000000000000000000000000000000000000 DUP2 MSTORE PUSH1 0x4 ADD PUSH3 0x14E SWAP1 PUSH3 0x41E JUMP JUMPDEST PUSH1 0x40 MLOAD DUP1 SWAP2 SUB SWAP1 REVERT JUMPDEST DUP1 PUSH20 0xFFFFFFFFFFFFFFFFFFFFFFFFFFFFFFFFFFFFFFFF AND PUSH1 0x80 DUP2 PUSH20 0xFFFFFFFFFFFFFFFFFFFFFFFFFFFFFFFFFFFFFFFF AND DUP2 MSTORE POP POP PUSH0 PUSH1 0x2 PUSH0 PUSH2 0x100 EXP DUP2 SLOAD DUP2 PUSH1 0xFF MUL NOT AND SWAP1 DUP4 ISZERO ISZERO MUL OR SWAP1 SSTORE POP POP PUSH3 0x43E JUMP JUMPDEST PUSH0 DUP1 PUSH0 SWAP1 SLOAD SWAP1 PUSH2 0x100 EXP SWAP1 DIV PUSH20 0xFFFFFFFFFFFFFFFFFFFFFFFFFFFFFFFFFFFFFFFF AND SWAP1 POP DUP2 PUSH0 DUP1 PUSH2 0x100 EXP DUP2 SLOAD DUP2 PUSH20 0xFFFFFFFFFFFFFFFFFFFFFFFFFFFFFFFFFFFFFFFF MUL NOT AND SWAP1 DUP4 PUSH20 0xFFFFFFFFFFFFFFFFFFFFFFFFFFFFFFFFFFFFFFFF AND MUL OR SWAP1 SSTORE POP DUP2 PUSH20 0xFFFFFFFFFFFFFFFFFFFFFFFFFFFFFFFFFFFFFFFF AND DUP2 PUSH20 0xFFFFFFFFFFFFFFFFFFFFFFFFFFFFFFFFFFFFFFFF AND PUSH32 0x8BE0079C531659141344CD1FD0A4F28419497F9722A3DAAFE3B4186F6B6457E0 PUSH1 0x40 MLOAD PUSH1 0x40 MLOAD DUP1 SWAP2 SUB SWAP1 LOG3 POP POP JUMP JUMPDEST PUSH0 DUP2 SWAP1 POP SWAP2 SWAP1 POP JUMP JUMPDEST PUSH32 0x4E487B7100000000000000000000000000000000000000000000000000000000 PUSH0 MSTORE PUSH1 0x11 PUSH1 0x4 MSTORE PUSH1 0x24 PUSH0 REVERT JUMPDEST PUSH0 PUSH3 0x2AE DUP3 PUSH3 0x26C JUMP JUMPDEST SWAP2 POP PUSH3 0x2BB DUP4 PUSH3 0x26C JUMP JUMPDEST SWAP3 POP DUP3 DUP3 MUL PUSH3 0x2CB DUP2 PUSH3 0x26C JUMP JUMPDEST SWAP2 POP DUP3 DUP3 DIV DUP5 EQ DUP4 ISZERO OR PUSH3 0x2E5 JUMPI PUSH3 0x2E4 PUSH3 0x275 JUMP JUMPDEST JUMPDEST POP SWAP3 SWAP2 POP POP JUMP JUMPDEST PUSH0 DUP1 REVERT JUMPDEST PUSH0 PUSH20 0xFFFFFFFFFFFFFFFFFFFFFFFFFFFFFFFFFFFFFFFF DUP3 AND SWAP1 POP SWAP2 SWAP1 POP JUMP JUMPDEST PUSH0 PUSH3 0x31B DUP3 PUSH3 0x2F0 JUMP JUMPDEST SWAP1 POP SWAP2 SWAP1 POP JUMP JUMPDEST PUSH0 PUSH3 0x32E DUP3 PUSH3 0x30F JUMP JUMPDEST SWAP1 POP SWAP2 SWAP1 POP JUMP JUMPDEST PUSH3 0x340 DUP2 PUSH3 0x322 JUMP JUMPDEST DUP2 EQ PUSH3 0x34B JUMPI PUSH0 DUP1 REVERT JUMPDEST POP JUMP JUMPDEST PUSH0 DUP2 MLOAD SWAP1 POP PUSH3 0x35E DUP2 PUSH3 0x335 JUMP JUMPDEST SWAP3 SWAP2 POP POP JUMP JUMPDEST PUSH0 PUSH1 0x20 DUP3 DUP5 SUB SLT ISZERO PUSH3 0x37C JUMPI PUSH3 0x37B PUSH3 0x2EC JUMP JUMPDEST JUMPDEST PUSH0 PUSH3 0x38B DUP5 DUP3 DUP6 ADD PUSH3 0x34E JUMP JUMPDEST SWAP2 POP POP SWAP3 SWAP2 POP POP JUMP JUMPDEST PUSH3 0x39F DUP2 PUSH3 0x30F JUMP JUMPDEST DUP3 MSTORE POP POP JUMP JUMPDEST PUSH0 PUSH1 0x20 DUP3 ADD SWAP1 POP PUSH3 0x3BA PUSH0 DUP4 ADD DUP5 PUSH3 0x394 JUMP JUMPDEST SWAP3 SWAP2 POP POP JUMP JUMPDEST PUSH0 DUP3 DUP3 MSTORE PUSH1 0x20 DUP3 ADD SWAP1 POP SWAP3 SWAP2 POP POP JUMP JUMPDEST PUSH32 0x496E76616C696420746F6B656E00000000000000000000000000000000000000 PUSH0 DUP3 ADD MSTORE POP JUMP JUMPDEST PUSH0 PUSH3 0x406 PUSH1 0xD DUP4 PUSH3 0x3C0 JUMP JUMPDEST SWAP2 POP PUSH3 0x413 DUP3 PUSH3 0x3D0 JUMP JUMPDEST PUSH1 0x20 DUP3 ADD SWAP1 POP SWAP2 SWAP1 POP JUMP JUMPDEST PUSH0 PUSH1 0x20 DUP3 ADD SWAP1 POP DUP2 DUP2 SUB PUSH0 DUP4 ADD MSTORE PUSH3 0x437 DUP2 PUSH3 0x3F8 JUMP JUMPDEST SWAP1 POP SWAP2 SWAP1 POP JUMP JUMPDEST PUSH1 0x80 MLOAD PUSH2 0x2C4C PUSH3 0x488 PUSH0 CODECOPY PUSH0 DUP2 DUP2 PUSH2 0xB37 ADD MSTORE DUP2 DUP2 PUSH2 0xCAA ADD MSTORE DUP2 DUP2 PUSH2 0x13C4 ADD MSTORE DUP2 DUP2 PUSH2 0x1505 ADD MSTORE DUP2 DUP2 PUSH2 0x166D ADD MSTORE DUP2 DUP2 PUSH2 0x175E ADD MSTORE DUP2 DUP2 PUSH2 0x183D ADD MSTORE PUSH2 0x1A3E ADD MSTORE PUSH2 0x2C4C PUSH0 RETURN INVALID PUSH1 0x80 PUSH1 0x40 MSTORE PUSH1 0x4 CALLDATASIZE LT PUSH2 0x1CC JUMPI PUSH0 CALLDATALOAD PUSH1 0xE0 SHR DUP1 PUSH4 0x8F060DA9 GT PUSH2 0xF6 JUMPI DUP1 PUSH4 0xD7BEBAC0 GT PUSH2 0x94 JUMPI DUP1 PUSH4 0xE1413163 GT PUSH2 0x63 JUMPI DUP1 PUSH4 0xE1413163 EQ PUSH2 0x5FA JUMPI DUP1 PUSH4 0xE1FFBA62 EQ PUSH2 0x610 JUMPI DUP1 PUSH4 0xF2FDE38B EQ PUSH2 0x638 JUMPI DUP1 PUSH4 0xFC0C546A EQ PUSH2 0x660 JUMPI PUSH2 0x1CC JUMP JUMPDEST DUP1 PUSH4 0xD7BEBAC0 EQ PUSH2 0x57E JUMPI DUP1 PUSH4 0xDB2E21BC EQ PUSH2 0x5A6 JUMPI DUP1 PUSH4 0xDC7F9E34 EQ PUSH2 0x5BC JUMPI DUP1 PUSH4 0xDD49756E EQ PUSH2 0x5D2 JUMPI PUSH2 0x1CC JUMP JUMPDEST DUP1 PUSH4 0x9E9AED62 GT PUSH2 0xD0 JUMPI DUP1 PUSH4 0x9E9AED62 EQ PUSH2 0x4E0 JUMPI DUP1 PUSH4 0xA0470CB4 EQ PUSH2 0x50A JUMPI DUP1 PUSH4 0xBF3506C1 EQ PUSH2 0x514 JUMPI DUP1 PUSH4 0xC59D4847 EQ PUSH2 0x550 JUMPI PUSH2 0x1CC JUMP JUMPDEST DUP1 PUSH4 0x8F060DA9 EQ PUSH2 0x440 JUMPI DUP1 PUSH4 0x92929A09 EQ PUSH2 0x47C JUMPI DUP1 PUSH4 0x94192B9F EQ PUSH2 0x4A4 JUMPI PUSH2 0x1CC JUMP JUMPDEST DUP1 PUSH4 0x4243FC4E GT PUSH2 0x16E JUMPI DUP1 PUSH4 0x6104F4B5 GT PUSH2 0x13D JUMPI DUP1 PUSH4 0x6104F4B5 EQ PUSH2 0x3AC JUMPI DUP1 PUSH4 0x715018A6 EQ PUSH2 0x3D6 JUMPI DUP1 PUSH4 0x86E755C6 EQ PUSH2 0x3EC JUMPI DUP1 PUSH4 0x8DA5CB5B EQ PUSH2 0x416 JUMPI PUSH2 0x1CC JUMP JUMPDEST DUP1 PUSH4 0x4243FC4E EQ PUSH2 0x306 JUMPI DUP1 PUSH4 0x45F7F249 EQ PUSH2 0x330 JUMPI DUP1 PUSH4 0x4E71D92D EQ PUSH2 0x35A JUMPI DUP1 PUSH4 0x522BF1D4 EQ PUSH2 0x370 JUMPI PUSH2 0x1CC JUMP JUMPDEST DUP1 PUSH4 0x26155E53 GT PUSH2 0x1AA JUMPI DUP1 PUSH4 0x26155E53 EQ PUSH2 0x25E JUMPI DUP1 PUSH4 0x28607BC6 EQ PUSH2 0x288 JUMPI DUP1 PUSH4 0x2866ED21 EQ PUSH2 0x2B2 JUMPI DUP1 PUSH4 0x2BB2ED39 EQ PUSH2 0x2DC JUMPI PUSH2 0x1CC JUMP JUMPDEST DUP1 PUSH4 0x6DEF802 EQ PUSH2 0x1D0 JUMPI DUP1 PUSH4 0x1F322564 EQ PUSH2 0x20C JUMPI DUP1 PUSH4 0x2019DDF8 EQ PUSH2 0x236 JUMPI JUMPDEST PUSH0 DUP1 REVERT JUMPDEST CALLVALUE DUP1 ISZERO PUSH2 0x1DB JUMPI PUSH0 DUP1 REVERT JUMPDEST POP PUSH2 0x1F6 PUSH1 0x4 DUP1 CALLDATASIZE SUB DUP2 ADD SWAP1 PUSH2 0x1F1 SWAP2 SWAP1 PUSH2 0x1E05 JUMP JUMPDEST PUSH2 0x68A JUMP JUMPDEST PUSH1 0x40 MLOAD PUSH2 0x203 SWAP2 SWAP1 PUSH2 0x1E48 JUMP JUMPDEST PUSH1 0x40 MLOAD DUP1 SWAP2 SUB SWAP1 RETURN JUMPDEST CALLVALUE DUP1 ISZERO PUSH2 0x217 JUMPI PUSH0 DUP1 REVERT JUMPDEST POP PUSH2 0x220 PUSH2 0x6D0 JUMP JUMPDEST PUSH1 0x40 MLOAD PUSH2 0x22D SWAP2 SWAP1 PUSH2 0x1E48 JUMP JUMPDEST PUSH1 0x40 MLOAD DUP1 SWAP2 SUB SWAP1 RETURN JUMPDEST CALLVALUE DUP1 ISZERO PUSH2 0x241 JUMPI PUSH0 DUP1 REVERT JUMPDEST POP PUSH2 0x25C PUSH1 0x4 DUP1 CALLDATASIZE SUB DUP2 ADD SWAP1 PUSH2 0x257 SWAP2 SWAP1 PUSH2 0x1E96 JUMP JUMPDEST PUSH2 0x6D6 JUMP JUMPDEST STOP JUMPDEST CALLVALUE DUP1 ISZERO PUSH2 0x269 JUMPI PUSH0 DUP1 REVERT JUMPDEST POP PUSH2 0x272 PUSH2 0x784 JUMP JUMPDEST PUSH1 0x40 MLOAD PUSH2 0x27F SWAP2 SWAP1 PUSH2 0x1E48 JUMP JUMPDEST PUSH1 0x40 MLOAD DUP1 SWAP2 SUB SWAP1 RETURN JUMPDEST CALLVALUE DUP1 ISZERO PUSH2 0x293 JUMPI PUSH0 DUP1 REVERT JUMPDEST POP PUSH2 0x29C PUSH2 0x78A JUMP JUMPDEST PUSH1 0x40 MLOAD PUSH2 0x2A9 SWAP2 SWAP1 PUSH2 0x1E48 JUMP JUMPDEST PUSH1 0x40 MLOAD DUP1 SWAP2 SUB SWAP1 RETURN JUMPDEST CALLVALUE DUP1 ISZERO PUSH2 0x2BD JUMPI PUSH0 DUP1 REVERT JUMPDEST POP PUSH2 0x2C6 PUSH2 0x790 JUMP JUMPDEST PUSH1 0x40 MLOAD PUSH2 0x2D3 SWAP2 SWAP1 PUSH2 0x1EE3 JUMP JUMPDEST PUSH1 0x40 MLOAD DUP1 SWAP2 SUB SWAP1 RETURN JUMPDEST CALLVALUE DUP1 ISZERO PUSH2 0x2E7 JUMPI PUSH0 DUP1 REVERT JUMPDEST POP PUSH2 0x2F0 PUSH2 0x7A2 JUMP JUMPDEST PUSH1 0x40 MLOAD PUSH2 0x2FD SWAP2 SWAP1 PUSH2 0x1E48 JUMP JUMPDEST PUSH1 0x40 MLOAD DUP1 SWAP2 SUB SWAP1 RETURN JUMPDEST CALLVALUE DUP1 ISZERO PUSH2 0x311 JUMPI PUSH0 DUP1 REVERT JUMPDEST POP PUSH2 0x31A PUSH2 0x7A8 JUMP JUMPDEST PUSH1 0x40 MLOAD PUSH2 0x327 SWAP2 SWAP1 PUSH2 0x1E48 JUMP JUMPDEST PUSH1 0x40 MLOAD DUP1 SWAP2 SUB SWAP1 RETURN JUMPDEST CALLVALUE DUP1 ISZERO PUSH2 0x33B JUMPI PUSH0 DUP1 REVERT JUMPDEST POP PUSH2 0x344 PUSH2 0x7D8 JUMP JUMPDEST PUSH1 0x40 MLOAD PUSH2 0x351 SWAP2 SWAP1 PUSH2 0x1E48 JUMP JUMPDEST PUSH1 0x40 MLOAD DUP1 SWAP2 SUB SWAP1 RETURN JUMPDEST CALLVALUE DUP1 ISZERO PUSH2 0x365 JUMPI PUSH0 DUP1 REVERT JUMPDEST POP PUSH2 0x36E PUSH2 0x7DE JUMP JUMPDEST STOP JUMPDEST CALLVALUE DUP1 ISZERO PUSH2 0x37B JUMPI PUSH0 DUP1 REVERT JUMPDEST POP PUSH2 0x396 PUSH1 0x4 DUP1 CALLDATASIZE SUB DUP2 ADD SWAP1 PUSH2 0x391 SWAP2 SWAP1 PUSH2 0x1E05 JUMP JUMPDEST PUSH2 0xB86 JUMP JUMPDEST PUSH1 0x40 MLOAD PUSH2 0x3A3 SWAP2 SWAP1 PUSH2 0x1E48 JUMP JUMPDEST PUSH1 0x40 MLOAD DUP1 SWAP2 SUB SWAP1 RETURN JUMPDEST CALLVALUE DUP1 ISZERO PUSH2 0x3B7 JUMPI PUSH0 DUP1 REVERT JUMPDEST POP PUSH2 0x3C0 PUSH2 0xBCC JUMP JUMPDEST PUSH1 0x40 MLOAD PUSH2 0x3CD SWAP2 SWAP1 PUSH2 0x1E48 JUMP JUMPDEST PUSH1 0x40 MLOAD DUP1 SWAP2 SUB SWAP1 RETURN JUMPDEST CALLVALUE DUP1 ISZERO PUSH2 0x3E1 JUMPI PUSH0 DUP1 REVERT JUMPDEST POP PUSH2 0x3EA PUSH2 0xBD2 JUMP JUMPDEST STOP JUMPDEST CALLVALUE DUP1 ISZERO PUSH2 0x3F7 JUMPI PUSH0 DUP1 REVERT JUMPDEST POP PUSH2 0x400 PUSH2 0xBE5 JUMP JUMPDEST PUSH1 0x40 MLOAD PUSH2 0x40D SWAP2 SWAP1 PUSH2 0x1E48 JUMP JUMPDEST PUSH1 0x40 MLOAD DUP1 SWAP2 SUB SWAP1 RETURN JUMPDEST CALLVALUE DUP1 ISZERO PUSH2 0x421 JUMPI PUSH0 DUP1 REVERT JUMPDEST POP PUSH2 0x42A PUSH2 0xBEB JUMP JUMPDEST PUSH1 0x40 MLOAD PUSH2 0x437 SWAP2 SWAP1 PUSH2 0x1F0B JUMP JUMPDEST PUSH1 0x40 MLOAD DUP1 SWAP2 SUB SWAP1 RETURN JUMPDEST CALLVALUE DUP1 ISZERO PUSH2 0x44B JUMPI PUSH0 DUP1 REVERT JUMPDEST POP PUSH2 0x466 PUSH1 0x4 DUP1 CALLDATASIZE SUB DUP2 ADD SWAP1 PUSH2 0x461 SWAP2 SWAP1 PUSH2 0x1E05 JUMP JUMPDEST PUSH2 0xC12 JUMP JUMPDEST PUSH1 0x40 MLOAD PUSH2 0x473 SWAP2 SWAP1 PUSH2 0x1EE3 JUMP JUMPDEST PUSH1 0x40 MLOAD DUP1 SWAP2 SUB SWAP1 RETURN JUMPDEST CALLVALUE DUP1 ISZERO PUSH2 0x487 JUMPI PUSH0 DUP1 REVERT JUMPDEST POP PUSH2 0x4A2 PUSH1 0x4 DUP1 CALLDATASIZE SUB DUP2 ADD SWAP1 PUSH2 0x49D SWAP2 SWAP1 PUSH2 0x1F24 JUMP JUMPDEST PUSH2 0xC2F JUMP JUMPDEST STOP JUMPDEST CALLVALUE DUP1 ISZERO PUSH2 0x4AF JUMPI PUSH0 DUP1 REVERT JUMPDEST POP PUSH2 0x4CA PUSH1 0x4 DUP1 CALLDATASIZE SUB DUP2 ADD SWAP1 PUSH2 0x4C5 SWAP2 SWAP1 PUSH2 0x1E05 JUMP JUMPDEST PUSH2 0xC8A JUMP JUMPDEST PUSH1 0x40 MLOAD PUSH2 0x4D7 SWAP2 SWAP1 PUSH2 0x1EE3 JUMP JUMPDEST PUSH1 0x40 MLOAD DUP1 SWAP2 SUB SWAP1 RETURN JUMPDEST CALLVALUE DUP1 ISZERO PUSH2 0x4EB JUMPI PUSH0 DUP1 REVERT JUMPDEST POP PUSH2 0x4F4 PUSH2 0xCA7 JUMP JUMPDEST PUSH1 0x40 MLOAD PUSH2 0x501 SWAP2 SWAP1 PUSH2 0x1E48 JUMP JUMPDEST PUSH1 0x40 MLOAD DUP1 SWAP2 SUB SWAP1 RETURN JUMPDEST PUSH2 0x512 PUSH2 0xD45 JUMP JUMPDEST STOP JUMPDEST CALLVALUE DUP1 ISZERO PUSH2 0x51F JUMPI PUSH0 DUP1 REVERT JUMPDEST POP PUSH2 0x53A PUSH1 0x4 DUP1 CALLDATASIZE SUB DUP2 ADD SWAP1 PUSH2 0x535 SWAP2 SWAP1 PUSH2 0x1E05 JUMP JUMPDEST PUSH2 0xE23 JUMP JUMPDEST PUSH1 0x40 MLOAD PUSH2 0x547 SWAP2 SWAP1 PUSH2 0x1EE3 JUMP JUMPDEST PUSH1 0x40 MLOAD DUP1 SWAP2 SUB SWAP1 RETURN JUMPDEST CALLVALUE DUP1 ISZERO PUSH2 0x55B JUMPI PUSH0 DUP1 REVERT JUMPDEST POP PUSH2 0x564 PUSH2 0xF27 JUMP JUMPDEST PUSH1 0x40 MLOAD PUSH2 0x575 SWAP6 SWAP5 SWAP4 SWAP3 SWAP2 SWAP1 PUSH2 0x1F4F JUMP JUMPDEST PUSH1 0x40 MLOAD DUP1 SWAP2 SUB SWAP1 RETURN JUMPDEST CALLVALUE DUP1 ISZERO PUSH2 0x589 JUMPI PUSH0 DUP1 REVERT JUMPDEST POP PUSH2 0x5A4 PUSH1 0x4 DUP1 CALLDATASIZE SUB DUP2 ADD SWAP1 PUSH2 0x59F SWAP2 SWAP1 PUSH2 0x2056 JUMP JUMPDEST PUSH2 0xF5D JUMP JUMPDEST STOP JUMPDEST CALLVALUE DUP1 ISZERO PUSH2 0x5B1 JUMPI PUSH0 DUP1 REVERT JUMPDEST POP PUSH2 0x5BA PUSH2 0x13B1 JUMP JUMPDEST STOP JUMPDEST CALLVALUE DUP1 ISZERO PUSH2 0x5C7 JUMPI PUSH0 DUP1 REVERT JUMPDEST POP PUSH2 0x5D0 PUSH2 0x15A9 JUMP JUMPDEST STOP JUMPDEST CALLVALUE DUP1 ISZERO PUSH2 0x5DD JUMPI PUSH0 DUP1 REVERT JUMPDEST POP PUSH2 0x5F8 PUSH1 0x4 DUP1 CALLDATASIZE SUB DUP2 ADD SWAP1 PUSH2 0x5F3 SWAP2 SWAP1 PUSH2 0x20FE JUMP JUMPDEST PUSH2 0x1711 JUMP JUMPDEST STOP JUMPDEST CALLVALUE DUP1 ISZERO PUSH2 0x605 JUMPI PUSH0 DUP1 REVERT JUMPDEST POP PUSH2 0x60E PUSH2 0x18D3 JUMP JUMPDEST STOP JUMPDEST CALLVALUE DUP1 ISZERO PUSH2 0x61B JUMPI PUSH0 DUP1 REVERT JUMPDEST POP PUSH2 0x636 PUSH1 0x4 DUP1 CALLDATASIZE SUB DUP2 ADD SWAP1 PUSH2 0x631 SWAP2 SWAP1 PUSH2 0x20FE JUMP JUMPDEST PUSH2 0x196F JUMP JUMPDEST STOP JUMPDEST CALLVALUE DUP1 ISZERO PUSH2 0x643 JUMPI PUSH0 DUP1 REVERT JUMPDEST POP PUSH2 0x65E PUSH1 0x4 DUP1 CALLDATASIZE SUB DUP2 ADD SWAP1 PUSH2 0x659 SWAP2 SWAP1 PUSH2 0x1E05 JUMP JUMPDEST PUSH2 0x19B8 JUMP JUMPDEST STOP JUMPDEST CALLVALUE DUP1 ISZERO PUSH2 0x66B JUMPI PUSH0 DUP1 REVERT JUMPDEST POP PUSH2 0x674 PUSH2 0x1A3C JUMP JUMPDEST PUSH1 0x40 MLOAD PUSH2 0x681 SWAP2 SWAP1 PUSH2 0x2184 JUMP JUMPDEST PUSH1 0x40 MLOAD DUP1 SWAP2 SUB SWAP1 RETURN JUMPDEST PUSH0 PUSH1 0x3 PUSH0 DUP4 PUSH20 0xFFFFFFFFFFFFFFFFFFFFFFFFFFFFFFFFFFFFFFFF AND PUSH20 0xFFFFFFFFFFFFFFFFFFFFFFFFFFFFFFFFFFFFFFFF AND DUP2 MSTORE PUSH1 0x20 ADD SWAP1 DUP2 MSTORE PUSH1 0x20 ADD PUSH0 KECCAK256 SLOAD SWAP1 POP SWAP2 SWAP1 POP JUMP JUMPDEST PUSH1 0xE SLOAD DUP2 JUMP JUMPDEST PUSH2 0x6DE PUSH2 0x1A60 JUMP JUMPDEST DUP1 PUSH1 0x5 PUSH0 DUP5 PUSH20 0xFFFFFFFFFFFFFFFFFFFFFFFFFFFFFFFFFFFFFFFF AND PUSH20 0xFFFFFFFFFFFFFFFFFFFFFFFFFFFFFFFFFFFFFFFF AND DUP2 MSTORE PUSH1 0x20 ADD SWAP1 DUP2 MSTORE PUSH1 0x20 ADD PUSH0 KECCAK256 PUSH0 PUSH2 0x100 EXP DUP2 SLOAD DUP2 PUSH1 0xFF MUL NOT AND SWAP1 DUP4 ISZERO ISZERO MUL OR SWAP1 SSTORE POP DUP2 PUSH20 0xFFFFFFFFFFFFFFFFFFFFFFFFFFFFFFFFFFFFFFFF AND PUSH32 0x129E15046DD77BE10C4CDAC8841646B9F3B6D22A00544B93362E9B84C05E6960 DUP3 PUSH1 0x40 MLOAD PUSH2 0x778 SWAP2 SWAP1 PUSH2 0x1EE3 JUMP JUMPDEST PUSH1 0x40 MLOAD DUP1 SWAP2 SUB SWAP1 LOG2 POP POP JUMP JUMPDEST PUSH1 0xC SLOAD DUP2 JUMP JUMPDEST PUSH1 0xD SLOAD DUP2 JUMP JUMPDEST PUSH1 0x2 PUSH0 SWAP1 SLOAD SWAP1 PUSH2 0x100 EXP SWAP1 DIV PUSH1 0xFF AND DUP2 JUMP JUMPDEST PUSH1 0x8 SLOAD DUP2 JUMP JUMPDEST PUSH0 DUP1 PUSH2 0x7B2 PUSH2 0xCA7 JUMP JUMPDEST SWAP1 POP PUSH1 0x9 SLOAD DUP2 GT PUSH2 0x7C3 JUMPI PUSH0 PUSH2 0x7D2 JUMP JUMPDEST PUSH1 0x9 SLOAD DUP2 PUSH2 0x7D1 SWAP2 SWAP1 PUSH2 0x21CA JUMP JUMPDEST JUMPDEST SWAP2 POP POP SWAP1 JUMP JUMPDEST PUSH1 0x9 SLOAD DUP2 JUMP JUMPDEST PUSH2 0x7E6 PUSH2 0x1AE7 JUMP JUMPDEST PUSH1 0x2 PUSH0 SWAP1 SLOAD SWAP1 PUSH2 0x100 EXP SWAP1 DIV PUSH1 0xFF AND PUSH2 0x834 JUMPI PUSH1 0x40 MLOAD PUSH32 0x8C379A000000000000000000000000000000000000000000000000000000000 DUP2 MSTORE PUSH1 0x4 ADD PUSH2 0x82B SWAP1 PUSH2 0x2257 JUMP JUMPDEST PUSH1 0x40 MLOAD DUP1 SWAP2 SUB SWAP1 REVERT JUMPDEST PUSH1 0x5 PUSH0 CALLER PUSH20 0xFFFFFFFFFFFFFFFFFFFFFFFFFFFFFFFFFFFFFFFF AND PUSH20 0xFFFFFFFFFFFFFFFFFFFFFFFFFFFFFFFFFFFFFFFF AND DUP2 MSTORE PUSH1 0x20 ADD SWAP1 DUP2 MSTORE PUSH1 0x20 ADD PUSH0 KECCAK256 PUSH0 SWAP1 SLOAD SWAP1 PUSH2 0x100 EXP SWAP1 DIV PUSH1 0xFF AND ISZERO PUSH2 0x8BE JUMPI PUSH1 0x40 MLOAD PUSH32 0x8C379A000000000000000000000000000000000000000000000000000000000 DUP2 MSTORE PUSH1 0x4 ADD PUSH2 0x8B5 SWAP1 PUSH2 0x22BF JUMP JUMPDEST PUSH1 0x40 MLOAD DUP1 SWAP2 SUB SWAP1 REVERT JUMPDEST PUSH1 0x6 PUSH0 CALLER PUSH20 0xFFFFFFFFFFFFFFFFFFFFFFFFFFFFFFFFFFFFFFFF AND PUSH20 0xFFFFFFFFFFFFFFFFFFFFFFFFFFFFFFFFFFFFFFFF AND DUP2 MSTORE PUSH1 0x20 ADD SWAP1 DUP2 MSTORE PUSH1 0x20 ADD PUSH0 KECCAK256 PUSH0 SWAP1 SLOAD SWAP1 PUSH2 0x100 EXP SWAP1 DIV PUSH1 0xFF AND PUSH2 0x947 JUMPI PUSH1 0x40 MLOAD PUSH32 0x8C379A000000000000000000000000000000000000000000000000000000000 DUP2 MSTORE PUSH1 0x4 ADD PUSH2 0x93E SWAP1 PUSH2 0x2327 JUMP JUMPDEST PUSH1 0x40 MLOAD DUP1 SWAP2 SUB SWAP1 REVERT JUMPDEST PUSH0 PUSH1 0x3 PUSH0 CALLER PUSH20 0xFFFFFFFFFFFFFFFFFFFFFFFFFFFFFFFFFFFFFFFF AND PUSH20 0xFFFFFFFFFFFFFFFFFFFFFFFFFFFFFFFFFFFFFFFF AND DUP2 MSTORE PUSH1 0x20 ADD SWAP1 DUP2 MSTORE PUSH1 0x20 ADD PUSH0 KECCAK256 SLOAD SWAP1 POP PUSH0 DUP2 GT PUSH2 0x9CA JUMPI PUSH1 0x40 MLOAD PUSH32 0x8C379A000000000000000000000000000000000000000000000000000000000 DUP2 MSTORE PUSH1 0x4 ADD PUSH2 0x9C1 SWAP1 PUSH2 0x238F JUMP JUMPDEST PUSH1 0x40 MLOAD DUP1 SWAP2 SUB SWAP1 REVERT JUMPDEST CALLER PUSH20 0xFFFFFFFFFFFFFFFFFFFFFFFFFFFFFFFFFFFFFFFF AND PUSH32 0x9E09DE4B8E45666DEB3EC2BC8225F07988E54EF533EEC97CB0B4610127183D79 DUP3 PUSH1 0x40 MLOAD PUSH2 0xA10 SWAP2 SWAP1 PUSH2 0x1E48 JUMP JUMPDEST PUSH1 0x40 MLOAD DUP1 SWAP2 SUB SWAP1 LOG2 PUSH0 PUSH1 0x3 PUSH0 CALLER PUSH20 0xFFFFFFFFFFFFFFFFFFFFFFFFFFFFFFFFFFFFFFFF AND PUSH20 0xFFFFFFFFFFFFFFFFFFFFFFFFFFFFFFFFFFFFFFFF AND DUP2 MSTORE PUSH1 0x20 ADD SWAP1 DUP2 MSTORE PUSH1 0x20 ADD PUSH0 KECCAK256 DUP2 SWAP1 SSTORE POP DUP1 PUSH1 0x9 PUSH0 DUP3 DUP3 SLOAD PUSH2 0xA6B SWAP2 SWAP1 PUSH2 0x21CA JUMP JUMPDEST SWAP3 POP POP DUP2 SWAP1 SSTORE POP PUSH1 0x8 PUSH0 DUP2 SLOAD DUP1 SWAP3 SWAP2 SWAP1 PUSH2 0xA84 SWAP1 PUSH2 0x23AD JUMP JUMPDEST SWAP2 SWAP1 POP SSTORE POP DUP1 PUSH1 0x4 PUSH0 CALLER PUSH20 0xFFFFFFFFFFFFFFFFFFFFFFFFFFFFFFFFFFFFFFFF AND PUSH20 0xFFFFFFFFFFFFFFFFFFFFFFFFFFFFFFFFFFFFFFFF AND DUP2 MSTORE PUSH1 0x20 ADD SWAP1 DUP2 MSTORE PUSH1 0x20 ADD PUSH0 KECCAK256 PUSH0 DUP3 DUP3 SLOAD PUSH2 0xAD5 SWAP2 SWAP1 PUSH2 0x23F4 JUMP JUMPDEST SWAP3 POP POP DUP2 SWAP1 SSTORE POP PUSH0 PUSH1 0x6 PUSH0 CALLER PUSH20 0xFFFFFFFFFFFFFFFFFFFFFFFFFFFFFFFFFFFFFFFF AND PUSH20 0xFFFFFFFFFFFFFFFFFFFFFFFFFFFFFFFFFFFFFFFF AND DUP2 MSTORE PUSH1 0x20 ADD SWAP1 DUP2 MSTORE PUSH1 0x20 ADD PUSH0 KECCAK256 PUSH0 PUSH2 0x100 EXP DUP2 SLOAD DUP2 PUSH1 0xFF MUL NOT AND SWAP1 DUP4 ISZERO ISZERO MUL OR SWAP1 SSTORE POP PUSH2 0xB7B CALLER DUP3 PUSH32 0x0 PUSH20 0xFFFFFFFFFFFFFFFFFFFFFFFFFFFFFFFFFFFFFFFF AND PUSH2 0x1B36 SWAP1 SWAP3 SWAP2 SWAP1 PUSH4 0xFFFFFFFF AND JUMP JUMPDEST POP PUSH2 0xB84 PUSH2 0x1BB5 JUMP JUMPDEST JUMP JUMPDEST PUSH0 PUSH1 0x4 PUSH0 DUP4 PUSH20 0xFFFFFFFFFFFFFFFFFFFFFFFFFFFFFFFFFFFFFFFF AND PUSH20 0xFFFFFFFFFFFFFFFFFFFFFFFFFFFFFFFFFFFFFFFF AND DUP2 MSTORE PUSH1 0x20 ADD SWAP1 DUP2 MSTORE PUSH1 0x20 ADD PUSH0 KECCAK256 SLOAD SWAP1 POP SWAP2 SWAP1 POP JUMP JUMPDEST PUSH1 0x7 SLOAD DUP2 JUMP JUMPDEST PUSH2 0xBDA PUSH2 0x1A60 JUMP JUMPDEST PUSH2 0xBE3 PUSH0 PUSH2 0x1BBE JUMP JUMPDEST JUMP JUMPDEST PUSH1 0xB SLOAD DUP2 JUMP JUMPDEST PUSH0 DUP1 PUSH0 SWAP1 SLOAD SWAP1 PUSH2 0x100 EXP SWAP1 DIV PUSH20 0xFFFFFFFFFFFFFFFFFFFFFFFFFFFFFFFFFFFFFFFF AND SWAP1 POP SWAP1 JUMP JUMPDEST PUSH1 0x5 PUSH1 0x20 MSTORE DUP1 PUSH0 MSTORE PUSH1 0x40 PUSH0 KECCAK256 PUSH0 SWAP2 POP SLOAD SWAP1 PUSH2 0x100 EXP SWAP1 DIV PUSH1 0xFF AND DUP2 JUMP JUMPDEST PUSH2 0xC37 PUSH2 0x1A60 JUMP JUMPDEST DUP1 PUSH1 0x2 PUSH0 PUSH2 0x100 EXP DUP2 SLOAD DUP2 PUSH1 0xFF MUL NOT AND SWAP1 DUP4 ISZERO ISZERO MUL OR SWAP1 SSTORE POP PUSH32 0x1EDD4DC7F91A5992ABA0F39C0428BCF4DF13D001EEBC26EB188307D057F14A07 DUP2 PUSH1 0x40 MLOAD PUSH2 0xC7F SWAP2 SWAP1 PUSH2 0x1EE3 JUMP JUMPDEST PUSH1 0x40 MLOAD DUP1 SWAP2 SUB SWAP1 LOG1 POP JUMP JUMPDEST PUSH1 0x6 PUSH1 0x20 MSTORE DUP1 PUSH0 MSTORE PUSH1 0x40 PUSH0 KECCAK256 PUSH0 SWAP2 POP SLOAD SWAP1 PUSH2 0x100 EXP SWAP1 DIV PUSH1 0xFF AND DUP2 JUMP JUMPDEST PUSH0 PUSH32 0x0 PUSH20 0xFFFFFFFFFFFFFFFFFFFFFFFFFFFFFFFFFFFFFFFF AND PUSH4 0x70A08231 ADDRESS PUSH1 0x40 MLOAD DUP3 PUSH4 0xFFFFFFFF AND PUSH1 0xE0 SHL DUP2 MSTORE PUSH1 0x4 ADD PUSH2 0xD01 SWAP2 SWAP1 PUSH2 0x1F0B JUMP JUMPDEST PUSH1 0x20 PUSH1 0x40 MLOAD DUP1 DUP4 SUB DUP2 DUP7 GAS STATICCALL ISZERO DUP1 ISZERO PUSH2 0xD1C JUMPI RETURNDATASIZE PUSH0 DUP1 RETURNDATACOPY RETURNDATASIZE PUSH0 REVERT JUMPDEST POP POP POP POP PUSH1 0x40 MLOAD RETURNDATASIZE PUSH1 0x1F NOT PUSH1 0x1F DUP3 ADD AND DUP3 ADD DUP1 PUSH1 0x40 MSTORE POP DUP2 ADD SWAP1 PUSH2 0xD40 SWAP2 SWAP1 PUSH2 0x243B JUMP JUMPDEST SWAP1 POP SWAP1 JUMP JUMPDEST PUSH1 0xE SLOAD CALLVALUE EQ PUSH2 0xD89 JUMPI PUSH1 0x40 MLOAD PUSH32 0x8C379A000000000000000000000000000000000000000000000000000000000 DUP2 MSTORE PUSH1 0x4 ADD PUSH2 0xD80 SWAP1 PUSH2 0x24B0 JUMP JUMPDEST PUSH1 0x40 MLOAD DUP1 SWAP2 SUB SWAP1 REVERT JUMPDEST PUSH1 0x1 PUSH1 0x6 PUSH0 CALLER PUSH20 0xFFFFFFFFFFFFFFFFFFFFFFFFFFFFFFFFFFFFFFFF AND PUSH20 0xFFFFFFFFFFFFFFFFFFFFFFFFFFFFFFFFFFFFFFFF AND DUP2 MSTORE PUSH1 0x20 ADD SWAP1 DUP2 MSTORE PUSH1 0x20 ADD PUSH0 KECCAK256 PUSH0 PUSH2 0x100 EXP DUP2 SLOAD DUP2 PUSH1 0xFF MUL NOT AND SWAP1 DUP4 ISZERO ISZERO MUL OR SWAP1 SSTORE POP CALLER PUSH20 0xFFFFFFFFFFFFFFFFFFFFFFFFFFFFFFFFFFFFFFFF AND PUSH32 0xB7FA0F30E1EDE3196616147DFDF6C94E47523298677B4F7B0C61027A9F0EBF54 PUSH1 0x40 MLOAD PUSH1 0x40 MLOAD DUP1 SWAP2 SUB SWAP1 LOG2 JUMP JUMPDEST PUSH0 PUSH1 0x2 PUSH0 SWAP1 SLOAD SWAP1 PUSH2 0x100 EXP SWAP1 DIV PUSH1 0xFF AND DUP1 ISZERO PUSH2 0xE86 JUMPI POP PUSH1 0x5 PUSH0 DUP4 PUSH20 0xFFFFFFFFFFFFFFFFFFFFFFFFFFFFFFFFFFFFFFFF AND PUSH20 0xFFFFFFFFFFFFFFFFFFFFFFFFFFFFFFFFFFFFFFFF AND DUP2 MSTORE PUSH1 0x20 ADD SWAP1 DUP2 MSTORE PUSH1 0x20 ADD PUSH0 KECCAK256 PUSH0 SWAP1 SLOAD SWAP1 PUSH2 0x100 EXP SWAP1 DIV PUSH1 0xFF AND ISZERO JUMPDEST DUP1 ISZERO PUSH2 0xED8 JUMPI POP PUSH1 0x6 PUSH0 DUP4 PUSH20 0xFFFFFFFFFFFFFFFFFFFFFFFFFFFFFFFFFFFFFFFF AND PUSH20 0xFFFFFFFFFFFFFFFFFFFFFFFFFFFFFFFFFFFFFFFF AND DUP2 MSTORE PUSH1 0x20 ADD SWAP1 DUP2 MSTORE PUSH1 0x20 ADD PUSH0 KECCAK256 PUSH0 SWAP1 SLOAD SWAP1 PUSH2 0x100 EXP SWAP1 DIV PUSH1 0xFF AND JUMPDEST DUP1 ISZERO PUSH2 0xF20 JUMPI POP PUSH0 PUSH1 0x3 PUSH0 DUP5 PUSH20 0xFFFFFFFFFFFFFFFFFFFFFFFFFFFFFFFFFFFFFFFF AND PUSH20 0xFFFFFFFFFFFFFFFFFFFFFFFFFFFFFFFFFFFFFFFF AND DUP2 MSTORE PUSH1 0x20 ADD SWAP1 DUP2 MSTORE PUSH1 0x20 ADD PUSH0 KECCAK256 SLOAD GT JUMPDEST SWAP1 POP SWAP2 SWAP1 POP JUMP JUMPDEST PUSH0 DUP1 PUSH0 DUP1 PUSH0 PUSH1 0x7 SLOAD SWAP5 POP PUSH1 0x8 SLOAD SWAP4 POP PUSH2 0xF3E PUSH2 0xCA7 JUMP JUMPDEST SWAP3 POP PUSH1 0x9 SLOAD SWAP2 POP PUSH1 0x2 PUSH0 SWAP1 SLOAD SWAP1 PUSH2 0x100 EXP SWAP1 DIV PUSH1 0xFF AND SWAP1 POP SWAP1 SWAP2 SWAP3 SWAP4 SWAP5 JUMP JUMPDEST PUSH2 0xF65 PUSH2 0x1A60 JUMP JUMPDEST DUP2 DUP2 SWAP1 POP DUP5 DUP5 SWAP1 POP EQ PUSH2 0xFAD JUMPI PUSH1 0x40 MLOAD PUSH32 0x8C379A000000000000000000000000000000000000000000000000000000000 DUP2 MSTORE PUSH1 0x4 ADD PUSH2 0xFA4 SWAP1 PUSH2 0x2518 JUMP JUMPDEST PUSH1 0x40 MLOAD DUP1 SWAP2 SUB SWAP1 REVERT JUMPDEST PUSH0 DUP1 JUMPDEST DUP6 DUP6 SWAP1 POP DUP2 LT ISZERO PUSH2 0x12FD JUMPI PUSH0 DUP7 DUP7 DUP4 DUP2 DUP2 LT PUSH2 0xFCF JUMPI PUSH2 0xFCE PUSH2 0x2536 JUMP JUMPDEST JUMPDEST SWAP1 POP PUSH1 0x20 MUL ADD PUSH1 0x20 DUP2 ADD SWAP1 PUSH2 0xFE4 SWAP2 SWAP1 PUSH2 0x1E05 JUMP JUMPDEST SWAP1 POP PUSH0 PUSH8 0xDE0B6B3A7640000 DUP7 DUP7 DUP6 DUP2 DUP2 LT PUSH2 0x1003 JUMPI PUSH2 0x1002 PUSH2 0x2536 JUMP JUMPDEST JUMPDEST SWAP1 POP PUSH1 0x20 MUL ADD CALLDATALOAD PUSH2 0x1014 SWAP2 SWAP1 PUSH2 0x2563 JUMP JUMPDEST SWAP1 POP PUSH0 DUP3 PUSH20 0xFFFFFFFFFFFFFFFFFFFFFFFFFFFFFFFFFFFFFFFF AND EXTCODESIZE EQ PUSH2 0x106F JUMPI PUSH1 0x40 MLOAD PUSH32 0x8C379A000000000000000000000000000000000000000000000000000000000 DUP2 MSTORE PUSH1 0x4 ADD PUSH2 0x1066 SWAP1 PUSH2 0x25EE JUMP JUMPDEST PUSH1 0x40 MLOAD DUP1 SWAP2 SUB SWAP1 REVERT JUMPDEST PUSH1 0xB SLOAD DUP2 PUSH1 0x3 PUSH0 DUP6 PUSH20 0xFFFFFFFFFFFFFFFFFFFFFFFFFFFFFFFFFFFFFFFF AND PUSH20 0xFFFFFFFFFFFFFFFFFFFFFFFFFFFFFFFFFFFFFFFF AND DUP2 MSTORE PUSH1 0x20 ADD SWAP1 DUP2 MSTORE PUSH1 0x20 ADD PUSH0 KECCAK256 SLOAD PUSH2 0x10BB SWAP2 SWAP1 PUSH2 0x23F4 JUMP JUMPDEST GT ISZERO PUSH2 0x10FC JUMPI PUSH1 0x40 MLOAD PUSH32 0x8C379A000000000000000000000000000000000000000000000000000000000 DUP2 MSTORE PUSH1 0x4 ADD PUSH2 0x10F3 SWAP1 PUSH2 0x2656 JUMP JUMPDEST PUSH1 0x40 MLOAD DUP1 SWAP2 SUB SWAP1 REVERT JUMPDEST PUSH1 0xA PUSH0 DUP4 PUSH20 0xFFFFFFFFFFFFFFFFFFFFFFFFFFFFFFFFFFFFFFFF AND PUSH20 0xFFFFFFFFFFFFFFFFFFFFFFFFFFFFFFFFFFFFFFFF AND DUP2 MSTORE PUSH1 0x20 ADD SWAP1 DUP2 MSTORE PUSH1 0x20 ADD PUSH0 KECCAK256 PUSH0 SWAP1 SLOAD SWAP1 PUSH2 0x100 EXP SWAP1 DIV PUSH1 0xFF AND PUSH2 0x11FA JUMPI PUSH1 0x1 PUSH1 0xA PUSH0 DUP5 PUSH20 0xFFFFFFFFFFFFFFFFFFFFFFFFFFFFFFFFFFFFFFFF AND PUSH20 0xFFFFFFFFFFFFFFFFFFFFFFFFFFFFFFFFFFFFFFFF AND DUP2 MSTORE PUSH1 0x20 ADD SWAP1 DUP2 MSTORE PUSH1 0x20 ADD PUSH0 KECCAK256 PUSH0 PUSH2 0x100 EXP DUP2 SLOAD DUP2 PUSH1 0xFF MUL NOT AND SWAP1 DUP4 ISZERO ISZERO MUL OR SWAP1 SSTORE POP PUSH1 0x7 PUSH0 DUP2 SLOAD DUP1 SWAP3 SWAP2 SWAP1 PUSH2 0x11B1 SWAP1 PUSH2 0x23AD JUMP JUMPDEST SWAP2 SWAP1 POP SSTORE POP DUP2 PUSH20 0xFFFFFFFFFFFFFFFFFFFFFFFFFFFFFFFFFFFFFFFF AND PUSH32 0x1837DB44F707818DFCE8415EF80A201E86882BC1BFFABDDED272512A96C0799E PUSH1 0x40 MLOAD PUSH1 0x40 MLOAD DUP1 SWAP2 SUB SWAP1 LOG2 JUMPDEST DUP1 PUSH1 0x3 PUSH0 DUP5 PUSH20 0xFFFFFFFFFFFFFFFFFFFFFFFFFFFFFFFFFFFFFFFF AND PUSH20 0xFFFFFFFFFFFFFFFFFFFFFFFFFFFFFFFFFFFFFFFF AND DUP2 MSTORE PUSH1 0x20 ADD SWAP1 DUP2 MSTORE PUSH1 0x20 ADD PUSH0 KECCAK256 PUSH0 DUP3 DUP3 SLOAD PUSH2 0x1246 SWAP2 SWAP1 PUSH2 0x23F4 JUMP JUMPDEST SWAP3 POP POP DUP2 SWAP1 SSTORE POP DUP1 DUP5 PUSH2 0x1259 SWAP2 SWAP1 PUSH2 0x23F4 JUMP JUMPDEST SWAP4 POP DUP2 PUSH20 0xFFFFFFFFFFFFFFFFFFFFFFFFFFFFFFFFFFFFFFFF AND PUSH32 0x4885D73252B9E2C420B677D64D50E8A5798773DBB4CB99C5A2AB2824F725D9A8 DUP3 PUSH1 0x3 PUSH0 DUP7 PUSH20 0xFFFFFFFFFFFFFFFFFFFFFFFFFFFFFFFFFFFFFFFF AND PUSH20 0xFFFFFFFFFFFFFFFFFFFFFFFFFFFFFFFFFFFFFFFF AND DUP2 MSTORE PUSH1 0x20 ADD SWAP1 DUP2 MSTORE PUSH1 0x20 ADD PUSH0 KECCAK256 SLOAD PUSH1 0x40 MLOAD PUSH2 0x12E0 SWAP3 SWAP2 SWAP1 PUSH2 0x2674 JUMP JUMPDEST PUSH1 0x40 MLOAD DUP1 SWAP2 SUB SWAP1 LOG2 POP POP DUP1 DUP1 PUSH2 0x12F5 SWAP1 PUSH2 0x23AD JUMP JUMPDEST SWAP2 POP POP PUSH2 0xFB0 JUMP JUMPDEST POP DUP1 PUSH1 0x9 SLOAD PUSH2 0x130C SWAP2 SWAP1 PUSH2 0x23F4 JUMP JUMPDEST PUSH2 0x1314 PUSH2 0xCA7 JUMP JUMPDEST LT ISZERO PUSH2 0x1355 JUMPI PUSH1 0x40 MLOAD PUSH32 0x8C379A000000000000000000000000000000000000000000000000000000000 DUP2 MSTORE PUSH1 0x4 ADD PUSH2 0x134C SWAP1 PUSH2 0x270B JUMP JUMPDEST PUSH1 0x40 MLOAD DUP1 SWAP2 SUB SWAP1 REVERT JUMPDEST DUP1 PUSH1 0x9 PUSH0 DUP3 DUP3 SLOAD PUSH2 0x1366 SWAP2 SWAP1 PUSH2 0x23F4 JUMP JUMPDEST SWAP3 POP POP DUP2 SWAP1 SSTORE POP PUSH32 0xF14D1C8E59D4CD079B88D0E19CF0DE41C86B7A761D5032C0947977002B3AD93A DUP6 DUP6 DUP6 DUP6 PUSH1 0x40 MLOAD PUSH2 0x13A2 SWAP5 SWAP4 SWAP3 SWAP2 SWAP1 PUSH2 0x285D JUMP JUMPDEST PUSH1 0x40 MLOAD DUP1 SWAP2 SUB SWAP1 LOG1 POP POP POP POP POP JUMP JUMPDEST PUSH2 0x13B9 PUSH2 0x1A60 JUMP JUMPDEST PUSH2 0x13C1 PUSH2 0x1AE7 JUMP JUMPDEST PUSH0 PUSH32 0x0 PUSH20 0xFFFFFFFFFFFFFFFFFFFFFFFFFFFFFFFFFFFFFFFF AND PUSH4 0x70A08231 ADDRESS PUSH1 0x40 MLOAD DUP3 PUSH4 0xFFFFFFFF AND PUSH1 0xE0 SHL DUP2 MSTORE PUSH1 0x4 ADD PUSH2 0x141B SWAP2 SWAP1 PUSH2 0x1F0B JUMP JUMPDEST PUSH1 0x20 PUSH1 0x40 MLOAD DUP1 DUP4 SUB DUP2 DUP7 GAS STATICCALL ISZERO DUP1 ISZERO PUSH2 0x1436 JUMPI RETURNDATASIZE PUSH0 DUP1 RETURNDATACOPY RETURNDATASIZE PUSH0 REVERT JUMPDEST POP POP POP POP PUSH1 0x40 MLOAD RETURNDATASIZE PUSH1 0x1F NOT PUSH1 0x1F DUP3 ADD AND DUP3 ADD DUP1 PUSH1 0x40 MSTORE POP DUP2 ADD SWAP1 PUSH2 0x145A SWAP2 SWAP1 PUSH2 0x243B JUMP JUMPDEST SWAP1 POP PUSH0 DUP2 GT PUSH2 0x149E JUMPI PUSH1 0x40 MLOAD PUSH32 0x8C379A000000000000000000000000000000000000000000000000000000000 DUP2 MSTORE PUSH1 0x4 ADD PUSH2 0x1495 SWAP1 PUSH2 0x28E0 JUMP JUMPDEST PUSH1 0x40 MLOAD DUP1 SWAP2 SUB SWAP1 REVERT JUMPDEST PUSH1 0xD SLOAD PUSH1 0xC SLOAD PUSH2 0x14AE SWAP2 SWAP1 PUSH2 0x23F4 JUMP JUMPDEST TIMESTAMP LT ISZERO PUSH2 0x14F0 JUMPI PUSH1 0x40 MLOAD PUSH32 0x8C379A000000000000000000000000000000000000000000000000000000000 DUP2 MSTORE PUSH1 0x4 ADD PUSH2 0x14E7 SWAP1 PUSH2 0x2948 JUMP JUMPDEST PUSH1 0x40 MLOAD DUP1 SWAP2 SUB SWAP1 REVERT JUMPDEST TIMESTAMP PUSH1 0xC DUP2 SWAP1 SSTORE POP PUSH2 0x1549 PUSH2 0x1502 PUSH2 0xBEB JUMP JUMPDEST DUP3 PUSH32 0x0 PUSH20 0xFFFFFFFFFFFFFFFFFFFFFFFFFFFFFFFFFFFFFFFF AND PUSH2 0x1B36 SWAP1 SWAP3 SWAP2 SWAP1 PUSH4 0xFFFFFFFF AND JUMP JUMPDEST PUSH2 0x1551 PUSH2 0xBEB JUMP JUMPDEST PUSH20 0xFFFFFFFFFFFFFFFFFFFFFFFFFFFFFFFFFFFFFFFF AND PUSH32 0x5FAFA99D0643513820BE26656B45130B01E1C03062E1266BF36F88CBD3BD9695 DUP3 PUSH1 0x40 MLOAD PUSH2 0x1596 SWAP2 SWAP1 PUSH2 0x1E48 JUMP JUMPDEST PUSH1 0x40 MLOAD DUP1 SWAP2 SUB SWAP1 LOG2 POP PUSH2 0x15A7 PUSH2 0x1BB5 JUMP JUMPDEST JUMP JUMPDEST PUSH2 0x15B1 PUSH2 0x1A60 JUMP JUMPDEST PUSH2 0x15B9 PUSH2 0x1AE7 JUMP JUMPDEST PUSH0 PUSH2 0x15C2 PUSH2 0x7A8 JUMP JUMPDEST SWAP1 POP PUSH0 DUP2 GT PUSH2 0x1606 JUMPI PUSH1 0x40 MLOAD PUSH32 0x8C379A000000000000000000000000000000000000000000000000000000000 DUP2 MSTORE PUSH1 0x4 ADD PUSH2 0x15FD SWAP1 PUSH2 0x29D6 JUMP JUMPDEST PUSH1 0x40 MLOAD DUP1 SWAP2 SUB SWAP1 REVERT JUMPDEST PUSH1 0xD SLOAD PUSH1 0xC SLOAD PUSH2 0x1616 SWAP2 SWAP1 PUSH2 0x23F4 JUMP JUMPDEST TIMESTAMP LT ISZERO PUSH2 0x1658 JUMPI PUSH1 0x40 MLOAD PUSH32 0x8C379A000000000000000000000000000000000000000000000000000000000 DUP2 MSTORE PUSH1 0x4 ADD PUSH2 0x164F SWAP1 PUSH2 0x2948 JUMP JUMPDEST PUSH1 0x40 MLOAD DUP1 SWAP2 SUB SWAP1 REVERT JUMPDEST TIMESTAMP PUSH1 0xC DUP2 SWAP1 SSTORE POP PUSH2 0x16B1 PUSH2 0x166A PUSH2 0xBEB JUMP JUMPDEST DUP3 PUSH32 0x0 PUSH20 0xFFFFFFFFFFFFFFFFFFFFFFFFFFFFFFFFFFFFFFFF AND PUSH2 0x1B36 SWAP1 SWAP3 SWAP2 SWAP1 PUSH4 0xFFFFFFFF AND JUMP JUMPDEST PUSH2 0x16B9 PUSH2 0xBEB JUMP JUMPDEST PUSH20 0xFFFFFFFFFFFFFFFFFFFFFFFFFFFFFFFFFFFFFFFF AND PUSH32 0x4F03851532CB76253FE3DDDBCBE99F0A83446922731A7BDFD2CB44D35FFCB1D9 DUP3 PUSH1 0x40 MLOAD PUSH2 0x16FE SWAP2 SWAP1 PUSH2 0x1E48 JUMP JUMPDEST PUSH1 0x40 MLOAD DUP1 SWAP2 SUB SWAP1 LOG2 POP PUSH2 0x170F PUSH2 0x1BB5 JUMP JUMPDEST JUMP JUMPDEST PUSH2 0x1719 PUSH2 0x1A60 JUMP JUMPDEST PUSH0 DUP2 GT PUSH2 0x175B JUMPI PUSH1 0x40 MLOAD PUSH32 0x8C379A000000000000000000000000000000000000000000000000000000000 DUP2 MSTORE PUSH1 0x4 ADD PUSH2 0x1752 SWAP1 PUSH2 0x2A64 JUMP JUMPDEST PUSH1 0x40 MLOAD DUP1 SWAP2 SUB SWAP1 REVERT JUMPDEST DUP1 PUSH32 0x0 PUSH20 0xFFFFFFFFFFFFFFFFFFFFFFFFFFFFFFFFFFFFFFFF AND PUSH4 0x70A08231 CALLER PUSH1 0x40 MLOAD DUP3 PUSH4 0xFFFFFFFF AND PUSH1 0xE0 SHL DUP2 MSTORE PUSH1 0x4 ADD PUSH2 0x17B5 SWAP2 SWAP1 PUSH2 0x1F0B JUMP JUMPDEST PUSH1 0x20 PUSH1 0x40 MLOAD DUP1 DUP4 SUB DUP2 DUP7 GAS STATICCALL ISZERO DUP1 ISZERO PUSH2 0x17D0 JUMPI RETURNDATASIZE PUSH0 DUP1 RETURNDATACOPY RETURNDATASIZE PUSH0 REVERT JUMPDEST POP POP POP POP PUSH1 0x40 MLOAD RETURNDATASIZE PUSH1 0x1F NOT PUSH1 0x1F DUP3 ADD AND DUP3 ADD DUP1 PUSH1 0x40 MSTORE POP DUP2 ADD SWAP1 PUSH2 0x17F4 SWAP2 SWAP1 PUSH2 0x243B JUMP JUMPDEST LT ISZERO PUSH2 0x1835 JUMPI PUSH1 0x40 MLOAD PUSH32 0x8C379A000000000000000000000000000000000000000000000000000000000 DUP2 MSTORE PUSH1 0x4 ADD PUSH2 0x182C SWAP1 PUSH2 0x2ACC JUMP JUMPDEST PUSH1 0x40 MLOAD DUP1 SWAP2 SUB SWAP1 REVERT JUMPDEST PUSH2 0x1882 CALLER ADDRESS DUP4 PUSH32 0x0 PUSH20 0xFFFFFFFFFFFFFFFFFFFFFFFFFFFFFFFFFFFFFFFF AND PUSH2 0x1C7F SWAP1 SWAP4 SWAP3 SWAP2 SWAP1 PUSH4 0xFFFFFFFF AND JUMP JUMPDEST CALLER PUSH20 0xFFFFFFFFFFFFFFFFFFFFFFFFFFFFFFFFFFFFFFFF AND PUSH32 0xBC7C8A4D8049A3F99A02F2A20640C206A2E4D3F2FA54FD20DA9F01FDA3620CDA DUP3 PUSH1 0x40 MLOAD PUSH2 0x18C8 SWAP2 SWAP1 PUSH2 0x1E48 JUMP JUMPDEST PUSH1 0x40 MLOAD DUP1 SWAP2 SUB SWAP1 LOG2 POP JUMP JUMPDEST PUSH2 0x18DB PUSH2 0x1A60 JUMP JUMPDEST PUSH0 SELFBALANCE SWAP1 POP PUSH0 DUP2 GT PUSH2 0x1921 JUMPI PUSH1 0x40 MLOAD PUSH32 0x8C379A000000000000000000000000000000000000000000000000000000000 DUP2 MSTORE PUSH1 0x4 ADD PUSH2 0x1918 SWAP1 PUSH2 0x2B34 JUMP JUMPDEST PUSH1 0x40 MLOAD DUP1 SWAP2 SUB SWAP1 REVERT JUMPDEST PUSH2 0x1929 PUSH2 0xBEB JUMP JUMPDEST PUSH20 0xFFFFFFFFFFFFFFFFFFFFFFFFFFFFFFFFFFFFFFFF AND PUSH2 0x8FC DUP3 SWAP1 DUP2 ISZERO MUL SWAP1 PUSH1 0x40 MLOAD PUSH0 PUSH1 0x40 MLOAD DUP1 DUP4 SUB DUP2 DUP6 DUP9 DUP9 CALL SWAP4 POP POP POP POP ISZERO DUP1 ISZERO PUSH2 0x196B JUMPI RETURNDATASIZE PUSH0 DUP1 RETURNDATACOPY RETURNDATASIZE PUSH0 REVERT JUMPDEST POP POP JUMP JUMPDEST PUSH2 0x1977 PUSH2 0x1A60 JUMP JUMPDEST DUP1 PUSH1 0xE DUP2 SWAP1 SSTORE POP PUSH32 0x46767AA5821BA6F1A985F8CF0134CB534CBA0B26FF165803D3602C7FF046CD4 DUP2 PUSH1 0x40 MLOAD PUSH2 0x19AD SWAP2 SWAP1 PUSH2 0x1E48 JUMP JUMPDEST PUSH1 0x40 MLOAD DUP1 SWAP2 SUB SWAP1 LOG1 POP JUMP JUMPDEST PUSH2 0x19C0 PUSH2 0x1A60 JUMP JUMPDEST PUSH0 PUSH20 0xFFFFFFFFFFFFFFFFFFFFFFFFFFFFFFFFFFFFFFFF AND DUP2 PUSH20 0xFFFFFFFFFFFFFFFFFFFFFFFFFFFFFFFFFFFFFFFF AND SUB PUSH2 0x1A30 JUMPI PUSH0 PUSH1 0x40 MLOAD PUSH32 0x1E4FBDF700000000000000000000000000000000000000000000000000000000 DUP2 MSTORE PUSH1 0x4 ADD PUSH2 0x1A27 SWAP2 SWAP1 PUSH2 0x1F0B JUMP JUMPDEST PUSH1 0x40 MLOAD DUP1 SWAP2 SUB SWAP1 REVERT JUMPDEST PUSH2 0x1A39 DUP2 PUSH2 0x1BBE JUMP JUMPDEST POP JUMP JUMPDEST PUSH32 0x0 DUP2 JUMP JUMPDEST PUSH2 0x1A68 PUSH2 0x1D01 JUMP JUMPDEST PUSH20 0xFFFFFFFFFFFFFFFFFFFFFFFFFFFFFFFFFFFFFFFF AND PUSH2 0x1A86 PUSH2 0xBEB JUMP JUMPDEST PUSH20 0xFFFFFFFFFFFFFFFFFFFFFFFFFFFFFFFFFFFFFFFF AND EQ PUSH2 0x1AE5 JUMPI PUSH2 0x1AA9 PUSH2 0x1D01 JUMP JUMPDEST PUSH1 0x40 MLOAD PUSH32 0x118CDAA700000000000000000000000000000000000000000000000000000000 DUP2 MSTORE PUSH1 0x4 ADD PUSH2 0x1ADC SWAP2 SWAP1 PUSH2 0x1F0B JUMP JUMPDEST PUSH1 0x40 MLOAD DUP1 SWAP2 SUB SWAP1 REVERT JUMPDEST JUMP JUMPDEST PUSH1 0x2 PUSH1 0x1 SLOAD SUB PUSH2 0x1B2C JUMPI PUSH1 0x40 MLOAD PUSH32 0x8C379A000000000000000000000000000000000000000000000000000000000 DUP2 MSTORE PUSH1 0x4 ADD PUSH2 0x1B23 SWAP1 PUSH2 0x2B9C JUMP JUMPDEST PUSH1 0x40 MLOAD DUP1 SWAP2 SUB SWAP1 REVERT JUMPDEST PUSH1 0x2 PUSH1 0x1 DUP2 SWAP1 SSTORE POP JUMP JUMPDEST PUSH2 0x1BB0 DUP4 DUP5 PUSH20 0xFFFFFFFFFFFFFFFFFFFFFFFFFFFFFFFFFFFFFFFF AND PUSH4 0xA9059CBB DUP6 DUP6 PUSH1 0x40 MLOAD PUSH1 0x24 ADD PUSH2 0x1B69 SWAP3 SWAP2 SWAP1 PUSH2 0x2BBA JUMP JUMPDEST PUSH1 0x40 MLOAD PUSH1 0x20 DUP2 DUP4 SUB SUB DUP2 MSTORE SWAP1 PUSH1 0x40 MSTORE SWAP2 POP PUSH1 0xE0 SHL PUSH1 0x20 DUP3 ADD DUP1 MLOAD PUSH28 0xFFFFFFFFFFFFFFFFFFFFFFFFFFFFFFFFFFFFFFFFFFFFFFFFFFFFFFFF DUP4 DUP2 DUP4 AND OR DUP4 MSTORE POP POP POP POP PUSH2 0x1D08 JUMP JUMPDEST POP POP POP JUMP JUMPDEST PUSH1 0x1 DUP1 DUP2 SWAP1 SSTORE POP JUMP JUMPDEST PUSH0 DUP1 PUSH0 SWAP1 SLOAD SWAP1 PUSH2 0x100 EXP SWAP1 DIV PUSH20 0xFFFFFFFFFFFFFFFFFFFFFFFFFFFFFFFFFFFFFFFF AND SWAP1 POP DUP2 PUSH0 DUP1 PUSH2 0x100 EXP DUP2 SLOAD DUP2 PUSH20 0xFFFFFFFFFFFFFFFFFFFFFFFFFFFFFFFFFFFFFFFF MUL NOT AND SWAP1 DUP4 PUSH20 0xFFFFFFFFFFFFFFFFFFFFFFFFFFFFFFFFFFFFFFFF AND MUL OR SWAP1 SSTORE POP DUP2 PUSH20 0xFFFFFFFFFFFFFFFFFFFFFFFFFFFFFFFFFFFFFFFF AND DUP2 PUSH20 0xFFFFFFFFFFFFFFFFFFFFFFFFFFFFFFFFFFFFFFFF AND PUSH32 0x8BE0079C531659141344CD1FD0A4F28419497F9722A3DAAFE3B4186F6B6457E0 PUSH1 0x40 MLOAD PUSH1 0x40 MLOAD DUP1 SWAP2 SUB SWAP1 LOG3 POP POP JUMP JUMPDEST PUSH2 0x1CFB DUP5 DUP6 PUSH20 0xFFFFFFFFFFFFFFFFFFFFFFFFFFFFFFFFFFFFFFFF AND PUSH4 0x23B872DD DUP7 DUP7 DUP7 PUSH1 0x40 MLOAD PUSH1 0x24 ADD PUSH2 0x1CB4 SWAP4 SWAP3 SWAP2 SWAP1 PUSH2 0x2BE1 JUMP JUMPDEST PUSH1 0x40 MLOAD PUSH1 0x20 DUP2 DUP4 SUB SUB DUP2 MSTORE SWAP1 PUSH1 0x40 MSTORE SWAP2 POP PUSH1 0xE0 SHL PUSH1 0x20 DUP3 ADD DUP1 MLOAD PUSH28 0xFFFFFFFFFFFFFFFFFFFFFFFFFFFFFFFFFFFFFFFFFFFFFFFFFFFFFFFF DUP4 DUP2 DUP4 AND OR DUP4 MSTORE POP POP POP POP PUSH2 0x1D08 JUMP JUMPDEST POP POP POP POP JUMP JUMPDEST PUSH0 CALLER SWAP1 POP SWAP1 JUMP JUMPDEST PUSH0 DUP1 PUSH1 0x20 PUSH0 DUP5 MLOAD PUSH1 0x20 DUP7 ADD PUSH0 DUP9 GAS CALL DUP1 PUSH2 0x1D27 JUMPI PUSH1 0x40 MLOAD RETURNDATASIZE PUSH0 DUP3 RETURNDATACOPY RETURNDATASIZE DUP2 REVERT JUMPDEST RETURNDATASIZE SWAP3 POP PUSH0 MLOAD SWAP2 POP POP PUSH0 DUP3 EQ PUSH2 0x1D40 JUMPI PUSH1 0x1 DUP2 EQ ISZERO PUSH2 0x1D5B JUMP JUMPDEST PUSH0 DUP5 PUSH20 0xFFFFFFFFFFFFFFFFFFFFFFFFFFFFFFFFFFFFFFFF AND EXTCODESIZE EQ JUMPDEST ISZERO PUSH2 0x1D9D JUMPI DUP4 PUSH1 0x40 MLOAD PUSH32 0x5274AFE700000000000000000000000000000000000000000000000000000000 DUP2 MSTORE PUSH1 0x4 ADD PUSH2 0x1D94 SWAP2 SWAP1 PUSH2 0x1F0B JUMP JUMPDEST PUSH1 0x40 MLOAD DUP1 SWAP2 SUB SWAP1 REVERT JUMPDEST POP POP POP POP JUMP JUMPDEST PUSH0 DUP1 REVERT JUMPDEST PUSH0 DUP1 REVERT JUMPDEST PUSH0 PUSH20 0xFFFFFFFFFFFFFFFFFFFFFFFFFFFFFFFFFFFFFFFF DUP3 AND SWAP1 POP SWAP2 SWAP1 POP JUMP JUMPDEST PUSH0 PUSH2 0x1DD4 DUP3 PUSH2 0x1DAB JUMP JUMPDEST SWAP1 POP SWAP2 SWAP1 POP JUMP JUMPDEST PUSH2 0x1DE4 DUP2 PUSH2 0x1DCA JUMP JUMPDEST DUP2 EQ PUSH2 0x1DEE JUMPI PUSH0 DUP1 REVERT JUMPDEST POP JUMP JUMPDEST PUSH0 DUP2 CALLDATALOAD SWAP1 POP PUSH2 0x1DFF DUP2 PUSH2 0x1DDB JUMP JUMPDEST SWAP3 SWAP2 POP POP JUMP JUMPDEST PUSH0 PUSH1 0x20 DUP3 DUP5 SUB SLT ISZERO PUSH2 0x1E1A JUMPI PUSH2 0x1E19 PUSH2 0x1DA3 JUMP JUMPDEST JUMPDEST PUSH0 PUSH2 0x1E27 DUP5 DUP3 DUP6 ADD PUSH2 0x1DF1 JUMP JUMPDEST SWAP2 POP POP SWAP3 SWAP2 POP POP JUMP JUMPDEST PUSH0 DUP2 SWAP1 POP SWAP2 SWAP1 POP JUMP JUMPDEST PUSH2 0x1E42 DUP2 PUSH2 0x1E30 JUMP JUMPDEST DUP3 MSTORE POP POP JUMP JUMPDEST PUSH0 PUSH1 0x20 DUP3 ADD SWAP1 POP PUSH2 0x1E5B PUSH0 DUP4 ADD DUP5 PUSH2 0x1E39 JUMP JUMPDEST SWAP3 SWAP2 POP POP JUMP JUMPDEST PUSH0 DUP2 ISZERO ISZERO SWAP1 POP SWAP2 SWAP1 POP JUMP JUMPDEST PUSH2 0x1E75 DUP2 PUSH2 0x1E61 JUMP JUMPDEST DUP2 EQ PUSH2 0x1E7F JUMPI PUSH0 DUP1 REVERT JUMPDEST POP JUMP JUMPDEST PUSH0 DUP2 CALLDATALOAD SWAP1 POP PUSH2 0x1E90 DUP2 PUSH2 0x1E6C JUMP JUMPDEST SWAP3 SWAP2 POP POP JUMP JUMPDEST PUSH0 DUP1 PUSH1 0x40 DUP4 DUP6 SUB SLT ISZERO PUSH2 0x1EAC JUMPI PUSH2 0x1EAB PUSH2 0x1DA3 JUMP JUMPDEST JUMPDEST PUSH0 PUSH2 0x1EB9 DUP6 DUP3 DUP7 ADD PUSH2 0x1DF1 JUMP JUMPDEST SWAP3 POP POP PUSH1 0x20 PUSH2 0x1ECA DUP6 DUP3 DUP7 ADD PUSH2 0x1E82 JUMP JUMPDEST SWAP2 POP POP SWAP3 POP SWAP3 SWAP1 POP JUMP JUMPDEST PUSH2 0x1EDD DUP2 PUSH2 0x1E61 JUMP JUMPDEST DUP3 MSTORE POP POP JUMP JUMPDEST PUSH0 PUSH1 0x20 DUP3 ADD SWAP1 POP PUSH2 0x1EF6 PUSH0 DUP4 ADD DUP5 PUSH2 0x1ED4 JUMP JUMPDEST SWAP3 SWAP2 POP POP JUMP JUMPDEST PUSH2 0x1F05 DUP2 PUSH2 0x1DCA JUMP JUMPDEST DUP3 MSTORE POP POP JUMP JUMPDEST PUSH0 PUSH1 0x20 DUP3 ADD SWAP1 POP PUSH2 0x1F1E PUSH0 DUP4 ADD DUP5 PUSH2 0x1EFC JUMP JUMPDEST SWAP3 SWAP2 POP POP JUMP JUMPDEST PUSH0 PUSH1 0x20 DUP3 DUP5 SUB SLT ISZERO PUSH2 0x1F39 JUMPI PUSH2 0x1F38 PUSH2 0x1DA3 JUMP JUMPDEST JUMPDEST PUSH0 PUSH2 0x1F46 DUP5 DUP3 DUP6 ADD PUSH2 0x1E82 JUMP JUMPDEST SWAP2 POP POP SWAP3 SWAP2 POP POP JUMP JUMPDEST PUSH0 PUSH1 0xA0 DUP3 ADD SWAP1 POP PUSH2 0x1F62 PUSH0 DUP4 ADD DUP9 PUSH2 0x1E39 JUMP JUMPDEST PUSH2 0x1F6F PUSH1 0x20 DUP4 ADD DUP8 PUSH2 0x1E39 JUMP JUMPDEST PUSH2 0x1F7C PUSH1 0x40 DUP4 ADD DUP7 PUSH2 0x1E39 JUMP JUMPDEST PUSH2 0x1F89 PUSH1 0x60 DUP4 ADD DUP6 PUSH2 0x1E39 JUMP JUMPDEST PUSH2 0x1F96 PUSH1 0x80 DUP4 ADD DUP5 PUSH2 0x1ED4 JUMP JUMPDEST SWAP7 SWAP6 POP POP POP POP POP POP JUMP JUMPDEST PUSH0 DUP1 REVERT JUMPDEST PUSH0 DUP1 REVERT JUMPDEST PUSH0 DUP1 REVERT JUMPDEST PUSH0 DUP1 DUP4 PUSH1 0x1F DUP5 ADD SLT PUSH2 0x1FC1 JUMPI PUSH2 0x1FC0 PUSH2 0x1FA0 JUMP JUMPDEST JUMPDEST DUP3 CALLDATALOAD SWAP1 POP PUSH8 0xFFFFFFFFFFFFFFFF DUP2 GT ISZERO PUSH2 0x1FDE JUMPI PUSH2 0x1FDD PUSH2 0x1FA4 JUMP JUMPDEST JUMPDEST PUSH1 0x20 DUP4 ADD SWAP2 POP DUP4 PUSH1 0x20 DUP3 MUL DUP4 ADD GT ISZERO PUSH2 0x1FFA JUMPI PUSH2 0x1FF9 PUSH2 0x1FA8 JUMP JUMPDEST JUMPDEST SWAP3 POP SWAP3 SWAP1 POP JUMP JUMPDEST PUSH0 DUP1 DUP4 PUSH1 0x1F DUP5 ADD SLT PUSH2 0x2016 JUMPI PUSH2 0x2015 PUSH2 0x1FA0 JUMP JUMPDEST JUMPDEST DUP3 CALLDATALOAD SWAP1 POP PUSH8 0xFFFFFFFFFFFFFFFF DUP2 GT ISZERO PUSH2 0x2033 JUMPI PUSH2 0x2032 PUSH2 0x1FA4 JUMP JUMPDEST JUMPDEST PUSH1 0x20 DUP4 ADD SWAP2 POP DUP4 PUSH1 0x20 DUP3 MUL DUP4 ADD GT ISZERO PUSH2 0x204F JUMPI PUSH2 0x204E PUSH2 0x1FA8 JUMP JUMPDEST JUMPDEST SWAP3 POP SWAP3 SWAP1 POP JUMP JUMPDEST PUSH0 DUP1 PUSH0 DUP1 PUSH1 0x40 DUP6 DUP8 SUB SLT ISZERO PUSH2 0x206E JUMPI PUSH2 0x206D PUSH2 0x1DA3 JUMP JUMPDEST JUMPDEST PUSH0 DUP6 ADD CALLDATALOAD PUSH8 0xFFFFFFFFFFFFFFFF DUP2 GT ISZERO PUSH2 0x208B JUMPI PUSH2 0x208A PUSH2 0x1DA7 JUMP JUMPDEST JUMPDEST PUSH2 0x2097 DUP8 DUP3 DUP9 ADD PUSH2 0x1FAC JUMP JUMPDEST SWAP5 POP SWAP5 POP POP PUSH1 0x20 DUP6 ADD CALLDATALOAD PUSH8 0xFFFFFFFFFFFFFFFF DUP2 GT ISZERO PUSH2 0x20BA JUMPI PUSH2 0x20B9 PUSH2 0x1DA7 JUMP JUMPDEST JUMPDEST PUSH2 0x20C6 DUP8 DUP3 DUP9 ADD PUSH2 0x2001 JUMP JUMPDEST SWAP3 POP SWAP3 POP POP SWAP3 SWAP6 SWAP2 SWAP5 POP SWAP3 POP JUMP JUMPDEST PUSH2 0x20DD DUP2 PUSH2 0x1E30 JUMP JUMPDEST DUP2 EQ PUSH2 0x20E7 JUMPI PUSH0 DUP1 REVERT JUMPDEST POP JUMP JUMPDEST PUSH0 DUP2 CALLDATALOAD SWAP1 POP PUSH2 0x20F8 DUP2 PUSH2 0x20D4 JUMP JUMPDEST SWAP3 SWAP2 POP POP JUMP JUMPDEST PUSH0 PUSH1 0x20 DUP3 DUP5 SUB SLT ISZERO PUSH2 0x2113 JUMPI PUSH2 0x2112 PUSH2 0x1DA3 JUMP JUMPDEST JUMPDEST PUSH0 PUSH2 0x2120 DUP5 DUP3 DUP6 ADD PUSH2 0x20EA JUMP JUMPDEST SWAP2 POP POP SWAP3 SWAP2 POP POP JUMP JUMPDEST PUSH0 DUP2 SWAP1 POP SWAP2 SWAP1 POP JUMP JUMPDEST PUSH0 PUSH2 0x214C PUSH2 0x2147 PUSH2 0x2142 DUP5 PUSH2 0x1DAB JUMP JUMPDEST PUSH2 0x2129 JUMP JUMPDEST PUSH2 0x1DAB JUMP JUMPDEST SWAP1 POP SWAP2 SWAP1 POP JUMP JUMPDEST PUSH0 PUSH2 0x215D DUP3 PUSH2 0x2132 JUMP JUMPDEST SWAP1 POP SWAP2 SWAP1 POP JUMP JUMPDEST PUSH0 PUSH2 0x216E DUP3 PUSH2 0x2153 JUMP JUMPDEST SWAP1 POP SWAP2 SWAP1 POP JUMP JUMPDEST PUSH2 0x217E DUP2 PUSH2 0x2164 JUMP JUMPDEST DUP3 MSTORE POP POP JUMP JUMPDEST PUSH0 PUSH1 0x20 DUP3 ADD SWAP1 POP PUSH2 0x2197 PUSH0 DUP4 ADD DUP5 PUSH2 0x2175 JUMP JUMPDEST SWAP3 SWAP2 POP POP JUMP JUMPDEST PUSH32 0x4E487B7100000000000000000000000000000000000000000000000000000000 PUSH0 MSTORE PUSH1 0x11 PUSH1 0x4 MSTORE PUSH1 0x24 PUSH0 REVERT JUMPDEST PUSH0 PUSH2 0x21D4 DUP3 PUSH2 0x1E30 JUMP JUMPDEST SWAP2 POP PUSH2 0x21DF DUP4 PUSH2 0x1E30 JUMP JUMPDEST SWAP3 POP DUP3 DUP3 SUB SWAP1 POP DUP2 DUP2 GT ISZERO PUSH2 0x21F7 JUMPI PUSH2 0x21F6 PUSH2 0x219D JUMP JUMPDEST JUMPDEST SWAP3 SWAP2 POP POP JUMP JUMPDEST PUSH0 DUP3 DUP3 MSTORE PUSH1 0x20 DUP3 ADD SWAP1 POP SWAP3 SWAP2 POP POP JUMP JUMPDEST PUSH32 0x436C61696D206E6F7420656E61626C6564000000000000000000000000000000 PUSH0 DUP3 ADD MSTORE POP JUMP JUMPDEST PUSH0 PUSH2 0x2241 PUSH1 0x11 DUP4 PUSH2 0x21FD JUMP JUMPDEST SWAP2 POP PUSH2 0x224C DUP3 PUSH2 0x220D JUMP JUMPDEST PUSH1 0x20 DUP3 ADD SWAP1 POP SWAP2 SWAP1 POP JUMP JUMPDEST PUSH0 PUSH1 0x20 DUP3 ADD SWAP1 POP DUP2 DUP2 SUB PUSH0 DUP4 ADD MSTORE PUSH2 0x226E DUP2 PUSH2 0x2235 JUMP JUMPDEST SWAP1 POP SWAP2 SWAP1 POP JUMP JUMPDEST PUSH32 0x436C61696D20626C6F636B656420666F72207468697320616464726573730000 PUSH0 DUP3 ADD MSTORE POP JUMP JUMPDEST PUSH0 PUSH2 0x22A9 PUSH1 0x1E DUP4 PUSH2 0x21FD JUMP JUMPDEST SWAP2 POP PUSH2 0x22B4 DUP3 PUSH2 0x2275 JUMP JUMPDEST PUSH1 0x20 DUP3 ADD SWAP1 POP SWAP2 SWAP1 POP JUMP JUMPDEST PUSH0 PUSH1 0x20 DUP3 ADD SWAP1 POP DUP2 DUP2 SUB PUSH0 DUP4 ADD MSTORE PUSH2 0x22D6 DUP2 PUSH2 0x229D JUMP JUMPDEST SWAP1 POP SWAP2 SWAP1 POP JUMP JUMPDEST PUSH32 0x417070726F76616C20666565206E6F7420706169640000000000000000000000 PUSH0 DUP3 ADD MSTORE POP JUMP JUMPDEST PUSH0 PUSH2 0x2311 PUSH1 0x15 DUP4 PUSH2 0x21FD JUMP JUMPDEST SWAP2 POP PUSH2 0x231C DUP3 PUSH2 0x22DD JUMP JUMPDEST PUSH1 0x20 DUP3 ADD SWAP1 POP SWAP2 SWAP1 POP JUMP JUMPDEST PUSH0 PUSH1 0x20 DUP3 ADD SWAP1 POP DUP2 DUP2 SUB PUSH0 DUP4 ADD MSTORE PUSH2 0x233E DUP2 PUSH2 0x2305 JUMP JUMPDEST SWAP1 POP SWAP2 SWAP1 POP JUMP JUMPDEST PUSH32 0x596F752068617665206E6F2062616C616E636520746F20636C61696D00000000 PUSH0 DUP3 ADD MSTORE POP JUMP JUMPDEST PUSH0 PUSH2 0x2379 PUSH1 0x1C DUP4 PUSH2 0x21FD JUMP JUMPDEST SWAP2 POP PUSH2 0x2384 DUP3 PUSH2 0x2345 JUMP JUMPDEST PUSH1 0x20 DUP3 ADD SWAP1 POP SWAP2 SWAP1 POP JUMP JUMPDEST PUSH0 PUSH1 0x20 DUP3 ADD SWAP1 POP DUP2 DUP2 SUB PUSH0 DUP4 ADD MSTORE PUSH2 0x23A6 DUP2 PUSH2 0x236D JUMP JUMPDEST SWAP1 POP SWAP2 SWAP1 POP JUMP JUMPDEST PUSH0 PUSH2 0x23B7 DUP3 PUSH2 0x1E30 JUMP JUMPDEST SWAP2 POP PUSH32 0xFFFFFFFFFFFFFFFFFFFFFFFFFFFFFFFFFFFFFFFFFFFFFFFFFFFFFFFFFFFFFFFF DUP3 SUB PUSH2 0x23E9 JUMPI PUSH2 0x23E8 PUSH2 0x219D JUMP JUMPDEST JUMPDEST PUSH1 0x1 DUP3 ADD SWAP1 POP SWAP2 SWAP1 POP JUMP JUMPDEST PUSH0 PUSH2 0x23FE DUP3 PUSH2 0x1E30 JUMP JUMPDEST SWAP2 POP PUSH2 0x2409 DUP4 PUSH2 0x1E30 JUMP JUMPDEST SWAP3 POP DUP3 DUP3 ADD SWAP1 POP DUP1 DUP3 GT ISZERO PUSH2 0x2421 JUMPI PUSH2 0x2420 PUSH2 0x219D JUMP JUMPDEST JUMPDEST SWAP3 SWAP2 POP POP JUMP JUMPDEST PUSH0 DUP2 MLOAD SWAP1 POP PUSH2 0x2435 DUP2 PUSH2 0x20D4 JUMP JUMPDEST SWAP3 SWAP2 POP POP JUMP JUMPDEST PUSH0 PUSH1 0x20 DUP3 DUP5 SUB SLT ISZERO PUSH2 0x2450 JUMPI PUSH2 0x244F PUSH2 0x1DA3 JUMP JUMPDEST JUMPDEST PUSH0 PUSH2 0x245D DUP5 DUP3 DUP6 ADD PUSH2 0x2427 JUMP JUMPDEST SWAP2 POP POP SWAP3 SWAP2 POP POP JUMP JUMPDEST PUSH32 0x496E636F72726563742066656520616D6F756E74000000000000000000000000 PUSH0 DUP3 ADD MSTORE POP JUMP JUMPDEST PUSH0 PUSH2 0x249A PUSH1 0x14 DUP4 PUSH2 0x21FD JUMP JUMPDEST SWAP2 POP PUSH2 0x24A5 DUP3 PUSH2 0x2466 JUMP JUMPDEST PUSH1 0x20 DUP3 ADD SWAP1 POP SWAP2 SWAP1 POP JUMP JUMPDEST PUSH0 PUSH1 0x20 DUP3 ADD SWAP1 POP DUP2 DUP2 SUB PUSH0 DUP4 ADD MSTORE PUSH2 0x24C7 DUP2 PUSH2 0x248E JUMP JUMPDEST SWAP1 POP SWAP2 SWAP1 POP JUMP JUMPDEST PUSH32 0x4172726179206C656E6774687320646F206E6F74206D61746368000000000000 PUSH0 DUP3 ADD MSTORE POP JUMP JUMPDEST PUSH0 PUSH2 0x2502 PUSH1 0x1A DUP4 PUSH2 0x21FD JUMP JUMPDEST SWAP2 POP PUSH2 0x250D DUP3 PUSH2 0x24CE JUMP JUMPDEST PUSH1 0x20 DUP3 ADD SWAP1 POP SWAP2 SWAP1 POP JUMP JUMPDEST PUSH0 PUSH1 0x20 DUP3 ADD SWAP1 POP DUP2 DUP2 SUB PUSH0 DUP4 ADD MSTORE PUSH2 0x252F DUP2 PUSH2 0x24F6 JUMP JUMPDEST SWAP1 POP SWAP2 SWAP1 POP JUMP JUMPDEST PUSH32 0x4E487B7100000000000000000000000000000000000000000000000000000000 PUSH0 MSTORE PUSH1 0x32 PUSH1 0x4 MSTORE PUSH1 0x24 PUSH0 REVERT JUMPDEST PUSH0 PUSH2 0x256D DUP3 PUSH2 0x1E30 JUMP JUMPDEST SWAP2 POP PUSH2 0x2578 DUP4 PUSH2 0x1E30 JUMP JUMPDEST SWAP3 POP DUP3 DUP3 MUL PUSH2 0x2586 DUP2 PUSH2 0x1E30 JUMP JUMPDEST SWAP2 POP DUP3 DUP3 DIV DUP5 EQ DUP4 ISZERO OR PUSH2 0x259D JUMPI PUSH2 0x259C PUSH2 0x219D JUMP JUMPDEST JUMPDEST POP SWAP3 SWAP2 POP POP JUMP JUMPDEST PUSH32 0x43616E6E6F74206265206120636F6E7472616374000000000000000000000000 PUSH0 DUP3 ADD MSTORE POP JUMP JUMPDEST PUSH0 PUSH2 0x25D8 PUSH1 0x14 DUP4 PUSH2 0x21FD JUMP JUMPDEST SWAP2 POP PUSH2 0x25E3 DUP3 PUSH2 0x25A4 JUMP JUMPDEST PUSH1 0x20 DUP3 ADD SWAP1 POP SWAP2 SWAP1 POP JUMP JUMPDEST PUSH0 PUSH1 0x20 DUP3 ADD SWAP1 POP DUP2 DUP2 SUB PUSH0 DUP4 ADD MSTORE PUSH2 0x2605 DUP2 PUSH2 0x25CC JUMP JUMPDEST SWAP1 POP SWAP2 SWAP1 POP JUMP JUMPDEST PUSH32 0x416C6C6F636174696F6E206578636565647320616C6C6F776564206C696D6974 PUSH0 DUP3 ADD MSTORE POP JUMP JUMPDEST PUSH0 PUSH2 0x2640 PUSH1 0x20 DUP4 PUSH2 0x21FD JUMP JUMPDEST SWAP2 POP PUSH2 0x264B DUP3 PUSH2 0x260C JUMP JUMPDEST PUSH1 0x20 DUP3 ADD SWAP1 POP SWAP2 SWAP1 POP JUMP JUMPDEST PUSH0 PUSH1 0x20 DUP3 ADD SWAP1 POP DUP2 DUP2 SUB PUSH0 DUP4 ADD MSTORE PUSH2 0x266D DUP2 PUSH2 0x2634 JUMP JUMPDEST SWAP1 POP SWAP2 SWAP1 POP JUMP JUMPDEST PUSH0 PUSH1 0x40 DUP3 ADD SWAP1 POP PUSH2 0x2687 PUSH0 DUP4 ADD DUP6 PUSH2 0x1E39 JUMP JUMPDEST PUSH2 0x2694 PUSH1 0x20 DUP4 ADD DUP5 PUSH2 0x1E39 JUMP JUMPDEST SWAP4 SWAP3 POP POP POP JUMP JUMPDEST PUSH32 0x496E73756666696369656E7420636F6E74726163742062616C616E636520666F PUSH0 DUP3 ADD MSTORE PUSH32 0x7220616C6C6F636174696F6E0000000000000000000000000000000000000000 PUSH1 0x20 DUP3 ADD MSTORE POP JUMP JUMPDEST PUSH0 PUSH2 0x26F5 PUSH1 0x2C DUP4 PUSH2 0x21FD JUMP JUMPDEST SWAP2 POP PUSH2 0x2700 DUP3 PUSH2 0x269B JUMP JUMPDEST PUSH1 0x40 DUP3 ADD SWAP1 POP SWAP2 SWAP1 POP JUMP JUMPDEST PUSH0 PUSH1 0x20 DUP3 ADD SWAP1 POP DUP2 DUP2 SUB PUSH0 DUP4 ADD MSTORE PUSH2 0x2722 DUP2 PUSH2 0x26E9 JUMP JUMPDEST SWAP1 POP SWAP2 SWAP1 POP JUMP JUMPDEST PUSH0 DUP3 DUP3 MSTORE PUSH1 0x20 DUP3 ADD SWAP1 POP SWAP3 SWAP2 POP POP JUMP JUMPDEST PUSH0 DUP2 SWAP1 POP SWAP2 SWAP1 POP JUMP JUMPDEST PUSH2 0x274B DUP2 PUSH2 0x1DCA JUMP JUMPDEST DUP3 MSTORE POP POP JUMP JUMPDEST PUSH0 PUSH2 0x275C DUP4 DUP4 PUSH2 0x2742 JUMP JUMPDEST PUSH1 0x20 DUP4 ADD SWAP1 POP SWAP3 SWAP2 POP POP JUMP JUMPDEST PUSH0 PUSH2 0x2776 PUSH1 0x20 DUP5 ADD DUP5 PUSH2 0x1DF1 JUMP JUMPDEST SWAP1 POP SWAP3 SWAP2 POP POP JUMP JUMPDEST PUSH0 PUSH1 0x20 DUP3 ADD SWAP1 POP SWAP2 SWAP1 POP JUMP JUMPDEST PUSH0 PUSH2 0x2795 DUP4 DUP6 PUSH2 0x2729 JUMP JUMPDEST SWAP4 POP PUSH2 0x27A0 DUP3 PUSH2 0x2739 JUMP JUMPDEST DUP1 PUSH0 JUMPDEST DUP6 DUP2 LT ISZERO PUSH2 0x27D8 JUMPI PUSH2 0x27B5 DUP3 DUP5 PUSH2 0x2768 JUMP JUMPDEST PUSH2 0x27BF DUP9 DUP3 PUSH2 0x2751 JUMP JUMPDEST SWAP8 POP PUSH2 0x27CA DUP4 PUSH2 0x277E JUMP JUMPDEST SWAP3 POP POP PUSH1 0x1 DUP2 ADD SWAP1 POP PUSH2 0x27A3 JUMP JUMPDEST POP DUP6 SWAP3 POP POP POP SWAP4 SWAP3 POP POP POP JUMP JUMPDEST PUSH0 DUP3 DUP3 MSTORE PUSH1 0x20 DUP3 ADD SWAP1 POP SWAP3 SWAP2 POP POP JUMP JUMPDEST PUSH0 DUP1 REVERT JUMPDEST DUP3 DUP2 DUP4 CALLDATACOPY POP POP POP JUMP JUMPDEST PUSH0 PUSH2 0x280D DUP4 DUP6 PUSH2 0x27E5 JUMP JUMPDEST SWAP4 POP PUSH32 0x7FFFFFFFFFFFFFFFFFFFFFFFFFFFFFFFFFFFFFFFFFFFFFFFFFFFFFFFFFFFFFF DUP4 GT ISZERO PUSH2 0x2840 JUMPI PUSH2 0x283F PUSH2 0x27F5 JUMP JUMPDEST JUMPDEST PUSH1 0x20 DUP4 MUL SWAP3 POP PUSH2 0x2851 DUP4 DUP6 DUP5 PUSH2 0x27F9 JUMP JUMPDEST DUP3 DUP5 ADD SWAP1 POP SWAP4 SWAP3 POP POP POP JUMP JUMPDEST PUSH0 PUSH1 0x40 DUP3 ADD SWAP1 POP DUP2 DUP2 SUB PUSH0 DUP4 ADD MSTORE PUSH2 0x2876 DUP2 DUP7 DUP9 PUSH2 0x278A JUMP JUMPDEST SWAP1 POP DUP2 DUP2 SUB PUSH1 0x20 DUP4 ADD MSTORE PUSH2 0x288B DUP2 DUP5 DUP7 PUSH2 0x2802 JUMP JUMPDEST SWAP1 POP SWAP6 SWAP5 POP POP POP POP POP JUMP JUMPDEST PUSH32 0x436F6E747261637420686173206E6F2062616C616E6365000000000000000000 PUSH0 DUP3 ADD MSTORE POP JUMP JUMPDEST PUSH0 PUSH2 0x28CA PUSH1 0x17 DUP4 PUSH2 0x21FD JUMP JUMPDEST SWAP2 POP PUSH2 0x28D5 DUP3 PUSH2 0x2896 JUMP JUMPDEST PUSH1 0x20 DUP3 ADD SWAP1 POP SWAP2 SWAP1 POP JUMP JUMPDEST PUSH0 PUSH1 0x20 DUP3 ADD SWAP1 POP DUP2 DUP2 SUB PUSH0 DUP4 ADD MSTORE PUSH2 0x28F7 DUP2 PUSH2 0x28BE JUMP JUMPDEST SWAP1 POP SWAP2 SWAP1 POP JUMP JUMPDEST PUSH32 0x436F6F6C646F776E20696E2070726F6772657373000000000000000000000000 PUSH0 DUP3 ADD MSTORE POP JUMP JUMPDEST PUSH0 PUSH2 0x2932 PUSH1 0x14 DUP4 PUSH2 0x21FD JUMP JUMPDEST SWAP2 POP PUSH2 0x293D DUP3 PUSH2 0x28FE JUMP JUMPDEST PUSH1 0x20 DUP3 ADD SWAP1 POP SWAP2 SWAP1 POP JUMP JUMPDEST PUSH0 PUSH1 0x20 DUP3 ADD SWAP1 POP DUP2 DUP2 SUB PUSH0 DUP4 ADD MSTORE PUSH2 0x295F DUP2 PUSH2 0x2926 JUMP JUMPDEST SWAP1 POP SWAP2 SWAP1 POP JUMP JUMPDEST PUSH32 0x4E6F20756E616C6C6F636174656420746F6B656E7320746F2077697468647261 PUSH0 DUP3 ADD MSTORE PUSH32 0x7700000000000000000000000000000000000000000000000000000000000000 PUSH1 0x20 DUP3 ADD MSTORE POP JUMP JUMPDEST PUSH0 PUSH2 0x29C0 PUSH1 0x21 DUP4 PUSH2 0x21FD JUMP JUMPDEST SWAP2 POP PUSH2 0x29CB DUP3 PUSH2 0x2966 JUMP JUMPDEST PUSH1 0x40 DUP3 ADD SWAP1 POP SWAP2 SWAP1 POP JUMP JUMPDEST PUSH0 PUSH1 0x20 DUP3 ADD SWAP1 POP DUP2 DUP2 SUB PUSH0 DUP4 ADD MSTORE PUSH2 0x29ED DUP2 PUSH2 0x29B4 JUMP JUMPDEST SWAP1 POP SWAP2 SWAP1 POP JUMP JUMPDEST PUSH32 0x4465706F73697420616D6F756E74206D75737420626520677265617465722074 PUSH0 DUP3 ADD MSTORE PUSH32 0x68616E207A65726F000000000000000000000000000000000000000000000000 PUSH1 0x20 DUP3 ADD MSTORE POP JUMP JUMPDEST PUSH0 PUSH2 0x2A4E PUSH1 0x28 DUP4 PUSH2 0x21FD JUMP JUMPDEST SWAP2 POP PUSH2 0x2A59 DUP3 PUSH2 0x29F4 JUMP JUMPDEST PUSH1 0x40 DUP3 ADD SWAP1 POP SWAP2 SWAP1 POP JUMP JUMPDEST PUSH0 PUSH1 0x20 DUP3 ADD SWAP1 POP DUP2 DUP2 SUB PUSH0 DUP4 ADD MSTORE PUSH2 0x2A7B DUP2 PUSH2 0x2A42 JUMP JUMPDEST SWAP1 POP SWAP2 SWAP1 POP JUMP JUMPDEST PUSH32 0x496E73756666696369656E742062616C616E6365000000000000000000000000 PUSH0 DUP3 ADD MSTORE POP JUMP JUMPDEST PUSH0 PUSH2 0x2AB6 PUSH1 0x14 DUP4 PUSH2 0x21FD JUMP JUMPDEST SWAP2 POP PUSH2 0x2AC1 DUP3 PUSH2 0x2A82 JUMP JUMPDEST PUSH1 0x20 DUP3 ADD SWAP1 POP SWAP2 SWAP1 POP JUMP JUMPDEST PUSH0 PUSH1 0x20 DUP3 ADD SWAP1 POP DUP2 DUP2 SUB PUSH0 DUP4 ADD MSTORE PUSH2 0x2AE3 DUP2 PUSH2 0x2AAA JUMP JUMPDEST SWAP1 POP SWAP2 SWAP1 POP JUMP JUMPDEST PUSH32 0x4E6F206665657320746F20776974686472617700000000000000000000000000 PUSH0 DUP3 ADD MSTORE POP JUMP JUMPDEST PUSH0 PUSH2 0x2B1E PUSH1 0x13 DUP4 PUSH2 0x21FD JUMP JUMPDEST SWAP2 POP PUSH2 0x2B29 DUP3 PUSH2 0x2AEA JUMP JUMPDEST PUSH1 0x20 DUP3 ADD SWAP1 POP SWAP2 SWAP1 POP JUMP JUMPDEST PUSH0 PUSH1 0x20 DUP3 ADD SWAP1 POP DUP2 DUP2 SUB PUSH0 DUP4 ADD MSTORE PUSH2 0x2B4B DUP2 PUSH2 0x2B12 JUMP JUMPDEST SWAP1 POP SWAP2 SWAP1 POP JUMP JUMPDEST PUSH32 0x5265656E7472616E637947756172643A207265656E7472616E742063616C6C00 PUSH0 DUP3 ADD MSTORE POP JUMP JUMPDEST PUSH0 PUSH2 0x2B86 PUSH1 0x1F DUP4 PUSH2 0x21FD JUMP JUMPDEST SWAP2 POP PUSH2 0x2B91 DUP3 PUSH2 0x2B52 JUMP JUMPDEST PUSH1 0x20 DUP3 ADD SWAP1 POP SWAP2 SWAP1 POP JUMP JUMPDEST PUSH0 PUSH1 0x20 DUP3 ADD SWAP1 POP DUP2 DUP2 SUB PUSH0 DUP4 ADD MSTORE PUSH2 0x2BB3 DUP2 PUSH2 0x2B7A JUMP JUMPDEST SWAP1 POP SWAP2 SWAP1 POP JUMP JUMPDEST PUSH0 PUSH1 0x40 DUP3 ADD SWAP1 POP PUSH2 0x2BCD PUSH0 DUP4 ADD DUP6 PUSH2 0x1EFC JUMP JUMPDEST PUSH2 0x2BDA PUSH1 0x20 DUP4 ADD DUP5 PUSH2 0x1E39 JUMP JUMPDEST SWAP4 SWAP3 POP POP POP JUMP JUMPDEST PUSH0 PUSH1 0x60 DUP3 ADD SWAP1 POP PUSH2 0x2BF4 PUSH0 DUP4 ADD DUP7 PUSH2 0x1EFC JUMP JUMPDEST PUSH2 0x2C01 PUSH1 0x20 DUP4 ADD DUP6 PUSH2 0x1EFC JUMP JUMPDEST PUSH2 0x2C0E PUSH1 0x40 DUP4 ADD DUP5 PUSH2 0x1E39 JUMP JUMPDEST SWAP5 SWAP4 POP POP POP POP JUMP INVALID LOG2 PUSH5 0x6970667358 0x22 SLT KECCAK256 0xEE ADD 0x5D SIGNEXTEND XOR JUMPI 0xFC 0xB4 0xF9 0xE6 0xD2 0xE8 MSIZE 0x5D 0xE2 0xEA 0xB2 0x2C 0xC7 0xB7 0xAB PUSH10 0x283A54E2B29F8E7E9A15 PUSH5 0x736F6C6343 STOP ADDMOD EQ STOP CALLER "
				},
				"gasEstimates": {
					"creation": {
						"codeDepositCost": "2268000",
						"executionCost": "infinite",
						"totalCost": "infinite"
					},
					"external": {
						"addClaimableBatch(address[],uint256[])": "infinite",
						"approveClaim()": "27821",
						"approvedForClaim(address)": "2923",
						"canClaim(address)": "9588",
						"claim()": "infinite",
						"claimApprovalFee()": "2494",
						"claimBlocked(address)": "2879",
						"claimEnabled()": "2556",
						"contractTokenBalance()": "infinite",
						"depositTokens(uint256)": "infinite",
						"emergencyWithdraw()": "infinite",
						"emergencyWithdrawCooldown()": "2493",
						"getClaimableBalance(address)": "2876",
						"getStats()": "infinite",
						"getTotalClaimed(address)": "2941",
						"getUnallocatedTokens()": "infinite",
						"lastEmergencyWithdraw()": "2471",
						"maxAllocationPerAddress()": "2514",
						"owner()": "2626",
						"renounceOwnership()": "infinite",
						"setClaimApprovalFee(uint256)": "infinite",
						"setClaimBlockedForAddress(address,bool)": "infinite",
						"setClaimEnabled(bool)": "infinite",
						"token()": "infinite",
						"totalAddressesClaimed()": "2537",
						"totalAllocated()": "2493",
						"totalRegisteredAddresses()": "2470",
						"transferOwnership(address)": "infinite",
						"withdrawApprovalFees()": "infinite",
						"withdrawUnallocatedTokens()": "infinite"
					}
				},
				"methodIdentifiers": {
					"addClaimableBatch(address[],uint256[])": "d7bebac0",
					"approveClaim()": "a0470cb4",
					"approvedForClaim(address)": "94192b9f",
					"canClaim(address)": "bf3506c1",
					"claim()": "4e71d92d",
					"claimApprovalFee()": "1f322564",
					"claimBlocked(address)": "8f060da9",
					"claimEnabled()": "2866ed21",
					"contractTokenBalance()": "9e9aed62",
					"depositTokens(uint256)": "dd49756e",
					"emergencyWithdraw()": "db2e21bc",
					"emergencyWithdrawCooldown()": "28607bc6",
					"getClaimableBalance(address)": "06def802",
					"getStats()": "c59d4847",
					"getTotalClaimed(address)": "522bf1d4",
					"getUnallocatedTokens()": "4243fc4e",
					"lastEmergencyWithdraw()": "26155e53",
					"maxAllocationPerAddress()": "86e755c6",
					"owner()": "8da5cb5b",
					"renounceOwnership()": "715018a6",
					"setClaimApprovalFee(uint256)": "e1ffba62",
					"setClaimBlockedForAddress(address,bool)": "2019ddf8",
					"setClaimEnabled(bool)": "92929a09",
					"token()": "fc0c546a",
					"totalAddressesClaimed()": "2bb2ed39",
					"totalAllocated()": "45f7f249",
					"totalRegisteredAddresses()": "6104f4b5",
					"transferOwnership(address)": "f2fde38b",
					"withdrawApprovalFees()": "e1413163",
					"withdrawUnallocatedTokens()": "dc7f9e34"
				}
			},
			"storageLayout": {
				"storage": [
					{
						"astId": 35,
						"contract": "FvckClaim_flattened.sol:FvckClaim",
						"label": "_owner",
						"offset": 0,
						"slot": "0",
						"type": "t_address"
					},
					{
						"astId": 184,
						"contract": "FvckClaim_flattened.sol:FvckClaim",
						"label": "_status",
						"offset": 0,
						"slot": "1",
						"type": "t_uint256"
					},
					{
						"astId": 1101,
						"contract": "FvckClaim_flattened.sol:FvckClaim",
						"label": "claimEnabled",
						"offset": 0,
						"slot": "2",
						"type": "t_bool"
					},
					{
						"astId": 1105,
						"contract": "FvckClaim_flattened.sol:FvckClaim",
						"label": "claimableBalances",
						"offset": 0,
						"slot": "3",
						"type": "t_mapping(t_address,t_uint256)"
					},
					{
						"astId": 1109,
						"contract": "FvckClaim_flattened.sol:FvckClaim",
						"label": "claimedBalances",
						"offset": 0,
						"slot": "4",
						"type": "t_mapping(t_address,t_uint256)"
					},
					{
						"astId": 1113,
						"contract": "FvckClaim_flattened.sol:FvckClaim",
						"label": "claimBlocked",
						"offset": 0,
						"slot": "5",
						"type": "t_mapping(t_address,t_bool)"
					},
					{
						"astId": 1117,
						"contract": "FvckClaim_flattened.sol:FvckClaim",
						"label": "approvedForClaim",
						"offset": 0,
						"slot": "6",
						"type": "t_mapping(t_address,t_bool)"
					},
					{
						"astId": 1119,
						"contract": "FvckClaim_flattened.sol:FvckClaim",
						"label": "totalRegisteredAddresses",
						"offset": 0,
						"slot": "7",
						"type": "t_uint256"
					},
					{
						"astId": 1121,
						"contract": "FvckClaim_flattened.sol:FvckClaim",
						"label": "totalAddressesClaimed",
						"offset": 0,
						"slot": "8",
						"type": "t_uint256"
					},
					{
						"astId": 1123,
						"contract": "FvckClaim_flattened.sol:FvckClaim",
						"label": "totalAllocated",
						"offset": 0,
						"slot": "9",
						"type": "t_uint256"
					},
					{
						"astId": 1127,
						"contract": "FvckClaim_flattened.sol:FvckClaim",
						"label": "_isRegistered",
						"offset": 0,
						"slot": "10",
						"type": "t_mapping(t_address,t_bool)"
					},
					{
						"astId": 1137,
						"contract": "FvckClaim_flattened.sol:FvckClaim",
						"label": "maxAllocationPerAddress",
						"offset": 0,
						"slot": "11",
						"type": "t_uint256"
					},
					{
						"astId": 1139,
						"contract": "FvckClaim_flattened.sol:FvckClaim",
						"label": "lastEmergencyWithdraw",
						"offset": 0,
						"slot": "12",
						"type": "t_uint256"
					},
					{
						"astId": 1142,
						"contract": "FvckClaim_flattened.sol:FvckClaim",
						"label": "emergencyWithdrawCooldown",
						"offset": 0,
						"slot": "13",
						"type": "t_uint256"
					},
					{
						"astId": 1144,
						"contract": "FvckClaim_flattened.sol:FvckClaim",
						"label": "claimApprovalFee",
						"offset": 0,
						"slot": "14",
						"type": "t_uint256"
					}
				],
				"types": {
					"t_address": {
						"encoding": "inplace",
						"label": "address",
						"numberOfBytes": "20"
					},
					"t_bool": {
						"encoding": "inplace",
						"label": "bool",
						"numberOfBytes": "1"
					},
					"t_mapping(t_address,t_bool)": {
						"encoding": "mapping",
						"key": "t_address",
						"label": "mapping(address => bool)",
						"numberOfBytes": "32",
						"value": "t_bool"
					},
					"t_mapping(t_address,t_uint256)": {
						"encoding": "mapping",
						"key": "t_address",
						"label": "mapping(address => uint256)",
						"numberOfBytes": "32",
						"value": "t_uint256"
					},
					"t_uint256": {
						"encoding": "inplace",
						"label": "uint256",
						"numberOfBytes": "32"
					}
				}
			},
			"userdoc": {
				"kind": "user",
				"methods": {
					"addClaimableBatch(address[],uint256[])": {
						"notice": "Adds (or sums) claimable balances for multiple addresses in a single batch operation."
					},
					"approveClaim()": {
						"notice": "Allows a user to pay the approval fee and enable claim eligibility."
					},
					"canClaim(address)": {
						"notice": "Checks whether a wallet can currently claim tokens."
					},
					"claim()": {
						"notice": "Allows a user to claim their allocated tokens. The claim can be made only once."
					},
					"contractTokenBalance()": {
						"notice": "Returns the total token balance of the contract."
					},
					"depositTokens(uint256)": {
						"notice": "Allows the owner to deposit tokens into the contract for distribution."
					},
					"emergencyWithdraw()": {
						"notice": "Allows the owner to withdraw all tokens in case of an emergency."
					},
					"getClaimableBalance(address)": {
						"notice": "Retrieves the specific claimable balance for a given address."
					},
					"getStats()": {
						"notice": "Retrieves statistics for the frontend interface."
					},
					"getTotalClaimed(address)": {
						"notice": "Retrieves the total tokens already claimed by a given address."
					},
					"getUnallocatedTokens()": {
						"notice": "Retrieves the total tokens that are unallocated in the contract."
					},
					"setClaimApprovalFee(uint256)": {
						"notice": "Allows the owner to set the claim approval fee."
					},
					"setClaimBlockedForAddress(address,bool)": {
						"notice": "Allows the owner to block or unblock the claim functionality for a specific address."
					},
					"setClaimEnabled(bool)": {
						"notice": "Allows the owner to enable or disable the claim functionality globally."
					},
					"withdrawApprovalFees()": {
						"notice": "Allows the owner to withdraw all collected approval fees."
					},
					"withdrawUnallocatedTokens()": {
						"notice": "Allows the owner to withdraw only the unallocated tokens, respecting a cooldown."
					}
				},
				"notice": "Contract to lock BEP20/ERC20 tokens received externally (via transfer),         manage a mapping of wallets authorized to claim specific balances,         and allow withdrawal of these tokens only once.",
				"version": 1
			}
		}
	}
}