{
	"ClaimFVCK.sol": {
		"FvckClaim": {
			"abi": [
				{
					"inputs": [
						{
							"internalType": "contract IERC20",
							"name": "_token",
							"type": "address"
						}
					],
					"stateMutability": "nonpayable",
					"type": "constructor"
				},
				{
					"inputs": [
						{
							"internalType": "address",
							"name": "owner",
							"type": "address"
						}
					],
					"name": "OwnableInvalidOwner",
					"type": "error"
				},
				{
					"inputs": [
						{
							"internalType": "address",
							"name": "account",
							"type": "address"
						}
					],
					"name": "OwnableUnauthorizedAccount",
					"type": "error"
				},
				{
					"inputs": [
						{
							"internalType": "address",
							"name": "token",
							"type": "address"
						}
					],
					"name": "SafeERC20FailedOperation",
					"type": "error"
				},
				{
					"anonymous": false,
					"inputs": [
						{
							"indexed": false,
							"internalType": "uint256",
							"name": "newFee",
							"type": "uint256"
						}
					],
					"name": "ClaimApprovalFeeUpdated",
					"type": "event"
				},
				{
					"anonymous": false,
					"inputs": [
						{
							"indexed": true,
							"internalType": "address",
							"name": "account",
							"type": "address"
						}
					],
					"name": "ClaimApproved",
					"type": "event"
				},
				{
					"anonymous": false,
					"inputs": [
						{
							"indexed": true,
							"internalType": "address",
							"name": "account",
							"type": "address"
						},
						{
							"indexed": false,
							"internalType": "bool",
							"name": "isBlocked",
							"type": "bool"
						}
					],
					"name": "ClaimBlockedForAddress",
					"type": "event"
				},
				{
					"anonymous": false,
					"inputs": [
						{
							"indexed": false,
							"internalType": "bool",
							"name": "enabled",
							"type": "bool"
						}
					],
					"name": "ClaimEnabled",
					"type": "event"
				},
				{
					"anonymous": false,
					"inputs": [
						{
							"indexed": true,
							"internalType": "address",
							"name": "beneficiary",
							"type": "address"
						},
						{
							"indexed": false,
							"internalType": "uint256",
							"name": "amount",
							"type": "uint256"
						}
					],
					"name": "ClaimMade",
					"type": "event"
				},
				{
					"anonymous": false,
					"inputs": [
						{
							"indexed": false,
							"internalType": "address[]",
							"name": "accounts",
							"type": "address[]"
						},
						{
							"indexed": false,
							"internalType": "uint256[]",
							"name": "amounts",
							"type": "uint256[]"
						}
					],
					"name": "ClaimableBatchAdded",
					"type": "event"
				},
				{
					"anonymous": false,
					"inputs": [
						{
							"indexed": true,
							"internalType": "address",
							"name": "owner",
							"type": "address"
						},
						{
							"indexed": false,
							"internalType": "uint256",
							"name": "amount",
							"type": "uint256"
						}
					],
					"name": "EmergencyWithdraw",
					"type": "event"
				},
				{
					"anonymous": false,
					"inputs": [
						{
							"indexed": true,
							"internalType": "address",
							"name": "account",
							"type": "address"
						}
					],
					"name": "NewAddressRegistered",
					"type": "event"
				},
				{
					"anonymous": false,
					"inputs": [
						{
							"indexed": true,
							"internalType": "address",
							"name": "previousOwner",
							"type": "address"
						},
						{
							"indexed": true,
							"internalType": "address",
							"name": "newOwner",
							"type": "address"
						}
					],
					"name": "OwnershipTransferred",
					"type": "event"
				},
				{
					"anonymous": false,
					"inputs": [
						{
							"indexed": true,
							"internalType": "address",
							"name": "owner",
							"type": "address"
						},
						{
							"indexed": false,
							"internalType": "uint256",
							"name": "amount",
							"type": "uint256"
						}
					],
					"name": "TokenDeposited",
					"type": "event"
				},
				{
					"anonymous": false,
					"inputs": [
						{
							"indexed": true,
							"internalType": "address",
							"name": "account",
							"type": "address"
						},
						{
							"indexed": false,
							"internalType": "uint256",
							"name": "amount",
							"type": "uint256"
						},
						{
							"indexed": false,
							"internalType": "uint256",
							"name": "totalAllocated",
							"type": "uint256"
						}
					],
					"name": "TokensAllocated",
					"type": "event"
				},
				{
					"inputs": [
						{
							"internalType": "address[]",
							"name": "_accounts",
							"type": "address[]"
						},
						{
							"internalType": "uint256[]",
							"name": "_amounts",
							"type": "uint256[]"
						}
					],
					"name": "addClaimableBatch",
					"outputs": [],
					"stateMutability": "nonpayable",
					"type": "function"
				},
				{
					"inputs": [],
					"name": "approveClaim",
					"outputs": [],
					"stateMutability": "payable",
					"type": "function"
				},
				{
					"inputs": [
						{
							"internalType": "address",
							"name": "",
							"type": "address"
						}
					],
					"name": "approvedForClaim",
					"outputs": [
						{
							"internalType": "bool",
							"name": "",
							"type": "bool"
						}
					],
					"stateMutability": "view",
					"type": "function"
				},
				{
					"inputs": [
						{
							"internalType": "address",
							"name": "_account",
							"type": "address"
						}
					],
					"name": "canClaim",
					"outputs": [
						{
							"internalType": "bool",
							"name": "",
							"type": "bool"
						}
					],
					"stateMutability": "view",
					"type": "function"
				},
				{
					"inputs": [],
					"name": "claim",
					"outputs": [],
					"stateMutability": "nonpayable",
					"type": "function"
				},
				{
					"inputs": [],
					"name": "claimApprovalFee",
					"outputs": [
						{
							"internalType": "uint256",
							"name": "",
							"type": "uint256"
						}
					],
					"stateMutability": "view",
					"type": "function"
				},
				{
					"inputs": [
						{
							"internalType": "address",
							"name": "",
							"type": "address"
						}
					],
					"name": "claimBlocked",
					"outputs": [
						{
							"internalType": "bool",
							"name": "",
							"type": "bool"
						}
					],
					"stateMutability": "view",
					"type": "function"
				},
				{
					"inputs": [],
					"name": "claimEnabled",
					"outputs": [
						{
							"internalType": "bool",
							"name": "",
							"type": "bool"
						}
					],
					"stateMutability": "view",
					"type": "function"
				},
				{
					"inputs": [],
					"name": "contractTokenBalance",
					"outputs": [
						{
							"internalType": "uint256",
							"name": "",
							"type": "uint256"
						}
					],
					"stateMutability": "view",
					"type": "function"
				},
				{
					"inputs": [
						{
							"internalType": "uint256",
							"name": "_amount",
							"type": "uint256"
						}
					],
					"name": "depositTokens",
					"outputs": [],
					"stateMutability": "nonpayable",
					"type": "function"
				},
				{
					"inputs": [],
					"name": "emergencyWithdraw",
					"outputs": [],
					"stateMutability": "nonpayable",
					"type": "function"
				},
				{
					"inputs": [],
					"name": "emergencyWithdrawCooldown",
					"outputs": [
						{
							"internalType": "uint256",
							"name": "",
							"type": "uint256"
						}
					],
					"stateMutability": "view",
					"type": "function"
				},
				{
					"inputs": [
						{
							"internalType": "address",
							"name": "_account",
							"type": "address"
						}
					],
					"name": "getClaimableBalance",
					"outputs": [
						{
							"internalType": "uint256",
							"name": "",
							"type": "uint256"
						}
					],
					"stateMutability": "view",
					"type": "function"
				},
				{
					"inputs": [],
					"name": "getStats",
					"outputs": [
						{
							"internalType": "uint256",
							"name": "_totalRegistered",
							"type": "uint256"
						},
						{
							"internalType": "uint256",
							"name": "_totalClaimed",
							"type": "uint256"
						},
						{
							"internalType": "uint256",
							"name": "_totalContractBalance",
							"type": "uint256"
						},
						{
							"internalType": "uint256",
							"name": "_totalAllocated",
							"type": "uint256"
						},
						{
							"internalType": "bool",
							"name": "_claimEnabled",
							"type": "bool"
						}
					],
					"stateMutability": "view",
					"type": "function"
				},
				{
					"inputs": [
						{
							"internalType": "address",
							"name": "_account",
							"type": "address"
						}
					],
					"name": "getTotalClaimed",
					"outputs": [
						{
							"internalType": "uint256",
							"name": "",
							"type": "uint256"
						}
					],
					"stateMutability": "view",
					"type": "function"
				},
				{
					"inputs": [],
					"name": "lastEmergencyWithdraw",
					"outputs": [
						{
							"internalType": "uint256",
							"name": "",
							"type": "uint256"
						}
					],
					"stateMutability": "view",
					"type": "function"
				},
				{
					"inputs": [],
					"name": "maxAllocationPerAddress",
					"outputs": [
						{
							"internalType": "uint256",
							"name": "",
							"type": "uint256"
						}
					],
					"stateMutability": "view",
					"type": "function"
				},
				{
					"inputs": [],
					"name": "owner",
					"outputs": [
						{
							"internalType": "address",
							"name": "",
							"type": "address"
						}
					],
					"stateMutability": "view",
					"type": "function"
				},
				{
					"inputs": [],
					"name": "renounceOwnership",
					"outputs": [],
					"stateMutability": "nonpayable",
					"type": "function"
				},
				{
					"inputs": [
						{
							"internalType": "uint256",
							"name": "_fee",
							"type": "uint256"
						}
					],
					"name": "setClaimApprovalFee",
					"outputs": [],
					"stateMutability": "nonpayable",
					"type": "function"
				},
				{
					"inputs": [
						{
							"internalType": "address",
							"name": "_account",
							"type": "address"
						},
						{
							"internalType": "bool",
							"name": "_blocked",
							"type": "bool"
						}
					],
					"name": "setClaimBlockedForAddress",
					"outputs": [],
					"stateMutability": "nonpayable",
					"type": "function"
				},
				{
					"inputs": [
						{
							"internalType": "bool",
							"name": "_enabled",
							"type": "bool"
						}
					],
					"name": "setClaimEnabled",
					"outputs": [],
					"stateMutability": "nonpayable",
					"type": "function"
				},
				{
					"inputs": [],
					"name": "token",
					"outputs": [
						{
							"internalType": "contract IERC20",
							"name": "",
							"type": "address"
						}
					],
					"stateMutability": "view",
					"type": "function"
				},
				{
					"inputs": [],
					"name": "totalAddressesClaimed",
					"outputs": [
						{
							"internalType": "uint256",
							"name": "",
							"type": "uint256"
						}
					],
					"stateMutability": "view",
					"type": "function"
				},
				{
					"inputs": [],
					"name": "totalAllocated",
					"outputs": [
						{
							"internalType": "uint256",
							"name": "",
							"type": "uint256"
						}
					],
					"stateMutability": "view",
					"type": "function"
				},
				{
					"inputs": [],
					"name": "totalRegisteredAddresses",
					"outputs": [
						{
							"internalType": "uint256",
							"name": "",
							"type": "uint256"
						}
					],
					"stateMutability": "view",
					"type": "function"
				},
				{
					"inputs": [
						{
							"internalType": "address",
							"name": "newOwner",
							"type": "address"
						}
					],
					"name": "transferOwnership",
					"outputs": [],
					"stateMutability": "nonpayable",
					"type": "function"
				},
				{
					"inputs": [],
					"name": "withdrawApprovalFees",
					"outputs": [],
					"stateMutability": "nonpayable",
					"type": "function"
				}
			],
			"devdoc": {
				"errors": {
					"OwnableInvalidOwner(address)": [
						{
							"details": "The owner is not a valid owner account. (eg. `address(0)`)"
						}
					],
					"OwnableUnauthorizedAccount(address)": [
						{
							"details": "The caller account is not authorized to perform an operation."
						}
					],
					"SafeERC20FailedOperation(address)": [
						{
							"details": "An operation with an ERC-20 token failed."
						}
					]
				},
				"kind": "dev",
				"methods": {
					"addClaimableBatch(address[],uint256[])": {
						"params": {
							"_accounts": "List of addresses eligible for claims.",
							"_amounts": "Corresponding token amounts (without decimals) each address can claim."
						}
					},
					"canClaim(address)": {
						"params": {
							"_account": "Address to query."
						}
					},
					"constructor": {
						"details": "Constructor: sets the token to be used and configures the owner.",
						"params": {
							"_token": "Address of the ERC20/BEP20 token contract."
						}
					},
					"depositTokens(uint256)": {
						"params": {
							"_amount": "Amount of tokens to deposit."
						}
					},
					"getClaimableBalance(address)": {
						"params": {
							"_account": "Address to query."
						}
					},
					"getTotalClaimed(address)": {
						"params": {
							"_account": "Address to query."
						}
					},
					"owner()": {
						"details": "Returns the address of the current owner."
					},
					"renounceOwnership()": {
						"details": "Leaves the contract without owner. It will not be possible to call `onlyOwner` functions. Can only be called by the current owner. NOTE: Renouncing ownership will leave the contract without an owner, thereby disabling any functionality that is only available to the owner."
					},
					"setClaimApprovalFee(uint256)": {
						"params": {
							"_fee": "Fee amount in WEI."
						}
					},
					"setClaimBlockedForAddress(address,bool)": {
						"params": {
							"_account": "Address to be blocked/unblocked.",
							"_blocked": "Boolean indicating whether the claim is blocked (true) or unblocked (false)."
						}
					},
					"transferOwnership(address)": {
						"details": "Transfers ownership of the contract to a new account (`newOwner`). Can only be called by the current owner."
					}
				},
				"title": "FVCKCLAIM",
				"version": 1
			},
			"evm": {
				"assembly": "    /* \"ClaimFVCK.sol\":551:9949  contract FvckClaim is Ownable, ReentrancyGuard {... */\n  mstore(0x40, 0xa0)\n    /* \"ClaimFVCK.sol\":1638:1646  10 ** 18 */\n  0x0de0b6b3a7640000\n    /* \"ClaimFVCK.sol\":1723:1729  500000 */\n  0x07a120\n    /* \"ClaimFVCK.sol\":1723:1751  500000 * DECIMALS_MULTIPLIER */\n  tag_1\n  swap2\n  swap1\n  tag_2\n  jump\t// in\ntag_1:\n    /* \"ClaimFVCK.sol\":1682:1751  uint256 public maxAllocationPerAddress = 500000 * DECIMALS_MULTIPLIER */\n  0x0b\n  sstore\n    /* \"ClaimFVCK.sol\":1915:1922  1 weeks */\n  0x093a80\n    /* \"ClaimFVCK.sol\":1872:1922  uint256 public emergencyWithdrawCooldown = 1 weeks */\n  0x0d\n  sstore\n    /* \"ClaimFVCK.sol\":2869:3042  constructor(IERC20 _token) Ownable(msg.sender) {... */\n  callvalue\n  dup1\n  iszero\n  tag_3\n  jumpi\n  revert(0x00, 0x00)\ntag_3:\n  pop\n  mload(0x40)\n  sub(codesize, bytecodeSize)\n  dup1\n  bytecodeSize\n  dup4\n  codecopy\n  dup2\n  dup2\n  add\n  0x40\n  mstore\n  dup2\n  add\n  swap1\n  tag_4\n  swap2\n  swap1\n  tag_5\n  jump\t// in\ntag_4:\n    /* \"ClaimFVCK.sol\":2904:2914  msg.sender */\n  caller\n    /* \"@openzeppelin/contracts/access/Ownable.sol\":1297:1298  0 */\n  0x00\n    /* \"@openzeppelin/contracts/access/Ownable.sol\":1273:1299  initialOwner == address(0) */\n  0xffffffffffffffffffffffffffffffffffffffff\n  and\n    /* \"@openzeppelin/contracts/access/Ownable.sol\":1273:1285  initialOwner */\n  dup2\n    /* \"@openzeppelin/contracts/access/Ownable.sol\":1273:1299  initialOwner == address(0) */\n  0xffffffffffffffffffffffffffffffffffffffff\n  and\n  sub\n    /* \"@openzeppelin/contracts/access/Ownable.sol\":1269:1364  if (initialOwner == address(0)) {... */\n  tag_10\n  jumpi\n    /* \"@openzeppelin/contracts/access/Ownable.sol\":1350:1351  0 */\n  0x00\n    /* \"@openzeppelin/contracts/access/Ownable.sol\":1322:1353  OwnableInvalidOwner(address(0)) */\n  mload(0x40)\n  0x1e4fbdf700000000000000000000000000000000000000000000000000000000\n  dup2\n  mstore\n  0x04\n  add\n  tag_11\n  swap2\n  swap1\n  tag_12\n  jump\t// in\ntag_11:\n  mload(0x40)\n  dup1\n  swap2\n  sub\n  swap1\n  revert\n    /* \"@openzeppelin/contracts/access/Ownable.sol\":1269:1364  if (initialOwner == address(0)) {... */\ntag_10:\n    /* \"@openzeppelin/contracts/access/Ownable.sol\":1373:1405  _transferOwnership(initialOwner) */\n  tag_13\n    /* \"@openzeppelin/contracts/access/Ownable.sol\":1392:1404  initialOwner */\n  dup2\n    /* \"@openzeppelin/contracts/access/Ownable.sol\":1373:1391  _transferOwnership */\n  shl(0x20, tag_14)\n    /* \"@openzeppelin/contracts/access/Ownable.sol\":1373:1405  _transferOwnership(initialOwner) */\n  0x20\n  shr\n  jump\t// in\ntag_13:\n    /* \"@openzeppelin/contracts/access/Ownable.sol\":1225:1412  constructor(address initialOwner) {... */\n  pop\n    /* \"@openzeppelin/contracts/security/ReentrancyGuard.sol\":1716:1717  1 */\n  0x01\n    /* \"@openzeppelin/contracts/security/ReentrancyGuard.sol\":1821:1828  _status */\n  dup1\n    /* \"@openzeppelin/contracts/security/ReentrancyGuard.sol\":1821:1843  _status = _NOT_ENTERED */\n  dup2\n  swap1\n  sstore\n  pop\n    /* \"ClaimFVCK.sol\":2961:2962  0 */\n  0x00\n    /* \"ClaimFVCK.sol\":2934:2963  address(_token) != address(0) */\n  0xffffffffffffffffffffffffffffffffffffffff\n  and\n    /* \"ClaimFVCK.sol\":2942:2948  _token */\n  dup2\n    /* \"ClaimFVCK.sol\":2934:2963  address(_token) != address(0) */\n  0xffffffffffffffffffffffffffffffffffffffff\n  and\n  sub\n    /* \"ClaimFVCK.sol\":2926:2981  require(address(_token) != address(0), \"Invalid token\") */\n  tag_17\n  jumpi\n  mload(0x40)\n  0x08c379a000000000000000000000000000000000000000000000000000000000\n  dup2\n  mstore\n  0x04\n  add\n  tag_18\n  swap1\n  tag_19\n  jump\t// in\ntag_18:\n  mload(0x40)\n  dup1\n  swap2\n  sub\n  swap1\n  revert\ntag_17:\n    /* \"ClaimFVCK.sol\":2999:3005  _token */\n  dup1\n    /* \"ClaimFVCK.sol\":2991:3005  token = _token */\n  0xffffffffffffffffffffffffffffffffffffffff\n  and\n  0x80\n  dup2\n  0xffffffffffffffffffffffffffffffffffffffff\n  and\n  dup2\n  mstore\n  pop\n  pop\n    /* \"ClaimFVCK.sol\":3030:3035  false */\n  0x00\n    /* \"ClaimFVCK.sol\":3015:3027  claimEnabled */\n  0x02\n  0x00\n    /* \"ClaimFVCK.sol\":3015:3035  claimEnabled = false */\n  0x0100\n  exp\n  dup2\n  sload\n  dup2\n  0xff\n  mul\n  not\n  and\n  swap1\n  dup4\n  iszero\n  iszero\n  mul\n  or\n  swap1\n  sstore\n  pop\n    /* \"ClaimFVCK.sol\":2869:3042  constructor(IERC20 _token) Ownable(msg.sender) {... */\n  pop\n    /* \"ClaimFVCK.sol\":551:9949  contract FvckClaim is Ownable, ReentrancyGuard {... */\n  jump(tag_20)\n    /* \"@openzeppelin/contracts/access/Ownable.sol\":2912:3099  function _transferOwnership(address newOwner) internal virtual {... */\ntag_14:\n    /* \"@openzeppelin/contracts/access/Ownable.sol\":2985:3001  address oldOwner */\n  0x00\n    /* \"@openzeppelin/contracts/access/Ownable.sol\":3004:3010  _owner */\n  0x00\n  0x00\n  swap1\n  sload\n  swap1\n  0x0100\n  exp\n  swap1\n  div\n  0xffffffffffffffffffffffffffffffffffffffff\n  and\n    /* \"@openzeppelin/contracts/access/Ownable.sol\":2985:3010  address oldOwner = _owner */\n  swap1\n  pop\n    /* \"@openzeppelin/contracts/access/Ownable.sol\":3029:3037  newOwner */\n  dup2\n    /* \"@openzeppelin/contracts/access/Ownable.sol\":3020:3026  _owner */\n  0x00\n  0x00\n    /* \"@openzeppelin/contracts/access/Ownable.sol\":3020:3037  _owner = newOwner */\n  0x0100\n  exp\n  dup2\n  sload\n  dup2\n  0xffffffffffffffffffffffffffffffffffffffff\n  mul\n  not\n  and\n  swap1\n  dup4\n  0xffffffffffffffffffffffffffffffffffffffff\n  and\n  mul\n  or\n  swap1\n  sstore\n  pop\n    /* \"@openzeppelin/contracts/access/Ownable.sol\":3083:3091  newOwner */\n  dup2\n    /* \"@openzeppelin/contracts/access/Ownable.sol\":3052:3092  OwnershipTransferred(oldOwner, newOwner) */\n  0xffffffffffffffffffffffffffffffffffffffff\n  and\n    /* \"@openzeppelin/contracts/access/Ownable.sol\":3073:3081  oldOwner */\n  dup2\n    /* \"@openzeppelin/contracts/access/Ownable.sol\":3052:3092  OwnershipTransferred(oldOwner, newOwner) */\n  0xffffffffffffffffffffffffffffffffffffffff\n  and\n  0x8be0079c531659141344cd1fd0a4f28419497f9722a3daafe3b4186f6b6457e0\n  mload(0x40)\n  mload(0x40)\n  dup1\n  swap2\n  sub\n  swap1\n  log3\n    /* \"@openzeppelin/contracts/access/Ownable.sol\":2975:3099  {... */\n  pop\n    /* \"@openzeppelin/contracts/access/Ownable.sol\":2912:3099  function _transferOwnership(address newOwner) internal virtual {... */\n  pop\n  jump\t// out\n    /* \"#utility.yul\":7:84   */\ntag_22:\n    /* \"#utility.yul\":44:51   */\n  0x00\n    /* \"#utility.yul\":73:78   */\n  dup2\n    /* \"#utility.yul\":62:78   */\n  swap1\n  pop\n    /* \"#utility.yul\":7:84   */\n  swap2\n  swap1\n  pop\n  jump\t// out\n    /* \"#utility.yul\":90:270   */\ntag_23:\n    /* \"#utility.yul\":138:215   */\n  0x4e487b7100000000000000000000000000000000000000000000000000000000\n    /* \"#utility.yul\":135:136   */\n  0x00\n    /* \"#utility.yul\":128:216   */\n  mstore\n    /* \"#utility.yul\":235:239   */\n  0x11\n    /* \"#utility.yul\":232:233   */\n  0x04\n    /* \"#utility.yul\":225:240   */\n  mstore\n    /* \"#utility.yul\":259:263   */\n  0x24\n    /* \"#utility.yul\":256:257   */\n  0x00\n    /* \"#utility.yul\":249:264   */\n  revert\n    /* \"#utility.yul\":276:686   */\ntag_2:\n    /* \"#utility.yul\":316:323   */\n  0x00\n    /* \"#utility.yul\":339:359   */\n  tag_40\n    /* \"#utility.yul\":357:358   */\n  dup3\n    /* \"#utility.yul\":339:359   */\n  tag_22\n  jump\t// in\ntag_40:\n    /* \"#utility.yul\":334:359   */\n  swap2\n  pop\n    /* \"#utility.yul\":373:393   */\n  tag_41\n    /* \"#utility.yul\":391:392   */\n  dup4\n    /* \"#utility.yul\":373:393   */\n  tag_22\n  jump\t// in\ntag_41:\n    /* \"#utility.yul\":368:393   */\n  swap3\n  pop\n    /* \"#utility.yul\":428:429   */\n  dup3\n    /* \"#utility.yul\":425:426   */\n  dup3\n    /* \"#utility.yul\":421:430   */\n  mul\n    /* \"#utility.yul\":450:480   */\n  tag_42\n    /* \"#utility.yul\":468:479   */\n  dup2\n    /* \"#utility.yul\":450:480   */\n  tag_22\n  jump\t// in\ntag_42:\n    /* \"#utility.yul\":439:480   */\n  swap2\n  pop\n    /* \"#utility.yul\":629:630   */\n  dup3\n    /* \"#utility.yul\":620:627   */\n  dup3\n    /* \"#utility.yul\":616:631   */\n  div\n    /* \"#utility.yul\":613:614   */\n  dup5\n    /* \"#utility.yul\":610:632   */\n  eq\n    /* \"#utility.yul\":590:591   */\n  dup4\n    /* \"#utility.yul\":583:592   */\n  iszero\n    /* \"#utility.yul\":563:646   */\n  or\n    /* \"#utility.yul\":540:679   */\n  tag_43\n  jumpi\n    /* \"#utility.yul\":659:677   */\n  tag_44\n  tag_23\n  jump\t// in\ntag_44:\n    /* \"#utility.yul\":540:679   */\ntag_43:\n    /* \"#utility.yul\":324:686   */\n  pop\n    /* \"#utility.yul\":276:686   */\n  swap3\n  swap2\n  pop\n  pop\n  jump\t// out\n    /* \"#utility.yul\":773:890   */\ntag_25:\n    /* \"#utility.yul\":882:883   */\n  0x00\n    /* \"#utility.yul\":879:880   */\n  0x00\n    /* \"#utility.yul\":872:884   */\n  revert\n    /* \"#utility.yul\":1019:1145   */\ntag_27:\n    /* \"#utility.yul\":1056:1063   */\n  0x00\n    /* \"#utility.yul\":1096:1138   */\n  0xffffffffffffffffffffffffffffffffffffffff\n    /* \"#utility.yul\":1089:1094   */\n  dup3\n    /* \"#utility.yul\":1085:1139   */\n  and\n    /* \"#utility.yul\":1074:1139   */\n  swap1\n  pop\n    /* \"#utility.yul\":1019:1145   */\n  swap2\n  swap1\n  pop\n  jump\t// out\n    /* \"#utility.yul\":1151:1247   */\ntag_28:\n    /* \"#utility.yul\":1188:1195   */\n  0x00\n    /* \"#utility.yul\":1217:1241   */\n  tag_50\n    /* \"#utility.yul\":1235:1240   */\n  dup3\n    /* \"#utility.yul\":1217:1241   */\n  tag_27\n  jump\t// in\ntag_50:\n    /* \"#utility.yul\":1206:1241   */\n  swap1\n  pop\n    /* \"#utility.yul\":1151:1247   */\n  swap2\n  swap1\n  pop\n  jump\t// out\n    /* \"#utility.yul\":1253:1363   */\ntag_29:\n    /* \"#utility.yul\":1304:1311   */\n  0x00\n    /* \"#utility.yul\":1333:1357   */\n  tag_52\n    /* \"#utility.yul\":1351:1356   */\n  dup3\n    /* \"#utility.yul\":1333:1357   */\n  tag_28\n  jump\t// in\ntag_52:\n    /* \"#utility.yul\":1322:1357   */\n  swap1\n  pop\n    /* \"#utility.yul\":1253:1363   */\n  swap2\n  swap1\n  pop\n  jump\t// out\n    /* \"#utility.yul\":1369:1519   */\ntag_30:\n    /* \"#utility.yul\":1456:1494   */\n  tag_54\n    /* \"#utility.yul\":1488:1493   */\n  dup2\n    /* \"#utility.yul\":1456:1494   */\n  tag_29\n  jump\t// in\ntag_54:\n    /* \"#utility.yul\":1449:1454   */\n  dup2\n    /* \"#utility.yul\":1446:1495   */\n  eq\n    /* \"#utility.yul\":1436:1513   */\n  tag_55\n  jumpi\n    /* \"#utility.yul\":1509:1510   */\n  0x00\n    /* \"#utility.yul\":1506:1507   */\n  0x00\n    /* \"#utility.yul\":1499:1511   */\n  revert\n    /* \"#utility.yul\":1436:1513   */\ntag_55:\n    /* \"#utility.yul\":1369:1519   */\n  pop\n  jump\t// out\n    /* \"#utility.yul\":1525:1696   */\ntag_31:\n    /* \"#utility.yul\":1596:1601   */\n  0x00\n    /* \"#utility.yul\":1627:1633   */\n  dup2\n    /* \"#utility.yul\":1621:1634   */\n  mload\n    /* \"#utility.yul\":1612:1634   */\n  swap1\n  pop\n    /* \"#utility.yul\":1643:1690   */\n  tag_57\n    /* \"#utility.yul\":1684:1689   */\n  dup2\n    /* \"#utility.yul\":1643:1690   */\n  tag_30\n  jump\t// in\ntag_57:\n    /* \"#utility.yul\":1525:1696   */\n  swap3\n  swap2\n  pop\n  pop\n  jump\t// out\n    /* \"#utility.yul\":1702:2081   */\ntag_5:\n    /* \"#utility.yul\":1786:1792   */\n  0x00\n    /* \"#utility.yul\":1835:1837   */\n  0x20\n    /* \"#utility.yul\":1823:1832   */\n  dup3\n    /* \"#utility.yul\":1814:1821   */\n  dup5\n    /* \"#utility.yul\":1810:1833   */\n  sub\n    /* \"#utility.yul\":1806:1838   */\n  slt\n    /* \"#utility.yul\":1803:1922   */\n  iszero\n  tag_59\n  jumpi\n    /* \"#utility.yul\":1841:1920   */\n  tag_60\n  tag_25\n  jump\t// in\ntag_60:\n    /* \"#utility.yul\":1803:1922   */\ntag_59:\n    /* \"#utility.yul\":1961:1962   */\n  0x00\n    /* \"#utility.yul\":1986:2064   */\n  tag_61\n    /* \"#utility.yul\":2056:2063   */\n  dup5\n    /* \"#utility.yul\":2047:2053   */\n  dup3\n    /* \"#utility.yul\":2036:2045   */\n  dup6\n    /* \"#utility.yul\":2032:2054   */\n  add\n    /* \"#utility.yul\":1986:2064   */\n  tag_31\n  jump\t// in\ntag_61:\n    /* \"#utility.yul\":1976:2064   */\n  swap2\n  pop\n    /* \"#utility.yul\":1932:2074   */\n  pop\n    /* \"#utility.yul\":1702:2081   */\n  swap3\n  swap2\n  pop\n  pop\n  jump\t// out\n    /* \"#utility.yul\":2087:2205   */\ntag_32:\n    /* \"#utility.yul\":2174:2198   */\n  tag_63\n    /* \"#utility.yul\":2192:2197   */\n  dup2\n    /* \"#utility.yul\":2174:2198   */\n  tag_28\n  jump\t// in\ntag_63:\n    /* \"#utility.yul\":2169:2172   */\n  dup3\n    /* \"#utility.yul\":2162:2199   */\n  mstore\n    /* \"#utility.yul\":2087:2205   */\n  pop\n  pop\n  jump\t// out\n    /* \"#utility.yul\":2211:2433   */\ntag_12:\n    /* \"#utility.yul\":2304:2308   */\n  0x00\n    /* \"#utility.yul\":2342:2344   */\n  0x20\n    /* \"#utility.yul\":2331:2340   */\n  dup3\n    /* \"#utility.yul\":2327:2345   */\n  add\n    /* \"#utility.yul\":2319:2345   */\n  swap1\n  pop\n    /* \"#utility.yul\":2355:2426   */\n  tag_65\n    /* \"#utility.yul\":2423:2424   */\n  0x00\n    /* \"#utility.yul\":2412:2421   */\n  dup4\n    /* \"#utility.yul\":2408:2425   */\n  add\n    /* \"#utility.yul\":2399:2405   */\n  dup5\n    /* \"#utility.yul\":2355:2426   */\n  tag_32\n  jump\t// in\ntag_65:\n    /* \"#utility.yul\":2211:2433   */\n  swap3\n  swap2\n  pop\n  pop\n  jump\t// out\n    /* \"#utility.yul\":2439:2608   */\ntag_33:\n    /* \"#utility.yul\":2523:2534   */\n  0x00\n    /* \"#utility.yul\":2557:2563   */\n  dup3\n    /* \"#utility.yul\":2552:2555   */\n  dup3\n    /* \"#utility.yul\":2545:2564   */\n  mstore\n    /* \"#utility.yul\":2597:2601   */\n  0x20\n    /* \"#utility.yul\":2592:2595   */\n  dup3\n    /* \"#utility.yul\":2588:2602   */\n  add\n    /* \"#utility.yul\":2573:2602   */\n  swap1\n  pop\n    /* \"#utility.yul\":2439:2608   */\n  swap3\n  swap2\n  pop\n  pop\n  jump\t// out\n    /* \"#utility.yul\":2614:2777   */\ntag_34:\n    /* \"#utility.yul\":2754:2769   */\n  0x496e76616c696420746f6b656e00000000000000000000000000000000000000\n    /* \"#utility.yul\":2750:2751   */\n  0x00\n    /* \"#utility.yul\":2742:2748   */\n  dup3\n    /* \"#utility.yul\":2738:2752   */\n  add\n    /* \"#utility.yul\":2731:2770   */\n  mstore\n    /* \"#utility.yul\":2614:2777   */\n  pop\n  jump\t// out\n    /* \"#utility.yul\":2783:3149   */\ntag_35:\n    /* \"#utility.yul\":2925:2928   */\n  0x00\n    /* \"#utility.yul\":2946:3013   */\n  tag_69\n    /* \"#utility.yul\":3010:3012   */\n  0x0d\n    /* \"#utility.yul\":3005:3008   */\n  dup4\n    /* \"#utility.yul\":2946:3013   */\n  tag_33\n  jump\t// in\ntag_69:\n    /* \"#utility.yul\":2939:3013   */\n  swap2\n  pop\n    /* \"#utility.yul\":3022:3115   */\n  tag_70\n    /* \"#utility.yul\":3111:3114   */\n  dup3\n    /* \"#utility.yul\":3022:3115   */\n  tag_34\n  jump\t// in\ntag_70:\n    /* \"#utility.yul\":3140:3142   */\n  0x20\n    /* \"#utility.yul\":3135:3138   */\n  dup3\n    /* \"#utility.yul\":3131:3143   */\n  add\n    /* \"#utility.yul\":3124:3143   */\n  swap1\n  pop\n    /* \"#utility.yul\":2783:3149   */\n  swap2\n  swap1\n  pop\n  jump\t// out\n    /* \"#utility.yul\":3155:3574   */\ntag_19:\n    /* \"#utility.yul\":3321:3325   */\n  0x00\n    /* \"#utility.yul\":3359:3361   */\n  0x20\n    /* \"#utility.yul\":3348:3357   */\n  dup3\n    /* \"#utility.yul\":3344:3362   */\n  add\n    /* \"#utility.yul\":3336:3362   */\n  swap1\n  pop\n    /* \"#utility.yul\":3408:3417   */\n  dup2\n    /* \"#utility.yul\":3402:3406   */\n  dup2\n    /* \"#utility.yul\":3398:3418   */\n  sub\n    /* \"#utility.yul\":3394:3395   */\n  0x00\n    /* \"#utility.yul\":3383:3392   */\n  dup4\n    /* \"#utility.yul\":3379:3396   */\n  add\n    /* \"#utility.yul\":3372:3419   */\n  mstore\n    /* \"#utility.yul\":3436:3567   */\n  tag_72\n    /* \"#utility.yul\":3562:3566   */\n  dup2\n    /* \"#utility.yul\":3436:3567   */\n  tag_35\n  jump\t// in\ntag_72:\n    /* \"#utility.yul\":3428:3567   */\n  swap1\n  pop\n    /* \"#utility.yul\":3155:3574   */\n  swap2\n  swap1\n  pop\n  jump\t// out\n    /* \"ClaimFVCK.sol\":551:9949  contract FvckClaim is Ownable, ReentrancyGuard {... */\ntag_20:\n  mload(0x80)\n  codecopy(0x00, dataOffset(sub_0), dataSize(sub_0))\n  0x00\n  assignImmutable(\"0x755086c717cb5d158287af515dd799b5ec7f30c3baee71f20accbab571e166d5\")\n  return(0x00, dataSize(sub_0))\nstop\n\nsub_0: assembly {\n        /* \"ClaimFVCK.sol\":551:9949  contract FvckClaim is Ownable, ReentrancyGuard {... */\n      mstore(0x40, 0x80)\n      jumpi(tag_1, lt(calldatasize, 0x04))\n      shr(0xe0, calldataload(0x00))\n      dup1\n      0x8f060da9\n      gt\n      tag_30\n      jumpi\n      dup1\n      0xd7bebac0\n      gt\n      tag_31\n      jumpi\n      dup1\n      0xe1413163\n      gt\n      tag_32\n      jumpi\n      dup1\n      0xe1413163\n      eq\n      tag_26\n      jumpi\n      dup1\n      0xe1ffba62\n      eq\n      tag_27\n      jumpi\n      dup1\n      0xf2fde38b\n      eq\n      tag_28\n      jumpi\n      dup1\n      0xfc0c546a\n      eq\n      tag_29\n      jumpi\n      jump(tag_1)\n    tag_32:\n      dup1\n      0xd7bebac0\n      eq\n      tag_23\n      jumpi\n      dup1\n      0xdb2e21bc\n      eq\n      tag_24\n      jumpi\n      dup1\n      0xdd49756e\n      eq\n      tag_25\n      jumpi\n      jump(tag_1)\n    tag_31:\n      dup1\n      0x9e9aed62\n      gt\n      tag_33\n      jumpi\n      dup1\n      0x9e9aed62\n      eq\n      tag_19\n      jumpi\n      dup1\n      0xa0470cb4\n      eq\n      tag_20\n      jumpi\n      dup1\n      0xbf3506c1\n      eq\n      tag_21\n      jumpi\n      dup1\n      0xc59d4847\n      eq\n      tag_22\n      jumpi\n      jump(tag_1)\n    tag_33:\n      dup1\n      0x8f060da9\n      eq\n      tag_16\n      jumpi\n      dup1\n      0x92929a09\n      eq\n      tag_17\n      jumpi\n      dup1\n      0x94192b9f\n      eq\n      tag_18\n      jumpi\n      jump(tag_1)\n    tag_30:\n      dup1\n      0x45f7f249\n      gt\n      tag_34\n      jumpi\n      dup1\n      0x6104f4b5\n      gt\n      tag_35\n      jumpi\n      dup1\n      0x6104f4b5\n      eq\n      tag_12\n      jumpi\n      dup1\n      0x715018a6\n      eq\n      tag_13\n      jumpi\n      dup1\n      0x86e755c6\n      eq\n      tag_14\n      jumpi\n      dup1\n      0x8da5cb5b\n      eq\n      tag_15\n      jumpi\n      jump(tag_1)\n    tag_35:\n      dup1\n      0x45f7f249\n      eq\n      tag_9\n      jumpi\n      dup1\n      0x4e71d92d\n      eq\n      tag_10\n      jumpi\n      dup1\n      0x522bf1d4\n      eq\n      tag_11\n      jumpi\n      jump(tag_1)\n    tag_34:\n      dup1\n      0x26155e53\n      gt\n      tag_36\n      jumpi\n      dup1\n      0x26155e53\n      eq\n      tag_5\n      jumpi\n      dup1\n      0x28607bc6\n      eq\n      tag_6\n      jumpi\n      dup1\n      0x2866ed21\n      eq\n      tag_7\n      jumpi\n      dup1\n      0x2bb2ed39\n      eq\n      tag_8\n      jumpi\n      jump(tag_1)\n    tag_36:\n      dup1\n      0x06def802\n      eq\n      tag_2\n      jumpi\n      dup1\n      0x1f322564\n      eq\n      tag_3\n      jumpi\n      dup1\n      0x2019ddf8\n      eq\n      tag_4\n      jumpi\n    tag_1:\n      revert(0x00, 0x00)\n        /* \"ClaimFVCK.sol\":8632:8762  function getClaimableBalance(address _account) external view returns (uint256) {... */\n    tag_2:\n      callvalue\n      dup1\n      iszero\n      tag_37\n      jumpi\n      revert(0x00, 0x00)\n    tag_37:\n      pop\n      tag_38\n      0x04\n      dup1\n      calldatasize\n      sub\n      dup2\n      add\n      swap1\n      tag_39\n      swap2\n      swap1\n      tag_40\n      jump\t// in\n    tag_39:\n      tag_41\n      jump\t// in\n    tag_38:\n      mload(0x40)\n      tag_42\n      swap2\n      swap1\n      tag_43\n      jump\t// in\n    tag_42:\n      mload(0x40)\n      dup1\n      swap2\n      sub\n      swap1\n      return\n        /* \"ClaimFVCK.sol\":2007:2038  uint256 public claimApprovalFee */\n    tag_3:\n      callvalue\n      dup1\n      iszero\n      tag_44\n      jumpi\n      revert(0x00, 0x00)\n    tag_44:\n      pop\n      tag_45\n      tag_46\n      jump\t// in\n    tag_45:\n      mload(0x40)\n      tag_47\n      swap2\n      swap1\n      tag_43\n      jump\t// in\n    tag_47:\n      mload(0x40)\n      dup1\n      swap2\n      sub\n      swap1\n      return\n        /* \"ClaimFVCK.sol\":4144:4338  function setClaimBlockedForAddress(address _account, bool _blocked) external onlyOwner {... */\n    tag_4:\n      callvalue\n      dup1\n      iszero\n      tag_48\n      jumpi\n      revert(0x00, 0x00)\n    tag_48:\n      pop\n      tag_49\n      0x04\n      dup1\n      calldatasize\n      sub\n      dup2\n      add\n      swap1\n      tag_50\n      swap2\n      swap1\n      tag_51\n      jump\t// in\n    tag_50:\n      tag_52\n      jump\t// in\n    tag_49:\n      stop\n        /* \"ClaimFVCK.sol\":1791:1827  uint256 public lastEmergencyWithdraw */\n    tag_5:\n      callvalue\n      dup1\n      iszero\n      tag_53\n      jumpi\n      revert(0x00, 0x00)\n    tag_53:\n      pop\n      tag_54\n      tag_55\n      jump\t// in\n    tag_54:\n      mload(0x40)\n      tag_56\n      swap2\n      swap1\n      tag_43\n      jump\t// in\n    tag_56:\n      mload(0x40)\n      dup1\n      swap2\n      sub\n      swap1\n      return\n        /* \"ClaimFVCK.sol\":1872:1922  uint256 public emergencyWithdrawCooldown = 1 weeks */\n    tag_6:\n      callvalue\n      dup1\n      iszero\n      tag_57\n      jumpi\n      revert(0x00, 0x00)\n    tag_57:\n      pop\n      tag_58\n      tag_59\n      jump\t// in\n    tag_58:\n      mload(0x40)\n      tag_60\n      swap2\n      swap1\n      tag_43\n      jump\t// in\n    tag_60:\n      mload(0x40)\n      dup1\n      swap2\n      sub\n      swap1\n      return\n        /* \"ClaimFVCK.sol\":787:811  bool public claimEnabled */\n    tag_7:\n      callvalue\n      dup1\n      iszero\n      tag_61\n      jumpi\n      revert(0x00, 0x00)\n    tag_61:\n      pop\n      tag_62\n      tag_63\n      jump\t// in\n    tag_62:\n      mload(0x40)\n      tag_64\n      swap2\n      swap1\n      tag_65\n      jump\t// in\n    tag_64:\n      mload(0x40)\n      dup1\n      swap2\n      sub\n      swap1\n      return\n        /* \"ClaimFVCK.sol\":1343:1379  uint256 public totalAddressesClaimed */\n    tag_8:\n      callvalue\n      dup1\n      iszero\n      tag_66\n      jumpi\n      revert(0x00, 0x00)\n    tag_66:\n      pop\n      tag_67\n      tag_68\n      jump\t// in\n    tag_67:\n      mload(0x40)\n      tag_69\n      swap2\n      swap1\n      tag_43\n      jump\t// in\n    tag_69:\n      mload(0x40)\n      dup1\n      swap2\n      sub\n      swap1\n      return\n        /* \"ClaimFVCK.sol\":1417:1446  uint256 public totalAllocated */\n    tag_9:\n      callvalue\n      dup1\n      iszero\n      tag_70\n      jumpi\n      revert(0x00, 0x00)\n    tag_70:\n      pop\n      tag_71\n      tag_72\n      jump\t// in\n    tag_71:\n      mload(0x40)\n      tag_73\n      swap2\n      swap1\n      tag_43\n      jump\t// in\n    tag_73:\n      mload(0x40)\n      dup1\n      swap2\n      sub\n      swap1\n      return\n        /* \"ClaimFVCK.sol\":6590:7284  function claim() external nonReentrant {... */\n    tag_10:\n      callvalue\n      dup1\n      iszero\n      tag_74\n      jumpi\n      revert(0x00, 0x00)\n    tag_74:\n      pop\n      tag_75\n      tag_76\n      jump\t// in\n    tag_75:\n      stop\n        /* \"ClaimFVCK.sol\":8903:9027  function getTotalClaimed(address _account) external view returns (uint256) {... */\n    tag_11:\n      callvalue\n      dup1\n      iszero\n      tag_77\n      jumpi\n      revert(0x00, 0x00)\n    tag_77:\n      pop\n      tag_78\n      0x04\n      dup1\n      calldatasize\n      sub\n      dup2\n      add\n      swap1\n      tag_79\n      swap2\n      swap1\n      tag_40\n      jump\t// in\n    tag_79:\n      tag_80\n      jump\t// in\n    tag_78:\n      mload(0x40)\n      tag_81\n      swap2\n      swap1\n      tag_43\n      jump\t// in\n    tag_81:\n      mload(0x40)\n      dup1\n      swap2\n      sub\n      swap1\n      return\n        /* \"ClaimFVCK.sol\":1268:1307  uint256 public totalRegisteredAddresses */\n    tag_12:\n      callvalue\n      dup1\n      iszero\n      tag_82\n      jumpi\n      revert(0x00, 0x00)\n    tag_82:\n      pop\n      tag_83\n      tag_84\n      jump\t// in\n    tag_83:\n      mload(0x40)\n      tag_85\n      swap2\n      swap1\n      tag_43\n      jump\t// in\n    tag_85:\n      mload(0x40)\n      dup1\n      swap2\n      sub\n      swap1\n      return\n        /* \"@openzeppelin/contracts/access/Ownable.sol\":2293:2394  function renounceOwnership() public virtual onlyOwner {... */\n    tag_13:\n      callvalue\n      dup1\n      iszero\n      tag_86\n      jumpi\n      revert(0x00, 0x00)\n    tag_86:\n      pop\n      tag_87\n      tag_88\n      jump\t// in\n    tag_87:\n      stop\n        /* \"ClaimFVCK.sol\":1682:1751  uint256 public maxAllocationPerAddress = 500000 * DECIMALS_MULTIPLIER */\n    tag_14:\n      callvalue\n      dup1\n      iszero\n      tag_89\n      jumpi\n      revert(0x00, 0x00)\n    tag_89:\n      pop\n      tag_90\n      tag_91\n      jump\t// in\n    tag_90:\n      mload(0x40)\n      tag_92\n      swap2\n      swap1\n      tag_43\n      jump\t// in\n    tag_92:\n      mload(0x40)\n      dup1\n      swap2\n      sub\n      swap1\n      return\n        /* \"@openzeppelin/contracts/access/Ownable.sol\":1638:1723  function owner() public view virtual returns (address) {... */\n    tag_15:\n      callvalue\n      dup1\n      iszero\n      tag_93\n      jumpi\n      revert(0x00, 0x00)\n    tag_93:\n      pop\n      tag_94\n      tag_95\n      jump\t// in\n    tag_94:\n      mload(0x40)\n      tag_96\n      swap2\n      swap1\n      tag_97\n      jump\t// in\n    tag_96:\n      mload(0x40)\n      dup1\n      swap2\n      sub\n      swap1\n      return\n        /* \"ClaimFVCK.sol\":1075:1119  mapping(address => bool) public claimBlocked */\n    tag_16:\n      callvalue\n      dup1\n      iszero\n      tag_98\n      jumpi\n      revert(0x00, 0x00)\n    tag_98:\n      pop\n      tag_99\n      0x04\n      dup1\n      calldatasize\n      sub\n      dup2\n      add\n      swap1\n      tag_100\n      swap2\n      swap1\n      tag_40\n      jump\t// in\n    tag_100:\n      tag_101\n      jump\t// in\n    tag_99:\n      mload(0x40)\n      tag_102\n      swap2\n      swap1\n      tag_65\n      jump\t// in\n    tag_102:\n      mload(0x40)\n      dup1\n      swap2\n      sub\n      swap1\n      return\n        /* \"ClaimFVCK.sol\":3730:3866  function setClaimEnabled(bool _enabled) external onlyOwner {... */\n    tag_17:\n      callvalue\n      dup1\n      iszero\n      tag_103\n      jumpi\n      revert(0x00, 0x00)\n    tag_103:\n      pop\n      tag_104\n      0x04\n      dup1\n      calldatasize\n      sub\n      dup2\n      add\n      swap1\n      tag_105\n      swap2\n      swap1\n      tag_106\n      jump\t// in\n    tag_105:\n      tag_107\n      jump\t// in\n    tag_104:\n      stop\n        /* \"ClaimFVCK.sol\":1178:1226  mapping(address => bool) public approvedForClaim */\n    tag_18:\n      callvalue\n      dup1\n      iszero\n      tag_108\n      jumpi\n      revert(0x00, 0x00)\n    tag_108:\n      pop\n      tag_109\n      0x04\n      dup1\n      calldatasize\n      sub\n      dup2\n      add\n      swap1\n      tag_110\n      swap2\n      swap1\n      tag_40\n      jump\t// in\n    tag_110:\n      tag_111\n      jump\t// in\n    tag_109:\n      mload(0x40)\n      tag_112\n      swap2\n      swap1\n      tag_65\n      jump\t// in\n    tag_112:\n      mload(0x40)\n      dup1\n      swap2\n      sub\n      swap1\n      return\n        /* \"ClaimFVCK.sol\":7693:7809  function contractTokenBalance() public view returns (uint256) {... */\n    tag_19:\n      callvalue\n      dup1\n      iszero\n      tag_113\n      jumpi\n      revert(0x00, 0x00)\n    tag_113:\n      pop\n      tag_114\n      tag_115\n      jump\t// in\n    tag_114:\n      mload(0x40)\n      tag_116\n      swap2\n      swap1\n      tag_43\n      jump\t// in\n    tag_116:\n      mload(0x40)\n      dup1\n      swap2\n      sub\n      swap1\n      return\n        /* \"ClaimFVCK.sol\":3416:3621  function approveClaim() external payable {... */\n    tag_20:\n      tag_117\n      tag_118\n      jump\t// in\n    tag_117:\n      stop\n        /* \"ClaimFVCK.sol\":9157:9352  function canClaim(address _account) external view returns (bool) {... */\n    tag_21:\n      callvalue\n      dup1\n      iszero\n      tag_119\n      jumpi\n      revert(0x00, 0x00)\n    tag_119:\n      pop\n      tag_120\n      0x04\n      dup1\n      calldatasize\n      sub\n      dup2\n      add\n      swap1\n      tag_121\n      swap2\n      swap1\n      tag_40\n      jump\t// in\n    tag_121:\n      tag_122\n      jump\t// in\n    tag_120:\n      mload(0x40)\n      tag_123\n      swap2\n      swap1\n      tag_65\n      jump\t// in\n    tag_123:\n      mload(0x40)\n      dup1\n      swap2\n      sub\n      swap1\n      return\n        /* \"ClaimFVCK.sol\":9438:9947  function getStats()... */\n    tag_22:\n      callvalue\n      dup1\n      iszero\n      tag_124\n      jumpi\n      revert(0x00, 0x00)\n    tag_124:\n      pop\n      tag_125\n      tag_126\n      jump\t// in\n    tag_125:\n      mload(0x40)\n      tag_127\n      swap6\n      swap5\n      swap4\n      swap3\n      swap2\n      swap1\n      tag_128\n      jump\t// in\n    tag_127:\n      mload(0x40)\n      dup1\n      swap2\n      sub\n      swap1\n      return\n        /* \"ClaimFVCK.sol\":5125:6473  function addClaimableBatch(... */\n    tag_23:\n      callvalue\n      dup1\n      iszero\n      tag_129\n      jumpi\n      revert(0x00, 0x00)\n    tag_129:\n      pop\n      tag_130\n      0x04\n      dup1\n      calldatasize\n      sub\n      dup2\n      add\n      swap1\n      tag_131\n      swap2\n      swap1\n      tag_132\n      jump\t// in\n    tag_131:\n      tag_133\n      jump\t// in\n    tag_130:\n      stop\n        /* \"ClaimFVCK.sol\":7911:8418  function emergencyWithdraw() external onlyOwner nonReentrant {... */\n    tag_24:\n      callvalue\n      dup1\n      iszero\n      tag_134\n      jumpi\n      revert(0x00, 0x00)\n    tag_134:\n      pop\n      tag_135\n      tag_136\n      jump\t// in\n    tag_135:\n      stop\n        /* \"ClaimFVCK.sol\":4497:4838  function depositTokens(uint256 _amount) external onlyOwner {... */\n    tag_25:\n      callvalue\n      dup1\n      iszero\n      tag_137\n      jumpi\n      revert(0x00, 0x00)\n    tag_137:\n      pop\n      tag_138\n      0x04\n      dup1\n      calldatasize\n      sub\n      dup2\n      add\n      swap1\n      tag_139\n      swap2\n      swap1\n      tag_140\n      jump\t// in\n    tag_139:\n      tag_141\n      jump\t// in\n    tag_138:\n      stop\n        /* \"ClaimFVCK.sol\":7379:7607  function withdrawApprovalFees() external onlyOwner {... */\n    tag_26:\n      callvalue\n      dup1\n      iszero\n      tag_142\n      jumpi\n      revert(0x00, 0x00)\n    tag_142:\n      pop\n      tag_143\n      tag_144\n      jump\t// in\n    tag_143:\n      stop\n        /* \"ClaimFVCK.sol\":3165:3311  function setClaimApprovalFee(uint256 _fee) external onlyOwner {... */\n    tag_27:\n      callvalue\n      dup1\n      iszero\n      tag_145\n      jumpi\n      revert(0x00, 0x00)\n    tag_145:\n      pop\n      tag_146\n      0x04\n      dup1\n      calldatasize\n      sub\n      dup2\n      add\n      swap1\n      tag_147\n      swap2\n      swap1\n      tag_140\n      jump\t// in\n    tag_147:\n      tag_148\n      jump\t// in\n    tag_146:\n      stop\n        /* \"@openzeppelin/contracts/access/Ownable.sol\":2543:2758  function transferOwnership(address newOwner) public virtual onlyOwner {... */\n    tag_28:\n      callvalue\n      dup1\n      iszero\n      tag_149\n      jumpi\n      revert(0x00, 0x00)\n    tag_149:\n      pop\n      tag_150\n      0x04\n      dup1\n      calldatasize\n      sub\n      dup2\n      add\n      swap1\n      tag_151\n      swap2\n      swap1\n      tag_40\n      jump\t// in\n    tag_151:\n      tag_152\n      jump\t// in\n    tag_150:\n      stop\n        /* \"ClaimFVCK.sol\":696:725  IERC20 public immutable token */\n    tag_29:\n      callvalue\n      dup1\n      iszero\n      tag_153\n      jumpi\n      revert(0x00, 0x00)\n    tag_153:\n      pop\n      tag_154\n      tag_155\n      jump\t// in\n    tag_154:\n      mload(0x40)\n      tag_156\n      swap2\n      swap1\n      tag_157\n      jump\t// in\n    tag_156:\n      mload(0x40)\n      dup1\n      swap2\n      sub\n      swap1\n      return\n        /* \"ClaimFVCK.sol\":8632:8762  function getClaimableBalance(address _account) external view returns (uint256) {... */\n    tag_41:\n        /* \"ClaimFVCK.sol\":8702:8709  uint256 */\n      0x00\n        /* \"ClaimFVCK.sol\":8728:8745  claimableBalances */\n      0x03\n        /* \"ClaimFVCK.sol\":8728:8755  claimableBalances[_account] */\n      0x00\n        /* \"ClaimFVCK.sol\":8746:8754  _account */\n      dup4\n        /* \"ClaimFVCK.sol\":8728:8755  claimableBalances[_account] */\n      0xffffffffffffffffffffffffffffffffffffffff\n      and\n      0xffffffffffffffffffffffffffffffffffffffff\n      and\n      dup2\n      mstore\n      0x20\n      add\n      swap1\n      dup2\n      mstore\n      0x20\n      add\n      0x00\n      keccak256\n      sload\n        /* \"ClaimFVCK.sol\":8721:8755  return claimableBalances[_account] */\n      swap1\n      pop\n        /* \"ClaimFVCK.sol\":8632:8762  function getClaimableBalance(address _account) external view returns (uint256) {... */\n      swap2\n      swap1\n      pop\n      jump\t// out\n        /* \"ClaimFVCK.sol\":2007:2038  uint256 public claimApprovalFee */\n    tag_46:\n      sload(0x0e)\n      dup2\n      jump\t// out\n        /* \"ClaimFVCK.sol\":4144:4338  function setClaimBlockedForAddress(address _account, bool _blocked) external onlyOwner {... */\n    tag_52:\n        /* \"@openzeppelin/contracts/access/Ownable.sol\":1531:1544  _checkOwner() */\n      tag_160\n        /* \"@openzeppelin/contracts/access/Ownable.sol\":1531:1542  _checkOwner */\n      tag_161\n        /* \"@openzeppelin/contracts/access/Ownable.sol\":1531:1544  _checkOwner() */\n      jump\t// in\n    tag_160:\n        /* \"ClaimFVCK.sol\":4266:4274  _blocked */\n      dup1\n        /* \"ClaimFVCK.sol\":4241:4253  claimBlocked */\n      0x05\n        /* \"ClaimFVCK.sol\":4241:4263  claimBlocked[_account] */\n      0x00\n        /* \"ClaimFVCK.sol\":4254:4262  _account */\n      dup5\n        /* \"ClaimFVCK.sol\":4241:4263  claimBlocked[_account] */\n      0xffffffffffffffffffffffffffffffffffffffff\n      and\n      0xffffffffffffffffffffffffffffffffffffffff\n      and\n      dup2\n      mstore\n      0x20\n      add\n      swap1\n      dup2\n      mstore\n      0x20\n      add\n      0x00\n      keccak256\n      0x00\n        /* \"ClaimFVCK.sol\":4241:4274  claimBlocked[_account] = _blocked */\n      0x0100\n      exp\n      dup2\n      sload\n      dup2\n      0xff\n      mul\n      not\n      and\n      swap1\n      dup4\n      iszero\n      iszero\n      mul\n      or\n      swap1\n      sstore\n      pop\n        /* \"ClaimFVCK.sol\":4312:4320  _account */\n      dup2\n        /* \"ClaimFVCK.sol\":4289:4331  ClaimBlockedForAddress(_account, _blocked) */\n      0xffffffffffffffffffffffffffffffffffffffff\n      and\n      0x129e15046dd77be10c4cdac8841646b9f3b6d22a00544b93362e9b84c05e6960\n        /* \"ClaimFVCK.sol\":4322:4330  _blocked */\n      dup3\n        /* \"ClaimFVCK.sol\":4289:4331  ClaimBlockedForAddress(_account, _blocked) */\n      mload(0x40)\n      tag_163\n      swap2\n      swap1\n      tag_65\n      jump\t// in\n    tag_163:\n      mload(0x40)\n      dup1\n      swap2\n      sub\n      swap1\n      log2\n        /* \"ClaimFVCK.sol\":4144:4338  function setClaimBlockedForAddress(address _account, bool _blocked) external onlyOwner {... */\n      pop\n      pop\n      jump\t// out\n        /* \"ClaimFVCK.sol\":1791:1827  uint256 public lastEmergencyWithdraw */\n    tag_55:\n      sload(0x0c)\n      dup2\n      jump\t// out\n        /* \"ClaimFVCK.sol\":1872:1922  uint256 public emergencyWithdrawCooldown = 1 weeks */\n    tag_59:\n      sload(0x0d)\n      dup2\n      jump\t// out\n        /* \"ClaimFVCK.sol\":787:811  bool public claimEnabled */\n    tag_63:\n      0x02\n      0x00\n      swap1\n      sload\n      swap1\n      0x0100\n      exp\n      swap1\n      div\n      0xff\n      and\n      dup2\n      jump\t// out\n        /* \"ClaimFVCK.sol\":1343:1379  uint256 public totalAddressesClaimed */\n    tag_68:\n      sload(0x08)\n      dup2\n      jump\t// out\n        /* \"ClaimFVCK.sol\":1417:1446  uint256 public totalAllocated */\n    tag_72:\n      sload(0x09)\n      dup2\n      jump\t// out\n        /* \"ClaimFVCK.sol\":6590:7284  function claim() external nonReentrant {... */\n    tag_76:\n        /* \"@openzeppelin/contracts/security/ReentrancyGuard.sol\":2261:2282  _nonReentrantBefore() */\n      tag_165\n        /* \"@openzeppelin/contracts/security/ReentrancyGuard.sol\":2261:2280  _nonReentrantBefore */\n      tag_166\n        /* \"@openzeppelin/contracts/security/ReentrancyGuard.sol\":2261:2282  _nonReentrantBefore() */\n      jump\t// in\n    tag_165:\n        /* \"ClaimFVCK.sol\":6647:6659  claimEnabled */\n      0x02\n      0x00\n      swap1\n      sload\n      swap1\n      0x0100\n      exp\n      swap1\n      div\n      0xff\n      and\n        /* \"ClaimFVCK.sol\":6639:6681  require(claimEnabled, \"Claim not enabled\") */\n      tag_168\n      jumpi\n      mload(0x40)\n      0x08c379a000000000000000000000000000000000000000000000000000000000\n      dup2\n      mstore\n      0x04\n      add\n      tag_169\n      swap1\n      tag_170\n      jump\t// in\n    tag_169:\n      mload(0x40)\n      dup1\n      swap2\n      sub\n      swap1\n      revert\n    tag_168:\n        /* \"ClaimFVCK.sol\":6700:6712  claimBlocked */\n      0x05\n        /* \"ClaimFVCK.sol\":6700:6724  claimBlocked[msg.sender] */\n      0x00\n        /* \"ClaimFVCK.sol\":6713:6723  msg.sender */\n      caller\n        /* \"ClaimFVCK.sol\":6700:6724  claimBlocked[msg.sender] */\n      0xffffffffffffffffffffffffffffffffffffffff\n      and\n      0xffffffffffffffffffffffffffffffffffffffff\n      and\n      dup2\n      mstore\n      0x20\n      add\n      swap1\n      dup2\n      mstore\n      0x20\n      add\n      0x00\n      keccak256\n      0x00\n      swap1\n      sload\n      swap1\n      0x0100\n      exp\n      swap1\n      div\n      0xff\n      and\n        /* \"ClaimFVCK.sol\":6699:6724  !claimBlocked[msg.sender] */\n      iszero\n        /* \"ClaimFVCK.sol\":6691:6759  require(!claimBlocked[msg.sender], \"Claim blocked for this address\") */\n      tag_171\n      jumpi\n      mload(0x40)\n      0x08c379a000000000000000000000000000000000000000000000000000000000\n      dup2\n      mstore\n      0x04\n      add\n      tag_172\n      swap1\n      tag_173\n      jump\t// in\n    tag_172:\n      mload(0x40)\n      dup1\n      swap2\n      sub\n      swap1\n      revert\n    tag_171:\n        /* \"ClaimFVCK.sol\":6777:6793  approvedForClaim */\n      0x06\n        /* \"ClaimFVCK.sol\":6777:6805  approvedForClaim[msg.sender] */\n      0x00\n        /* \"ClaimFVCK.sol\":6794:6804  msg.sender */\n      caller\n        /* \"ClaimFVCK.sol\":6777:6805  approvedForClaim[msg.sender] */\n      0xffffffffffffffffffffffffffffffffffffffff\n      and\n      0xffffffffffffffffffffffffffffffffffffffff\n      and\n      dup2\n      mstore\n      0x20\n      add\n      swap1\n      dup2\n      mstore\n      0x20\n      add\n      0x00\n      keccak256\n      0x00\n      swap1\n      sload\n      swap1\n      0x0100\n      exp\n      swap1\n      div\n      0xff\n      and\n        /* \"ClaimFVCK.sol\":6769:6831  require(approvedForClaim[msg.sender], \"Approval fee not paid\") */\n      tag_174\n      jumpi\n      mload(0x40)\n      0x08c379a000000000000000000000000000000000000000000000000000000000\n      dup2\n      mstore\n      0x04\n      add\n      tag_175\n      swap1\n      tag_176\n      jump\t// in\n    tag_175:\n      mload(0x40)\n      dup1\n      swap2\n      sub\n      swap1\n      revert\n    tag_174:\n        /* \"ClaimFVCK.sol\":6841:6855  uint256 amount */\n      0x00\n        /* \"ClaimFVCK.sol\":6858:6875  claimableBalances */\n      0x03\n        /* \"ClaimFVCK.sol\":6858:6887  claimableBalances[msg.sender] */\n      0x00\n        /* \"ClaimFVCK.sol\":6876:6886  msg.sender */\n      caller\n        /* \"ClaimFVCK.sol\":6858:6887  claimableBalances[msg.sender] */\n      0xffffffffffffffffffffffffffffffffffffffff\n      and\n      0xffffffffffffffffffffffffffffffffffffffff\n      and\n      dup2\n      mstore\n      0x20\n      add\n      swap1\n      dup2\n      mstore\n      0x20\n      add\n      0x00\n      keccak256\n      sload\n        /* \"ClaimFVCK.sol\":6841:6887  uint256 amount = claimableBalances[msg.sender] */\n      swap1\n      pop\n        /* \"ClaimFVCK.sol\":6914:6915  0 */\n      0x00\n        /* \"ClaimFVCK.sol\":6905:6911  amount */\n      dup2\n        /* \"ClaimFVCK.sol\":6905:6915  amount > 0 */\n      gt\n        /* \"ClaimFVCK.sol\":6897:6948  require(amount > 0, \"You have no balance to claim\") */\n      tag_177\n      jumpi\n      mload(0x40)\n      0x08c379a000000000000000000000000000000000000000000000000000000000\n      dup2\n      mstore\n      0x04\n      add\n      tag_178\n      swap1\n      tag_179\n      jump\t// in\n    tag_178:\n      mload(0x40)\n      dup1\n      swap2\n      sub\n      swap1\n      revert\n    tag_177:\n        /* \"ClaimFVCK.sol\":6974:6984  msg.sender */\n      caller\n        /* \"ClaimFVCK.sol\":6964:6993  ClaimMade(msg.sender, amount) */\n      0xffffffffffffffffffffffffffffffffffffffff\n      and\n      0x9e09de4b8e45666deb3ec2bc8225f07988e54ef533eec97cb0b4610127183d79\n        /* \"ClaimFVCK.sol\":6986:6992  amount */\n      dup3\n        /* \"ClaimFVCK.sol\":6964:6993  ClaimMade(msg.sender, amount) */\n      mload(0x40)\n      tag_180\n      swap2\n      swap1\n      tag_43\n      jump\t// in\n    tag_180:\n      mload(0x40)\n      dup1\n      swap2\n      sub\n      swap1\n      log2\n        /* \"ClaimFVCK.sol\":7036:7037  0 */\n      0x00\n        /* \"ClaimFVCK.sol\":7004:7021  claimableBalances */\n      0x03\n        /* \"ClaimFVCK.sol\":7004:7033  claimableBalances[msg.sender] */\n      0x00\n        /* \"ClaimFVCK.sol\":7022:7032  msg.sender */\n      caller\n        /* \"ClaimFVCK.sol\":7004:7033  claimableBalances[msg.sender] */\n      0xffffffffffffffffffffffffffffffffffffffff\n      and\n      0xffffffffffffffffffffffffffffffffffffffff\n      and\n      dup2\n      mstore\n      0x20\n      add\n      swap1\n      dup2\n      mstore\n      0x20\n      add\n      0x00\n      keccak256\n        /* \"ClaimFVCK.sol\":7004:7037  claimableBalances[msg.sender] = 0 */\n      dup2\n      swap1\n      sstore\n      pop\n        /* \"ClaimFVCK.sol\":7065:7071  amount */\n      dup1\n        /* \"ClaimFVCK.sol\":7047:7061  totalAllocated */\n      0x09\n      0x00\n        /* \"ClaimFVCK.sol\":7047:7071  totalAllocated -= amount */\n      dup3\n      dup3\n      sload\n      tag_181\n      swap2\n      swap1\n      tag_182\n      jump\t// in\n    tag_181:\n      swap3\n      pop\n      pop\n      dup2\n      swap1\n      sstore\n      pop\n        /* \"ClaimFVCK.sol\":7081:7102  totalAddressesClaimed */\n      0x08\n      0x00\n        /* \"ClaimFVCK.sol\":7081:7104  totalAddressesClaimed++ */\n      dup2\n      sload\n      dup1\n      swap3\n      swap2\n      swap1\n      tag_183\n      swap1\n      tag_184\n      jump\t// in\n    tag_183:\n      swap2\n      swap1\n      pop\n      sstore\n      pop\n        /* \"ClaimFVCK.sol\":7145:7151  amount */\n      dup1\n        /* \"ClaimFVCK.sol\":7114:7129  claimedBalances */\n      0x04\n        /* \"ClaimFVCK.sol\":7114:7141  claimedBalances[msg.sender] */\n      0x00\n        /* \"ClaimFVCK.sol\":7130:7140  msg.sender */\n      caller\n        /* \"ClaimFVCK.sol\":7114:7141  claimedBalances[msg.sender] */\n      0xffffffffffffffffffffffffffffffffffffffff\n      and\n      0xffffffffffffffffffffffffffffffffffffffff\n      and\n      dup2\n      mstore\n      0x20\n      add\n      swap1\n      dup2\n      mstore\n      0x20\n      add\n      0x00\n      keccak256\n      0x00\n        /* \"ClaimFVCK.sol\":7114:7151  claimedBalances[msg.sender] += amount */\n      dup3\n      dup3\n      sload\n      tag_185\n      swap2\n      swap1\n      tag_186\n      jump\t// in\n    tag_185:\n      swap3\n      pop\n      pop\n      dup2\n      swap1\n      sstore\n      pop\n        /* \"ClaimFVCK.sol\":7193:7198  false */\n      0x00\n        /* \"ClaimFVCK.sol\":7162:7178  approvedForClaim */\n      0x06\n        /* \"ClaimFVCK.sol\":7162:7190  approvedForClaim[msg.sender] */\n      0x00\n        /* \"ClaimFVCK.sol\":7179:7189  msg.sender */\n      caller\n        /* \"ClaimFVCK.sol\":7162:7190  approvedForClaim[msg.sender] */\n      0xffffffffffffffffffffffffffffffffffffffff\n      and\n      0xffffffffffffffffffffffffffffffffffffffff\n      and\n      dup2\n      mstore\n      0x20\n      add\n      swap1\n      dup2\n      mstore\n      0x20\n      add\n      0x00\n      keccak256\n      0x00\n        /* \"ClaimFVCK.sol\":7162:7198  approvedForClaim[msg.sender] = false */\n      0x0100\n      exp\n      dup2\n      sload\n      dup2\n      0xff\n      mul\n      not\n      and\n      swap1\n      dup4\n      iszero\n      iszero\n      mul\n      or\n      swap1\n      sstore\n      pop\n        /* \"ClaimFVCK.sol\":7239:7277  token.safeTransfer(msg.sender, amount) */\n      tag_187\n        /* \"ClaimFVCK.sol\":7258:7268  msg.sender */\n      caller\n        /* \"ClaimFVCK.sol\":7270:7276  amount */\n      dup3\n        /* \"ClaimFVCK.sol\":7239:7244  token */\n      immutable(\"0x755086c717cb5d158287af515dd799b5ec7f30c3baee71f20accbab571e166d5\")\n        /* \"ClaimFVCK.sol\":7239:7257  token.safeTransfer */\n      0xffffffffffffffffffffffffffffffffffffffff\n      and\n      tag_188\n      swap1\n        /* \"ClaimFVCK.sol\":7239:7277  token.safeTransfer(msg.sender, amount) */\n      swap3\n      swap2\n      swap1\n      0xffffffff\n      and\n      jump\t// in\n    tag_187:\n        /* \"ClaimFVCK.sol\":6629:7284  {... */\n      pop\n        /* \"@openzeppelin/contracts/security/ReentrancyGuard.sol\":2303:2323  _nonReentrantAfter() */\n      tag_189\n        /* \"@openzeppelin/contracts/security/ReentrancyGuard.sol\":2303:2321  _nonReentrantAfter */\n      tag_190\n        /* \"@openzeppelin/contracts/security/ReentrancyGuard.sol\":2303:2323  _nonReentrantAfter() */\n      jump\t// in\n    tag_189:\n        /* \"ClaimFVCK.sol\":6590:7284  function claim() external nonReentrant {... */\n      jump\t// out\n        /* \"ClaimFVCK.sol\":8903:9027  function getTotalClaimed(address _account) external view returns (uint256) {... */\n    tag_80:\n        /* \"ClaimFVCK.sol\":8969:8976  uint256 */\n      0x00\n        /* \"ClaimFVCK.sol\":8995:9010  claimedBalances */\n      0x04\n        /* \"ClaimFVCK.sol\":8995:9020  claimedBalances[_account] */\n      0x00\n        /* \"ClaimFVCK.sol\":9011:9019  _account */\n      dup4\n        /* \"ClaimFVCK.sol\":8995:9020  claimedBalances[_account] */\n      0xffffffffffffffffffffffffffffffffffffffff\n      and\n      0xffffffffffffffffffffffffffffffffffffffff\n      and\n      dup2\n      mstore\n      0x20\n      add\n      swap1\n      dup2\n      mstore\n      0x20\n      add\n      0x00\n      keccak256\n      sload\n        /* \"ClaimFVCK.sol\":8988:9020  return claimedBalances[_account] */\n      swap1\n      pop\n        /* \"ClaimFVCK.sol\":8903:9027  function getTotalClaimed(address _account) external view returns (uint256) {... */\n      swap2\n      swap1\n      pop\n      jump\t// out\n        /* \"ClaimFVCK.sol\":1268:1307  uint256 public totalRegisteredAddresses */\n    tag_84:\n      sload(0x07)\n      dup2\n      jump\t// out\n        /* \"@openzeppelin/contracts/access/Ownable.sol\":2293:2394  function renounceOwnership() public virtual onlyOwner {... */\n    tag_88:\n        /* \"@openzeppelin/contracts/access/Ownable.sol\":1531:1544  _checkOwner() */\n      tag_193\n        /* \"@openzeppelin/contracts/access/Ownable.sol\":1531:1542  _checkOwner */\n      tag_161\n        /* \"@openzeppelin/contracts/access/Ownable.sol\":1531:1544  _checkOwner() */\n      jump\t// in\n    tag_193:\n        /* \"@openzeppelin/contracts/access/Ownable.sol\":2357:2387  _transferOwnership(address(0)) */\n      tag_195\n        /* \"@openzeppelin/contracts/access/Ownable.sol\":2384:2385  0 */\n      0x00\n        /* \"@openzeppelin/contracts/access/Ownable.sol\":2357:2375  _transferOwnership */\n      tag_196\n        /* \"@openzeppelin/contracts/access/Ownable.sol\":2357:2387  _transferOwnership(address(0)) */\n      jump\t// in\n    tag_195:\n        /* \"@openzeppelin/contracts/access/Ownable.sol\":2293:2394  function renounceOwnership() public virtual onlyOwner {... */\n      jump\t// out\n        /* \"ClaimFVCK.sol\":1682:1751  uint256 public maxAllocationPerAddress = 500000 * DECIMALS_MULTIPLIER */\n    tag_91:\n      sload(0x0b)\n      dup2\n      jump\t// out\n        /* \"@openzeppelin/contracts/access/Ownable.sol\":1638:1723  function owner() public view virtual returns (address) {... */\n    tag_95:\n        /* \"@openzeppelin/contracts/access/Ownable.sol\":1684:1691  address */\n      0x00\n        /* \"@openzeppelin/contracts/access/Ownable.sol\":1710:1716  _owner */\n      0x00\n      0x00\n      swap1\n      sload\n      swap1\n      0x0100\n      exp\n      swap1\n      div\n      0xffffffffffffffffffffffffffffffffffffffff\n      and\n        /* \"@openzeppelin/contracts/access/Ownable.sol\":1703:1716  return _owner */\n      swap1\n      pop\n        /* \"@openzeppelin/contracts/access/Ownable.sol\":1638:1723  function owner() public view virtual returns (address) {... */\n      swap1\n      jump\t// out\n        /* \"ClaimFVCK.sol\":1075:1119  mapping(address => bool) public claimBlocked */\n    tag_101:\n      mstore(0x20, 0x05)\n      dup1\n      0x00\n      mstore\n      keccak256(0x00, 0x40)\n      0x00\n      swap2\n      pop\n      sload\n      swap1\n      0x0100\n      exp\n      swap1\n      div\n      0xff\n      and\n      dup2\n      jump\t// out\n        /* \"ClaimFVCK.sol\":3730:3866  function setClaimEnabled(bool _enabled) external onlyOwner {... */\n    tag_107:\n        /* \"@openzeppelin/contracts/access/Ownable.sol\":1531:1544  _checkOwner() */\n      tag_199\n        /* \"@openzeppelin/contracts/access/Ownable.sol\":1531:1542  _checkOwner */\n      tag_161\n        /* \"@openzeppelin/contracts/access/Ownable.sol\":1531:1544  _checkOwner() */\n      jump\t// in\n    tag_199:\n        /* \"ClaimFVCK.sol\":3814:3822  _enabled */\n      dup1\n        /* \"ClaimFVCK.sol\":3799:3811  claimEnabled */\n      0x02\n      0x00\n        /* \"ClaimFVCK.sol\":3799:3822  claimEnabled = _enabled */\n      0x0100\n      exp\n      dup2\n      sload\n      dup2\n      0xff\n      mul\n      not\n      and\n      swap1\n      dup4\n      iszero\n      iszero\n      mul\n      or\n      swap1\n      sstore\n      pop\n        /* \"ClaimFVCK.sol\":3837:3859  ClaimEnabled(_enabled) */\n      0x1edd4dc7f91a5992aba0f39c0428bcf4df13d001eebc26eb188307d057f14a07\n        /* \"ClaimFVCK.sol\":3850:3858  _enabled */\n      dup2\n        /* \"ClaimFVCK.sol\":3837:3859  ClaimEnabled(_enabled) */\n      mload(0x40)\n      tag_201\n      swap2\n      swap1\n      tag_65\n      jump\t// in\n    tag_201:\n      mload(0x40)\n      dup1\n      swap2\n      sub\n      swap1\n      log1\n        /* \"ClaimFVCK.sol\":3730:3866  function setClaimEnabled(bool _enabled) external onlyOwner {... */\n      pop\n      jump\t// out\n        /* \"ClaimFVCK.sol\":1178:1226  mapping(address => bool) public approvedForClaim */\n    tag_111:\n      mstore(0x20, 0x06)\n      dup1\n      0x00\n      mstore\n      keccak256(0x00, 0x40)\n      0x00\n      swap2\n      pop\n      sload\n      swap1\n      0x0100\n      exp\n      swap1\n      div\n      0xff\n      and\n      dup2\n      jump\t// out\n        /* \"ClaimFVCK.sol\":7693:7809  function contractTokenBalance() public view returns (uint256) {... */\n    tag_115:\n        /* \"ClaimFVCK.sol\":7746:7753  uint256 */\n      0x00\n        /* \"ClaimFVCK.sol\":7772:7777  token */\n      immutable(\"0x755086c717cb5d158287af515dd799b5ec7f30c3baee71f20accbab571e166d5\")\n        /* \"ClaimFVCK.sol\":7772:7787  token.balanceOf */\n      0xffffffffffffffffffffffffffffffffffffffff\n      and\n      0x70a08231\n        /* \"ClaimFVCK.sol\":7796:7800  this */\n      address\n        /* \"ClaimFVCK.sol\":7772:7802  token.balanceOf(address(this)) */\n      mload(0x40)\n      dup3\n      0xffffffff\n      and\n      0xe0\n      shl\n      dup2\n      mstore\n      0x04\n      add\n      tag_203\n      swap2\n      swap1\n      tag_97\n      jump\t// in\n    tag_203:\n      0x20\n      mload(0x40)\n      dup1\n      dup4\n      sub\n      dup2\n      dup7\n      gas\n      staticcall\n      iszero\n      dup1\n      iszero\n      tag_205\n      jumpi\n      returndatacopy(0x00, 0x00, returndatasize)\n      revert(0x00, returndatasize)\n    tag_205:\n      pop\n      pop\n      pop\n      pop\n      mload(0x40)\n      returndatasize\n      not(0x1f)\n      0x1f\n      dup3\n      add\n      and\n      dup3\n      add\n      dup1\n      0x40\n      mstore\n      pop\n      dup2\n      add\n      swap1\n      tag_206\n      swap2\n      swap1\n      tag_207\n      jump\t// in\n    tag_206:\n        /* \"ClaimFVCK.sol\":7765:7802  return token.balanceOf(address(this)) */\n      swap1\n      pop\n        /* \"ClaimFVCK.sol\":7693:7809  function contractTokenBalance() public view returns (uint256) {... */\n      swap1\n      jump\t// out\n        /* \"ClaimFVCK.sol\":3416:3621  function approveClaim() external payable {... */\n    tag_118:\n        /* \"ClaimFVCK.sol\":3488:3504  claimApprovalFee */\n      sload(0x0e)\n        /* \"ClaimFVCK.sol\":3475:3484  msg.value */\n      callvalue\n        /* \"ClaimFVCK.sol\":3475:3504  msg.value == claimApprovalFee */\n      eq\n        /* \"ClaimFVCK.sol\":3467:3529  require(msg.value == claimApprovalFee, \"Incorrect fee amount\") */\n      tag_209\n      jumpi\n      mload(0x40)\n      0x08c379a000000000000000000000000000000000000000000000000000000000\n      dup2\n      mstore\n      0x04\n      add\n      tag_210\n      swap1\n      tag_211\n      jump\t// in\n    tag_210:\n      mload(0x40)\n      dup1\n      swap2\n      sub\n      swap1\n      revert\n    tag_209:\n        /* \"ClaimFVCK.sol\":3570:3574  true */\n      0x01\n        /* \"ClaimFVCK.sol\":3539:3555  approvedForClaim */\n      0x06\n        /* \"ClaimFVCK.sol\":3539:3567  approvedForClaim[msg.sender] */\n      0x00\n        /* \"ClaimFVCK.sol\":3556:3566  msg.sender */\n      caller\n        /* \"ClaimFVCK.sol\":3539:3567  approvedForClaim[msg.sender] */\n      0xffffffffffffffffffffffffffffffffffffffff\n      and\n      0xffffffffffffffffffffffffffffffffffffffff\n      and\n      dup2\n      mstore\n      0x20\n      add\n      swap1\n      dup2\n      mstore\n      0x20\n      add\n      0x00\n      keccak256\n      0x00\n        /* \"ClaimFVCK.sol\":3539:3574  approvedForClaim[msg.sender] = true */\n      0x0100\n      exp\n      dup2\n      sload\n      dup2\n      0xff\n      mul\n      not\n      and\n      swap1\n      dup4\n      iszero\n      iszero\n      mul\n      or\n      swap1\n      sstore\n      pop\n        /* \"ClaimFVCK.sol\":3603:3613  msg.sender */\n      caller\n        /* \"ClaimFVCK.sol\":3589:3614  ClaimApproved(msg.sender) */\n      0xffffffffffffffffffffffffffffffffffffffff\n      and\n      0xb7fa0f30e1ede3196616147dfdf6c94e47523298677b4f7b0c61027a9f0ebf54\n      mload(0x40)\n      mload(0x40)\n      dup1\n      swap2\n      sub\n      swap1\n      log2\n        /* \"ClaimFVCK.sol\":3416:3621  function approveClaim() external payable {... */\n      jump\t// out\n        /* \"ClaimFVCK.sol\":9157:9352  function canClaim(address _account) external view returns (bool) {... */\n    tag_122:\n        /* \"ClaimFVCK.sol\":9216:9220  bool */\n      0x00\n        /* \"ClaimFVCK.sol\":9240:9252  claimEnabled */\n      0x02\n      0x00\n      swap1\n      sload\n      swap1\n      0x0100\n      exp\n      swap1\n      div\n      0xff\n      and\n        /* \"ClaimFVCK.sol\":9240:9279  claimEnabled && !claimBlocked[_account] */\n      dup1\n      iszero\n      tag_213\n      jumpi\n      pop\n        /* \"ClaimFVCK.sol\":9257:9269  claimBlocked */\n      0x05\n        /* \"ClaimFVCK.sol\":9257:9279  claimBlocked[_account] */\n      0x00\n        /* \"ClaimFVCK.sol\":9270:9278  _account */\n      dup4\n        /* \"ClaimFVCK.sol\":9257:9279  claimBlocked[_account] */\n      0xffffffffffffffffffffffffffffffffffffffff\n      and\n      0xffffffffffffffffffffffffffffffffffffffff\n      and\n      dup2\n      mstore\n      0x20\n      add\n      swap1\n      dup2\n      mstore\n      0x20\n      add\n      0x00\n      keccak256\n      0x00\n      swap1\n      sload\n      swap1\n      0x0100\n      exp\n      swap1\n      div\n      0xff\n      and\n        /* \"ClaimFVCK.sol\":9256:9279  !claimBlocked[_account] */\n      iszero\n        /* \"ClaimFVCK.sol\":9240:9279  claimEnabled && !claimBlocked[_account] */\n    tag_213:\n        /* \"ClaimFVCK.sol\":9240:9309  claimEnabled && !claimBlocked[_account] && approvedForClaim[_account] */\n      dup1\n      iszero\n      tag_214\n      jumpi\n      pop\n        /* \"ClaimFVCK.sol\":9283:9299  approvedForClaim */\n      0x06\n        /* \"ClaimFVCK.sol\":9283:9309  approvedForClaim[_account] */\n      0x00\n        /* \"ClaimFVCK.sol\":9300:9308  _account */\n      dup4\n        /* \"ClaimFVCK.sol\":9283:9309  approvedForClaim[_account] */\n      0xffffffffffffffffffffffffffffffffffffffff\n      and\n      0xffffffffffffffffffffffffffffffffffffffff\n      and\n      dup2\n      mstore\n      0x20\n      add\n      swap1\n      dup2\n      mstore\n      0x20\n      add\n      0x00\n      keccak256\n      0x00\n      swap1\n      sload\n      swap1\n      0x0100\n      exp\n      swap1\n      div\n      0xff\n      and\n        /* \"ClaimFVCK.sol\":9240:9309  claimEnabled && !claimBlocked[_account] && approvedForClaim[_account] */\n    tag_214:\n        /* \"ClaimFVCK.sol\":9240:9344  claimEnabled && !claimBlocked[_account] && approvedForClaim[_account] && claimableBalances[_account] > 0 */\n      dup1\n      iszero\n      tag_215\n      jumpi\n      pop\n        /* \"ClaimFVCK.sol\":9343:9344  0 */\n      0x00\n        /* \"ClaimFVCK.sol\":9313:9330  claimableBalances */\n      0x03\n        /* \"ClaimFVCK.sol\":9313:9340  claimableBalances[_account] */\n      0x00\n        /* \"ClaimFVCK.sol\":9331:9339  _account */\n      dup5\n        /* \"ClaimFVCK.sol\":9313:9340  claimableBalances[_account] */\n      0xffffffffffffffffffffffffffffffffffffffff\n      and\n      0xffffffffffffffffffffffffffffffffffffffff\n      and\n      dup2\n      mstore\n      0x20\n      add\n      swap1\n      dup2\n      mstore\n      0x20\n      add\n      0x00\n      keccak256\n      sload\n        /* \"ClaimFVCK.sol\":9313:9344  claimableBalances[_account] > 0 */\n      gt\n        /* \"ClaimFVCK.sol\":9240:9344  claimEnabled && !claimBlocked[_account] && approvedForClaim[_account] && claimableBalances[_account] > 0 */\n    tag_215:\n        /* \"ClaimFVCK.sol\":9232:9345  return (claimEnabled && !claimBlocked[_account] && approvedForClaim[_account] && claimableBalances[_account] > 0) */\n      swap1\n      pop\n        /* \"ClaimFVCK.sol\":9157:9352  function canClaim(address _account) external view returns (bool) {... */\n      swap2\n      swap1\n      pop\n      jump\t// out\n        /* \"ClaimFVCK.sol\":9438:9947  function getStats()... */\n    tag_126:\n        /* \"ClaimFVCK.sol\":9518:9542  uint256 _totalRegistered */\n      0x00\n        /* \"ClaimFVCK.sol\":9556:9577  uint256 _totalClaimed */\n      0x00\n        /* \"ClaimFVCK.sol\":9591:9620  uint256 _totalContractBalance */\n      0x00\n        /* \"ClaimFVCK.sol\":9634:9657  uint256 _totalAllocated */\n      0x00\n        /* \"ClaimFVCK.sol\":9671:9689  bool _claimEnabled */\n      0x00\n        /* \"ClaimFVCK.sol\":9733:9757  totalRegisteredAddresses */\n      sload(0x07)\n        /* \"ClaimFVCK.sol\":9714:9757  _totalRegistered = totalRegisteredAddresses */\n      swap5\n      pop\n        /* \"ClaimFVCK.sol\":9783:9804  totalAddressesClaimed */\n      sload(0x08)\n        /* \"ClaimFVCK.sol\":9767:9804  _totalClaimed = totalAddressesClaimed */\n      swap4\n      pop\n        /* \"ClaimFVCK.sol\":9838:9860  contractTokenBalance() */\n      tag_217\n        /* \"ClaimFVCK.sol\":9838:9858  contractTokenBalance */\n      tag_115\n        /* \"ClaimFVCK.sol\":9838:9860  contractTokenBalance() */\n      jump\t// in\n    tag_217:\n        /* \"ClaimFVCK.sol\":9814:9860  _totalContractBalance = contractTokenBalance() */\n      swap3\n      pop\n        /* \"ClaimFVCK.sol\":9888:9902  totalAllocated */\n      sload(0x09)\n        /* \"ClaimFVCK.sol\":9870:9902  _totalAllocated = totalAllocated */\n      swap2\n      pop\n        /* \"ClaimFVCK.sol\":9928:9940  claimEnabled */\n      0x02\n      0x00\n      swap1\n      sload\n      swap1\n      0x0100\n      exp\n      swap1\n      div\n      0xff\n      and\n        /* \"ClaimFVCK.sol\":9912:9940  _claimEnabled = claimEnabled */\n      swap1\n      pop\n        /* \"ClaimFVCK.sol\":9438:9947  function getStats()... */\n      swap1\n      swap2\n      swap3\n      swap4\n      swap5\n      jump\t// out\n        /* \"ClaimFVCK.sol\":5125:6473  function addClaimableBatch(... */\n    tag_133:\n        /* \"@openzeppelin/contracts/access/Ownable.sol\":1531:1544  _checkOwner() */\n      tag_219\n        /* \"@openzeppelin/contracts/access/Ownable.sol\":1531:1542  _checkOwner */\n      tag_161\n        /* \"@openzeppelin/contracts/access/Ownable.sol\":1531:1544  _checkOwner() */\n      jump\t// in\n    tag_219:\n        /* \"ClaimFVCK.sol\":5303:5311  _amounts */\n      dup2\n      dup2\n        /* \"ClaimFVCK.sol\":5303:5318  _amounts.length */\n      swap1\n      pop\n        /* \"ClaimFVCK.sol\":5283:5292  _accounts */\n      dup5\n      dup5\n        /* \"ClaimFVCK.sol\":5283:5299  _accounts.length */\n      swap1\n      pop\n        /* \"ClaimFVCK.sol\":5283:5318  _accounts.length == _amounts.length */\n      eq\n        /* \"ClaimFVCK.sol\":5262:5370  require(... */\n      tag_221\n      jumpi\n      mload(0x40)\n      0x08c379a000000000000000000000000000000000000000000000000000000000\n      dup2\n      mstore\n      0x04\n      add\n      tag_222\n      swap1\n      tag_223\n      jump\t// in\n    tag_222:\n      mload(0x40)\n      dup1\n      swap2\n      sub\n      swap1\n      revert\n    tag_221:\n        /* \"ClaimFVCK.sol\":5381:5407  uint256 newTotalToAllocate */\n      0x00\n        /* \"ClaimFVCK.sol\":5410:5411  0 */\n      0x00\n        /* \"ClaimFVCK.sol\":5381:5411  uint256 newTotalToAllocate = 0 */\n      swap1\n      pop\n        /* \"ClaimFVCK.sol\":5427:5436  uint256 i */\n      0x00\n        /* \"ClaimFVCK.sol\":5439:5440  0 */\n      0x00\n        /* \"ClaimFVCK.sol\":5427:5440  uint256 i = 0 */\n      swap1\n      pop\n        /* \"ClaimFVCK.sol\":5422:6201  for (uint256 i = 0; i < _accounts.length; i++) {... */\n    tag_224:\n        /* \"ClaimFVCK.sol\":5446:5455  _accounts */\n      dup6\n      dup6\n        /* \"ClaimFVCK.sol\":5446:5462  _accounts.length */\n      swap1\n      pop\n        /* \"ClaimFVCK.sol\":5442:5443  i */\n      dup2\n        /* \"ClaimFVCK.sol\":5442:5462  i < _accounts.length */\n      lt\n        /* \"ClaimFVCK.sol\":5422:6201  for (uint256 i = 0; i < _accounts.length; i++) {... */\n      iszero\n      tag_225\n      jumpi\n        /* \"ClaimFVCK.sol\":5483:5498  address account */\n      0x00\n        /* \"ClaimFVCK.sol\":5501:5510  _accounts */\n      dup7\n      dup7\n        /* \"ClaimFVCK.sol\":5511:5512  i */\n      dup4\n        /* \"ClaimFVCK.sol\":5501:5513  _accounts[i] */\n      dup2\n      dup2\n      lt\n      tag_227\n      jumpi\n      tag_228\n      tag_229\n      jump\t// in\n    tag_228:\n    tag_227:\n      swap1\n      pop\n      0x20\n      mul\n      add\n      0x20\n      dup2\n      add\n      swap1\n      tag_230\n      swap2\n      swap1\n      tag_40\n      jump\t// in\n    tag_230:\n        /* \"ClaimFVCK.sol\":5483:5513  address account = _accounts[i] */\n      swap1\n      pop\n        /* \"ClaimFVCK.sol\":5527:5541  uint256 amount */\n      0x00\n        /* \"ClaimFVCK.sol\":1638:1646  10 ** 18 */\n      0x0de0b6b3a7640000\n        /* \"ClaimFVCK.sol\":5544:5552  _amounts */\n      dup7\n      dup7\n        /* \"ClaimFVCK.sol\":5553:5554  i */\n      dup6\n        /* \"ClaimFVCK.sol\":5544:5555  _amounts[i] */\n      dup2\n      dup2\n      lt\n      tag_231\n      jumpi\n      tag_232\n      tag_229\n      jump\t// in\n    tag_232:\n    tag_231:\n      swap1\n      pop\n      0x20\n      mul\n      add\n      calldataload\n        /* \"ClaimFVCK.sol\":5544:5577  _amounts[i] * DECIMALS_MULTIPLIER */\n      tag_233\n      swap2\n      swap1\n      tag_234\n      jump\t// in\n    tag_233:\n        /* \"ClaimFVCK.sol\":5527:5577  uint256 amount = _amounts[i] * DECIMALS_MULTIPLIER */\n      swap1\n      pop\n        /* \"ClaimFVCK.sol\":5623:5624  0 */\n      0x00\n        /* \"ClaimFVCK.sol\":5600:5607  account */\n      dup3\n        /* \"ClaimFVCK.sol\":5600:5619  account.code.length */\n      0xffffffffffffffffffffffffffffffffffffffff\n      and\n      extcodesize\n        /* \"ClaimFVCK.sol\":5600:5624  account.code.length == 0 */\n      eq\n        /* \"ClaimFVCK.sol\":5592:5649  require(account.code.length == 0, \"Cannot be a contract\") */\n      tag_235\n      jumpi\n      mload(0x40)\n      0x08c379a000000000000000000000000000000000000000000000000000000000\n      dup2\n      mstore\n      0x04\n      add\n      tag_236\n      swap1\n      tag_237\n      jump\t// in\n    tag_236:\n      mload(0x40)\n      dup1\n      swap2\n      sub\n      swap1\n      revert\n    tag_235:\n        /* \"ClaimFVCK.sol\":5727:5750  maxAllocationPerAddress */\n      sload(0x0b)\n        /* \"ClaimFVCK.sol\":5717:5723  amount */\n      dup2\n        /* \"ClaimFVCK.sol\":5688:5705  claimableBalances */\n      0x03\n        /* \"ClaimFVCK.sol\":5688:5714  claimableBalances[account] */\n      0x00\n        /* \"ClaimFVCK.sol\":5706:5713  account */\n      dup6\n        /* \"ClaimFVCK.sol\":5688:5714  claimableBalances[account] */\n      0xffffffffffffffffffffffffffffffffffffffff\n      and\n      0xffffffffffffffffffffffffffffffffffffffff\n      and\n      dup2\n      mstore\n      0x20\n      add\n      swap1\n      dup2\n      mstore\n      0x20\n      add\n      0x00\n      keccak256\n      sload\n        /* \"ClaimFVCK.sol\":5688:5723  claimableBalances[account] + amount */\n      tag_238\n      swap2\n      swap1\n      tag_186\n      jump\t// in\n    tag_238:\n        /* \"ClaimFVCK.sol\":5688:5750  claimableBalances[account] + amount <= maxAllocationPerAddress */\n      gt\n      iszero\n        /* \"ClaimFVCK.sol\":5663:5816  require(... */\n      tag_239\n      jumpi\n      mload(0x40)\n      0x08c379a000000000000000000000000000000000000000000000000000000000\n      dup2\n      mstore\n      0x04\n      add\n      tag_240\n      swap1\n      tag_241\n      jump\t// in\n    tag_240:\n      mload(0x40)\n      dup1\n      swap2\n      sub\n      swap1\n      revert\n    tag_239:\n        /* \"ClaimFVCK.sol\":5836:5849  _isRegistered */\n      0x0a\n        /* \"ClaimFVCK.sol\":5836:5858  _isRegistered[account] */\n      0x00\n        /* \"ClaimFVCK.sol\":5850:5857  account */\n      dup4\n        /* \"ClaimFVCK.sol\":5836:5858  _isRegistered[account] */\n      0xffffffffffffffffffffffffffffffffffffffff\n      and\n      0xffffffffffffffffffffffffffffffffffffffff\n      and\n      dup2\n      mstore\n      0x20\n      add\n      swap1\n      dup2\n      mstore\n      0x20\n      add\n      0x00\n      keccak256\n      0x00\n      swap1\n      sload\n      swap1\n      0x0100\n      exp\n      swap1\n      div\n      0xff\n      and\n        /* \"ClaimFVCK.sol\":5831:6018  if (!_isRegistered[account]) {... */\n      tag_242\n      jumpi\n        /* \"ClaimFVCK.sol\":5903:5907  true */\n      0x01\n        /* \"ClaimFVCK.sol\":5878:5891  _isRegistered */\n      0x0a\n        /* \"ClaimFVCK.sol\":5878:5900  _isRegistered[account] */\n      0x00\n        /* \"ClaimFVCK.sol\":5892:5899  account */\n      dup5\n        /* \"ClaimFVCK.sol\":5878:5900  _isRegistered[account] */\n      0xffffffffffffffffffffffffffffffffffffffff\n      and\n      0xffffffffffffffffffffffffffffffffffffffff\n      and\n      dup2\n      mstore\n      0x20\n      add\n      swap1\n      dup2\n      mstore\n      0x20\n      add\n      0x00\n      keccak256\n      0x00\n        /* \"ClaimFVCK.sol\":5878:5907  _isRegistered[account] = true */\n      0x0100\n      exp\n      dup2\n      sload\n      dup2\n      0xff\n      mul\n      not\n      and\n      swap1\n      dup4\n      iszero\n      iszero\n      mul\n      or\n      swap1\n      sstore\n      pop\n        /* \"ClaimFVCK.sol\":5925:5949  totalRegisteredAddresses */\n      0x07\n      0x00\n        /* \"ClaimFVCK.sol\":5925:5951  totalRegisteredAddresses++ */\n      dup2\n      sload\n      dup1\n      swap3\n      swap2\n      swap1\n      tag_243\n      swap1\n      tag_184\n      jump\t// in\n    tag_243:\n      swap2\n      swap1\n      pop\n      sstore\n      pop\n        /* \"ClaimFVCK.sol\":5995:6002  account */\n      dup2\n        /* \"ClaimFVCK.sol\":5974:6003  NewAddressRegistered(account) */\n      0xffffffffffffffffffffffffffffffffffffffff\n      and\n      0x1837db44f707818dfce8415ef80a201e86882bc1bffabdded272512a96c0799e\n      mload(0x40)\n      mload(0x40)\n      dup1\n      swap2\n      sub\n      swap1\n      log2\n        /* \"ClaimFVCK.sol\":5831:6018  if (!_isRegistered[account]) {... */\n    tag_242:\n        /* \"ClaimFVCK.sol\":6062:6068  amount */\n      dup1\n        /* \"ClaimFVCK.sol\":6032:6049  claimableBalances */\n      0x03\n        /* \"ClaimFVCK.sol\":6032:6058  claimableBalances[account] */\n      0x00\n        /* \"ClaimFVCK.sol\":6050:6057  account */\n      dup5\n        /* \"ClaimFVCK.sol\":6032:6058  claimableBalances[account] */\n      0xffffffffffffffffffffffffffffffffffffffff\n      and\n      0xffffffffffffffffffffffffffffffffffffffff\n      and\n      dup2\n      mstore\n      0x20\n      add\n      swap1\n      dup2\n      mstore\n      0x20\n      add\n      0x00\n      keccak256\n      0x00\n        /* \"ClaimFVCK.sol\":6032:6068  claimableBalances[account] += amount */\n      dup3\n      dup3\n      sload\n      tag_244\n      swap2\n      swap1\n      tag_186\n      jump\t// in\n    tag_244:\n      swap3\n      pop\n      pop\n      dup2\n      swap1\n      sstore\n      pop\n        /* \"ClaimFVCK.sol\":6104:6110  amount */\n      dup1\n        /* \"ClaimFVCK.sol\":6082:6110  newTotalToAllocate += amount */\n      dup5\n      tag_245\n      swap2\n      swap1\n      tag_186\n      jump\t// in\n    tag_245:\n      swap4\n      pop\n        /* \"ClaimFVCK.sol\":6146:6153  account */\n      dup2\n        /* \"ClaimFVCK.sol\":6130:6190  TokensAllocated(account, amount, claimableBalances[account]) */\n      0xffffffffffffffffffffffffffffffffffffffff\n      and\n      0x4885d73252b9e2c420b677d64d50e8a5798773dbb4cb99c5a2ab2824f725d9a8\n        /* \"ClaimFVCK.sol\":6155:6161  amount */\n      dup3\n        /* \"ClaimFVCK.sol\":6163:6180  claimableBalances */\n      0x03\n        /* \"ClaimFVCK.sol\":6163:6189  claimableBalances[account] */\n      0x00\n        /* \"ClaimFVCK.sol\":6181:6188  account */\n      dup7\n        /* \"ClaimFVCK.sol\":6163:6189  claimableBalances[account] */\n      0xffffffffffffffffffffffffffffffffffffffff\n      and\n      0xffffffffffffffffffffffffffffffffffffffff\n      and\n      dup2\n      mstore\n      0x20\n      add\n      swap1\n      dup2\n      mstore\n      0x20\n      add\n      0x00\n      keccak256\n      sload\n        /* \"ClaimFVCK.sol\":6130:6190  TokensAllocated(account, amount, claimableBalances[account]) */\n      mload(0x40)\n      tag_246\n      swap3\n      swap2\n      swap1\n      tag_247\n      jump\t// in\n    tag_246:\n      mload(0x40)\n      dup1\n      swap2\n      sub\n      swap1\n      log2\n        /* \"ClaimFVCK.sol\":5469:6201  {... */\n      pop\n      pop\n        /* \"ClaimFVCK.sol\":5464:5467  i++ */\n      dup1\n      dup1\n      0x01\n      add\n      swap2\n      pop\n      pop\n        /* \"ClaimFVCK.sol\":5422:6201  for (uint256 i = 0; i < _accounts.length; i++) {... */\n      jump(tag_224)\n    tag_225:\n      pop\n        /* \"ClaimFVCK.sol\":6275:6293  newTotalToAllocate */\n      dup1\n        /* \"ClaimFVCK.sol\":6258:6272  totalAllocated */\n      sload(0x09)\n        /* \"ClaimFVCK.sol\":6258:6293  totalAllocated + newTotalToAllocate */\n      tag_248\n      swap2\n      swap1\n      tag_186\n      jump\t// in\n    tag_248:\n        /* \"ClaimFVCK.sol\":6232:6254  contractTokenBalance() */\n      tag_249\n        /* \"ClaimFVCK.sol\":6232:6252  contractTokenBalance */\n      tag_115\n        /* \"ClaimFVCK.sol\":6232:6254  contractTokenBalance() */\n      jump\t// in\n    tag_249:\n        /* \"ClaimFVCK.sol\":6232:6293  contractTokenBalance() >= totalAllocated + newTotalToAllocate */\n      lt\n      iszero\n        /* \"ClaimFVCK.sol\":6211:6363  require(... */\n      tag_250\n      jumpi\n      mload(0x40)\n      0x08c379a000000000000000000000000000000000000000000000000000000000\n      dup2\n      mstore\n      0x04\n      add\n      tag_251\n      swap1\n      tag_252\n      jump\t// in\n    tag_251:\n      mload(0x40)\n      dup1\n      swap2\n      sub\n      swap1\n      revert\n    tag_250:\n        /* \"ClaimFVCK.sol\":6392:6410  newTotalToAllocate */\n      dup1\n        /* \"ClaimFVCK.sol\":6374:6388  totalAllocated */\n      0x09\n      0x00\n        /* \"ClaimFVCK.sol\":6374:6410  totalAllocated += newTotalToAllocate */\n      dup3\n      dup3\n      sload\n      tag_253\n      swap2\n      swap1\n      tag_186\n      jump\t// in\n    tag_253:\n      swap3\n      pop\n      pop\n      dup2\n      swap1\n      sstore\n      pop\n        /* \"ClaimFVCK.sol\":6426:6466  ClaimableBatchAdded(_accounts, _amounts) */\n      0xf14d1c8e59d4cd079b88d0e19cf0de41c86b7a761d5032c0947977002b3ad93a\n        /* \"ClaimFVCK.sol\":6446:6455  _accounts */\n      dup6\n      dup6\n        /* \"ClaimFVCK.sol\":6457:6465  _amounts */\n      dup6\n      dup6\n        /* \"ClaimFVCK.sol\":6426:6466  ClaimableBatchAdded(_accounts, _amounts) */\n      mload(0x40)\n      tag_254\n      swap5\n      swap4\n      swap3\n      swap2\n      swap1\n      tag_255\n      jump\t// in\n    tag_254:\n      mload(0x40)\n      dup1\n      swap2\n      sub\n      swap1\n      log1\n        /* \"ClaimFVCK.sol\":5252:6473  {... */\n      pop\n        /* \"ClaimFVCK.sol\":5125:6473  function addClaimableBatch(... */\n      pop\n      pop\n      pop\n      pop\n      jump\t// out\n        /* \"ClaimFVCK.sol\":7911:8418  function emergencyWithdraw() external onlyOwner nonReentrant {... */\n    tag_136:\n        /* \"@openzeppelin/contracts/access/Ownable.sol\":1531:1544  _checkOwner() */\n      tag_257\n        /* \"@openzeppelin/contracts/access/Ownable.sol\":1531:1542  _checkOwner */\n      tag_161\n        /* \"@openzeppelin/contracts/access/Ownable.sol\":1531:1544  _checkOwner() */\n      jump\t// in\n    tag_257:\n        /* \"@openzeppelin/contracts/security/ReentrancyGuard.sol\":2261:2282  _nonReentrantBefore() */\n      tag_259\n        /* \"@openzeppelin/contracts/security/ReentrancyGuard.sol\":2261:2280  _nonReentrantBefore */\n      tag_166\n        /* \"@openzeppelin/contracts/security/ReentrancyGuard.sol\":2261:2282  _nonReentrantBefore() */\n      jump\t// in\n    tag_259:\n        /* \"ClaimFVCK.sol\":7982:8005  uint256 contractBalance */\n      0x00\n        /* \"ClaimFVCK.sol\":8008:8013  token */\n      immutable(\"0x755086c717cb5d158287af515dd799b5ec7f30c3baee71f20accbab571e166d5\")\n        /* \"ClaimFVCK.sol\":8008:8023  token.balanceOf */\n      0xffffffffffffffffffffffffffffffffffffffff\n      and\n      0x70a08231\n        /* \"ClaimFVCK.sol\":8032:8036  this */\n      address\n        /* \"ClaimFVCK.sol\":8008:8038  token.balanceOf(address(this)) */\n      mload(0x40)\n      dup3\n      0xffffffff\n      and\n      0xe0\n      shl\n      dup2\n      mstore\n      0x04\n      add\n      tag_261\n      swap2\n      swap1\n      tag_97\n      jump\t// in\n    tag_261:\n      0x20\n      mload(0x40)\n      dup1\n      dup4\n      sub\n      dup2\n      dup7\n      gas\n      staticcall\n      iszero\n      dup1\n      iszero\n      tag_263\n      jumpi\n      returndatacopy(0x00, 0x00, returndatasize)\n      revert(0x00, returndatasize)\n    tag_263:\n      pop\n      pop\n      pop\n      pop\n      mload(0x40)\n      returndatasize\n      not(0x1f)\n      0x1f\n      dup3\n      add\n      and\n      dup3\n      add\n      dup1\n      0x40\n      mstore\n      pop\n      dup2\n      add\n      swap1\n      tag_264\n      swap2\n      swap1\n      tag_207\n      jump\t// in\n    tag_264:\n        /* \"ClaimFVCK.sol\":7982:8038  uint256 contractBalance = token.balanceOf(address(this)) */\n      swap1\n      pop\n        /* \"ClaimFVCK.sol\":8074:8075  0 */\n      0x00\n        /* \"ClaimFVCK.sol\":8056:8071  contractBalance */\n      dup2\n        /* \"ClaimFVCK.sol\":8056:8075  contractBalance > 0 */\n      gt\n        /* \"ClaimFVCK.sol\":8048:8103  require(contractBalance > 0, \"Contract has no balance\") */\n      tag_265\n      jumpi\n      mload(0x40)\n      0x08c379a000000000000000000000000000000000000000000000000000000000\n      dup2\n      mstore\n      0x04\n      add\n      tag_266\n      swap1\n      tag_267\n      jump\t// in\n    tag_266:\n      mload(0x40)\n      dup1\n      swap2\n      sub\n      swap1\n      revert\n    tag_265:\n        /* \"ClaimFVCK.sol\":8177:8202  emergencyWithdrawCooldown */\n      sload(0x0d)\n        /* \"ClaimFVCK.sol\":8153:8174  lastEmergencyWithdraw */\n      sload(0x0c)\n        /* \"ClaimFVCK.sol\":8153:8202  lastEmergencyWithdraw + emergencyWithdrawCooldown */\n      tag_268\n      swap2\n      swap1\n      tag_186\n      jump\t// in\n    tag_268:\n        /* \"ClaimFVCK.sol\":8134:8149  block.timestamp */\n      timestamp\n        /* \"ClaimFVCK.sol\":8134:8202  block.timestamp >= lastEmergencyWithdraw + emergencyWithdrawCooldown */\n      lt\n      iszero\n        /* \"ClaimFVCK.sol\":8113:8248  require(... */\n      tag_269\n      jumpi\n      mload(0x40)\n      0x08c379a000000000000000000000000000000000000000000000000000000000\n      dup2\n      mstore\n      0x04\n      add\n      tag_270\n      swap1\n      tag_271\n      jump\t// in\n    tag_270:\n      mload(0x40)\n      dup1\n      swap2\n      sub\n      swap1\n      revert\n    tag_269:\n        /* \"ClaimFVCK.sol\":8283:8298  block.timestamp */\n      timestamp\n        /* \"ClaimFVCK.sol\":8259:8280  lastEmergencyWithdraw */\n      0x0c\n        /* \"ClaimFVCK.sol\":8259:8298  lastEmergencyWithdraw = block.timestamp */\n      dup2\n      swap1\n      sstore\n      pop\n        /* \"ClaimFVCK.sol\":8308:8352  token.safeTransfer(owner(), contractBalance) */\n      tag_272\n        /* \"ClaimFVCK.sol\":8327:8334  owner() */\n      tag_273\n        /* \"ClaimFVCK.sol\":8327:8332  owner */\n      tag_95\n        /* \"ClaimFVCK.sol\":8327:8334  owner() */\n      jump\t// in\n    tag_273:\n        /* \"ClaimFVCK.sol\":8336:8351  contractBalance */\n      dup3\n        /* \"ClaimFVCK.sol\":8308:8313  token */\n      immutable(\"0x755086c717cb5d158287af515dd799b5ec7f30c3baee71f20accbab571e166d5\")\n        /* \"ClaimFVCK.sol\":8308:8326  token.safeTransfer */\n      0xffffffffffffffffffffffffffffffffffffffff\n      and\n      tag_188\n      swap1\n        /* \"ClaimFVCK.sol\":8308:8352  token.safeTransfer(owner(), contractBalance) */\n      swap3\n      swap2\n      swap1\n      0xffffffff\n      and\n      jump\t// in\n    tag_272:\n        /* \"ClaimFVCK.sol\":8386:8393  owner() */\n      tag_274\n        /* \"ClaimFVCK.sol\":8386:8391  owner */\n      tag_95\n        /* \"ClaimFVCK.sol\":8386:8393  owner() */\n      jump\t// in\n    tag_274:\n        /* \"ClaimFVCK.sol\":8368:8411  EmergencyWithdraw(owner(), contractBalance) */\n      0xffffffffffffffffffffffffffffffffffffffff\n      and\n      0x5fafa99d0643513820be26656b45130b01e1c03062e1266bf36f88cbd3bd9695\n        /* \"ClaimFVCK.sol\":8395:8410  contractBalance */\n      dup3\n        /* \"ClaimFVCK.sol\":8368:8411  EmergencyWithdraw(owner(), contractBalance) */\n      mload(0x40)\n      tag_275\n      swap2\n      swap1\n      tag_43\n      jump\t// in\n    tag_275:\n      mload(0x40)\n      dup1\n      swap2\n      sub\n      swap1\n      log2\n        /* \"ClaimFVCK.sol\":7972:8418  {... */\n      pop\n        /* \"@openzeppelin/contracts/security/ReentrancyGuard.sol\":2303:2323  _nonReentrantAfter() */\n      tag_276\n        /* \"@openzeppelin/contracts/security/ReentrancyGuard.sol\":2303:2321  _nonReentrantAfter */\n      tag_190\n        /* \"@openzeppelin/contracts/security/ReentrancyGuard.sol\":2303:2323  _nonReentrantAfter() */\n      jump\t// in\n    tag_276:\n        /* \"ClaimFVCK.sol\":7911:8418  function emergencyWithdraw() external onlyOwner nonReentrant {... */\n      jump\t// out\n        /* \"ClaimFVCK.sol\":4497:4838  function depositTokens(uint256 _amount) external onlyOwner {... */\n    tag_141:\n        /* \"@openzeppelin/contracts/access/Ownable.sol\":1531:1544  _checkOwner() */\n      tag_278\n        /* \"@openzeppelin/contracts/access/Ownable.sol\":1531:1542  _checkOwner */\n      tag_161\n        /* \"@openzeppelin/contracts/access/Ownable.sol\":1531:1544  _checkOwner() */\n      jump\t// in\n    tag_278:\n        /* \"ClaimFVCK.sol\":4584:4585  0 */\n      0x00\n        /* \"ClaimFVCK.sol\":4574:4581  _amount */\n      dup2\n        /* \"ClaimFVCK.sol\":4574:4585  _amount > 0 */\n      gt\n        /* \"ClaimFVCK.sol\":4566:4630  require(_amount > 0, \"Deposit amount must be greater than zero\") */\n      tag_280\n      jumpi\n      mload(0x40)\n      0x08c379a000000000000000000000000000000000000000000000000000000000\n      dup2\n      mstore\n      0x04\n      add\n      tag_281\n      swap1\n      tag_282\n      jump\t// in\n    tag_281:\n      mload(0x40)\n      dup1\n      swap2\n      sub\n      swap1\n      revert\n    tag_280:\n        /* \"ClaimFVCK.sol\":4679:4686  _amount */\n      dup1\n        /* \"ClaimFVCK.sol\":4648:4653  token */\n      immutable(\"0x755086c717cb5d158287af515dd799b5ec7f30c3baee71f20accbab571e166d5\")\n        /* \"ClaimFVCK.sol\":4648:4663  token.balanceOf */\n      0xffffffffffffffffffffffffffffffffffffffff\n      and\n      0x70a08231\n        /* \"ClaimFVCK.sol\":4664:4674  msg.sender */\n      caller\n        /* \"ClaimFVCK.sol\":4648:4675  token.balanceOf(msg.sender) */\n      mload(0x40)\n      dup3\n      0xffffffff\n      and\n      0xe0\n      shl\n      dup2\n      mstore\n      0x04\n      add\n      tag_283\n      swap2\n      swap1\n      tag_97\n      jump\t// in\n    tag_283:\n      0x20\n      mload(0x40)\n      dup1\n      dup4\n      sub\n      dup2\n      dup7\n      gas\n      staticcall\n      iszero\n      dup1\n      iszero\n      tag_285\n      jumpi\n      returndatacopy(0x00, 0x00, returndatasize)\n      revert(0x00, returndatasize)\n    tag_285:\n      pop\n      pop\n      pop\n      pop\n      mload(0x40)\n      returndatasize\n      not(0x1f)\n      0x1f\n      dup3\n      add\n      and\n      dup3\n      add\n      dup1\n      0x40\n      mstore\n      pop\n      dup2\n      add\n      swap1\n      tag_286\n      swap2\n      swap1\n      tag_207\n      jump\t// in\n    tag_286:\n        /* \"ClaimFVCK.sol\":4648:4686  token.balanceOf(msg.sender) >= _amount */\n      lt\n      iszero\n        /* \"ClaimFVCK.sol\":4640:4711  require(token.balanceOf(msg.sender) >= _amount, \"Insufficient balance\") */\n      tag_287\n      jumpi\n      mload(0x40)\n      0x08c379a000000000000000000000000000000000000000000000000000000000\n      dup2\n      mstore\n      0x04\n      add\n      tag_288\n      swap1\n      tag_289\n      jump\t// in\n    tag_288:\n      mload(0x40)\n      dup1\n      swap2\n      sub\n      swap1\n      revert\n    tag_287:\n        /* \"ClaimFVCK.sol\":4722:4780  token.safeTransferFrom(msg.sender, address(this), _amount) */\n      tag_290\n        /* \"ClaimFVCK.sol\":4745:4755  msg.sender */\n      caller\n        /* \"ClaimFVCK.sol\":4765:4769  this */\n      address\n        /* \"ClaimFVCK.sol\":4772:4779  _amount */\n      dup4\n        /* \"ClaimFVCK.sol\":4722:4727  token */\n      immutable(\"0x755086c717cb5d158287af515dd799b5ec7f30c3baee71f20accbab571e166d5\")\n        /* \"ClaimFVCK.sol\":4722:4744  token.safeTransferFrom */\n      0xffffffffffffffffffffffffffffffffffffffff\n      and\n      tag_291\n      swap1\n        /* \"ClaimFVCK.sol\":4722:4780  token.safeTransferFrom(msg.sender, address(this), _amount) */\n      swap4\n      swap3\n      swap2\n      swap1\n      0xffffffff\n      and\n      jump\t// in\n    tag_290:\n        /* \"ClaimFVCK.sol\":4811:4821  msg.sender */\n      caller\n        /* \"ClaimFVCK.sol\":4796:4831  TokenDeposited(msg.sender, _amount) */\n      0xffffffffffffffffffffffffffffffffffffffff\n      and\n      0xbc7c8a4d8049a3f99a02f2a20640c206a2e4d3f2fa54fd20da9f01fda3620cda\n        /* \"ClaimFVCK.sol\":4823:4830  _amount */\n      dup3\n        /* \"ClaimFVCK.sol\":4796:4831  TokenDeposited(msg.sender, _amount) */\n      mload(0x40)\n      tag_292\n      swap2\n      swap1\n      tag_43\n      jump\t// in\n    tag_292:\n      mload(0x40)\n      dup1\n      swap2\n      sub\n      swap1\n      log2\n        /* \"ClaimFVCK.sol\":4497:4838  function depositTokens(uint256 _amount) external onlyOwner {... */\n      pop\n      jump\t// out\n        /* \"ClaimFVCK.sol\":7379:7607  function withdrawApprovalFees() external onlyOwner {... */\n    tag_144:\n        /* \"@openzeppelin/contracts/access/Ownable.sol\":1531:1544  _checkOwner() */\n      tag_294\n        /* \"@openzeppelin/contracts/access/Ownable.sol\":1531:1542  _checkOwner */\n      tag_161\n        /* \"@openzeppelin/contracts/access/Ownable.sol\":1531:1544  _checkOwner() */\n      jump\t// in\n    tag_294:\n        /* \"ClaimFVCK.sol\":7440:7463  uint256 contractBalance */\n      0x00\n        /* \"ClaimFVCK.sol\":7466:7487  address(this).balance */\n      selfbalance\n        /* \"ClaimFVCK.sol\":7440:7487  uint256 contractBalance = address(this).balance */\n      swap1\n      pop\n        /* \"ClaimFVCK.sol\":7523:7524  0 */\n      0x00\n        /* \"ClaimFVCK.sol\":7505:7520  contractBalance */\n      dup2\n        /* \"ClaimFVCK.sol\":7505:7524  contractBalance > 0 */\n      gt\n        /* \"ClaimFVCK.sol\":7497:7548  require(contractBalance > 0, \"No fees to withdraw\") */\n      tag_296\n      jumpi\n      mload(0x40)\n      0x08c379a000000000000000000000000000000000000000000000000000000000\n      dup2\n      mstore\n      0x04\n      add\n      tag_297\n      swap1\n      tag_298\n      jump\t// in\n    tag_297:\n      mload(0x40)\n      dup1\n      swap2\n      sub\n      swap1\n      revert\n    tag_296:\n        /* \"ClaimFVCK.sol\":7566:7573  owner() */\n      tag_299\n        /* \"ClaimFVCK.sol\":7566:7571  owner */\n      tag_95\n        /* \"ClaimFVCK.sol\":7566:7573  owner() */\n      jump\t// in\n    tag_299:\n        /* \"ClaimFVCK.sol\":7558:7583  payable(owner()).transfer */\n      0xffffffffffffffffffffffffffffffffffffffff\n      and\n        /* \"ClaimFVCK.sol\":7558:7600  payable(owner()).transfer(contractBalance) */\n      0x08fc\n        /* \"ClaimFVCK.sol\":7584:7599  contractBalance */\n      dup3\n        /* \"ClaimFVCK.sol\":7558:7600  payable(owner()).transfer(contractBalance) */\n      swap1\n      dup2\n      iszero\n      mul\n      swap1\n      mload(0x40)\n      0x00\n      mload(0x40)\n      dup1\n      dup4\n      sub\n      dup2\n      dup6\n      dup9\n      dup9\n      call\n      swap4\n      pop\n      pop\n      pop\n      pop\n      iszero\n      dup1\n      iszero\n      tag_301\n      jumpi\n      returndatacopy(0x00, 0x00, returndatasize)\n      revert(0x00, returndatasize)\n    tag_301:\n      pop\n        /* \"ClaimFVCK.sol\":7430:7607  {... */\n      pop\n        /* \"ClaimFVCK.sol\":7379:7607  function withdrawApprovalFees() external onlyOwner {... */\n      jump\t// out\n        /* \"ClaimFVCK.sol\":3165:3311  function setClaimApprovalFee(uint256 _fee) external onlyOwner {... */\n    tag_148:\n        /* \"@openzeppelin/contracts/access/Ownable.sol\":1531:1544  _checkOwner() */\n      tag_303\n        /* \"@openzeppelin/contracts/access/Ownable.sol\":1531:1542  _checkOwner */\n      tag_161\n        /* \"@openzeppelin/contracts/access/Ownable.sol\":1531:1544  _checkOwner() */\n      jump\t// in\n    tag_303:\n        /* \"ClaimFVCK.sol\":3256:3260  _fee */\n      dup1\n        /* \"ClaimFVCK.sol\":3237:3253  claimApprovalFee */\n      0x0e\n        /* \"ClaimFVCK.sol\":3237:3260  claimApprovalFee = _fee */\n      dup2\n      swap1\n      sstore\n      pop\n        /* \"ClaimFVCK.sol\":3275:3304  ClaimApprovalFeeUpdated(_fee) */\n      0x046767aa5821ba6f1a985f8cf0134cb534cba0b26ff165803d3602c7ff046cd4\n        /* \"ClaimFVCK.sol\":3299:3303  _fee */\n      dup2\n        /* \"ClaimFVCK.sol\":3275:3304  ClaimApprovalFeeUpdated(_fee) */\n      mload(0x40)\n      tag_305\n      swap2\n      swap1\n      tag_43\n      jump\t// in\n    tag_305:\n      mload(0x40)\n      dup1\n      swap2\n      sub\n      swap1\n      log1\n        /* \"ClaimFVCK.sol\":3165:3311  function setClaimApprovalFee(uint256 _fee) external onlyOwner {... */\n      pop\n      jump\t// out\n        /* \"@openzeppelin/contracts/access/Ownable.sol\":2543:2758  function transferOwnership(address newOwner) public virtual onlyOwner {... */\n    tag_152:\n        /* \"@openzeppelin/contracts/access/Ownable.sol\":1531:1544  _checkOwner() */\n      tag_307\n        /* \"@openzeppelin/contracts/access/Ownable.sol\":1531:1542  _checkOwner */\n      tag_161\n        /* \"@openzeppelin/contracts/access/Ownable.sol\":1531:1544  _checkOwner() */\n      jump\t// in\n    tag_307:\n        /* \"@openzeppelin/contracts/access/Ownable.sol\":2647:2648  0 */\n      0x00\n        /* \"@openzeppelin/contracts/access/Ownable.sol\":2627:2649  newOwner == address(0) */\n      0xffffffffffffffffffffffffffffffffffffffff\n      and\n        /* \"@openzeppelin/contracts/access/Ownable.sol\":2627:2635  newOwner */\n      dup2\n        /* \"@openzeppelin/contracts/access/Ownable.sol\":2627:2649  newOwner == address(0) */\n      0xffffffffffffffffffffffffffffffffffffffff\n      and\n      sub\n        /* \"@openzeppelin/contracts/access/Ownable.sol\":2623:2714  if (newOwner == address(0)) {... */\n      tag_309\n      jumpi\n        /* \"@openzeppelin/contracts/access/Ownable.sol\":2700:2701  0 */\n      0x00\n        /* \"@openzeppelin/contracts/access/Ownable.sol\":2672:2703  OwnableInvalidOwner(address(0)) */\n      mload(0x40)\n      0x1e4fbdf700000000000000000000000000000000000000000000000000000000\n      dup2\n      mstore\n      0x04\n      add\n      tag_310\n      swap2\n      swap1\n      tag_97\n      jump\t// in\n    tag_310:\n      mload(0x40)\n      dup1\n      swap2\n      sub\n      swap1\n      revert\n        /* \"@openzeppelin/contracts/access/Ownable.sol\":2623:2714  if (newOwner == address(0)) {... */\n    tag_309:\n        /* \"@openzeppelin/contracts/access/Ownable.sol\":2723:2751  _transferOwnership(newOwner) */\n      tag_311\n        /* \"@openzeppelin/contracts/access/Ownable.sol\":2742:2750  newOwner */\n      dup2\n        /* \"@openzeppelin/contracts/access/Ownable.sol\":2723:2741  _transferOwnership */\n      tag_196\n        /* \"@openzeppelin/contracts/access/Ownable.sol\":2723:2751  _transferOwnership(newOwner) */\n      jump\t// in\n    tag_311:\n        /* \"@openzeppelin/contracts/access/Ownable.sol\":2543:2758  function transferOwnership(address newOwner) public virtual onlyOwner {... */\n      pop\n      jump\t// out\n        /* \"ClaimFVCK.sol\":696:725  IERC20 public immutable token */\n    tag_155:\n      immutable(\"0x755086c717cb5d158287af515dd799b5ec7f30c3baee71f20accbab571e166d5\")\n      dup2\n      jump\t// out\n        /* \"@openzeppelin/contracts/access/Ownable.sol\":1796:1958  function _checkOwner() internal view virtual {... */\n    tag_161:\n        /* \"@openzeppelin/contracts/access/Ownable.sol\":1866:1878  _msgSender() */\n      tag_313\n        /* \"@openzeppelin/contracts/access/Ownable.sol\":1866:1876  _msgSender */\n      tag_314\n        /* \"@openzeppelin/contracts/access/Ownable.sol\":1866:1878  _msgSender() */\n      jump\t// in\n    tag_313:\n        /* \"@openzeppelin/contracts/access/Ownable.sol\":1855:1878  owner() != _msgSender() */\n      0xffffffffffffffffffffffffffffffffffffffff\n      and\n        /* \"@openzeppelin/contracts/access/Ownable.sol\":1855:1862  owner() */\n      tag_315\n        /* \"@openzeppelin/contracts/access/Ownable.sol\":1855:1860  owner */\n      tag_95\n        /* \"@openzeppelin/contracts/access/Ownable.sol\":1855:1862  owner() */\n      jump\t// in\n    tag_315:\n        /* \"@openzeppelin/contracts/access/Ownable.sol\":1855:1878  owner() != _msgSender() */\n      0xffffffffffffffffffffffffffffffffffffffff\n      and\n      eq\n        /* \"@openzeppelin/contracts/access/Ownable.sol\":1851:1952  if (owner() != _msgSender()) {... */\n      tag_316\n      jumpi\n        /* \"@openzeppelin/contracts/access/Ownable.sol\":1928:1940  _msgSender() */\n      tag_317\n        /* \"@openzeppelin/contracts/access/Ownable.sol\":1928:1938  _msgSender */\n      tag_314\n        /* \"@openzeppelin/contracts/access/Ownable.sol\":1928:1940  _msgSender() */\n      jump\t// in\n    tag_317:\n        /* \"@openzeppelin/contracts/access/Ownable.sol\":1901:1941  OwnableUnauthorizedAccount(_msgSender()) */\n      mload(0x40)\n      0x118cdaa700000000000000000000000000000000000000000000000000000000\n      dup2\n      mstore\n      0x04\n      add\n      tag_318\n      swap2\n      swap1\n      tag_97\n      jump\t// in\n    tag_318:\n      mload(0x40)\n      dup1\n      swap2\n      sub\n      swap1\n      revert\n        /* \"@openzeppelin/contracts/access/Ownable.sol\":1851:1952  if (owner() != _msgSender()) {... */\n    tag_316:\n        /* \"@openzeppelin/contracts/access/Ownable.sol\":1796:1958  function _checkOwner() internal view virtual {... */\n      jump\t// out\n        /* \"@openzeppelin/contracts/security/ReentrancyGuard.sol\":2336:2623  function _nonReentrantBefore() private {... */\n    tag_166:\n        /* \"@openzeppelin/contracts/security/ReentrancyGuard.sol\":1759:1760  2 */\n      0x02\n        /* \"@openzeppelin/contracts/security/ReentrancyGuard.sol\":2468:2475  _status */\n      sload(0x01)\n        /* \"@openzeppelin/contracts/security/ReentrancyGuard.sol\":2468:2487  _status != _ENTERED */\n      sub\n        /* \"@openzeppelin/contracts/security/ReentrancyGuard.sol\":2460:2523  require(_status != _ENTERED, \"ReentrancyGuard: reentrant call\") */\n      tag_320\n      jumpi\n      mload(0x40)\n      0x08c379a000000000000000000000000000000000000000000000000000000000\n      dup2\n      mstore\n      0x04\n      add\n      tag_321\n      swap1\n      tag_322\n      jump\t// in\n    tag_321:\n      mload(0x40)\n      dup1\n      swap2\n      sub\n      swap1\n      revert\n    tag_320:\n        /* \"@openzeppelin/contracts/security/ReentrancyGuard.sol\":1759:1760  2 */\n      0x02\n        /* \"@openzeppelin/contracts/security/ReentrancyGuard.sol\":2598:2605  _status */\n      0x01\n        /* \"@openzeppelin/contracts/security/ReentrancyGuard.sol\":2598:2616  _status = _ENTERED */\n      dup2\n      swap1\n      sstore\n      pop\n        /* \"@openzeppelin/contracts/security/ReentrancyGuard.sol\":2336:2623  function _nonReentrantBefore() private {... */\n      jump\t// out\n        /* \"@openzeppelin/contracts/token/ERC20/utils/SafeERC20.sol\":1271:1431  function safeTransfer(IERC20 token, address to, uint256 value) internal {... */\n    tag_188:\n        /* \"@openzeppelin/contracts/token/ERC20/utils/SafeERC20.sol\":1353:1424  _callOptionalReturn(token, abi.encodeCall(token.transfer, (to, value))) */\n      tag_324\n        /* \"@openzeppelin/contracts/token/ERC20/utils/SafeERC20.sol\":1373:1378  token */\n      dup4\n        /* \"@openzeppelin/contracts/token/ERC20/utils/SafeERC20.sol\":1395:1400  token */\n      dup5\n        /* \"@openzeppelin/contracts/token/ERC20/utils/SafeERC20.sol\":1395:1409  token.transfer */\n      0xffffffffffffffffffffffffffffffffffffffff\n      and\n      0xa9059cbb\n        /* \"@openzeppelin/contracts/token/ERC20/utils/SafeERC20.sol\":1412:1414  to */\n      dup6\n        /* \"@openzeppelin/contracts/token/ERC20/utils/SafeERC20.sol\":1416:1421  value */\n      dup6\n        /* \"@openzeppelin/contracts/token/ERC20/utils/SafeERC20.sol\":1380:1423  abi.encodeCall(token.transfer, (to, value)) */\n      add(0x24, mload(0x40))\n      tag_325\n      swap3\n      swap2\n      swap1\n      tag_326\n      jump\t// in\n    tag_325:\n      mload(0x40)\n      0x20\n      dup2\n      dup4\n      sub\n      sub\n      dup2\n      mstore\n      swap1\n      0x40\n      mstore\n      swap2\n      pop\n      0xe0\n      shl\n      0x20\n      dup3\n      add\n      dup1\n      mload\n      0xffffffffffffffffffffffffffffffffffffffffffffffffffffffff\n      dup4\n      dup2\n      dup4\n      and\n      or\n      dup4\n      mstore\n      pop\n      pop\n      pop\n      pop\n        /* \"@openzeppelin/contracts/token/ERC20/utils/SafeERC20.sol\":1353:1372  _callOptionalReturn */\n      tag_327\n        /* \"@openzeppelin/contracts/token/ERC20/utils/SafeERC20.sol\":1353:1424  _callOptionalReturn(token, abi.encodeCall(token.transfer, (to, value))) */\n      jump\t// in\n    tag_324:\n        /* \"@openzeppelin/contracts/token/ERC20/utils/SafeERC20.sol\":1271:1431  function safeTransfer(IERC20 token, address to, uint256 value) internal {... */\n      pop\n      pop\n      pop\n      jump\t// out\n        /* \"@openzeppelin/contracts/security/ReentrancyGuard.sol\":2629:2838  function _nonReentrantAfter() private {... */\n    tag_190:\n        /* \"@openzeppelin/contracts/security/ReentrancyGuard.sol\":1716:1717  1 */\n      0x01\n        /* \"@openzeppelin/contracts/security/ReentrancyGuard.sol\":2809:2816  _status */\n      dup1\n        /* \"@openzeppelin/contracts/security/ReentrancyGuard.sol\":2809:2831  _status = _NOT_ENTERED */\n      dup2\n      swap1\n      sstore\n      pop\n        /* \"@openzeppelin/contracts/security/ReentrancyGuard.sol\":2629:2838  function _nonReentrantAfter() private {... */\n      jump\t// out\n        /* \"@openzeppelin/contracts/access/Ownable.sol\":2912:3099  function _transferOwnership(address newOwner) internal virtual {... */\n    tag_196:\n        /* \"@openzeppelin/contracts/access/Ownable.sol\":2985:3001  address oldOwner */\n      0x00\n        /* \"@openzeppelin/contracts/access/Ownable.sol\":3004:3010  _owner */\n      0x00\n      0x00\n      swap1\n      sload\n      swap1\n      0x0100\n      exp\n      swap1\n      div\n      0xffffffffffffffffffffffffffffffffffffffff\n      and\n        /* \"@openzeppelin/contracts/access/Ownable.sol\":2985:3010  address oldOwner = _owner */\n      swap1\n      pop\n        /* \"@openzeppelin/contracts/access/Ownable.sol\":3029:3037  newOwner */\n      dup2\n        /* \"@openzeppelin/contracts/access/Ownable.sol\":3020:3026  _owner */\n      0x00\n      0x00\n        /* \"@openzeppelin/contracts/access/Ownable.sol\":3020:3037  _owner = newOwner */\n      0x0100\n      exp\n      dup2\n      sload\n      dup2\n      0xffffffffffffffffffffffffffffffffffffffff\n      mul\n      not\n      and\n      swap1\n      dup4\n      0xffffffffffffffffffffffffffffffffffffffff\n      and\n      mul\n      or\n      swap1\n      sstore\n      pop\n        /* \"@openzeppelin/contracts/access/Ownable.sol\":3083:3091  newOwner */\n      dup2\n        /* \"@openzeppelin/contracts/access/Ownable.sol\":3052:3092  OwnershipTransferred(oldOwner, newOwner) */\n      0xffffffffffffffffffffffffffffffffffffffff\n      and\n        /* \"@openzeppelin/contracts/access/Ownable.sol\":3073:3081  oldOwner */\n      dup2\n        /* \"@openzeppelin/contracts/access/Ownable.sol\":3052:3092  OwnershipTransferred(oldOwner, newOwner) */\n      0xffffffffffffffffffffffffffffffffffffffff\n      and\n      0x8be0079c531659141344cd1fd0a4f28419497f9722a3daafe3b4186f6b6457e0\n      mload(0x40)\n      mload(0x40)\n      dup1\n      swap2\n      sub\n      swap1\n      log3\n        /* \"@openzeppelin/contracts/access/Ownable.sol\":2975:3099  {... */\n      pop\n        /* \"@openzeppelin/contracts/access/Ownable.sol\":2912:3099  function _transferOwnership(address newOwner) internal virtual {... */\n      pop\n      jump\t// out\n        /* \"@openzeppelin/contracts/token/ERC20/utils/SafeERC20.sol\":1670:1858  function safeTransferFrom(IERC20 token, address from, address to, uint256 value) internal {... */\n    tag_291:\n        /* \"@openzeppelin/contracts/token/ERC20/utils/SafeERC20.sol\":1770:1851  _callOptionalReturn(token, abi.encodeCall(token.transferFrom, (from, to, value))) */\n      tag_331\n        /* \"@openzeppelin/contracts/token/ERC20/utils/SafeERC20.sol\":1790:1795  token */\n      dup5\n        /* \"@openzeppelin/contracts/token/ERC20/utils/SafeERC20.sol\":1812:1817  token */\n      dup6\n        /* \"@openzeppelin/contracts/token/ERC20/utils/SafeERC20.sol\":1812:1830  token.transferFrom */\n      0xffffffffffffffffffffffffffffffffffffffff\n      and\n      0x23b872dd\n        /* \"@openzeppelin/contracts/token/ERC20/utils/SafeERC20.sol\":1833:1837  from */\n      dup7\n        /* \"@openzeppelin/contracts/token/ERC20/utils/SafeERC20.sol\":1839:1841  to */\n      dup7\n        /* \"@openzeppelin/contracts/token/ERC20/utils/SafeERC20.sol\":1843:1848  value */\n      dup7\n        /* \"@openzeppelin/contracts/token/ERC20/utils/SafeERC20.sol\":1797:1850  abi.encodeCall(token.transferFrom, (from, to, value)) */\n      add(0x24, mload(0x40))\n      tag_332\n      swap4\n      swap3\n      swap2\n      swap1\n      tag_333\n      jump\t// in\n    tag_332:\n      mload(0x40)\n      0x20\n      dup2\n      dup4\n      sub\n      sub\n      dup2\n      mstore\n      swap1\n      0x40\n      mstore\n      swap2\n      pop\n      0xe0\n      shl\n      0x20\n      dup3\n      add\n      dup1\n      mload\n      0xffffffffffffffffffffffffffffffffffffffffffffffffffffffff\n      dup4\n      dup2\n      dup4\n      and\n      or\n      dup4\n      mstore\n      pop\n      pop\n      pop\n      pop\n        /* \"@openzeppelin/contracts/token/ERC20/utils/SafeERC20.sol\":1770:1789  _callOptionalReturn */\n      tag_327\n        /* \"@openzeppelin/contracts/token/ERC20/utils/SafeERC20.sol\":1770:1851  _callOptionalReturn(token, abi.encodeCall(token.transferFrom, (from, to, value))) */\n      jump\t// in\n    tag_331:\n        /* \"@openzeppelin/contracts/token/ERC20/utils/SafeERC20.sol\":1670:1858  function safeTransferFrom(IERC20 token, address from, address to, uint256 value) internal {... */\n      pop\n      pop\n      pop\n      pop\n      jump\t// out\n        /* \"@openzeppelin/contracts/utils/Context.sol\":656:752  function _msgSender() internal view virtual returns (address) {... */\n    tag_314:\n        /* \"@openzeppelin/contracts/utils/Context.sol\":709:716  address */\n      0x00\n        /* \"@openzeppelin/contracts/utils/Context.sol\":735:745  msg.sender */\n      caller\n        /* \"@openzeppelin/contracts/utils/Context.sol\":728:745  return msg.sender */\n      swap1\n      pop\n        /* \"@openzeppelin/contracts/utils/Context.sol\":656:752  function _msgSender() internal view virtual returns (address) {... */\n      swap1\n      jump\t// out\n        /* \"@openzeppelin/contracts/token/ERC20/utils/SafeERC20.sol\":7738:8458  function _callOptionalReturn(IERC20 token, bytes memory data) private {... */\n    tag_327:\n        /* \"@openzeppelin/contracts/token/ERC20/utils/SafeERC20.sol\":7818:7836  uint256 returnSize */\n      0x00\n        /* \"@openzeppelin/contracts/token/ERC20/utils/SafeERC20.sol\":7846:7865  uint256 returnValue */\n      0x00\n        /* \"@openzeppelin/contracts/token/ERC20/utils/SafeERC20.sol\":7984:7988  0x20 */\n      0x20\n        /* \"@openzeppelin/contracts/token/ERC20/utils/SafeERC20.sol\":7981:7982  0 */\n      0x00\n        /* \"@openzeppelin/contracts/token/ERC20/utils/SafeERC20.sol\":7974:7978  data */\n      dup5\n        /* \"@openzeppelin/contracts/token/ERC20/utils/SafeERC20.sol\":7968:7979  mload(data) */\n      mload\n        /* \"@openzeppelin/contracts/token/ERC20/utils/SafeERC20.sol\":7961:7965  0x20 */\n      0x20\n        /* \"@openzeppelin/contracts/token/ERC20/utils/SafeERC20.sol\":7955:7959  data */\n      dup7\n        /* \"@openzeppelin/contracts/token/ERC20/utils/SafeERC20.sol\":7951:7966  add(data, 0x20) */\n      add\n        /* \"@openzeppelin/contracts/token/ERC20/utils/SafeERC20.sol\":7948:7949  0 */\n      0x00\n        /* \"@openzeppelin/contracts/token/ERC20/utils/SafeERC20.sol\":7941:7946  token */\n      dup9\n        /* \"@openzeppelin/contracts/token/ERC20/utils/SafeERC20.sol\":7934:7939  gas() */\n      gas\n        /* \"@openzeppelin/contracts/token/ERC20/utils/SafeERC20.sol\":7929:7989  call(gas(), token, 0, add(data, 0x20), mload(data), 0, 0x20) */\n      call\n        /* \"@openzeppelin/contracts/token/ERC20/utils/SafeERC20.sol\":8041:8048  success */\n      dup1\n        /* \"@openzeppelin/contracts/token/ERC20/utils/SafeERC20.sol\":8031:8207  if iszero(success) {... */\n      tag_336\n      jumpi\n        /* \"@openzeppelin/contracts/token/ERC20/utils/SafeERC20.sol\":8085:8089  0x40 */\n      0x40\n        /* \"@openzeppelin/contracts/token/ERC20/utils/SafeERC20.sol\":8079:8090  mload(0x40) */\n      mload\n        /* \"@openzeppelin/contracts/token/ERC20/utils/SafeERC20.sol\":8130:8146  returndatasize() */\n      returndatasize\n        /* \"@openzeppelin/contracts/token/ERC20/utils/SafeERC20.sol\":8127:8128  0 */\n      0x00\n        /* \"@openzeppelin/contracts/token/ERC20/utils/SafeERC20.sol\":8122:8125  ptr */\n      dup3\n        /* \"@openzeppelin/contracts/token/ERC20/utils/SafeERC20.sol\":8107:8147  returndatacopy(ptr, 0, returndatasize()) */\n      returndatacopy\n        /* \"@openzeppelin/contracts/token/ERC20/utils/SafeERC20.sol\":8176:8192  returndatasize() */\n      returndatasize\n        /* \"@openzeppelin/contracts/token/ERC20/utils/SafeERC20.sol\":8171:8174  ptr */\n      dup2\n        /* \"@openzeppelin/contracts/token/ERC20/utils/SafeERC20.sol\":8164:8193  revert(ptr, returndatasize()) */\n      revert\n        /* \"@openzeppelin/contracts/token/ERC20/utils/SafeERC20.sol\":8031:8207  if iszero(success) {... */\n    tag_336:\n        /* \"@openzeppelin/contracts/token/ERC20/utils/SafeERC20.sol\":8234:8250  returndatasize() */\n      returndatasize\n        /* \"@openzeppelin/contracts/token/ERC20/utils/SafeERC20.sol\":8220:8250  returnSize := returndatasize() */\n      swap3\n      pop\n        /* \"@openzeppelin/contracts/token/ERC20/utils/SafeERC20.sol\":8284:8285  0 */\n      0x00\n        /* \"@openzeppelin/contracts/token/ERC20/utils/SafeERC20.sol\":8278:8286  mload(0) */\n      mload\n        /* \"@openzeppelin/contracts/token/ERC20/utils/SafeERC20.sol\":8263:8286  returnValue := mload(0) */\n      swap2\n      pop\n        /* \"@openzeppelin/contracts/token/ERC20/utils/SafeERC20.sol\":7900:8296  {... */\n      pop\n        /* \"@openzeppelin/contracts/token/ERC20/utils/SafeERC20.sol\":8324:8325  0 */\n      0x00\n        /* \"@openzeppelin/contracts/token/ERC20/utils/SafeERC20.sol\":8310:8320  returnSize */\n      dup3\n        /* \"@openzeppelin/contracts/token/ERC20/utils/SafeERC20.sol\":8310:8325  returnSize == 0 */\n      eq\n        /* \"@openzeppelin/contracts/token/ERC20/utils/SafeERC20.sol\":8310:8378  returnSize == 0 ? address(token).code.length == 0 : returnValue != 1 */\n      tag_337\n      jumpi\n        /* \"@openzeppelin/contracts/token/ERC20/utils/SafeERC20.sol\":8377:8378  1 */\n      0x01\n        /* \"@openzeppelin/contracts/token/ERC20/utils/SafeERC20.sol\":8362:8373  returnValue */\n      dup2\n        /* \"@openzeppelin/contracts/token/ERC20/utils/SafeERC20.sol\":8362:8378  returnValue != 1 */\n      eq\n      iszero\n        /* \"@openzeppelin/contracts/token/ERC20/utils/SafeERC20.sol\":8310:8378  returnSize == 0 ? address(token).code.length == 0 : returnValue != 1 */\n      jump(tag_338)\n    tag_337:\n        /* \"@openzeppelin/contracts/token/ERC20/utils/SafeERC20.sol\":8358:8359  0 */\n      0x00\n        /* \"@openzeppelin/contracts/token/ERC20/utils/SafeERC20.sol\":8336:8341  token */\n      dup5\n        /* \"@openzeppelin/contracts/token/ERC20/utils/SafeERC20.sol\":8328:8354  address(token).code.length */\n      0xffffffffffffffffffffffffffffffffffffffff\n      and\n      extcodesize\n        /* \"@openzeppelin/contracts/token/ERC20/utils/SafeERC20.sol\":8328:8359  address(token).code.length == 0 */\n      eq\n        /* \"@openzeppelin/contracts/token/ERC20/utils/SafeERC20.sol\":8310:8378  returnSize == 0 ? address(token).code.length == 0 : returnValue != 1 */\n    tag_338:\n        /* \"@openzeppelin/contracts/token/ERC20/utils/SafeERC20.sol\":8306:8452  if (returnSize == 0 ? address(token).code.length == 0 : returnValue != 1) {... */\n      iszero\n      tag_339\n      jumpi\n        /* \"@openzeppelin/contracts/token/ERC20/utils/SafeERC20.sol\":8434:8439  token */\n      dup4\n        /* \"@openzeppelin/contracts/token/ERC20/utils/SafeERC20.sol\":8401:8441  SafeERC20FailedOperation(address(token)) */\n      mload(0x40)\n      0x5274afe700000000000000000000000000000000000000000000000000000000\n      dup2\n      mstore\n      0x04\n      add\n      tag_340\n      swap2\n      swap1\n      tag_97\n      jump\t// in\n    tag_340:\n      mload(0x40)\n      dup1\n      swap2\n      sub\n      swap1\n      revert\n        /* \"@openzeppelin/contracts/token/ERC20/utils/SafeERC20.sol\":8306:8452  if (returnSize == 0 ? address(token).code.length == 0 : returnValue != 1) {... */\n    tag_339:\n        /* \"@openzeppelin/contracts/token/ERC20/utils/SafeERC20.sol\":7808:8458  {... */\n      pop\n      pop\n        /* \"@openzeppelin/contracts/token/ERC20/utils/SafeERC20.sol\":7738:8458  function _callOptionalReturn(IERC20 token, bytes memory data) private {... */\n      pop\n      pop\n      jump\t// out\n        /* \"#utility.yul\":88:205   */\n    tag_342:\n        /* \"#utility.yul\":197:198   */\n      0x00\n        /* \"#utility.yul\":194:195   */\n      0x00\n        /* \"#utility.yul\":187:199   */\n      revert\n        /* \"#utility.yul\":211:328   */\n    tag_343:\n        /* \"#utility.yul\":320:321   */\n      0x00\n        /* \"#utility.yul\":317:318   */\n      0x00\n        /* \"#utility.yul\":310:322   */\n      revert\n        /* \"#utility.yul\":334:460   */\n    tag_344:\n        /* \"#utility.yul\":371:378   */\n      0x00\n        /* \"#utility.yul\":411:453   */\n      0xffffffffffffffffffffffffffffffffffffffff\n        /* \"#utility.yul\":404:409   */\n      dup3\n        /* \"#utility.yul\":400:454   */\n      and\n        /* \"#utility.yul\":389:454   */\n      swap1\n      pop\n        /* \"#utility.yul\":334:460   */\n      swap2\n      swap1\n      pop\n      jump\t// out\n        /* \"#utility.yul\":466:562   */\n    tag_345:\n        /* \"#utility.yul\":503:510   */\n      0x00\n        /* \"#utility.yul\":532:556   */\n      tag_417\n        /* \"#utility.yul\":550:555   */\n      dup3\n        /* \"#utility.yul\":532:556   */\n      tag_344\n      jump\t// in\n    tag_417:\n        /* \"#utility.yul\":521:556   */\n      swap1\n      pop\n        /* \"#utility.yul\":466:562   */\n      swap2\n      swap1\n      pop\n      jump\t// out\n        /* \"#utility.yul\":568:690   */\n    tag_346:\n        /* \"#utility.yul\":641:665   */\n      tag_419\n        /* \"#utility.yul\":659:664   */\n      dup2\n        /* \"#utility.yul\":641:665   */\n      tag_345\n      jump\t// in\n    tag_419:\n        /* \"#utility.yul\":634:639   */\n      dup2\n        /* \"#utility.yul\":631:666   */\n      eq\n        /* \"#utility.yul\":621:684   */\n      tag_420\n      jumpi\n        /* \"#utility.yul\":680:681   */\n      0x00\n        /* \"#utility.yul\":677:678   */\n      0x00\n        /* \"#utility.yul\":670:682   */\n      revert\n        /* \"#utility.yul\":621:684   */\n    tag_420:\n        /* \"#utility.yul\":568:690   */\n      pop\n      jump\t// out\n        /* \"#utility.yul\":696:835   */\n    tag_347:\n        /* \"#utility.yul\":742:747   */\n      0x00\n        /* \"#utility.yul\":780:786   */\n      dup2\n        /* \"#utility.yul\":767:787   */\n      calldataload\n        /* \"#utility.yul\":758:787   */\n      swap1\n      pop\n        /* \"#utility.yul\":796:829   */\n      tag_422\n        /* \"#utility.yul\":823:828   */\n      dup2\n        /* \"#utility.yul\":796:829   */\n      tag_346\n      jump\t// in\n    tag_422:\n        /* \"#utility.yul\":696:835   */\n      swap3\n      swap2\n      pop\n      pop\n      jump\t// out\n        /* \"#utility.yul\":841:1170   */\n    tag_40:\n        /* \"#utility.yul\":900:906   */\n      0x00\n        /* \"#utility.yul\":949:951   */\n      0x20\n        /* \"#utility.yul\":937:946   */\n      dup3\n        /* \"#utility.yul\":928:935   */\n      dup5\n        /* \"#utility.yul\":924:947   */\n      sub\n        /* \"#utility.yul\":920:952   */\n      slt\n        /* \"#utility.yul\":917:1036   */\n      iszero\n      tag_424\n      jumpi\n        /* \"#utility.yul\":955:1034   */\n      tag_425\n      tag_342\n      jump\t// in\n    tag_425:\n        /* \"#utility.yul\":917:1036   */\n    tag_424:\n        /* \"#utility.yul\":1075:1076   */\n      0x00\n        /* \"#utility.yul\":1100:1153   */\n      tag_426\n        /* \"#utility.yul\":1145:1152   */\n      dup5\n        /* \"#utility.yul\":1136:1142   */\n      dup3\n        /* \"#utility.yul\":1125:1134   */\n      dup6\n        /* \"#utility.yul\":1121:1143   */\n      add\n        /* \"#utility.yul\":1100:1153   */\n      tag_347\n      jump\t// in\n    tag_426:\n        /* \"#utility.yul\":1090:1153   */\n      swap2\n      pop\n        /* \"#utility.yul\":1046:1163   */\n      pop\n        /* \"#utility.yul\":841:1170   */\n      swap3\n      swap2\n      pop\n      pop\n      jump\t// out\n        /* \"#utility.yul\":1176:1253   */\n    tag_348:\n        /* \"#utility.yul\":1213:1220   */\n      0x00\n        /* \"#utility.yul\":1242:1247   */\n      dup2\n        /* \"#utility.yul\":1231:1247   */\n      swap1\n      pop\n        /* \"#utility.yul\":1176:1253   */\n      swap2\n      swap1\n      pop\n      jump\t// out\n        /* \"#utility.yul\":1259:1377   */\n    tag_349:\n        /* \"#utility.yul\":1346:1370   */\n      tag_429\n        /* \"#utility.yul\":1364:1369   */\n      dup2\n        /* \"#utility.yul\":1346:1370   */\n      tag_348\n      jump\t// in\n    tag_429:\n        /* \"#utility.yul\":1341:1344   */\n      dup3\n        /* \"#utility.yul\":1334:1371   */\n      mstore\n        /* \"#utility.yul\":1259:1377   */\n      pop\n      pop\n      jump\t// out\n        /* \"#utility.yul\":1383:1605   */\n    tag_43:\n        /* \"#utility.yul\":1476:1480   */\n      0x00\n        /* \"#utility.yul\":1514:1516   */\n      0x20\n        /* \"#utility.yul\":1503:1512   */\n      dup3\n        /* \"#utility.yul\":1499:1517   */\n      add\n        /* \"#utility.yul\":1491:1517   */\n      swap1\n      pop\n        /* \"#utility.yul\":1527:1598   */\n      tag_431\n        /* \"#utility.yul\":1595:1596   */\n      0x00\n        /* \"#utility.yul\":1584:1593   */\n      dup4\n        /* \"#utility.yul\":1580:1597   */\n      add\n        /* \"#utility.yul\":1571:1577   */\n      dup5\n        /* \"#utility.yul\":1527:1598   */\n      tag_349\n      jump\t// in\n    tag_431:\n        /* \"#utility.yul\":1383:1605   */\n      swap3\n      swap2\n      pop\n      pop\n      jump\t// out\n        /* \"#utility.yul\":1611:1701   */\n    tag_350:\n        /* \"#utility.yul\":1645:1652   */\n      0x00\n        /* \"#utility.yul\":1688:1693   */\n      dup2\n        /* \"#utility.yul\":1681:1694   */\n      iszero\n        /* \"#utility.yul\":1674:1695   */\n      iszero\n        /* \"#utility.yul\":1663:1695   */\n      swap1\n      pop\n        /* \"#utility.yul\":1611:1701   */\n      swap2\n      swap1\n      pop\n      jump\t// out\n        /* \"#utility.yul\":1707:1823   */\n    tag_351:\n        /* \"#utility.yul\":1777:1798   */\n      tag_434\n        /* \"#utility.yul\":1792:1797   */\n      dup2\n        /* \"#utility.yul\":1777:1798   */\n      tag_350\n      jump\t// in\n    tag_434:\n        /* \"#utility.yul\":1770:1775   */\n      dup2\n        /* \"#utility.yul\":1767:1799   */\n      eq\n        /* \"#utility.yul\":1757:1817   */\n      tag_435\n      jumpi\n        /* \"#utility.yul\":1813:1814   */\n      0x00\n        /* \"#utility.yul\":1810:1811   */\n      0x00\n        /* \"#utility.yul\":1803:1815   */\n      revert\n        /* \"#utility.yul\":1757:1817   */\n    tag_435:\n        /* \"#utility.yul\":1707:1823   */\n      pop\n      jump\t// out\n        /* \"#utility.yul\":1829:1962   */\n    tag_352:\n        /* \"#utility.yul\":1872:1877   */\n      0x00\n        /* \"#utility.yul\":1910:1916   */\n      dup2\n        /* \"#utility.yul\":1897:1917   */\n      calldataload\n        /* \"#utility.yul\":1888:1917   */\n      swap1\n      pop\n        /* \"#utility.yul\":1926:1956   */\n      tag_437\n        /* \"#utility.yul\":1950:1955   */\n      dup2\n        /* \"#utility.yul\":1926:1956   */\n      tag_351\n      jump\t// in\n    tag_437:\n        /* \"#utility.yul\":1829:1962   */\n      swap3\n      swap2\n      pop\n      pop\n      jump\t// out\n        /* \"#utility.yul\":1968:2436   */\n    tag_51:\n        /* \"#utility.yul\":2033:2039   */\n      0x00\n        /* \"#utility.yul\":2041:2047   */\n      0x00\n        /* \"#utility.yul\":2090:2092   */\n      0x40\n        /* \"#utility.yul\":2078:2087   */\n      dup4\n        /* \"#utility.yul\":2069:2076   */\n      dup6\n        /* \"#utility.yul\":2065:2088   */\n      sub\n        /* \"#utility.yul\":2061:2093   */\n      slt\n        /* \"#utility.yul\":2058:2177   */\n      iszero\n      tag_439\n      jumpi\n        /* \"#utility.yul\":2096:2175   */\n      tag_440\n      tag_342\n      jump\t// in\n    tag_440:\n        /* \"#utility.yul\":2058:2177   */\n    tag_439:\n        /* \"#utility.yul\":2216:2217   */\n      0x00\n        /* \"#utility.yul\":2241:2294   */\n      tag_441\n        /* \"#utility.yul\":2286:2293   */\n      dup6\n        /* \"#utility.yul\":2277:2283   */\n      dup3\n        /* \"#utility.yul\":2266:2275   */\n      dup7\n        /* \"#utility.yul\":2262:2284   */\n      add\n        /* \"#utility.yul\":2241:2294   */\n      tag_347\n      jump\t// in\n    tag_441:\n        /* \"#utility.yul\":2231:2294   */\n      swap3\n      pop\n        /* \"#utility.yul\":2187:2304   */\n      pop\n        /* \"#utility.yul\":2343:2345   */\n      0x20\n        /* \"#utility.yul\":2369:2419   */\n      tag_442\n        /* \"#utility.yul\":2411:2418   */\n      dup6\n        /* \"#utility.yul\":2402:2408   */\n      dup3\n        /* \"#utility.yul\":2391:2400   */\n      dup7\n        /* \"#utility.yul\":2387:2409   */\n      add\n        /* \"#utility.yul\":2369:2419   */\n      tag_352\n      jump\t// in\n    tag_442:\n        /* \"#utility.yul\":2359:2419   */\n      swap2\n      pop\n        /* \"#utility.yul\":2314:2429   */\n      pop\n        /* \"#utility.yul\":1968:2436   */\n      swap3\n      pop\n      swap3\n      swap1\n      pop\n      jump\t// out\n        /* \"#utility.yul\":2442:2551   */\n    tag_353:\n        /* \"#utility.yul\":2523:2544   */\n      tag_444\n        /* \"#utility.yul\":2538:2543   */\n      dup2\n        /* \"#utility.yul\":2523:2544   */\n      tag_350\n      jump\t// in\n    tag_444:\n        /* \"#utility.yul\":2518:2521   */\n      dup3\n        /* \"#utility.yul\":2511:2545   */\n      mstore\n        /* \"#utility.yul\":2442:2551   */\n      pop\n      pop\n      jump\t// out\n        /* \"#utility.yul\":2557:2767   */\n    tag_65:\n        /* \"#utility.yul\":2644:2648   */\n      0x00\n        /* \"#utility.yul\":2682:2684   */\n      0x20\n        /* \"#utility.yul\":2671:2680   */\n      dup3\n        /* \"#utility.yul\":2667:2685   */\n      add\n        /* \"#utility.yul\":2659:2685   */\n      swap1\n      pop\n        /* \"#utility.yul\":2695:2760   */\n      tag_446\n        /* \"#utility.yul\":2757:2758   */\n      0x00\n        /* \"#utility.yul\":2746:2755   */\n      dup4\n        /* \"#utility.yul\":2742:2759   */\n      add\n        /* \"#utility.yul\":2733:2739   */\n      dup5\n        /* \"#utility.yul\":2695:2760   */\n      tag_353\n      jump\t// in\n    tag_446:\n        /* \"#utility.yul\":2557:2767   */\n      swap3\n      swap2\n      pop\n      pop\n      jump\t// out\n        /* \"#utility.yul\":2773:2891   */\n    tag_354:\n        /* \"#utility.yul\":2860:2884   */\n      tag_448\n        /* \"#utility.yul\":2878:2883   */\n      dup2\n        /* \"#utility.yul\":2860:2884   */\n      tag_345\n      jump\t// in\n    tag_448:\n        /* \"#utility.yul\":2855:2858   */\n      dup3\n        /* \"#utility.yul\":2848:2885   */\n      mstore\n        /* \"#utility.yul\":2773:2891   */\n      pop\n      pop\n      jump\t// out\n        /* \"#utility.yul\":2897:3119   */\n    tag_97:\n        /* \"#utility.yul\":2990:2994   */\n      0x00\n        /* \"#utility.yul\":3028:3030   */\n      0x20\n        /* \"#utility.yul\":3017:3026   */\n      dup3\n        /* \"#utility.yul\":3013:3031   */\n      add\n        /* \"#utility.yul\":3005:3031   */\n      swap1\n      pop\n        /* \"#utility.yul\":3041:3112   */\n      tag_450\n        /* \"#utility.yul\":3109:3110   */\n      0x00\n        /* \"#utility.yul\":3098:3107   */\n      dup4\n        /* \"#utility.yul\":3094:3111   */\n      add\n        /* \"#utility.yul\":3085:3091   */\n      dup5\n        /* \"#utility.yul\":3041:3112   */\n      tag_354\n      jump\t// in\n    tag_450:\n        /* \"#utility.yul\":2897:3119   */\n      swap3\n      swap2\n      pop\n      pop\n      jump\t// out\n        /* \"#utility.yul\":3125:3448   */\n    tag_106:\n        /* \"#utility.yul\":3181:3187   */\n      0x00\n        /* \"#utility.yul\":3230:3232   */\n      0x20\n        /* \"#utility.yul\":3218:3227   */\n      dup3\n        /* \"#utility.yul\":3209:3216   */\n      dup5\n        /* \"#utility.yul\":3205:3228   */\n      sub\n        /* \"#utility.yul\":3201:3233   */\n      slt\n        /* \"#utility.yul\":3198:3317   */\n      iszero\n      tag_452\n      jumpi\n        /* \"#utility.yul\":3236:3315   */\n      tag_453\n      tag_342\n      jump\t// in\n    tag_453:\n        /* \"#utility.yul\":3198:3317   */\n    tag_452:\n        /* \"#utility.yul\":3356:3357   */\n      0x00\n        /* \"#utility.yul\":3381:3431   */\n      tag_454\n        /* \"#utility.yul\":3423:3430   */\n      dup5\n        /* \"#utility.yul\":3414:3420   */\n      dup3\n        /* \"#utility.yul\":3403:3412   */\n      dup6\n        /* \"#utility.yul\":3399:3421   */\n      add\n        /* \"#utility.yul\":3381:3431   */\n      tag_352\n      jump\t// in\n    tag_454:\n        /* \"#utility.yul\":3371:3431   */\n      swap2\n      pop\n        /* \"#utility.yul\":3327:3441   */\n      pop\n        /* \"#utility.yul\":3125:3448   */\n      swap3\n      swap2\n      pop\n      pop\n      jump\t// out\n        /* \"#utility.yul\":3454:4106   */\n    tag_128:\n        /* \"#utility.yul\":3653:3657   */\n      0x00\n        /* \"#utility.yul\":3691:3694   */\n      0xa0\n        /* \"#utility.yul\":3680:3689   */\n      dup3\n        /* \"#utility.yul\":3676:3695   */\n      add\n        /* \"#utility.yul\":3668:3695   */\n      swap1\n      pop\n        /* \"#utility.yul\":3705:3776   */\n      tag_456\n        /* \"#utility.yul\":3773:3774   */\n      0x00\n        /* \"#utility.yul\":3762:3771   */\n      dup4\n        /* \"#utility.yul\":3758:3775   */\n      add\n        /* \"#utility.yul\":3749:3755   */\n      dup9\n        /* \"#utility.yul\":3705:3776   */\n      tag_349\n      jump\t// in\n    tag_456:\n        /* \"#utility.yul\":3786:3858   */\n      tag_457\n        /* \"#utility.yul\":3854:3856   */\n      0x20\n        /* \"#utility.yul\":3843:3852   */\n      dup4\n        /* \"#utility.yul\":3839:3857   */\n      add\n        /* \"#utility.yul\":3830:3836   */\n      dup8\n        /* \"#utility.yul\":3786:3858   */\n      tag_349\n      jump\t// in\n    tag_457:\n        /* \"#utility.yul\":3868:3940   */\n      tag_458\n        /* \"#utility.yul\":3936:3938   */\n      0x40\n        /* \"#utility.yul\":3925:3934   */\n      dup4\n        /* \"#utility.yul\":3921:3939   */\n      add\n        /* \"#utility.yul\":3912:3918   */\n      dup7\n        /* \"#utility.yul\":3868:3940   */\n      tag_349\n      jump\t// in\n    tag_458:\n        /* \"#utility.yul\":3950:4022   */\n      tag_459\n        /* \"#utility.yul\":4018:4020   */\n      0x60\n        /* \"#utility.yul\":4007:4016   */\n      dup4\n        /* \"#utility.yul\":4003:4021   */\n      add\n        /* \"#utility.yul\":3994:4000   */\n      dup6\n        /* \"#utility.yul\":3950:4022   */\n      tag_349\n      jump\t// in\n    tag_459:\n        /* \"#utility.yul\":4032:4099   */\n      tag_460\n        /* \"#utility.yul\":4094:4097   */\n      0x80\n        /* \"#utility.yul\":4083:4092   */\n      dup4\n        /* \"#utility.yul\":4079:4098   */\n      add\n        /* \"#utility.yul\":4070:4076   */\n      dup5\n        /* \"#utility.yul\":4032:4099   */\n      tag_353\n      jump\t// in\n    tag_460:\n        /* \"#utility.yul\":3454:4106   */\n      swap7\n      swap6\n      pop\n      pop\n      pop\n      pop\n      pop\n      pop\n      jump\t// out\n        /* \"#utility.yul\":4112:4229   */\n    tag_355:\n        /* \"#utility.yul\":4221:4222   */\n      0x00\n        /* \"#utility.yul\":4218:4219   */\n      0x00\n        /* \"#utility.yul\":4211:4223   */\n      revert\n        /* \"#utility.yul\":4235:4352   */\n    tag_356:\n        /* \"#utility.yul\":4344:4345   */\n      0x00\n        /* \"#utility.yul\":4341:4342   */\n      0x00\n        /* \"#utility.yul\":4334:4346   */\n      revert\n        /* \"#utility.yul\":4358:4475   */\n    tag_357:\n        /* \"#utility.yul\":4467:4468   */\n      0x00\n        /* \"#utility.yul\":4464:4465   */\n      0x00\n        /* \"#utility.yul\":4457:4469   */\n      revert\n        /* \"#utility.yul\":4498:5066   */\n    tag_358:\n        /* \"#utility.yul\":4571:4579   */\n      0x00\n        /* \"#utility.yul\":4581:4587   */\n      0x00\n        /* \"#utility.yul\":4631:4634   */\n      dup4\n        /* \"#utility.yul\":4624:4628   */\n      0x1f\n        /* \"#utility.yul\":4616:4622   */\n      dup5\n        /* \"#utility.yul\":4612:4629   */\n      add\n        /* \"#utility.yul\":4608:4635   */\n      slt\n        /* \"#utility.yul\":4598:4720   */\n      tag_465\n      jumpi\n        /* \"#utility.yul\":4639:4718   */\n      tag_466\n      tag_355\n      jump\t// in\n    tag_466:\n        /* \"#utility.yul\":4598:4720   */\n    tag_465:\n        /* \"#utility.yul\":4752:4758   */\n      dup3\n        /* \"#utility.yul\":4739:4759   */\n      calldataload\n        /* \"#utility.yul\":4729:4759   */\n      swap1\n      pop\n        /* \"#utility.yul\":4782:4800   */\n      0xffffffffffffffff\n        /* \"#utility.yul\":4774:4780   */\n      dup2\n        /* \"#utility.yul\":4771:4801   */\n      gt\n        /* \"#utility.yul\":4768:4885   */\n      iszero\n      tag_467\n      jumpi\n        /* \"#utility.yul\":4804:4883   */\n      tag_468\n      tag_356\n      jump\t// in\n    tag_468:\n        /* \"#utility.yul\":4768:4885   */\n    tag_467:\n        /* \"#utility.yul\":4918:4922   */\n      0x20\n        /* \"#utility.yul\":4910:4916   */\n      dup4\n        /* \"#utility.yul\":4906:4923   */\n      add\n        /* \"#utility.yul\":4894:4923   */\n      swap2\n      pop\n        /* \"#utility.yul\":4972:4975   */\n      dup4\n        /* \"#utility.yul\":4964:4968   */\n      0x20\n        /* \"#utility.yul\":4956:4962   */\n      dup3\n        /* \"#utility.yul\":4952:4969   */\n      mul\n        /* \"#utility.yul\":4942:4950   */\n      dup4\n        /* \"#utility.yul\":4938:4970   */\n      add\n        /* \"#utility.yul\":4935:4976   */\n      gt\n        /* \"#utility.yul\":4932:5060   */\n      iszero\n      tag_469\n      jumpi\n        /* \"#utility.yul\":4979:5058   */\n      tag_470\n      tag_357\n      jump\t// in\n    tag_470:\n        /* \"#utility.yul\":4932:5060   */\n    tag_469:\n        /* \"#utility.yul\":4498:5066   */\n      swap3\n      pop\n      swap3\n      swap1\n      pop\n      jump\t// out\n        /* \"#utility.yul\":5089:5657   */\n    tag_359:\n        /* \"#utility.yul\":5162:5170   */\n      0x00\n        /* \"#utility.yul\":5172:5178   */\n      0x00\n        /* \"#utility.yul\":5222:5225   */\n      dup4\n        /* \"#utility.yul\":5215:5219   */\n      0x1f\n        /* \"#utility.yul\":5207:5213   */\n      dup5\n        /* \"#utility.yul\":5203:5220   */\n      add\n        /* \"#utility.yul\":5199:5226   */\n      slt\n        /* \"#utility.yul\":5189:5311   */\n      tag_472\n      jumpi\n        /* \"#utility.yul\":5230:5309   */\n      tag_473\n      tag_355\n      jump\t// in\n    tag_473:\n        /* \"#utility.yul\":5189:5311   */\n    tag_472:\n        /* \"#utility.yul\":5343:5349   */\n      dup3\n        /* \"#utility.yul\":5330:5350   */\n      calldataload\n        /* \"#utility.yul\":5320:5350   */\n      swap1\n      pop\n        /* \"#utility.yul\":5373:5391   */\n      0xffffffffffffffff\n        /* \"#utility.yul\":5365:5371   */\n      dup2\n        /* \"#utility.yul\":5362:5392   */\n      gt\n        /* \"#utility.yul\":5359:5476   */\n      iszero\n      tag_474\n      jumpi\n        /* \"#utility.yul\":5395:5474   */\n      tag_475\n      tag_356\n      jump\t// in\n    tag_475:\n        /* \"#utility.yul\":5359:5476   */\n    tag_474:\n        /* \"#utility.yul\":5509:5513   */\n      0x20\n        /* \"#utility.yul\":5501:5507   */\n      dup4\n        /* \"#utility.yul\":5497:5514   */\n      add\n        /* \"#utility.yul\":5485:5514   */\n      swap2\n      pop\n        /* \"#utility.yul\":5563:5566   */\n      dup4\n        /* \"#utility.yul\":5555:5559   */\n      0x20\n        /* \"#utility.yul\":5547:5553   */\n      dup3\n        /* \"#utility.yul\":5543:5560   */\n      mul\n        /* \"#utility.yul\":5533:5541   */\n      dup4\n        /* \"#utility.yul\":5529:5561   */\n      add\n        /* \"#utility.yul\":5526:5567   */\n      gt\n        /* \"#utility.yul\":5523:5651   */\n      iszero\n      tag_476\n      jumpi\n        /* \"#utility.yul\":5570:5649   */\n      tag_477\n      tag_357\n      jump\t// in\n    tag_477:\n        /* \"#utility.yul\":5523:5651   */\n    tag_476:\n        /* \"#utility.yul\":5089:5657   */\n      swap3\n      pop\n      swap3\n      swap1\n      pop\n      jump\t// out\n        /* \"#utility.yul\":5663:6597   */\n    tag_132:\n        /* \"#utility.yul\":5785:5791   */\n      0x00\n        /* \"#utility.yul\":5793:5799   */\n      0x00\n        /* \"#utility.yul\":5801:5807   */\n      0x00\n        /* \"#utility.yul\":5809:5815   */\n      0x00\n        /* \"#utility.yul\":5858:5860   */\n      0x40\n        /* \"#utility.yul\":5846:5855   */\n      dup6\n        /* \"#utility.yul\":5837:5844   */\n      dup8\n        /* \"#utility.yul\":5833:5856   */\n      sub\n        /* \"#utility.yul\":5829:5861   */\n      slt\n        /* \"#utility.yul\":5826:5945   */\n      iszero\n      tag_479\n      jumpi\n        /* \"#utility.yul\":5864:5943   */\n      tag_480\n      tag_342\n      jump\t// in\n    tag_480:\n        /* \"#utility.yul\":5826:5945   */\n    tag_479:\n        /* \"#utility.yul\":6012:6013   */\n      0x00\n        /* \"#utility.yul\":6001:6010   */\n      dup6\n        /* \"#utility.yul\":5997:6014   */\n      add\n        /* \"#utility.yul\":5984:6015   */\n      calldataload\n        /* \"#utility.yul\":6042:6060   */\n      0xffffffffffffffff\n        /* \"#utility.yul\":6034:6040   */\n      dup2\n        /* \"#utility.yul\":6031:6061   */\n      gt\n        /* \"#utility.yul\":6028:6145   */\n      iszero\n      tag_481\n      jumpi\n        /* \"#utility.yul\":6064:6143   */\n      tag_482\n      tag_343\n      jump\t// in\n    tag_482:\n        /* \"#utility.yul\":6028:6145   */\n    tag_481:\n        /* \"#utility.yul\":6177:6257   */\n      tag_483\n        /* \"#utility.yul\":6249:6256   */\n      dup8\n        /* \"#utility.yul\":6240:6246   */\n      dup3\n        /* \"#utility.yul\":6229:6238   */\n      dup9\n        /* \"#utility.yul\":6225:6247   */\n      add\n        /* \"#utility.yul\":6177:6257   */\n      tag_358\n      jump\t// in\n    tag_483:\n        /* \"#utility.yul\":6159:6257   */\n      swap5\n      pop\n      swap5\n      pop\n        /* \"#utility.yul\":5955:6267   */\n      pop\n        /* \"#utility.yul\":6334:6336   */\n      0x20\n        /* \"#utility.yul\":6323:6332   */\n      dup6\n        /* \"#utility.yul\":6319:6337   */\n      add\n        /* \"#utility.yul\":6306:6338   */\n      calldataload\n        /* \"#utility.yul\":6365:6383   */\n      0xffffffffffffffff\n        /* \"#utility.yul\":6357:6363   */\n      dup2\n        /* \"#utility.yul\":6354:6384   */\n      gt\n        /* \"#utility.yul\":6351:6468   */\n      iszero\n      tag_484\n      jumpi\n        /* \"#utility.yul\":6387:6466   */\n      tag_485\n      tag_343\n      jump\t// in\n    tag_485:\n        /* \"#utility.yul\":6351:6468   */\n    tag_484:\n        /* \"#utility.yul\":6500:6580   */\n      tag_486\n        /* \"#utility.yul\":6572:6579   */\n      dup8\n        /* \"#utility.yul\":6563:6569   */\n      dup3\n        /* \"#utility.yul\":6552:6561   */\n      dup9\n        /* \"#utility.yul\":6548:6570   */\n      add\n        /* \"#utility.yul\":6500:6580   */\n      tag_359\n      jump\t// in\n    tag_486:\n        /* \"#utility.yul\":6482:6580   */\n      swap3\n      pop\n      swap3\n      pop\n        /* \"#utility.yul\":6277:6590   */\n      pop\n        /* \"#utility.yul\":5663:6597   */\n      swap3\n      swap6\n      swap2\n      swap5\n      pop\n      swap3\n      pop\n      jump\t// out\n        /* \"#utility.yul\":6603:6725   */\n    tag_360:\n        /* \"#utility.yul\":6676:6700   */\n      tag_488\n        /* \"#utility.yul\":6694:6699   */\n      dup2\n        /* \"#utility.yul\":6676:6700   */\n      tag_348\n      jump\t// in\n    tag_488:\n        /* \"#utility.yul\":6669:6674   */\n      dup2\n        /* \"#utility.yul\":6666:6701   */\n      eq\n        /* \"#utility.yul\":6656:6719   */\n      tag_489\n      jumpi\n        /* \"#utility.yul\":6715:6716   */\n      0x00\n        /* \"#utility.yul\":6712:6713   */\n      0x00\n        /* \"#utility.yul\":6705:6717   */\n      revert\n        /* \"#utility.yul\":6656:6719   */\n    tag_489:\n        /* \"#utility.yul\":6603:6725   */\n      pop\n      jump\t// out\n        /* \"#utility.yul\":6731:6870   */\n    tag_361:\n        /* \"#utility.yul\":6777:6782   */\n      0x00\n        /* \"#utility.yul\":6815:6821   */\n      dup2\n        /* \"#utility.yul\":6802:6822   */\n      calldataload\n        /* \"#utility.yul\":6793:6822   */\n      swap1\n      pop\n        /* \"#utility.yul\":6831:6864   */\n      tag_491\n        /* \"#utility.yul\":6858:6863   */\n      dup2\n        /* \"#utility.yul\":6831:6864   */\n      tag_360\n      jump\t// in\n    tag_491:\n        /* \"#utility.yul\":6731:6870   */\n      swap3\n      swap2\n      pop\n      pop\n      jump\t// out\n        /* \"#utility.yul\":6876:7205   */\n    tag_140:\n        /* \"#utility.yul\":6935:6941   */\n      0x00\n        /* \"#utility.yul\":6984:6986   */\n      0x20\n        /* \"#utility.yul\":6972:6981   */\n      dup3\n        /* \"#utility.yul\":6963:6970   */\n      dup5\n        /* \"#utility.yul\":6959:6982   */\n      sub\n        /* \"#utility.yul\":6955:6987   */\n      slt\n        /* \"#utility.yul\":6952:7071   */\n      iszero\n      tag_493\n      jumpi\n        /* \"#utility.yul\":6990:7069   */\n      tag_494\n      tag_342\n      jump\t// in\n    tag_494:\n        /* \"#utility.yul\":6952:7071   */\n    tag_493:\n        /* \"#utility.yul\":7110:7111   */\n      0x00\n        /* \"#utility.yul\":7135:7188   */\n      tag_495\n        /* \"#utility.yul\":7180:7187   */\n      dup5\n        /* \"#utility.yul\":7171:7177   */\n      dup3\n        /* \"#utility.yul\":7160:7169   */\n      dup6\n        /* \"#utility.yul\":7156:7178   */\n      add\n        /* \"#utility.yul\":7135:7188   */\n      tag_361\n      jump\t// in\n    tag_495:\n        /* \"#utility.yul\":7125:7188   */\n      swap2\n      pop\n        /* \"#utility.yul\":7081:7198   */\n      pop\n        /* \"#utility.yul\":6876:7205   */\n      swap3\n      swap2\n      pop\n      pop\n      jump\t// out\n        /* \"#utility.yul\":7211:7271   */\n    tag_362:\n        /* \"#utility.yul\":7239:7242   */\n      0x00\n        /* \"#utility.yul\":7260:7265   */\n      dup2\n        /* \"#utility.yul\":7253:7265   */\n      swap1\n      pop\n        /* \"#utility.yul\":7211:7271   */\n      swap2\n      swap1\n      pop\n      jump\t// out\n        /* \"#utility.yul\":7277:7419   */\n    tag_363:\n        /* \"#utility.yul\":7327:7336   */\n      0x00\n        /* \"#utility.yul\":7360:7413   */\n      tag_498\n        /* \"#utility.yul\":7378:7412   */\n      tag_499\n        /* \"#utility.yul\":7387:7411   */\n      tag_500\n        /* \"#utility.yul\":7405:7410   */\n      dup5\n        /* \"#utility.yul\":7387:7411   */\n      tag_344\n      jump\t// in\n    tag_500:\n        /* \"#utility.yul\":7378:7412   */\n      tag_362\n      jump\t// in\n    tag_499:\n        /* \"#utility.yul\":7360:7413   */\n      tag_344\n      jump\t// in\n    tag_498:\n        /* \"#utility.yul\":7347:7413   */\n      swap1\n      pop\n        /* \"#utility.yul\":7277:7419   */\n      swap2\n      swap1\n      pop\n      jump\t// out\n        /* \"#utility.yul\":7425:7551   */\n    tag_364:\n        /* \"#utility.yul\":7475:7484   */\n      0x00\n        /* \"#utility.yul\":7508:7545   */\n      tag_502\n        /* \"#utility.yul\":7539:7544   */\n      dup3\n        /* \"#utility.yul\":7508:7545   */\n      tag_363\n      jump\t// in\n    tag_502:\n        /* \"#utility.yul\":7495:7545   */\n      swap1\n      pop\n        /* \"#utility.yul\":7425:7551   */\n      swap2\n      swap1\n      pop\n      jump\t// out\n        /* \"#utility.yul\":7557:7697   */\n    tag_365:\n        /* \"#utility.yul\":7621:7630   */\n      0x00\n        /* \"#utility.yul\":7654:7691   */\n      tag_504\n        /* \"#utility.yul\":7685:7690   */\n      dup3\n        /* \"#utility.yul\":7654:7691   */\n      tag_364\n      jump\t// in\n    tag_504:\n        /* \"#utility.yul\":7641:7691   */\n      swap1\n      pop\n        /* \"#utility.yul\":7557:7697   */\n      swap2\n      swap1\n      pop\n      jump\t// out\n        /* \"#utility.yul\":7703:7862   */\n    tag_366:\n        /* \"#utility.yul\":7804:7855   */\n      tag_506\n        /* \"#utility.yul\":7849:7854   */\n      dup2\n        /* \"#utility.yul\":7804:7855   */\n      tag_365\n      jump\t// in\n    tag_506:\n        /* \"#utility.yul\":7799:7802   */\n      dup3\n        /* \"#utility.yul\":7792:7856   */\n      mstore\n        /* \"#utility.yul\":7703:7862   */\n      pop\n      pop\n      jump\t// out\n        /* \"#utility.yul\":7868:8118   */\n    tag_157:\n        /* \"#utility.yul\":7975:7979   */\n      0x00\n        /* \"#utility.yul\":8013:8015   */\n      0x20\n        /* \"#utility.yul\":8002:8011   */\n      dup3\n        /* \"#utility.yul\":7998:8016   */\n      add\n        /* \"#utility.yul\":7990:8016   */\n      swap1\n      pop\n        /* \"#utility.yul\":8026:8111   */\n      tag_508\n        /* \"#utility.yul\":8108:8109   */\n      0x00\n        /* \"#utility.yul\":8097:8106   */\n      dup4\n        /* \"#utility.yul\":8093:8110   */\n      add\n        /* \"#utility.yul\":8084:8090   */\n      dup5\n        /* \"#utility.yul\":8026:8111   */\n      tag_366\n      jump\t// in\n    tag_508:\n        /* \"#utility.yul\":7868:8118   */\n      swap3\n      swap2\n      pop\n      pop\n      jump\t// out\n        /* \"#utility.yul\":8124:8293   */\n    tag_367:\n        /* \"#utility.yul\":8208:8219   */\n      0x00\n        /* \"#utility.yul\":8242:8248   */\n      dup3\n        /* \"#utility.yul\":8237:8240   */\n      dup3\n        /* \"#utility.yul\":8230:8249   */\n      mstore\n        /* \"#utility.yul\":8282:8286   */\n      0x20\n        /* \"#utility.yul\":8277:8280   */\n      dup3\n        /* \"#utility.yul\":8273:8287   */\n      add\n        /* \"#utility.yul\":8258:8287   */\n      swap1\n      pop\n        /* \"#utility.yul\":8124:8293   */\n      swap3\n      swap2\n      pop\n      pop\n      jump\t// out\n        /* \"#utility.yul\":8299:8466   */\n    tag_368:\n        /* \"#utility.yul\":8439:8458   */\n      0x436c61696d206e6f7420656e61626c6564000000000000000000000000000000\n        /* \"#utility.yul\":8435:8436   */\n      0x00\n        /* \"#utility.yul\":8427:8433   */\n      dup3\n        /* \"#utility.yul\":8423:8437   */\n      add\n        /* \"#utility.yul\":8416:8459   */\n      mstore\n        /* \"#utility.yul\":8299:8466   */\n      pop\n      jump\t// out\n        /* \"#utility.yul\":8472:8838   */\n    tag_369:\n        /* \"#utility.yul\":8614:8617   */\n      0x00\n        /* \"#utility.yul\":8635:8702   */\n      tag_512\n        /* \"#utility.yul\":8699:8701   */\n      0x11\n        /* \"#utility.yul\":8694:8697   */\n      dup4\n        /* \"#utility.yul\":8635:8702   */\n      tag_367\n      jump\t// in\n    tag_512:\n        /* \"#utility.yul\":8628:8702   */\n      swap2\n      pop\n        /* \"#utility.yul\":8711:8804   */\n      tag_513\n        /* \"#utility.yul\":8800:8803   */\n      dup3\n        /* \"#utility.yul\":8711:8804   */\n      tag_368\n      jump\t// in\n    tag_513:\n        /* \"#utility.yul\":8829:8831   */\n      0x20\n        /* \"#utility.yul\":8824:8827   */\n      dup3\n        /* \"#utility.yul\":8820:8832   */\n      add\n        /* \"#utility.yul\":8813:8832   */\n      swap1\n      pop\n        /* \"#utility.yul\":8472:8838   */\n      swap2\n      swap1\n      pop\n      jump\t// out\n        /* \"#utility.yul\":8844:9263   */\n    tag_170:\n        /* \"#utility.yul\":9010:9014   */\n      0x00\n        /* \"#utility.yul\":9048:9050   */\n      0x20\n        /* \"#utility.yul\":9037:9046   */\n      dup3\n        /* \"#utility.yul\":9033:9051   */\n      add\n        /* \"#utility.yul\":9025:9051   */\n      swap1\n      pop\n        /* \"#utility.yul\":9097:9106   */\n      dup2\n        /* \"#utility.yul\":9091:9095   */\n      dup2\n        /* \"#utility.yul\":9087:9107   */\n      sub\n        /* \"#utility.yul\":9083:9084   */\n      0x00\n        /* \"#utility.yul\":9072:9081   */\n      dup4\n        /* \"#utility.yul\":9068:9085   */\n      add\n        /* \"#utility.yul\":9061:9108   */\n      mstore\n        /* \"#utility.yul\":9125:9256   */\n      tag_515\n        /* \"#utility.yul\":9251:9255   */\n      dup2\n        /* \"#utility.yul\":9125:9256   */\n      tag_369\n      jump\t// in\n    tag_515:\n        /* \"#utility.yul\":9117:9256   */\n      swap1\n      pop\n        /* \"#utility.yul\":8844:9263   */\n      swap2\n      swap1\n      pop\n      jump\t// out\n        /* \"#utility.yul\":9269:9449   */\n    tag_370:\n        /* \"#utility.yul\":9409:9441   */\n      0x436c61696d20626c6f636b656420666f72207468697320616464726573730000\n        /* \"#utility.yul\":9405:9406   */\n      0x00\n        /* \"#utility.yul\":9397:9403   */\n      dup3\n        /* \"#utility.yul\":9393:9407   */\n      add\n        /* \"#utility.yul\":9386:9442   */\n      mstore\n        /* \"#utility.yul\":9269:9449   */\n      pop\n      jump\t// out\n        /* \"#utility.yul\":9455:9821   */\n    tag_371:\n        /* \"#utility.yul\":9597:9600   */\n      0x00\n        /* \"#utility.yul\":9618:9685   */\n      tag_518\n        /* \"#utility.yul\":9682:9684   */\n      0x1e\n        /* \"#utility.yul\":9677:9680   */\n      dup4\n        /* \"#utility.yul\":9618:9685   */\n      tag_367\n      jump\t// in\n    tag_518:\n        /* \"#utility.yul\":9611:9685   */\n      swap2\n      pop\n        /* \"#utility.yul\":9694:9787   */\n      tag_519\n        /* \"#utility.yul\":9783:9786   */\n      dup3\n        /* \"#utility.yul\":9694:9787   */\n      tag_370\n      jump\t// in\n    tag_519:\n        /* \"#utility.yul\":9812:9814   */\n      0x20\n        /* \"#utility.yul\":9807:9810   */\n      dup3\n        /* \"#utility.yul\":9803:9815   */\n      add\n        /* \"#utility.yul\":9796:9815   */\n      swap1\n      pop\n        /* \"#utility.yul\":9455:9821   */\n      swap2\n      swap1\n      pop\n      jump\t// out\n        /* \"#utility.yul\":9827:10246   */\n    tag_173:\n        /* \"#utility.yul\":9993:9997   */\n      0x00\n        /* \"#utility.yul\":10031:10033   */\n      0x20\n        /* \"#utility.yul\":10020:10029   */\n      dup3\n        /* \"#utility.yul\":10016:10034   */\n      add\n        /* \"#utility.yul\":10008:10034   */\n      swap1\n      pop\n        /* \"#utility.yul\":10080:10089   */\n      dup2\n        /* \"#utility.yul\":10074:10078   */\n      dup2\n        /* \"#utility.yul\":10070:10090   */\n      sub\n        /* \"#utility.yul\":10066:10067   */\n      0x00\n        /* \"#utility.yul\":10055:10064   */\n      dup4\n        /* \"#utility.yul\":10051:10068   */\n      add\n        /* \"#utility.yul\":10044:10091   */\n      mstore\n        /* \"#utility.yul\":10108:10239   */\n      tag_521\n        /* \"#utility.yul\":10234:10238   */\n      dup2\n        /* \"#utility.yul\":10108:10239   */\n      tag_371\n      jump\t// in\n    tag_521:\n        /* \"#utility.yul\":10100:10239   */\n      swap1\n      pop\n        /* \"#utility.yul\":9827:10246   */\n      swap2\n      swap1\n      pop\n      jump\t// out\n        /* \"#utility.yul\":10252:10423   */\n    tag_372:\n        /* \"#utility.yul\":10392:10415   */\n      0x417070726f76616c20666565206e6f7420706169640000000000000000000000\n        /* \"#utility.yul\":10388:10389   */\n      0x00\n        /* \"#utility.yul\":10380:10386   */\n      dup3\n        /* \"#utility.yul\":10376:10390   */\n      add\n        /* \"#utility.yul\":10369:10416   */\n      mstore\n        /* \"#utility.yul\":10252:10423   */\n      pop\n      jump\t// out\n        /* \"#utility.yul\":10429:10795   */\n    tag_373:\n        /* \"#utility.yul\":10571:10574   */\n      0x00\n        /* \"#utility.yul\":10592:10659   */\n      tag_524\n        /* \"#utility.yul\":10656:10658   */\n      0x15\n        /* \"#utility.yul\":10651:10654   */\n      dup4\n        /* \"#utility.yul\":10592:10659   */\n      tag_367\n      jump\t// in\n    tag_524:\n        /* \"#utility.yul\":10585:10659   */\n      swap2\n      pop\n        /* \"#utility.yul\":10668:10761   */\n      tag_525\n        /* \"#utility.yul\":10757:10760   */\n      dup3\n        /* \"#utility.yul\":10668:10761   */\n      tag_372\n      jump\t// in\n    tag_525:\n        /* \"#utility.yul\":10786:10788   */\n      0x20\n        /* \"#utility.yul\":10781:10784   */\n      dup3\n        /* \"#utility.yul\":10777:10789   */\n      add\n        /* \"#utility.yul\":10770:10789   */\n      swap1\n      pop\n        /* \"#utility.yul\":10429:10795   */\n      swap2\n      swap1\n      pop\n      jump\t// out\n        /* \"#utility.yul\":10801:11220   */\n    tag_176:\n        /* \"#utility.yul\":10967:10971   */\n      0x00\n        /* \"#utility.yul\":11005:11007   */\n      0x20\n        /* \"#utility.yul\":10994:11003   */\n      dup3\n        /* \"#utility.yul\":10990:11008   */\n      add\n        /* \"#utility.yul\":10982:11008   */\n      swap1\n      pop\n        /* \"#utility.yul\":11054:11063   */\n      dup2\n        /* \"#utility.yul\":11048:11052   */\n      dup2\n        /* \"#utility.yul\":11044:11064   */\n      sub\n        /* \"#utility.yul\":11040:11041   */\n      0x00\n        /* \"#utility.yul\":11029:11038   */\n      dup4\n        /* \"#utility.yul\":11025:11042   */\n      add\n        /* \"#utility.yul\":11018:11065   */\n      mstore\n        /* \"#utility.yul\":11082:11213   */\n      tag_527\n        /* \"#utility.yul\":11208:11212   */\n      dup2\n        /* \"#utility.yul\":11082:11213   */\n      tag_373\n      jump\t// in\n    tag_527:\n        /* \"#utility.yul\":11074:11213   */\n      swap1\n      pop\n        /* \"#utility.yul\":10801:11220   */\n      swap2\n      swap1\n      pop\n      jump\t// out\n        /* \"#utility.yul\":11226:11404   */\n    tag_374:\n        /* \"#utility.yul\":11366:11396   */\n      0x596f752068617665206e6f2062616c616e636520746f20636c61696d00000000\n        /* \"#utility.yul\":11362:11363   */\n      0x00\n        /* \"#utility.yul\":11354:11360   */\n      dup3\n        /* \"#utility.yul\":11350:11364   */\n      add\n        /* \"#utility.yul\":11343:11397   */\n      mstore\n        /* \"#utility.yul\":11226:11404   */\n      pop\n      jump\t// out\n        /* \"#utility.yul\":11410:11776   */\n    tag_375:\n        /* \"#utility.yul\":11552:11555   */\n      0x00\n        /* \"#utility.yul\":11573:11640   */\n      tag_530\n        /* \"#utility.yul\":11637:11639   */\n      0x1c\n        /* \"#utility.yul\":11632:11635   */\n      dup4\n        /* \"#utility.yul\":11573:11640   */\n      tag_367\n      jump\t// in\n    tag_530:\n        /* \"#utility.yul\":11566:11640   */\n      swap2\n      pop\n        /* \"#utility.yul\":11649:11742   */\n      tag_531\n        /* \"#utility.yul\":11738:11741   */\n      dup3\n        /* \"#utility.yul\":11649:11742   */\n      tag_374\n      jump\t// in\n    tag_531:\n        /* \"#utility.yul\":11767:11769   */\n      0x20\n        /* \"#utility.yul\":11762:11765   */\n      dup3\n        /* \"#utility.yul\":11758:11770   */\n      add\n        /* \"#utility.yul\":11751:11770   */\n      swap1\n      pop\n        /* \"#utility.yul\":11410:11776   */\n      swap2\n      swap1\n      pop\n      jump\t// out\n        /* \"#utility.yul\":11782:12201   */\n    tag_179:\n        /* \"#utility.yul\":11948:11952   */\n      0x00\n        /* \"#utility.yul\":11986:11988   */\n      0x20\n        /* \"#utility.yul\":11975:11984   */\n      dup3\n        /* \"#utility.yul\":11971:11989   */\n      add\n        /* \"#utility.yul\":11963:11989   */\n      swap1\n      pop\n        /* \"#utility.yul\":12035:12044   */\n      dup2\n        /* \"#utility.yul\":12029:12033   */\n      dup2\n        /* \"#utility.yul\":12025:12045   */\n      sub\n        /* \"#utility.yul\":12021:12022   */\n      0x00\n        /* \"#utility.yul\":12010:12019   */\n      dup4\n        /* \"#utility.yul\":12006:12023   */\n      add\n        /* \"#utility.yul\":11999:12046   */\n      mstore\n        /* \"#utility.yul\":12063:12194   */\n      tag_533\n        /* \"#utility.yul\":12189:12193   */\n      dup2\n        /* \"#utility.yul\":12063:12194   */\n      tag_375\n      jump\t// in\n    tag_533:\n        /* \"#utility.yul\":12055:12194   */\n      swap1\n      pop\n        /* \"#utility.yul\":11782:12201   */\n      swap2\n      swap1\n      pop\n      jump\t// out\n        /* \"#utility.yul\":12207:12387   */\n    tag_376:\n        /* \"#utility.yul\":12255:12332   */\n      0x4e487b7100000000000000000000000000000000000000000000000000000000\n        /* \"#utility.yul\":12252:12253   */\n      0x00\n        /* \"#utility.yul\":12245:12333   */\n      mstore\n        /* \"#utility.yul\":12352:12356   */\n      0x11\n        /* \"#utility.yul\":12349:12350   */\n      0x04\n        /* \"#utility.yul\":12342:12357   */\n      mstore\n        /* \"#utility.yul\":12376:12380   */\n      0x24\n        /* \"#utility.yul\":12373:12374   */\n      0x00\n        /* \"#utility.yul\":12366:12381   */\n      revert\n        /* \"#utility.yul\":12393:12587   */\n    tag_182:\n        /* \"#utility.yul\":12433:12437   */\n      0x00\n        /* \"#utility.yul\":12453:12473   */\n      tag_536\n        /* \"#utility.yul\":12471:12472   */\n      dup3\n        /* \"#utility.yul\":12453:12473   */\n      tag_348\n      jump\t// in\n    tag_536:\n        /* \"#utility.yul\":12448:12473   */\n      swap2\n      pop\n        /* \"#utility.yul\":12487:12507   */\n      tag_537\n        /* \"#utility.yul\":12505:12506   */\n      dup4\n        /* \"#utility.yul\":12487:12507   */\n      tag_348\n      jump\t// in\n    tag_537:\n        /* \"#utility.yul\":12482:12507   */\n      swap3\n      pop\n        /* \"#utility.yul\":12531:12532   */\n      dup3\n        /* \"#utility.yul\":12528:12529   */\n      dup3\n        /* \"#utility.yul\":12524:12533   */\n      sub\n        /* \"#utility.yul\":12516:12533   */\n      swap1\n      pop\n        /* \"#utility.yul\":12555:12556   */\n      dup2\n        /* \"#utility.yul\":12549:12553   */\n      dup2\n        /* \"#utility.yul\":12546:12557   */\n      gt\n        /* \"#utility.yul\":12543:12580   */\n      iszero\n      tag_538\n      jumpi\n        /* \"#utility.yul\":12560:12578   */\n      tag_539\n      tag_376\n      jump\t// in\n    tag_539:\n        /* \"#utility.yul\":12543:12580   */\n    tag_538:\n        /* \"#utility.yul\":12393:12587   */\n      swap3\n      swap2\n      pop\n      pop\n      jump\t// out\n        /* \"#utility.yul\":12593:12826   */\n    tag_184:\n        /* \"#utility.yul\":12632:12635   */\n      0x00\n        /* \"#utility.yul\":12655:12679   */\n      tag_541\n        /* \"#utility.yul\":12673:12678   */\n      dup3\n        /* \"#utility.yul\":12655:12679   */\n      tag_348\n      jump\t// in\n    tag_541:\n        /* \"#utility.yul\":12646:12679   */\n      swap2\n      pop\n        /* \"#utility.yul\":12701:12767   */\n      0xffffffffffffffffffffffffffffffffffffffffffffffffffffffffffffffff\n        /* \"#utility.yul\":12694:12699   */\n      dup3\n        /* \"#utility.yul\":12691:12768   */\n      sub\n        /* \"#utility.yul\":12688:12791   */\n      tag_542\n      jumpi\n        /* \"#utility.yul\":12771:12789   */\n      tag_543\n      tag_376\n      jump\t// in\n    tag_543:\n        /* \"#utility.yul\":12688:12791   */\n    tag_542:\n        /* \"#utility.yul\":12818:12819   */\n      0x01\n        /* \"#utility.yul\":12811:12816   */\n      dup3\n        /* \"#utility.yul\":12807:12820   */\n      add\n        /* \"#utility.yul\":12800:12820   */\n      swap1\n      pop\n        /* \"#utility.yul\":12593:12826   */\n      swap2\n      swap1\n      pop\n      jump\t// out\n        /* \"#utility.yul\":12832:13023   */\n    tag_186:\n        /* \"#utility.yul\":12872:12875   */\n      0x00\n        /* \"#utility.yul\":12891:12911   */\n      tag_545\n        /* \"#utility.yul\":12909:12910   */\n      dup3\n        /* \"#utility.yul\":12891:12911   */\n      tag_348\n      jump\t// in\n    tag_545:\n        /* \"#utility.yul\":12886:12911   */\n      swap2\n      pop\n        /* \"#utility.yul\":12925:12945   */\n      tag_546\n        /* \"#utility.yul\":12943:12944   */\n      dup4\n        /* \"#utility.yul\":12925:12945   */\n      tag_348\n      jump\t// in\n    tag_546:\n        /* \"#utility.yul\":12920:12945   */\n      swap3\n      pop\n        /* \"#utility.yul\":12968:12969   */\n      dup3\n        /* \"#utility.yul\":12965:12966   */\n      dup3\n        /* \"#utility.yul\":12961:12970   */\n      add\n        /* \"#utility.yul\":12954:12970   */\n      swap1\n      pop\n        /* \"#utility.yul\":12989:12992   */\n      dup1\n        /* \"#utility.yul\":12986:12987   */\n      dup3\n        /* \"#utility.yul\":12983:12993   */\n      gt\n        /* \"#utility.yul\":12980:13016   */\n      iszero\n      tag_547\n      jumpi\n        /* \"#utility.yul\":12996:13014   */\n      tag_548\n      tag_376\n      jump\t// in\n    tag_548:\n        /* \"#utility.yul\":12980:13016   */\n    tag_547:\n        /* \"#utility.yul\":12832:13023   */\n      swap3\n      swap2\n      pop\n      pop\n      jump\t// out\n        /* \"#utility.yul\":13029:13172   */\n    tag_377:\n        /* \"#utility.yul\":13086:13091   */\n      0x00\n        /* \"#utility.yul\":13117:13123   */\n      dup2\n        /* \"#utility.yul\":13111:13124   */\n      mload\n        /* \"#utility.yul\":13102:13124   */\n      swap1\n      pop\n        /* \"#utility.yul\":13133:13166   */\n      tag_550\n        /* \"#utility.yul\":13160:13165   */\n      dup2\n        /* \"#utility.yul\":13133:13166   */\n      tag_360\n      jump\t// in\n    tag_550:\n        /* \"#utility.yul\":13029:13172   */\n      swap3\n      swap2\n      pop\n      pop\n      jump\t// out\n        /* \"#utility.yul\":13178:13529   */\n    tag_207:\n        /* \"#utility.yul\":13248:13254   */\n      0x00\n        /* \"#utility.yul\":13297:13299   */\n      0x20\n        /* \"#utility.yul\":13285:13294   */\n      dup3\n        /* \"#utility.yul\":13276:13283   */\n      dup5\n        /* \"#utility.yul\":13272:13295   */\n      sub\n        /* \"#utility.yul\":13268:13300   */\n      slt\n        /* \"#utility.yul\":13265:13384   */\n      iszero\n      tag_552\n      jumpi\n        /* \"#utility.yul\":13303:13382   */\n      tag_553\n      tag_342\n      jump\t// in\n    tag_553:\n        /* \"#utility.yul\":13265:13384   */\n    tag_552:\n        /* \"#utility.yul\":13423:13424   */\n      0x00\n        /* \"#utility.yul\":13448:13512   */\n      tag_554\n        /* \"#utility.yul\":13504:13511   */\n      dup5\n        /* \"#utility.yul\":13495:13501   */\n      dup3\n        /* \"#utility.yul\":13484:13493   */\n      dup6\n        /* \"#utility.yul\":13480:13502   */\n      add\n        /* \"#utility.yul\":13448:13512   */\n      tag_377\n      jump\t// in\n    tag_554:\n        /* \"#utility.yul\":13438:13512   */\n      swap2\n      pop\n        /* \"#utility.yul\":13394:13522   */\n      pop\n        /* \"#utility.yul\":13178:13529   */\n      swap3\n      swap2\n      pop\n      pop\n      jump\t// out\n        /* \"#utility.yul\":13535:13705   */\n    tag_378:\n        /* \"#utility.yul\":13675:13697   */\n      0x496e636f72726563742066656520616d6f756e74000000000000000000000000\n        /* \"#utility.yul\":13671:13672   */\n      0x00\n        /* \"#utility.yul\":13663:13669   */\n      dup3\n        /* \"#utility.yul\":13659:13673   */\n      add\n        /* \"#utility.yul\":13652:13698   */\n      mstore\n        /* \"#utility.yul\":13535:13705   */\n      pop\n      jump\t// out\n        /* \"#utility.yul\":13711:14077   */\n    tag_379:\n        /* \"#utility.yul\":13853:13856   */\n      0x00\n        /* \"#utility.yul\":13874:13941   */\n      tag_557\n        /* \"#utility.yul\":13938:13940   */\n      0x14\n        /* \"#utility.yul\":13933:13936   */\n      dup4\n        /* \"#utility.yul\":13874:13941   */\n      tag_367\n      jump\t// in\n    tag_557:\n        /* \"#utility.yul\":13867:13941   */\n      swap2\n      pop\n        /* \"#utility.yul\":13950:14043   */\n      tag_558\n        /* \"#utility.yul\":14039:14042   */\n      dup3\n        /* \"#utility.yul\":13950:14043   */\n      tag_378\n      jump\t// in\n    tag_558:\n        /* \"#utility.yul\":14068:14070   */\n      0x20\n        /* \"#utility.yul\":14063:14066   */\n      dup3\n        /* \"#utility.yul\":14059:14071   */\n      add\n        /* \"#utility.yul\":14052:14071   */\n      swap1\n      pop\n        /* \"#utility.yul\":13711:14077   */\n      swap2\n      swap1\n      pop\n      jump\t// out\n        /* \"#utility.yul\":14083:14502   */\n    tag_211:\n        /* \"#utility.yul\":14249:14253   */\n      0x00\n        /* \"#utility.yul\":14287:14289   */\n      0x20\n        /* \"#utility.yul\":14276:14285   */\n      dup3\n        /* \"#utility.yul\":14272:14290   */\n      add\n        /* \"#utility.yul\":14264:14290   */\n      swap1\n      pop\n        /* \"#utility.yul\":14336:14345   */\n      dup2\n        /* \"#utility.yul\":14330:14334   */\n      dup2\n        /* \"#utility.yul\":14326:14346   */\n      sub\n        /* \"#utility.yul\":14322:14323   */\n      0x00\n        /* \"#utility.yul\":14311:14320   */\n      dup4\n        /* \"#utility.yul\":14307:14324   */\n      add\n        /* \"#utility.yul\":14300:14347   */\n      mstore\n        /* \"#utility.yul\":14364:14495   */\n      tag_560\n        /* \"#utility.yul\":14490:14494   */\n      dup2\n        /* \"#utility.yul\":14364:14495   */\n      tag_379\n      jump\t// in\n    tag_560:\n        /* \"#utility.yul\":14356:14495   */\n      swap1\n      pop\n        /* \"#utility.yul\":14083:14502   */\n      swap2\n      swap1\n      pop\n      jump\t// out\n        /* \"#utility.yul\":14508:14684   */\n    tag_380:\n        /* \"#utility.yul\":14648:14676   */\n      0x4172726179206c656e6774687320646f206e6f74206d61746368000000000000\n        /* \"#utility.yul\":14644:14645   */\n      0x00\n        /* \"#utility.yul\":14636:14642   */\n      dup3\n        /* \"#utility.yul\":14632:14646   */\n      add\n        /* \"#utility.yul\":14625:14677   */\n      mstore\n        /* \"#utility.yul\":14508:14684   */\n      pop\n      jump\t// out\n        /* \"#utility.yul\":14690:15056   */\n    tag_381:\n        /* \"#utility.yul\":14832:14835   */\n      0x00\n        /* \"#utility.yul\":14853:14920   */\n      tag_563\n        /* \"#utility.yul\":14917:14919   */\n      0x1a\n        /* \"#utility.yul\":14912:14915   */\n      dup4\n        /* \"#utility.yul\":14853:14920   */\n      tag_367\n      jump\t// in\n    tag_563:\n        /* \"#utility.yul\":14846:14920   */\n      swap2\n      pop\n        /* \"#utility.yul\":14929:15022   */\n      tag_564\n        /* \"#utility.yul\":15018:15021   */\n      dup3\n        /* \"#utility.yul\":14929:15022   */\n      tag_380\n      jump\t// in\n    tag_564:\n        /* \"#utility.yul\":15047:15049   */\n      0x20\n        /* \"#utility.yul\":15042:15045   */\n      dup3\n        /* \"#utility.yul\":15038:15050   */\n      add\n        /* \"#utility.yul\":15031:15050   */\n      swap1\n      pop\n        /* \"#utility.yul\":14690:15056   */\n      swap2\n      swap1\n      pop\n      jump\t// out\n        /* \"#utility.yul\":15062:15481   */\n    tag_223:\n        /* \"#utility.yul\":15228:15232   */\n      0x00\n        /* \"#utility.yul\":15266:15268   */\n      0x20\n        /* \"#utility.yul\":15255:15264   */\n      dup3\n        /* \"#utility.yul\":15251:15269   */\n      add\n        /* \"#utility.yul\":15243:15269   */\n      swap1\n      pop\n        /* \"#utility.yul\":15315:15324   */\n      dup2\n        /* \"#utility.yul\":15309:15313   */\n      dup2\n        /* \"#utility.yul\":15305:15325   */\n      sub\n        /* \"#utility.yul\":15301:15302   */\n      0x00\n        /* \"#utility.yul\":15290:15299   */\n      dup4\n        /* \"#utility.yul\":15286:15303   */\n      add\n        /* \"#utility.yul\":15279:15326   */\n      mstore\n        /* \"#utility.yul\":15343:15474   */\n      tag_566\n        /* \"#utility.yul\":15469:15473   */\n      dup2\n        /* \"#utility.yul\":15343:15474   */\n      tag_381\n      jump\t// in\n    tag_566:\n        /* \"#utility.yul\":15335:15474   */\n      swap1\n      pop\n        /* \"#utility.yul\":15062:15481   */\n      swap2\n      swap1\n      pop\n      jump\t// out\n        /* \"#utility.yul\":15487:15667   */\n    tag_229:\n        /* \"#utility.yul\":15535:15612   */\n      0x4e487b7100000000000000000000000000000000000000000000000000000000\n        /* \"#utility.yul\":15532:15533   */\n      0x00\n        /* \"#utility.yul\":15525:15613   */\n      mstore\n        /* \"#utility.yul\":15632:15636   */\n      0x32\n        /* \"#utility.yul\":15629:15630   */\n      0x04\n        /* \"#utility.yul\":15622:15637   */\n      mstore\n        /* \"#utility.yul\":15656:15660   */\n      0x24\n        /* \"#utility.yul\":15653:15654   */\n      0x00\n        /* \"#utility.yul\":15646:15661   */\n      revert\n        /* \"#utility.yul\":15673:16083   */\n    tag_234:\n        /* \"#utility.yul\":15713:15720   */\n      0x00\n        /* \"#utility.yul\":15736:15756   */\n      tag_569\n        /* \"#utility.yul\":15754:15755   */\n      dup3\n        /* \"#utility.yul\":15736:15756   */\n      tag_348\n      jump\t// in\n    tag_569:\n        /* \"#utility.yul\":15731:15756   */\n      swap2\n      pop\n        /* \"#utility.yul\":15770:15790   */\n      tag_570\n        /* \"#utility.yul\":15788:15789   */\n      dup4\n        /* \"#utility.yul\":15770:15790   */\n      tag_348\n      jump\t// in\n    tag_570:\n        /* \"#utility.yul\":15765:15790   */\n      swap3\n      pop\n        /* \"#utility.yul\":15825:15826   */\n      dup3\n        /* \"#utility.yul\":15822:15823   */\n      dup3\n        /* \"#utility.yul\":15818:15827   */\n      mul\n        /* \"#utility.yul\":15847:15877   */\n      tag_571\n        /* \"#utility.yul\":15865:15876   */\n      dup2\n        /* \"#utility.yul\":15847:15877   */\n      tag_348\n      jump\t// in\n    tag_571:\n        /* \"#utility.yul\":15836:15877   */\n      swap2\n      pop\n        /* \"#utility.yul\":16026:16027   */\n      dup3\n        /* \"#utility.yul\":16017:16024   */\n      dup3\n        /* \"#utility.yul\":16013:16028   */\n      div\n        /* \"#utility.yul\":16010:16011   */\n      dup5\n        /* \"#utility.yul\":16007:16029   */\n      eq\n        /* \"#utility.yul\":15987:15988   */\n      dup4\n        /* \"#utility.yul\":15980:15989   */\n      iszero\n        /* \"#utility.yul\":15960:16043   */\n      or\n        /* \"#utility.yul\":15937:16076   */\n      tag_572\n      jumpi\n        /* \"#utility.yul\":16056:16074   */\n      tag_573\n      tag_376\n      jump\t// in\n    tag_573:\n        /* \"#utility.yul\":15937:16076   */\n    tag_572:\n        /* \"#utility.yul\":15721:16083   */\n      pop\n        /* \"#utility.yul\":15673:16083   */\n      swap3\n      swap2\n      pop\n      pop\n      jump\t// out\n        /* \"#utility.yul\":16089:16259   */\n    tag_382:\n        /* \"#utility.yul\":16229:16251   */\n      0x43616e6e6f74206265206120636f6e7472616374000000000000000000000000\n        /* \"#utility.yul\":16225:16226   */\n      0x00\n        /* \"#utility.yul\":16217:16223   */\n      dup3\n        /* \"#utility.yul\":16213:16227   */\n      add\n        /* \"#utility.yul\":16206:16252   */\n      mstore\n        /* \"#utility.yul\":16089:16259   */\n      pop\n      jump\t// out\n        /* \"#utility.yul\":16265:16631   */\n    tag_383:\n        /* \"#utility.yul\":16407:16410   */\n      0x00\n        /* \"#utility.yul\":16428:16495   */\n      tag_576\n        /* \"#utility.yul\":16492:16494   */\n      0x14\n        /* \"#utility.yul\":16487:16490   */\n      dup4\n        /* \"#utility.yul\":16428:16495   */\n      tag_367\n      jump\t// in\n    tag_576:\n        /* \"#utility.yul\":16421:16495   */\n      swap2\n      pop\n        /* \"#utility.yul\":16504:16597   */\n      tag_577\n        /* \"#utility.yul\":16593:16596   */\n      dup3\n        /* \"#utility.yul\":16504:16597   */\n      tag_382\n      jump\t// in\n    tag_577:\n        /* \"#utility.yul\":16622:16624   */\n      0x20\n        /* \"#utility.yul\":16617:16620   */\n      dup3\n        /* \"#utility.yul\":16613:16625   */\n      add\n        /* \"#utility.yul\":16606:16625   */\n      swap1\n      pop\n        /* \"#utility.yul\":16265:16631   */\n      swap2\n      swap1\n      pop\n      jump\t// out\n        /* \"#utility.yul\":16637:17056   */\n    tag_237:\n        /* \"#utility.yul\":16803:16807   */\n      0x00\n        /* \"#utility.yul\":16841:16843   */\n      0x20\n        /* \"#utility.yul\":16830:16839   */\n      dup3\n        /* \"#utility.yul\":16826:16844   */\n      add\n        /* \"#utility.yul\":16818:16844   */\n      swap1\n      pop\n        /* \"#utility.yul\":16890:16899   */\n      dup2\n        /* \"#utility.yul\":16884:16888   */\n      dup2\n        /* \"#utility.yul\":16880:16900   */\n      sub\n        /* \"#utility.yul\":16876:16877   */\n      0x00\n        /* \"#utility.yul\":16865:16874   */\n      dup4\n        /* \"#utility.yul\":16861:16878   */\n      add\n        /* \"#utility.yul\":16854:16901   */\n      mstore\n        /* \"#utility.yul\":16918:17049   */\n      tag_579\n        /* \"#utility.yul\":17044:17048   */\n      dup2\n        /* \"#utility.yul\":16918:17049   */\n      tag_383\n      jump\t// in\n    tag_579:\n        /* \"#utility.yul\":16910:17049   */\n      swap1\n      pop\n        /* \"#utility.yul\":16637:17056   */\n      swap2\n      swap1\n      pop\n      jump\t// out\n        /* \"#utility.yul\":17062:17244   */\n    tag_384:\n        /* \"#utility.yul\":17202:17236   */\n      0x416c6c6f636174696f6e206578636565647320616c6c6f776564206c696d6974\n        /* \"#utility.yul\":17198:17199   */\n      0x00\n        /* \"#utility.yul\":17190:17196   */\n      dup3\n        /* \"#utility.yul\":17186:17200   */\n      add\n        /* \"#utility.yul\":17179:17237   */\n      mstore\n        /* \"#utility.yul\":17062:17244   */\n      pop\n      jump\t// out\n        /* \"#utility.yul\":17250:17616   */\n    tag_385:\n        /* \"#utility.yul\":17392:17395   */\n      0x00\n        /* \"#utility.yul\":17413:17480   */\n      tag_582\n        /* \"#utility.yul\":17477:17479   */\n      0x20\n        /* \"#utility.yul\":17472:17475   */\n      dup4\n        /* \"#utility.yul\":17413:17480   */\n      tag_367\n      jump\t// in\n    tag_582:\n        /* \"#utility.yul\":17406:17480   */\n      swap2\n      pop\n        /* \"#utility.yul\":17489:17582   */\n      tag_583\n        /* \"#utility.yul\":17578:17581   */\n      dup3\n        /* \"#utility.yul\":17489:17582   */\n      tag_384\n      jump\t// in\n    tag_583:\n        /* \"#utility.yul\":17607:17609   */\n      0x20\n        /* \"#utility.yul\":17602:17605   */\n      dup3\n        /* \"#utility.yul\":17598:17610   */\n      add\n        /* \"#utility.yul\":17591:17610   */\n      swap1\n      pop\n        /* \"#utility.yul\":17250:17616   */\n      swap2\n      swap1\n      pop\n      jump\t// out\n        /* \"#utility.yul\":17622:18041   */\n    tag_241:\n        /* \"#utility.yul\":17788:17792   */\n      0x00\n        /* \"#utility.yul\":17826:17828   */\n      0x20\n        /* \"#utility.yul\":17815:17824   */\n      dup3\n        /* \"#utility.yul\":17811:17829   */\n      add\n        /* \"#utility.yul\":17803:17829   */\n      swap1\n      pop\n        /* \"#utility.yul\":17875:17884   */\n      dup2\n        /* \"#utility.yul\":17869:17873   */\n      dup2\n        /* \"#utility.yul\":17865:17885   */\n      sub\n        /* \"#utility.yul\":17861:17862   */\n      0x00\n        /* \"#utility.yul\":17850:17859   */\n      dup4\n        /* \"#utility.yul\":17846:17863   */\n      add\n        /* \"#utility.yul\":17839:17886   */\n      mstore\n        /* \"#utility.yul\":17903:18034   */\n      tag_585\n        /* \"#utility.yul\":18029:18033   */\n      dup2\n        /* \"#utility.yul\":17903:18034   */\n      tag_385\n      jump\t// in\n    tag_585:\n        /* \"#utility.yul\":17895:18034   */\n      swap1\n      pop\n        /* \"#utility.yul\":17622:18041   */\n      swap2\n      swap1\n      pop\n      jump\t// out\n        /* \"#utility.yul\":18047:18379   */\n    tag_247:\n        /* \"#utility.yul\":18168:18172   */\n      0x00\n        /* \"#utility.yul\":18206:18208   */\n      0x40\n        /* \"#utility.yul\":18195:18204   */\n      dup3\n        /* \"#utility.yul\":18191:18209   */\n      add\n        /* \"#utility.yul\":18183:18209   */\n      swap1\n      pop\n        /* \"#utility.yul\":18219:18290   */\n      tag_587\n        /* \"#utility.yul\":18287:18288   */\n      0x00\n        /* \"#utility.yul\":18276:18285   */\n      dup4\n        /* \"#utility.yul\":18272:18289   */\n      add\n        /* \"#utility.yul\":18263:18269   */\n      dup6\n        /* \"#utility.yul\":18219:18290   */\n      tag_349\n      jump\t// in\n    tag_587:\n        /* \"#utility.yul\":18300:18372   */\n      tag_588\n        /* \"#utility.yul\":18368:18370   */\n      0x20\n        /* \"#utility.yul\":18357:18366   */\n      dup4\n        /* \"#utility.yul\":18353:18371   */\n      add\n        /* \"#utility.yul\":18344:18350   */\n      dup5\n        /* \"#utility.yul\":18300:18372   */\n      tag_349\n      jump\t// in\n    tag_588:\n        /* \"#utility.yul\":18047:18379   */\n      swap4\n      swap3\n      pop\n      pop\n      pop\n      jump\t// out\n        /* \"#utility.yul\":18385:18616   */\n    tag_386:\n        /* \"#utility.yul\":18525:18559   */\n      0x496e73756666696369656e7420636f6e74726163742062616c616e636520666f\n        /* \"#utility.yul\":18521:18522   */\n      0x00\n        /* \"#utility.yul\":18513:18519   */\n      dup3\n        /* \"#utility.yul\":18509:18523   */\n      add\n        /* \"#utility.yul\":18502:18560   */\n      mstore\n        /* \"#utility.yul\":18594:18608   */\n      0x7220616c6c6f636174696f6e0000000000000000000000000000000000000000\n        /* \"#utility.yul\":18589:18591   */\n      0x20\n        /* \"#utility.yul\":18581:18587   */\n      dup3\n        /* \"#utility.yul\":18577:18592   */\n      add\n        /* \"#utility.yul\":18570:18609   */\n      mstore\n        /* \"#utility.yul\":18385:18616   */\n      pop\n      jump\t// out\n        /* \"#utility.yul\":18622:18988   */\n    tag_387:\n        /* \"#utility.yul\":18764:18767   */\n      0x00\n        /* \"#utility.yul\":18785:18852   */\n      tag_591\n        /* \"#utility.yul\":18849:18851   */\n      0x2c\n        /* \"#utility.yul\":18844:18847   */\n      dup4\n        /* \"#utility.yul\":18785:18852   */\n      tag_367\n      jump\t// in\n    tag_591:\n        /* \"#utility.yul\":18778:18852   */\n      swap2\n      pop\n        /* \"#utility.yul\":18861:18954   */\n      tag_592\n        /* \"#utility.yul\":18950:18953   */\n      dup3\n        /* \"#utility.yul\":18861:18954   */\n      tag_386\n      jump\t// in\n    tag_592:\n        /* \"#utility.yul\":18979:18981   */\n      0x40\n        /* \"#utility.yul\":18974:18977   */\n      dup3\n        /* \"#utility.yul\":18970:18982   */\n      add\n        /* \"#utility.yul\":18963:18982   */\n      swap1\n      pop\n        /* \"#utility.yul\":18622:18988   */\n      swap2\n      swap1\n      pop\n      jump\t// out\n        /* \"#utility.yul\":18994:19413   */\n    tag_252:\n        /* \"#utility.yul\":19160:19164   */\n      0x00\n        /* \"#utility.yul\":19198:19200   */\n      0x20\n        /* \"#utility.yul\":19187:19196   */\n      dup3\n        /* \"#utility.yul\":19183:19201   */\n      add\n        /* \"#utility.yul\":19175:19201   */\n      swap1\n      pop\n        /* \"#utility.yul\":19247:19256   */\n      dup2\n        /* \"#utility.yul\":19241:19245   */\n      dup2\n        /* \"#utility.yul\":19237:19257   */\n      sub\n        /* \"#utility.yul\":19233:19234   */\n      0x00\n        /* \"#utility.yul\":19222:19231   */\n      dup4\n        /* \"#utility.yul\":19218:19235   */\n      add\n        /* \"#utility.yul\":19211:19258   */\n      mstore\n        /* \"#utility.yul\":19275:19406   */\n      tag_594\n        /* \"#utility.yul\":19401:19405   */\n      dup2\n        /* \"#utility.yul\":19275:19406   */\n      tag_387\n      jump\t// in\n    tag_594:\n        /* \"#utility.yul\":19267:19406   */\n      swap1\n      pop\n        /* \"#utility.yul\":18994:19413   */\n      swap2\n      swap1\n      pop\n      jump\t// out\n        /* \"#utility.yul\":19419:19603   */\n    tag_388:\n        /* \"#utility.yul\":19518:19529   */\n      0x00\n        /* \"#utility.yul\":19552:19558   */\n      dup3\n        /* \"#utility.yul\":19547:19550   */\n      dup3\n        /* \"#utility.yul\":19540:19559   */\n      mstore\n        /* \"#utility.yul\":19592:19596   */\n      0x20\n        /* \"#utility.yul\":19587:19590   */\n      dup3\n        /* \"#utility.yul\":19583:19597   */\n      add\n        /* \"#utility.yul\":19568:19597   */\n      swap1\n      pop\n        /* \"#utility.yul\":19419:19603   */\n      swap3\n      swap2\n      pop\n      pop\n      jump\t// out\n        /* \"#utility.yul\":19609:19711   */\n    tag_389:\n        /* \"#utility.yul\":19678:19682   */\n      0x00\n        /* \"#utility.yul\":19701:19704   */\n      dup2\n        /* \"#utility.yul\":19693:19704   */\n      swap1\n      pop\n        /* \"#utility.yul\":19609:19711   */\n      swap2\n      swap1\n      pop\n      jump\t// out\n        /* \"#utility.yul\":19717:19825   */\n    tag_390:\n        /* \"#utility.yul\":19794:19818   */\n      tag_598\n        /* \"#utility.yul\":19812:19817   */\n      dup2\n        /* \"#utility.yul\":19794:19818   */\n      tag_345\n      jump\t// in\n    tag_598:\n        /* \"#utility.yul\":19789:19792   */\n      dup3\n        /* \"#utility.yul\":19782:19819   */\n      mstore\n        /* \"#utility.yul\":19717:19825   */\n      pop\n      pop\n      jump\t// out\n        /* \"#utility.yul\":19831:20010   */\n    tag_391:\n        /* \"#utility.yul\":19900:19910   */\n      0x00\n        /* \"#utility.yul\":19921:19967   */\n      tag_600\n        /* \"#utility.yul\":19963:19966   */\n      dup4\n        /* \"#utility.yul\":19955:19961   */\n      dup4\n        /* \"#utility.yul\":19921:19967   */\n      tag_390\n      jump\t// in\n    tag_600:\n        /* \"#utility.yul\":19999:20003   */\n      0x20\n        /* \"#utility.yul\":19994:19997   */\n      dup4\n        /* \"#utility.yul\":19990:20004   */\n      add\n        /* \"#utility.yul\":19976:20004   */\n      swap1\n      pop\n        /* \"#utility.yul\":19831:20010   */\n      swap3\n      swap2\n      pop\n      pop\n      jump\t// out\n        /* \"#utility.yul\":20016:20138   */\n    tag_392:\n        /* \"#utility.yul\":20068:20073   */\n      0x00\n        /* \"#utility.yul\":20093:20132   */\n      tag_602\n        /* \"#utility.yul\":20128:20130   */\n      0x20\n        /* \"#utility.yul\":20123:20126   */\n      dup5\n        /* \"#utility.yul\":20119:20131   */\n      add\n        /* \"#utility.yul\":20114:20117   */\n      dup5\n        /* \"#utility.yul\":20093:20132   */\n      tag_347\n      jump\t// in\n    tag_602:\n        /* \"#utility.yul\":20084:20132   */\n      swap1\n      pop\n        /* \"#utility.yul\":20016:20138   */\n      swap3\n      swap2\n      pop\n      pop\n      jump\t// out\n        /* \"#utility.yul\":20144:20259   */\n    tag_393:\n        /* \"#utility.yul\":20216:20220   */\n      0x00\n        /* \"#utility.yul\":20248:20252   */\n      0x20\n        /* \"#utility.yul\":20243:20246   */\n      dup3\n        /* \"#utility.yul\":20239:20253   */\n      add\n        /* \"#utility.yul\":20231:20253   */\n      swap1\n      pop\n        /* \"#utility.yul\":20144:20259   */\n      swap2\n      swap1\n      pop\n      jump\t// out\n        /* \"#utility.yul\":20295:20994   */\n    tag_394:\n        /* \"#utility.yul\":20424:20427   */\n      0x00\n        /* \"#utility.yul\":20447:20533   */\n      tag_605\n        /* \"#utility.yul\":20526:20532   */\n      dup4\n        /* \"#utility.yul\":20521:20524   */\n      dup6\n        /* \"#utility.yul\":20447:20533   */\n      tag_388\n      jump\t// in\n    tag_605:\n        /* \"#utility.yul\":20440:20533   */\n      swap4\n      pop\n        /* \"#utility.yul\":20557:20615   */\n      tag_606\n        /* \"#utility.yul\":20609:20614   */\n      dup3\n        /* \"#utility.yul\":20557:20615   */\n      tag_389\n      jump\t// in\n    tag_606:\n        /* \"#utility.yul\":20638:20645   */\n      dup1\n        /* \"#utility.yul\":20669:20670   */\n      0x00\n        /* \"#utility.yul\":20654:20969   */\n    tag_607:\n        /* \"#utility.yul\":20679:20685   */\n      dup6\n        /* \"#utility.yul\":20676:20677   */\n      dup2\n        /* \"#utility.yul\":20673:20686   */\n      lt\n        /* \"#utility.yul\":20654:20969   */\n      iszero\n      tag_609\n      jumpi\n        /* \"#utility.yul\":20749:20791   */\n      tag_610\n        /* \"#utility.yul\":20784:20790   */\n      dup3\n        /* \"#utility.yul\":20775:20782   */\n      dup5\n        /* \"#utility.yul\":20749:20791   */\n      tag_392\n      jump\t// in\n    tag_610:\n        /* \"#utility.yul\":20811:20874   */\n      tag_611\n        /* \"#utility.yul\":20870:20873   */\n      dup9\n        /* \"#utility.yul\":20855:20868   */\n      dup3\n        /* \"#utility.yul\":20811:20874   */\n      tag_391\n      jump\t// in\n    tag_611:\n        /* \"#utility.yul\":20804:20874   */\n      swap8\n      pop\n        /* \"#utility.yul\":20897:20959   */\n      tag_612\n        /* \"#utility.yul\":20952:20958   */\n      dup4\n        /* \"#utility.yul\":20897:20959   */\n      tag_393\n      jump\t// in\n    tag_612:\n        /* \"#utility.yul\":20887:20959   */\n      swap3\n      pop\n        /* \"#utility.yul\":20714:20969   */\n      pop\n        /* \"#utility.yul\":20701:20702   */\n      0x01\n        /* \"#utility.yul\":20698:20699   */\n      dup2\n        /* \"#utility.yul\":20694:20703   */\n      add\n        /* \"#utility.yul\":20689:20703   */\n      swap1\n      pop\n        /* \"#utility.yul\":20654:20969   */\n      jump(tag_607)\n    tag_609:\n        /* \"#utility.yul\":20658:20672   */\n      pop\n        /* \"#utility.yul\":20985:20988   */\n      dup6\n        /* \"#utility.yul\":20978:20988   */\n      swap3\n      pop\n        /* \"#utility.yul\":20429:20994   */\n      pop\n      pop\n        /* \"#utility.yul\":20295:20994   */\n      swap4\n      swap3\n      pop\n      pop\n      pop\n      jump\t// out\n        /* \"#utility.yul\":21000:21184   */\n    tag_395:\n        /* \"#utility.yul\":21099:21110   */\n      0x00\n        /* \"#utility.yul\":21133:21139   */\n      dup3\n        /* \"#utility.yul\":21128:21131   */\n      dup3\n        /* \"#utility.yul\":21121:21140   */\n      mstore\n        /* \"#utility.yul\":21173:21177   */\n      0x20\n        /* \"#utility.yul\":21168:21171   */\n      dup3\n        /* \"#utility.yul\":21164:21178   */\n      add\n        /* \"#utility.yul\":21149:21178   */\n      swap1\n      pop\n        /* \"#utility.yul\":21000:21184   */\n      swap3\n      swap2\n      pop\n      pop\n      jump\t// out\n        /* \"#utility.yul\":21190:21307   */\n    tag_396:\n        /* \"#utility.yul\":21299:21300   */\n      0x00\n        /* \"#utility.yul\":21296:21297   */\n      0x00\n        /* \"#utility.yul\":21289:21301   */\n      revert\n        /* \"#utility.yul\":21313:21412   */\n    tag_397:\n        /* \"#utility.yul\":21398:21404   */\n      dup3\n        /* \"#utility.yul\":21393:21396   */\n      dup2\n        /* \"#utility.yul\":21388:21391   */\n      dup4\n        /* \"#utility.yul\":21375:21405   */\n      calldatacopy\n        /* \"#utility.yul\":21313:21412   */\n      pop\n      pop\n      pop\n      jump\t// out\n        /* \"#utility.yul\":21448:21985   */\n    tag_398:\n        /* \"#utility.yul\":21576:21579   */\n      0x00\n        /* \"#utility.yul\":21597:21683   */\n      tag_617\n        /* \"#utility.yul\":21676:21682   */\n      dup4\n        /* \"#utility.yul\":21671:21674   */\n      dup6\n        /* \"#utility.yul\":21597:21683   */\n      tag_395\n      jump\t// in\n    tag_617:\n        /* \"#utility.yul\":21590:21683   */\n      swap4\n      pop\n        /* \"#utility.yul\":21707:21773   */\n      0x07ffffffffffffffffffffffffffffffffffffffffffffffffffffffffffffff\n        /* \"#utility.yul\":21699:21705   */\n      dup4\n        /* \"#utility.yul\":21696:21774   */\n      gt\n        /* \"#utility.yul\":21693:21858   */\n      iszero\n      tag_618\n      jumpi\n        /* \"#utility.yul\":21777:21856   */\n      tag_619\n      tag_396\n      jump\t// in\n    tag_619:\n        /* \"#utility.yul\":21693:21858   */\n    tag_618:\n        /* \"#utility.yul\":21889:21893   */\n      0x20\n        /* \"#utility.yul\":21881:21887   */\n      dup4\n        /* \"#utility.yul\":21877:21894   */\n      mul\n        /* \"#utility.yul\":21867:21894   */\n      swap3\n      pop\n        /* \"#utility.yul\":21904:21947   */\n      tag_620\n        /* \"#utility.yul\":21940:21946   */\n      dup4\n        /* \"#utility.yul\":21935:21938   */\n      dup6\n        /* \"#utility.yul\":21928:21933   */\n      dup5\n        /* \"#utility.yul\":21904:21947   */\n      tag_397\n      jump\t// in\n    tag_620:\n        /* \"#utility.yul\":21972:21978   */\n      dup3\n        /* \"#utility.yul\":21967:21970   */\n      dup5\n        /* \"#utility.yul\":21963:21979   */\n      add\n        /* \"#utility.yul\":21956:21979   */\n      swap1\n      pop\n        /* \"#utility.yul\":21448:21985   */\n      swap4\n      swap3\n      pop\n      pop\n      pop\n      jump\t// out\n        /* \"#utility.yul\":21991:22665   */\n    tag_255:\n        /* \"#utility.yul\":22232:22236   */\n      0x00\n        /* \"#utility.yul\":22270:22272   */\n      0x40\n        /* \"#utility.yul\":22259:22268   */\n      dup3\n        /* \"#utility.yul\":22255:22273   */\n      add\n        /* \"#utility.yul\":22247:22273   */\n      swap1\n      pop\n        /* \"#utility.yul\":22319:22328   */\n      dup2\n        /* \"#utility.yul\":22313:22317   */\n      dup2\n        /* \"#utility.yul\":22309:22329   */\n      sub\n        /* \"#utility.yul\":22305:22306   */\n      0x00\n        /* \"#utility.yul\":22294:22303   */\n      dup4\n        /* \"#utility.yul\":22290:22307   */\n      add\n        /* \"#utility.yul\":22283:22330   */\n      mstore\n        /* \"#utility.yul\":22347:22465   */\n      tag_622\n        /* \"#utility.yul\":22460:22464   */\n      dup2\n        /* \"#utility.yul\":22451:22457   */\n      dup7\n        /* \"#utility.yul\":22443:22449   */\n      dup9\n        /* \"#utility.yul\":22347:22465   */\n      tag_394\n      jump\t// in\n    tag_622:\n        /* \"#utility.yul\":22339:22465   */\n      swap1\n      pop\n        /* \"#utility.yul\":22512:22521   */\n      dup2\n        /* \"#utility.yul\":22506:22510   */\n      dup2\n        /* \"#utility.yul\":22502:22522   */\n      sub\n        /* \"#utility.yul\":22497:22499   */\n      0x20\n        /* \"#utility.yul\":22486:22495   */\n      dup4\n        /* \"#utility.yul\":22482:22500   */\n      add\n        /* \"#utility.yul\":22475:22523   */\n      mstore\n        /* \"#utility.yul\":22540:22658   */\n      tag_623\n        /* \"#utility.yul\":22653:22657   */\n      dup2\n        /* \"#utility.yul\":22644:22650   */\n      dup5\n        /* \"#utility.yul\":22636:22642   */\n      dup7\n        /* \"#utility.yul\":22540:22658   */\n      tag_398\n      jump\t// in\n    tag_623:\n        /* \"#utility.yul\":22532:22658   */\n      swap1\n      pop\n        /* \"#utility.yul\":21991:22665   */\n      swap6\n      swap5\n      pop\n      pop\n      pop\n      pop\n      pop\n      jump\t// out\n        /* \"#utility.yul\":22671:22844   */\n    tag_399:\n        /* \"#utility.yul\":22811:22836   */\n      0x436f6e747261637420686173206e6f2062616c616e6365000000000000000000\n        /* \"#utility.yul\":22807:22808   */\n      0x00\n        /* \"#utility.yul\":22799:22805   */\n      dup3\n        /* \"#utility.yul\":22795:22809   */\n      add\n        /* \"#utility.yul\":22788:22837   */\n      mstore\n        /* \"#utility.yul\":22671:22844   */\n      pop\n      jump\t// out\n        /* \"#utility.yul\":22850:23216   */\n    tag_400:\n        /* \"#utility.yul\":22992:22995   */\n      0x00\n        /* \"#utility.yul\":23013:23080   */\n      tag_626\n        /* \"#utility.yul\":23077:23079   */\n      0x17\n        /* \"#utility.yul\":23072:23075   */\n      dup4\n        /* \"#utility.yul\":23013:23080   */\n      tag_367\n      jump\t// in\n    tag_626:\n        /* \"#utility.yul\":23006:23080   */\n      swap2\n      pop\n        /* \"#utility.yul\":23089:23182   */\n      tag_627\n        /* \"#utility.yul\":23178:23181   */\n      dup3\n        /* \"#utility.yul\":23089:23182   */\n      tag_399\n      jump\t// in\n    tag_627:\n        /* \"#utility.yul\":23207:23209   */\n      0x20\n        /* \"#utility.yul\":23202:23205   */\n      dup3\n        /* \"#utility.yul\":23198:23210   */\n      add\n        /* \"#utility.yul\":23191:23210   */\n      swap1\n      pop\n        /* \"#utility.yul\":22850:23216   */\n      swap2\n      swap1\n      pop\n      jump\t// out\n        /* \"#utility.yul\":23222:23641   */\n    tag_267:\n        /* \"#utility.yul\":23388:23392   */\n      0x00\n        /* \"#utility.yul\":23426:23428   */\n      0x20\n        /* \"#utility.yul\":23415:23424   */\n      dup3\n        /* \"#utility.yul\":23411:23429   */\n      add\n        /* \"#utility.yul\":23403:23429   */\n      swap1\n      pop\n        /* \"#utility.yul\":23475:23484   */\n      dup2\n        /* \"#utility.yul\":23469:23473   */\n      dup2\n        /* \"#utility.yul\":23465:23485   */\n      sub\n        /* \"#utility.yul\":23461:23462   */\n      0x00\n        /* \"#utility.yul\":23450:23459   */\n      dup4\n        /* \"#utility.yul\":23446:23463   */\n      add\n        /* \"#utility.yul\":23439:23486   */\n      mstore\n        /* \"#utility.yul\":23503:23634   */\n      tag_629\n        /* \"#utility.yul\":23629:23633   */\n      dup2\n        /* \"#utility.yul\":23503:23634   */\n      tag_400\n      jump\t// in\n    tag_629:\n        /* \"#utility.yul\":23495:23634   */\n      swap1\n      pop\n        /* \"#utility.yul\":23222:23641   */\n      swap2\n      swap1\n      pop\n      jump\t// out\n        /* \"#utility.yul\":23647:23817   */\n    tag_401:\n        /* \"#utility.yul\":23787:23809   */\n      0x436f6f6c646f776e20696e2070726f6772657373000000000000000000000000\n        /* \"#utility.yul\":23783:23784   */\n      0x00\n        /* \"#utility.yul\":23775:23781   */\n      dup3\n        /* \"#utility.yul\":23771:23785   */\n      add\n        /* \"#utility.yul\":23764:23810   */\n      mstore\n        /* \"#utility.yul\":23647:23817   */\n      pop\n      jump\t// out\n        /* \"#utility.yul\":23823:24189   */\n    tag_402:\n        /* \"#utility.yul\":23965:23968   */\n      0x00\n        /* \"#utility.yul\":23986:24053   */\n      tag_632\n        /* \"#utility.yul\":24050:24052   */\n      0x14\n        /* \"#utility.yul\":24045:24048   */\n      dup4\n        /* \"#utility.yul\":23986:24053   */\n      tag_367\n      jump\t// in\n    tag_632:\n        /* \"#utility.yul\":23979:24053   */\n      swap2\n      pop\n        /* \"#utility.yul\":24062:24155   */\n      tag_633\n        /* \"#utility.yul\":24151:24154   */\n      dup3\n        /* \"#utility.yul\":24062:24155   */\n      tag_401\n      jump\t// in\n    tag_633:\n        /* \"#utility.yul\":24180:24182   */\n      0x20\n        /* \"#utility.yul\":24175:24178   */\n      dup3\n        /* \"#utility.yul\":24171:24183   */\n      add\n        /* \"#utility.yul\":24164:24183   */\n      swap1\n      pop\n        /* \"#utility.yul\":23823:24189   */\n      swap2\n      swap1\n      pop\n      jump\t// out\n        /* \"#utility.yul\":24195:24614   */\n    tag_271:\n        /* \"#utility.yul\":24361:24365   */\n      0x00\n        /* \"#utility.yul\":24399:24401   */\n      0x20\n        /* \"#utility.yul\":24388:24397   */\n      dup3\n        /* \"#utility.yul\":24384:24402   */\n      add\n        /* \"#utility.yul\":24376:24402   */\n      swap1\n      pop\n        /* \"#utility.yul\":24448:24457   */\n      dup2\n        /* \"#utility.yul\":24442:24446   */\n      dup2\n        /* \"#utility.yul\":24438:24458   */\n      sub\n        /* \"#utility.yul\":24434:24435   */\n      0x00\n        /* \"#utility.yul\":24423:24432   */\n      dup4\n        /* \"#utility.yul\":24419:24436   */\n      add\n        /* \"#utility.yul\":24412:24459   */\n      mstore\n        /* \"#utility.yul\":24476:24607   */\n      tag_635\n        /* \"#utility.yul\":24602:24606   */\n      dup2\n        /* \"#utility.yul\":24476:24607   */\n      tag_402\n      jump\t// in\n    tag_635:\n        /* \"#utility.yul\":24468:24607   */\n      swap1\n      pop\n        /* \"#utility.yul\":24195:24614   */\n      swap2\n      swap1\n      pop\n      jump\t// out\n        /* \"#utility.yul\":24620:24847   */\n    tag_403:\n        /* \"#utility.yul\":24760:24794   */\n      0x4465706f73697420616d6f756e74206d75737420626520677265617465722074\n        /* \"#utility.yul\":24756:24757   */\n      0x00\n        /* \"#utility.yul\":24748:24754   */\n      dup3\n        /* \"#utility.yul\":24744:24758   */\n      add\n        /* \"#utility.yul\":24737:24795   */\n      mstore\n        /* \"#utility.yul\":24829:24839   */\n      0x68616e207a65726f000000000000000000000000000000000000000000000000\n        /* \"#utility.yul\":24824:24826   */\n      0x20\n        /* \"#utility.yul\":24816:24822   */\n      dup3\n        /* \"#utility.yul\":24812:24827   */\n      add\n        /* \"#utility.yul\":24805:24840   */\n      mstore\n        /* \"#utility.yul\":24620:24847   */\n      pop\n      jump\t// out\n        /* \"#utility.yul\":24853:25219   */\n    tag_404:\n        /* \"#utility.yul\":24995:24998   */\n      0x00\n        /* \"#utility.yul\":25016:25083   */\n      tag_638\n        /* \"#utility.yul\":25080:25082   */\n      0x28\n        /* \"#utility.yul\":25075:25078   */\n      dup4\n        /* \"#utility.yul\":25016:25083   */\n      tag_367\n      jump\t// in\n    tag_638:\n        /* \"#utility.yul\":25009:25083   */\n      swap2\n      pop\n        /* \"#utility.yul\":25092:25185   */\n      tag_639\n        /* \"#utility.yul\":25181:25184   */\n      dup3\n        /* \"#utility.yul\":25092:25185   */\n      tag_403\n      jump\t// in\n    tag_639:\n        /* \"#utility.yul\":25210:25212   */\n      0x40\n        /* \"#utility.yul\":25205:25208   */\n      dup3\n        /* \"#utility.yul\":25201:25213   */\n      add\n        /* \"#utility.yul\":25194:25213   */\n      swap1\n      pop\n        /* \"#utility.yul\":24853:25219   */\n      swap2\n      swap1\n      pop\n      jump\t// out\n        /* \"#utility.yul\":25225:25644   */\n    tag_282:\n        /* \"#utility.yul\":25391:25395   */\n      0x00\n        /* \"#utility.yul\":25429:25431   */\n      0x20\n        /* \"#utility.yul\":25418:25427   */\n      dup3\n        /* \"#utility.yul\":25414:25432   */\n      add\n        /* \"#utility.yul\":25406:25432   */\n      swap1\n      pop\n        /* \"#utility.yul\":25478:25487   */\n      dup2\n        /* \"#utility.yul\":25472:25476   */\n      dup2\n        /* \"#utility.yul\":25468:25488   */\n      sub\n        /* \"#utility.yul\":25464:25465   */\n      0x00\n        /* \"#utility.yul\":25453:25462   */\n      dup4\n        /* \"#utility.yul\":25449:25466   */\n      add\n        /* \"#utility.yul\":25442:25489   */\n      mstore\n        /* \"#utility.yul\":25506:25637   */\n      tag_641\n        /* \"#utility.yul\":25632:25636   */\n      dup2\n        /* \"#utility.yul\":25506:25637   */\n      tag_404\n      jump\t// in\n    tag_641:\n        /* \"#utility.yul\":25498:25637   */\n      swap1\n      pop\n        /* \"#utility.yul\":25225:25644   */\n      swap2\n      swap1\n      pop\n      jump\t// out\n        /* \"#utility.yul\":25650:25820   */\n    tag_405:\n        /* \"#utility.yul\":25790:25812   */\n      0x496e73756666696369656e742062616c616e6365000000000000000000000000\n        /* \"#utility.yul\":25786:25787   */\n      0x00\n        /* \"#utility.yul\":25778:25784   */\n      dup3\n        /* \"#utility.yul\":25774:25788   */\n      add\n        /* \"#utility.yul\":25767:25813   */\n      mstore\n        /* \"#utility.yul\":25650:25820   */\n      pop\n      jump\t// out\n        /* \"#utility.yul\":25826:26192   */\n    tag_406:\n        /* \"#utility.yul\":25968:25971   */\n      0x00\n        /* \"#utility.yul\":25989:26056   */\n      tag_644\n        /* \"#utility.yul\":26053:26055   */\n      0x14\n        /* \"#utility.yul\":26048:26051   */\n      dup4\n        /* \"#utility.yul\":25989:26056   */\n      tag_367\n      jump\t// in\n    tag_644:\n        /* \"#utility.yul\":25982:26056   */\n      swap2\n      pop\n        /* \"#utility.yul\":26065:26158   */\n      tag_645\n        /* \"#utility.yul\":26154:26157   */\n      dup3\n        /* \"#utility.yul\":26065:26158   */\n      tag_405\n      jump\t// in\n    tag_645:\n        /* \"#utility.yul\":26183:26185   */\n      0x20\n        /* \"#utility.yul\":26178:26181   */\n      dup3\n        /* \"#utility.yul\":26174:26186   */\n      add\n        /* \"#utility.yul\":26167:26186   */\n      swap1\n      pop\n        /* \"#utility.yul\":25826:26192   */\n      swap2\n      swap1\n      pop\n      jump\t// out\n        /* \"#utility.yul\":26198:26617   */\n    tag_289:\n        /* \"#utility.yul\":26364:26368   */\n      0x00\n        /* \"#utility.yul\":26402:26404   */\n      0x20\n        /* \"#utility.yul\":26391:26400   */\n      dup3\n        /* \"#utility.yul\":26387:26405   */\n      add\n        /* \"#utility.yul\":26379:26405   */\n      swap1\n      pop\n        /* \"#utility.yul\":26451:26460   */\n      dup2\n        /* \"#utility.yul\":26445:26449   */\n      dup2\n        /* \"#utility.yul\":26441:26461   */\n      sub\n        /* \"#utility.yul\":26437:26438   */\n      0x00\n        /* \"#utility.yul\":26426:26435   */\n      dup4\n        /* \"#utility.yul\":26422:26439   */\n      add\n        /* \"#utility.yul\":26415:26462   */\n      mstore\n        /* \"#utility.yul\":26479:26610   */\n      tag_647\n        /* \"#utility.yul\":26605:26609   */\n      dup2\n        /* \"#utility.yul\":26479:26610   */\n      tag_406\n      jump\t// in\n    tag_647:\n        /* \"#utility.yul\":26471:26610   */\n      swap1\n      pop\n        /* \"#utility.yul\":26198:26617   */\n      swap2\n      swap1\n      pop\n      jump\t// out\n        /* \"#utility.yul\":26623:26792   */\n    tag_407:\n        /* \"#utility.yul\":26763:26784   */\n      0x4e6f206665657320746f20776974686472617700000000000000000000000000\n        /* \"#utility.yul\":26759:26760   */\n      0x00\n        /* \"#utility.yul\":26751:26757   */\n      dup3\n        /* \"#utility.yul\":26747:26761   */\n      add\n        /* \"#utility.yul\":26740:26785   */\n      mstore\n        /* \"#utility.yul\":26623:26792   */\n      pop\n      jump\t// out\n        /* \"#utility.yul\":26798:27164   */\n    tag_408:\n        /* \"#utility.yul\":26940:26943   */\n      0x00\n        /* \"#utility.yul\":26961:27028   */\n      tag_650\n        /* \"#utility.yul\":27025:27027   */\n      0x13\n        /* \"#utility.yul\":27020:27023   */\n      dup4\n        /* \"#utility.yul\":26961:27028   */\n      tag_367\n      jump\t// in\n    tag_650:\n        /* \"#utility.yul\":26954:27028   */\n      swap2\n      pop\n        /* \"#utility.yul\":27037:27130   */\n      tag_651\n        /* \"#utility.yul\":27126:27129   */\n      dup3\n        /* \"#utility.yul\":27037:27130   */\n      tag_407\n      jump\t// in\n    tag_651:\n        /* \"#utility.yul\":27155:27157   */\n      0x20\n        /* \"#utility.yul\":27150:27153   */\n      dup3\n        /* \"#utility.yul\":27146:27158   */\n      add\n        /* \"#utility.yul\":27139:27158   */\n      swap1\n      pop\n        /* \"#utility.yul\":26798:27164   */\n      swap2\n      swap1\n      pop\n      jump\t// out\n        /* \"#utility.yul\":27170:27589   */\n    tag_298:\n        /* \"#utility.yul\":27336:27340   */\n      0x00\n        /* \"#utility.yul\":27374:27376   */\n      0x20\n        /* \"#utility.yul\":27363:27372   */\n      dup3\n        /* \"#utility.yul\":27359:27377   */\n      add\n        /* \"#utility.yul\":27351:27377   */\n      swap1\n      pop\n        /* \"#utility.yul\":27423:27432   */\n      dup2\n        /* \"#utility.yul\":27417:27421   */\n      dup2\n        /* \"#utility.yul\":27413:27433   */\n      sub\n        /* \"#utility.yul\":27409:27410   */\n      0x00\n        /* \"#utility.yul\":27398:27407   */\n      dup4\n        /* \"#utility.yul\":27394:27411   */\n      add\n        /* \"#utility.yul\":27387:27434   */\n      mstore\n        /* \"#utility.yul\":27451:27582   */\n      tag_653\n        /* \"#utility.yul\":27577:27581   */\n      dup2\n        /* \"#utility.yul\":27451:27582   */\n      tag_408\n      jump\t// in\n    tag_653:\n        /* \"#utility.yul\":27443:27582   */\n      swap1\n      pop\n        /* \"#utility.yul\":27170:27589   */\n      swap2\n      swap1\n      pop\n      jump\t// out\n        /* \"#utility.yul\":27595:27776   */\n    tag_409:\n        /* \"#utility.yul\":27735:27768   */\n      0x5265656e7472616e637947756172643a207265656e7472616e742063616c6c00\n        /* \"#utility.yul\":27731:27732   */\n      0x00\n        /* \"#utility.yul\":27723:27729   */\n      dup3\n        /* \"#utility.yul\":27719:27733   */\n      add\n        /* \"#utility.yul\":27712:27769   */\n      mstore\n        /* \"#utility.yul\":27595:27776   */\n      pop\n      jump\t// out\n        /* \"#utility.yul\":27782:28148   */\n    tag_410:\n        /* \"#utility.yul\":27924:27927   */\n      0x00\n        /* \"#utility.yul\":27945:28012   */\n      tag_656\n        /* \"#utility.yul\":28009:28011   */\n      0x1f\n        /* \"#utility.yul\":28004:28007   */\n      dup4\n        /* \"#utility.yul\":27945:28012   */\n      tag_367\n      jump\t// in\n    tag_656:\n        /* \"#utility.yul\":27938:28012   */\n      swap2\n      pop\n        /* \"#utility.yul\":28021:28114   */\n      tag_657\n        /* \"#utility.yul\":28110:28113   */\n      dup3\n        /* \"#utility.yul\":28021:28114   */\n      tag_409\n      jump\t// in\n    tag_657:\n        /* \"#utility.yul\":28139:28141   */\n      0x20\n        /* \"#utility.yul\":28134:28137   */\n      dup3\n        /* \"#utility.yul\":28130:28142   */\n      add\n        /* \"#utility.yul\":28123:28142   */\n      swap1\n      pop\n        /* \"#utility.yul\":27782:28148   */\n      swap2\n      swap1\n      pop\n      jump\t// out\n        /* \"#utility.yul\":28154:28573   */\n    tag_322:\n        /* \"#utility.yul\":28320:28324   */\n      0x00\n        /* \"#utility.yul\":28358:28360   */\n      0x20\n        /* \"#utility.yul\":28347:28356   */\n      dup3\n        /* \"#utility.yul\":28343:28361   */\n      add\n        /* \"#utility.yul\":28335:28361   */\n      swap1\n      pop\n        /* \"#utility.yul\":28407:28416   */\n      dup2\n        /* \"#utility.yul\":28401:28405   */\n      dup2\n        /* \"#utility.yul\":28397:28417   */\n      sub\n        /* \"#utility.yul\":28393:28394   */\n      0x00\n        /* \"#utility.yul\":28382:28391   */\n      dup4\n        /* \"#utility.yul\":28378:28395   */\n      add\n        /* \"#utility.yul\":28371:28418   */\n      mstore\n        /* \"#utility.yul\":28435:28566   */\n      tag_659\n        /* \"#utility.yul\":28561:28565   */\n      dup2\n        /* \"#utility.yul\":28435:28566   */\n      tag_410\n      jump\t// in\n    tag_659:\n        /* \"#utility.yul\":28427:28566   */\n      swap1\n      pop\n        /* \"#utility.yul\":28154:28573   */\n      swap2\n      swap1\n      pop\n      jump\t// out\n        /* \"#utility.yul\":28579:28911   */\n    tag_326:\n        /* \"#utility.yul\":28700:28704   */\n      0x00\n        /* \"#utility.yul\":28738:28740   */\n      0x40\n        /* \"#utility.yul\":28727:28736   */\n      dup3\n        /* \"#utility.yul\":28723:28741   */\n      add\n        /* \"#utility.yul\":28715:28741   */\n      swap1\n      pop\n        /* \"#utility.yul\":28751:28822   */\n      tag_661\n        /* \"#utility.yul\":28819:28820   */\n      0x00\n        /* \"#utility.yul\":28808:28817   */\n      dup4\n        /* \"#utility.yul\":28804:28821   */\n      add\n        /* \"#utility.yul\":28795:28801   */\n      dup6\n        /* \"#utility.yul\":28751:28822   */\n      tag_354\n      jump\t// in\n    tag_661:\n        /* \"#utility.yul\":28832:28904   */\n      tag_662\n        /* \"#utility.yul\":28900:28902   */\n      0x20\n        /* \"#utility.yul\":28889:28898   */\n      dup4\n        /* \"#utility.yul\":28885:28903   */\n      add\n        /* \"#utility.yul\":28876:28882   */\n      dup5\n        /* \"#utility.yul\":28832:28904   */\n      tag_349\n      jump\t// in\n    tag_662:\n        /* \"#utility.yul\":28579:28911   */\n      swap4\n      swap3\n      pop\n      pop\n      pop\n      jump\t// out\n        /* \"#utility.yul\":28917:29359   */\n    tag_333:\n        /* \"#utility.yul\":29066:29070   */\n      0x00\n        /* \"#utility.yul\":29104:29106   */\n      0x60\n        /* \"#utility.yul\":29093:29102   */\n      dup3\n        /* \"#utility.yul\":29089:29107   */\n      add\n        /* \"#utility.yul\":29081:29107   */\n      swap1\n      pop\n        /* \"#utility.yul\":29117:29188   */\n      tag_664\n        /* \"#utility.yul\":29185:29186   */\n      0x00\n        /* \"#utility.yul\":29174:29183   */\n      dup4\n        /* \"#utility.yul\":29170:29187   */\n      add\n        /* \"#utility.yul\":29161:29167   */\n      dup7\n        /* \"#utility.yul\":29117:29188   */\n      tag_354\n      jump\t// in\n    tag_664:\n        /* \"#utility.yul\":29198:29270   */\n      tag_665\n        /* \"#utility.yul\":29266:29268   */\n      0x20\n        /* \"#utility.yul\":29255:29264   */\n      dup4\n        /* \"#utility.yul\":29251:29269   */\n      add\n        /* \"#utility.yul\":29242:29248   */\n      dup6\n        /* \"#utility.yul\":29198:29270   */\n      tag_354\n      jump\t// in\n    tag_665:\n        /* \"#utility.yul\":29280:29352   */\n      tag_666\n        /* \"#utility.yul\":29348:29350   */\n      0x40\n        /* \"#utility.yul\":29337:29346   */\n      dup4\n        /* \"#utility.yul\":29333:29351   */\n      add\n        /* \"#utility.yul\":29324:29330   */\n      dup5\n        /* \"#utility.yul\":29280:29352   */\n      tag_349\n      jump\t// in\n    tag_666:\n        /* \"#utility.yul\":28917:29359   */\n      swap5\n      swap4\n      pop\n      pop\n      pop\n      pop\n      jump\t// out\n\n    auxdata: 0xa26469706673582212202a25717e71a72feeeb25501009f7f37041042b26708077ad90b40a0fe200793564736f6c634300081c0033\n}\n",
				"bytecode": {
					"linkReferences": {},
					"object": "60a0604052670de0b6b3a76400006207a12061001b9190610292565b600b5562093a80600d55348015610030575f5ffd5b50604051612e1f380380612e1f83398181016040528101906100529190610342565b335f73ffffffffffffffffffffffffffffffffffffffff168173ffffffffffffffffffffffffffffffffffffffff16036100c3575f6040517f1e4fbdf70000000000000000000000000000000000000000000000000000000081526004016100ba919061037c565b60405180910390fd5b6100d28161019b60201b60201c565b50600180819055505f73ffffffffffffffffffffffffffffffffffffffff168173ffffffffffffffffffffffffffffffffffffffff1603610148576040517f08c379a000000000000000000000000000000000000000000000000000000000815260040161013f906103ef565b60405180910390fd5b8073ffffffffffffffffffffffffffffffffffffffff1660808173ffffffffffffffffffffffffffffffffffffffff16815250505f60025f6101000a81548160ff0219169083151502179055505061040d565b5f5f5f9054906101000a900473ffffffffffffffffffffffffffffffffffffffff169050815f5f6101000a81548173ffffffffffffffffffffffffffffffffffffffff021916908373ffffffffffffffffffffffffffffffffffffffff1602179055508173ffffffffffffffffffffffffffffffffffffffff168173ffffffffffffffffffffffffffffffffffffffff167f8be0079c531659141344cd1fd0a4f28419497f9722a3daafe3b4186f6b6457e060405160405180910390a35050565b5f819050919050565b7f4e487b71000000000000000000000000000000000000000000000000000000005f52601160045260245ffd5b5f61029c8261025c565b91506102a78361025c565b92508282026102b58161025c565b915082820484148315176102cc576102cb610265565b5b5092915050565b5f5ffd5b5f73ffffffffffffffffffffffffffffffffffffffff82169050919050565b5f610300826102d7565b9050919050565b5f610311826102f6565b9050919050565b61032181610307565b811461032b575f5ffd5b50565b5f8151905061033c81610318565b92915050565b5f60208284031215610357576103566102d3565b5b5f6103648482850161032e565b91505092915050565b610376816102f6565b82525050565b5f60208201905061038f5f83018461036d565b92915050565b5f82825260208201905092915050565b7f496e76616c696420746f6b656e000000000000000000000000000000000000005f82015250565b5f6103d9600d83610395565b91506103e4826103a5565b602082019050919050565b5f6020820190508181035f830152610406816103cd565b9050919050565b6080516129d061044f5f395f8181610ab101528181610c240152818161133e0152818161147f015281816115700152818161164f015261185001526129d05ff3fe6080604052600436106101b6575f3560e01c80638f060da9116100eb578063d7bebac011610089578063e141316311610063578063e1413163146105a4578063e1ffba62146105ba578063f2fde38b146105e2578063fc0c546a1461060a576101b6565b8063d7bebac01461053e578063db2e21bc14610566578063dd49756e1461057c576101b6565b80639e9aed62116100c55780639e9aed62146104a0578063a0470cb4146104ca578063bf3506c1146104d4578063c59d484714610510576101b6565b80638f060da91461040057806392929a091461043c57806394192b9f14610464576101b6565b806345f7f249116101585780636104f4b5116101325780636104f4b51461036c578063715018a61461039657806386e755c6146103ac5780638da5cb5b146103d6576101b6565b806345f7f249146102f05780634e71d92d1461031a578063522bf1d414610330576101b6565b806326155e531161019457806326155e531461024857806328607bc6146102725780632866ed211461029c5780632bb2ed39146102c6576101b6565b806306def802146101ba5780631f322564146101f65780632019ddf814610220575b5f5ffd5b3480156101c5575f5ffd5b506101e060048036038101906101db9190611c17565b610634565b6040516101ed9190611c5a565b60405180910390f35b348015610201575f5ffd5b5061020a61067a565b6040516102179190611c5a565b60405180910390f35b34801561022b575f5ffd5b5061024660048036038101906102419190611ca8565b610680565b005b348015610253575f5ffd5b5061025c61072e565b6040516102699190611c5a565b60405180910390f35b34801561027d575f5ffd5b50610286610734565b6040516102939190611c5a565b60405180910390f35b3480156102a7575f5ffd5b506102b061073a565b6040516102bd9190611cf5565b60405180910390f35b3480156102d1575f5ffd5b506102da61074c565b6040516102e79190611c5a565b60405180910390f35b3480156102fb575f5ffd5b50610304610752565b6040516103119190611c5a565b60405180910390f35b348015610325575f5ffd5b5061032e610758565b005b34801561033b575f5ffd5b5061035660048036038101906103519190611c17565b610b00565b6040516103639190611c5a565b60405180910390f35b348015610377575f5ffd5b50610380610b46565b60405161038d9190611c5a565b60405180910390f35b3480156103a1575f5ffd5b506103aa610b4c565b005b3480156103b7575f5ffd5b506103c0610b5f565b6040516103cd9190611c5a565b60405180910390f35b3480156103e1575f5ffd5b506103ea610b65565b6040516103f79190611d1d565b60405180910390f35b34801561040b575f5ffd5b5061042660048036038101906104219190611c17565b610b8c565b6040516104339190611cf5565b60405180910390f35b348015610447575f5ffd5b50610462600480360381019061045d9190611d36565b610ba9565b005b34801561046f575f5ffd5b5061048a60048036038101906104859190611c17565b610c04565b6040516104979190611cf5565b60405180910390f35b3480156104ab575f5ffd5b506104b4610c21565b6040516104c19190611c5a565b60405180910390f35b6104d2610cbf565b005b3480156104df575f5ffd5b506104fa60048036038101906104f59190611c17565b610d9d565b6040516105079190611cf5565b60405180910390f35b34801561051b575f5ffd5b50610524610ea1565b604051610535959493929190611d61565b60405180910390f35b348015610549575f5ffd5b50610564600480360381019061055f9190611e68565b610ed7565b005b348015610571575f5ffd5b5061057a61132b565b005b348015610587575f5ffd5b506105a2600480360381019061059d9190611f10565b611523565b005b3480156105af575f5ffd5b506105b86116e5565b005b3480156105c5575f5ffd5b506105e060048036038101906105db9190611f10565b611781565b005b3480156105ed575f5ffd5b5061060860048036038101906106039190611c17565b6117ca565b005b348015610615575f5ffd5b5061061e61184e565b60405161062b9190611f96565b60405180910390f35b5f60035f8373ffffffffffffffffffffffffffffffffffffffff1673ffffffffffffffffffffffffffffffffffffffff1681526020019081526020015f20549050919050565b600e5481565b610688611872565b8060055f8473ffffffffffffffffffffffffffffffffffffffff1673ffffffffffffffffffffffffffffffffffffffff1681526020019081526020015f205f6101000a81548160ff0219169083151502179055508173ffffffffffffffffffffffffffffffffffffffff167f129e15046dd77be10c4cdac8841646b9f3b6d22a00544b93362e9b84c05e6960826040516107229190611cf5565b60405180910390a25050565b600c5481565b600d5481565b60025f9054906101000a900460ff1681565b60085481565b60095481565b6107606118f9565b60025f9054906101000a900460ff166107ae576040517f08c379a00000000000000000000000000000000000000000000000000000000081526004016107a590612009565b60405180910390fd5b60055f3373ffffffffffffffffffffffffffffffffffffffff1673ffffffffffffffffffffffffffffffffffffffff1681526020019081526020015f205f9054906101000a900460ff1615610838576040517f08c379a000000000000000000000000000000000000000000000000000000000815260040161082f90612071565b60405180910390fd5b60065f3373ffffffffffffffffffffffffffffffffffffffff1673ffffffffffffffffffffffffffffffffffffffff1681526020019081526020015f205f9054906101000a900460ff166108c1576040517f08c379a00000000000000000000000000000000000000000000000000000000081526004016108b8906120d9565b60405180910390fd5b5f60035f3373ffffffffffffffffffffffffffffffffffffffff1673ffffffffffffffffffffffffffffffffffffffff1681526020019081526020015f205490505f8111610944576040517f08c379a000000000000000000000000000000000000000000000000000000000815260040161093b90612141565b60405180910390fd5b3373ffffffffffffffffffffffffffffffffffffffff167f9e09de4b8e45666deb3ec2bc8225f07988e54ef533eec97cb0b4610127183d798260405161098a9190611c5a565b60405180910390a25f60035f3373ffffffffffffffffffffffffffffffffffffffff1673ffffffffffffffffffffffffffffffffffffffff1681526020019081526020015f20819055508060095f8282546109e5919061218c565b9250508190555060085f8154809291906109fe906121bf565b91905055508060045f3373ffffffffffffffffffffffffffffffffffffffff1673ffffffffffffffffffffffffffffffffffffffff1681526020019081526020015f205f828254610a4f9190612206565b925050819055505f60065f3373ffffffffffffffffffffffffffffffffffffffff1673ffffffffffffffffffffffffffffffffffffffff1681526020019081526020015f205f6101000a81548160ff021916908315150217905550610af533827f000000000000000000000000000000000000000000000000000000000000000073ffffffffffffffffffffffffffffffffffffffff166119489092919063ffffffff16565b50610afe6119c7565b565b5f60045f8373ffffffffffffffffffffffffffffffffffffffff1673ffffffffffffffffffffffffffffffffffffffff1681526020019081526020015f20549050919050565b60075481565b610b54611872565b610b5d5f6119d0565b565b600b5481565b5f5f5f9054906101000a900473ffffffffffffffffffffffffffffffffffffffff16905090565b6005602052805f5260405f205f915054906101000a900460ff1681565b610bb1611872565b8060025f6101000a81548160ff0219169083151502179055507f1edd4dc7f91a5992aba0f39c0428bcf4df13d001eebc26eb188307d057f14a0781604051610bf99190611cf5565b60405180910390a150565b6006602052805f5260405f205f915054906101000a900460ff1681565b5f7f000000000000000000000000000000000000000000000000000000000000000073ffffffffffffffffffffffffffffffffffffffff166370a08231306040518263ffffffff1660e01b8152600401610c7b9190611d1d565b602060405180830381865afa158015610c96573d5f5f3e3d5ffd5b505050506040513d601f19601f82011682018060405250810190610cba919061224d565b905090565b600e543414610d03576040517f08c379a0000000000000000000000000000000000000000000000000000000008152600401610cfa906122c2565b60405180910390fd5b600160065f3373ffffffffffffffffffffffffffffffffffffffff1673ffffffffffffffffffffffffffffffffffffffff1681526020019081526020015f205f6101000a81548160ff0219169083151502179055503373ffffffffffffffffffffffffffffffffffffffff167fb7fa0f30e1ede3196616147dfdf6c94e47523298677b4f7b0c61027a9f0ebf5460405160405180910390a2565b5f60025f9054906101000a900460ff168015610e00575060055f8373ffffffffffffffffffffffffffffffffffffffff1673ffffffffffffffffffffffffffffffffffffffff1681526020019081526020015f205f9054906101000a900460ff16155b8015610e52575060065f8373ffffffffffffffffffffffffffffffffffffffff1673ffffffffffffffffffffffffffffffffffffffff1681526020019081526020015f205f9054906101000a900460ff165b8015610e9a57505f60035f8473ffffffffffffffffffffffffffffffffffffffff1673ffffffffffffffffffffffffffffffffffffffff1681526020019081526020015f2054115b9050919050565b5f5f5f5f5f60075494506008549350610eb8610c21565b9250600954915060025f9054906101000a900460ff1690509091929394565b610edf611872565b818190508484905014610f27576040517f08c379a0000000000000000000000000000000000000000000000000000000008152600401610f1e9061232a565b60405180910390fd5b5f5f90505f5f90505b85859050811015611277575f868683818110610f4f57610f4e612348565b5b9050602002016020810190610f649190611c17565b90505f670de0b6b3a7640000868685818110610f8357610f82612348565b5b90506020020135610f949190612375565b90505f8273ffffffffffffffffffffffffffffffffffffffff163b14610fef576040517f08c379a0000000000000000000000000000000000000000000000000000000008152600401610fe690612400565b60405180910390fd5b600b548160035f8573ffffffffffffffffffffffffffffffffffffffff1673ffffffffffffffffffffffffffffffffffffffff1681526020019081526020015f205461103b9190612206565b111561107c576040517f08c379a000000000000000000000000000000000000000000000000000000000815260040161107390612468565b60405180910390fd5b600a5f8373ffffffffffffffffffffffffffffffffffffffff1673ffffffffffffffffffffffffffffffffffffffff1681526020019081526020015f205f9054906101000a900460ff1661117a576001600a5f8473ffffffffffffffffffffffffffffffffffffffff1673ffffffffffffffffffffffffffffffffffffffff1681526020019081526020015f205f6101000a81548160ff02191690831515021790555060075f815480929190611131906121bf565b91905055508173ffffffffffffffffffffffffffffffffffffffff167f1837db44f707818dfce8415ef80a201e86882bc1bffabdded272512a96c0799e60405160405180910390a25b8060035f8473ffffffffffffffffffffffffffffffffffffffff1673ffffffffffffffffffffffffffffffffffffffff1681526020019081526020015f205f8282546111c69190612206565b9250508190555080846111d99190612206565b93508173ffffffffffffffffffffffffffffffffffffffff167f4885d73252b9e2c420b677d64d50e8a5798773dbb4cb99c5a2ab2824f725d9a88260035f8673ffffffffffffffffffffffffffffffffffffffff1673ffffffffffffffffffffffffffffffffffffffff1681526020019081526020015f2054604051611260929190612486565b60405180910390a250508080600101915050610f30565b50806009546112869190612206565b61128e610c21565b10156112cf576040517f08c379a00000000000000000000000000000000000000000000000000000000081526004016112c69061251d565b60405180910390fd5b8060095f8282546112e09190612206565b925050819055507ff14d1c8e59d4cd079b88d0e19cf0de41c86b7a761d5032c0947977002b3ad93a8585858560405161131c949392919061266f565b60405180910390a15050505050565b611333611872565b61133b6118f9565b5f7f000000000000000000000000000000000000000000000000000000000000000073ffffffffffffffffffffffffffffffffffffffff166370a08231306040518263ffffffff1660e01b81526004016113959190611d1d565b602060405180830381865afa1580156113b0573d5f5f3e3d5ffd5b505050506040513d601f19601f820116820180604052508101906113d4919061224d565b90505f8111611418576040517f08c379a000000000000000000000000000000000000000000000000000000000815260040161140f906126f2565b60405180910390fd5b600d54600c546114289190612206565b42101561146a576040517f08c379a00000000000000000000000000000000000000000000000000000000081526004016114619061275a565b60405180910390fd5b42600c819055506114c361147c610b65565b827f000000000000000000000000000000000000000000000000000000000000000073ffffffffffffffffffffffffffffffffffffffff166119489092919063ffffffff16565b6114cb610b65565b73ffffffffffffffffffffffffffffffffffffffff167f5fafa99d0643513820be26656b45130b01e1c03062e1266bf36f88cbd3bd9695826040516115109190611c5a565b60405180910390a2506115216119c7565b565b61152b611872565b5f811161156d576040517f08c379a0000000000000000000000000000000000000000000000000000000008152600401611564906127e8565b60405180910390fd5b807f000000000000000000000000000000000000000000000000000000000000000073ffffffffffffffffffffffffffffffffffffffff166370a08231336040518263ffffffff1660e01b81526004016115c79190611d1d565b602060405180830381865afa1580156115e2573d5f5f3e3d5ffd5b505050506040513d601f19601f82011682018060405250810190611606919061224d565b1015611647576040517f08c379a000000000000000000000000000000000000000000000000000000000815260040161163e90612850565b60405180910390fd5b6116943330837f000000000000000000000000000000000000000000000000000000000000000073ffffffffffffffffffffffffffffffffffffffff16611a91909392919063ffffffff16565b3373ffffffffffffffffffffffffffffffffffffffff167fbc7c8a4d8049a3f99a02f2a20640c206a2e4d3f2fa54fd20da9f01fda3620cda826040516116da9190611c5a565b60405180910390a250565b6116ed611872565b5f4790505f8111611733576040517f08c379a000000000000000000000000000000000000000000000000000000000815260040161172a906128b8565b60405180910390fd5b61173b610b65565b73ffffffffffffffffffffffffffffffffffffffff166108fc8290811502906040515f60405180830381858888f1935050505015801561177d573d5f5f3e3d5ffd5b5050565b611789611872565b80600e819055507f046767aa5821ba6f1a985f8cf0134cb534cba0b26ff165803d3602c7ff046cd4816040516117bf9190611c5a565b60405180910390a150565b6117d2611872565b5f73ffffffffffffffffffffffffffffffffffffffff168173ffffffffffffffffffffffffffffffffffffffff1603611842575f6040517f1e4fbdf70000000000000000000000000000000000000000000000000000000081526004016118399190611d1d565b60405180910390fd5b61184b816119d0565b50565b7f000000000000000000000000000000000000000000000000000000000000000081565b61187a611b13565b73ffffffffffffffffffffffffffffffffffffffff16611898610b65565b73ffffffffffffffffffffffffffffffffffffffff16146118f7576118bb611b13565b6040517f118cdaa70000000000000000000000000000000000000000000000000000000081526004016118ee9190611d1d565b60405180910390fd5b565b60026001540361193e576040517f08c379a000000000000000000000000000000000000000000000000000000000815260040161193590612920565b60405180910390fd5b6002600181905550565b6119c2838473ffffffffffffffffffffffffffffffffffffffff1663a9059cbb858560405160240161197b92919061293e565b604051602081830303815290604052915060e01b6020820180517bffffffffffffffffffffffffffffffffffffffffffffffffffffffff8381831617835250505050611b1a565b505050565b60018081905550565b5f5f5f9054906101000a900473ffffffffffffffffffffffffffffffffffffffff169050815f5f6101000a81548173ffffffffffffffffffffffffffffffffffffffff021916908373ffffffffffffffffffffffffffffffffffffffff1602179055508173ffffffffffffffffffffffffffffffffffffffff168173ffffffffffffffffffffffffffffffffffffffff167f8be0079c531659141344cd1fd0a4f28419497f9722a3daafe3b4186f6b6457e060405160405180910390a35050565b611b0d848573ffffffffffffffffffffffffffffffffffffffff166323b872dd868686604051602401611ac693929190612965565b604051602081830303815290604052915060e01b6020820180517bffffffffffffffffffffffffffffffffffffffffffffffffffffffff8381831617835250505050611b1a565b50505050565b5f33905090565b5f5f60205f8451602086015f885af180611b39576040513d5f823e3d81fd5b3d92505f519150505f8214611b52576001811415611b6d565b5f8473ffffffffffffffffffffffffffffffffffffffff163b145b15611baf57836040517f5274afe7000000000000000000000000000000000000000000000000000000008152600401611ba69190611d1d565b60405180910390fd5b50505050565b5f5ffd5b5f5ffd5b5f73ffffffffffffffffffffffffffffffffffffffff82169050919050565b5f611be682611bbd565b9050919050565b611bf681611bdc565b8114611c00575f5ffd5b50565b5f81359050611c1181611bed565b92915050565b5f60208284031215611c2c57611c2b611bb5565b5b5f611c3984828501611c03565b91505092915050565b5f819050919050565b611c5481611c42565b82525050565b5f602082019050611c6d5f830184611c4b565b92915050565b5f8115159050919050565b611c8781611c73565b8114611c91575f5ffd5b50565b5f81359050611ca281611c7e565b92915050565b5f5f60408385031215611cbe57611cbd611bb5565b5b5f611ccb85828601611c03565b9250506020611cdc85828601611c94565b9150509250929050565b611cef81611c73565b82525050565b5f602082019050611d085f830184611ce6565b92915050565b611d1781611bdc565b82525050565b5f602082019050611d305f830184611d0e565b92915050565b5f60208284031215611d4b57611d4a611bb5565b5b5f611d5884828501611c94565b91505092915050565b5f60a082019050611d745f830188611c4b565b611d816020830187611c4b565b611d8e6040830186611c4b565b611d9b6060830185611c4b565b611da86080830184611ce6565b9695505050505050565b5f5ffd5b5f5ffd5b5f5ffd5b5f5f83601f840112611dd357611dd2611db2565b5b8235905067ffffffffffffffff811115611df057611def611db6565b5b602083019150836020820283011115611e0c57611e0b611dba565b5b9250929050565b5f5f83601f840112611e2857611e27611db2565b5b8235905067ffffffffffffffff811115611e4557611e44611db6565b5b602083019150836020820283011115611e6157611e60611dba565b5b9250929050565b5f5f5f5f60408587031215611e8057611e7f611bb5565b5b5f85013567ffffffffffffffff811115611e9d57611e9c611bb9565b5b611ea987828801611dbe565b9450945050602085013567ffffffffffffffff811115611ecc57611ecb611bb9565b5b611ed887828801611e13565b925092505092959194509250565b611eef81611c42565b8114611ef9575f5ffd5b50565b5f81359050611f0a81611ee6565b92915050565b5f60208284031215611f2557611f24611bb5565b5b5f611f3284828501611efc565b91505092915050565b5f819050919050565b5f611f5e611f59611f5484611bbd565b611f3b565b611bbd565b9050919050565b5f611f6f82611f44565b9050919050565b5f611f8082611f65565b9050919050565b611f9081611f76565b82525050565b5f602082019050611fa95f830184611f87565b92915050565b5f82825260208201905092915050565b7f436c61696d206e6f7420656e61626c65640000000000000000000000000000005f82015250565b5f611ff3601183611faf565b9150611ffe82611fbf565b602082019050919050565b5f6020820190508181035f83015261202081611fe7565b9050919050565b7f436c61696d20626c6f636b656420666f722074686973206164647265737300005f82015250565b5f61205b601e83611faf565b915061206682612027565b602082019050919050565b5f6020820190508181035f8301526120888161204f565b9050919050565b7f417070726f76616c20666565206e6f74207061696400000000000000000000005f82015250565b5f6120c3601583611faf565b91506120ce8261208f565b602082019050919050565b5f6020820190508181035f8301526120f0816120b7565b9050919050565b7f596f752068617665206e6f2062616c616e636520746f20636c61696d000000005f82015250565b5f61212b601c83611faf565b9150612136826120f7565b602082019050919050565b5f6020820190508181035f8301526121588161211f565b9050919050565b7f4e487b71000000000000000000000000000000000000000000000000000000005f52601160045260245ffd5b5f61219682611c42565b91506121a183611c42565b92508282039050818111156121b9576121b861215f565b5b92915050565b5f6121c982611c42565b91507fffffffffffffffffffffffffffffffffffffffffffffffffffffffffffffffff82036121fb576121fa61215f565b5b600182019050919050565b5f61221082611c42565b915061221b83611c42565b92508282019050808211156122335761223261215f565b5b92915050565b5f8151905061224781611ee6565b92915050565b5f6020828403121561226257612261611bb5565b5b5f61226f84828501612239565b91505092915050565b7f496e636f72726563742066656520616d6f756e740000000000000000000000005f82015250565b5f6122ac601483611faf565b91506122b782612278565b602082019050919050565b5f6020820190508181035f8301526122d9816122a0565b9050919050565b7f4172726179206c656e6774687320646f206e6f74206d617463680000000000005f82015250565b5f612314601a83611faf565b915061231f826122e0565b602082019050919050565b5f6020820190508181035f83015261234181612308565b9050919050565b7f4e487b71000000000000000000000000000000000000000000000000000000005f52603260045260245ffd5b5f61237f82611c42565b915061238a83611c42565b925082820261239881611c42565b915082820484148315176123af576123ae61215f565b5b5092915050565b7f43616e6e6f74206265206120636f6e74726163740000000000000000000000005f82015250565b5f6123ea601483611faf565b91506123f5826123b6565b602082019050919050565b5f6020820190508181035f830152612417816123de565b9050919050565b7f416c6c6f636174696f6e206578636565647320616c6c6f776564206c696d69745f82015250565b5f612452602083611faf565b915061245d8261241e565b602082019050919050565b5f6020820190508181035f83015261247f81612446565b9050919050565b5f6040820190506124995f830185611c4b565b6124a66020830184611c4b565b9392505050565b7f496e73756666696369656e7420636f6e74726163742062616c616e636520666f5f8201527f7220616c6c6f636174696f6e0000000000000000000000000000000000000000602082015250565b5f612507602c83611faf565b9150612512826124ad565b604082019050919050565b5f6020820190508181035f830152612534816124fb565b9050919050565b5f82825260208201905092915050565b5f819050919050565b61255d81611bdc565b82525050565b5f61256e8383612554565b60208301905092915050565b5f6125886020840184611c03565b905092915050565b5f602082019050919050565b5f6125a7838561253b565b93506125b28261254b565b805f5b858110156125ea576125c7828461257a565b6125d18882612563565b97506125dc83612590565b9250506001810190506125b5565b5085925050509392505050565b5f82825260208201905092915050565b5f5ffd5b82818337505050565b5f61261f83856125f7565b93507f07ffffffffffffffffffffffffffffffffffffffffffffffffffffffffffffff83111561265257612651612607565b5b60208302925061266383858461260b565b82840190509392505050565b5f6040820190508181035f83015261268881868861259c565b9050818103602083015261269d818486612614565b905095945050505050565b7f436f6e747261637420686173206e6f2062616c616e63650000000000000000005f82015250565b5f6126dc601783611faf565b91506126e7826126a8565b602082019050919050565b5f6020820190508181035f830152612709816126d0565b9050919050565b7f436f6f6c646f776e20696e2070726f67726573730000000000000000000000005f82015250565b5f612744601483611faf565b915061274f82612710565b602082019050919050565b5f6020820190508181035f83015261277181612738565b9050919050565b7f4465706f73697420616d6f756e74206d757374206265206772656174657220745f8201527f68616e207a65726f000000000000000000000000000000000000000000000000602082015250565b5f6127d2602883611faf565b91506127dd82612778565b604082019050919050565b5f6020820190508181035f8301526127ff816127c6565b9050919050565b7f496e73756666696369656e742062616c616e63650000000000000000000000005f82015250565b5f61283a601483611faf565b915061284582612806565b602082019050919050565b5f6020820190508181035f8301526128678161282e565b9050919050565b7f4e6f206665657320746f207769746864726177000000000000000000000000005f82015250565b5f6128a2601383611faf565b91506128ad8261286e565b602082019050919050565b5f6020820190508181035f8301526128cf81612896565b9050919050565b7f5265656e7472616e637947756172643a207265656e7472616e742063616c6c005f82015250565b5f61290a601f83611faf565b9150612915826128d6565b602082019050919050565b5f6020820190508181035f830152612937816128fe565b9050919050565b5f6040820190506129515f830185611d0e565b61295e6020830184611c4b565b9392505050565b5f6060820190506129785f830186611d0e565b6129856020830185611d0e565b6129926040830184611c4b565b94935050505056fea26469706673582212202a25717e71a72feeeb25501009f7f37041042b26708077ad90b40a0fe200793564736f6c634300081c0033",
					"opcodes": "PUSH1 0xA0 PUSH1 0x40 MSTORE PUSH8 0xDE0B6B3A7640000 PUSH3 0x7A120 PUSH2 0x1B SWAP2 SWAP1 PUSH2 0x292 JUMP JUMPDEST PUSH1 0xB SSTORE PUSH3 0x93A80 PUSH1 0xD SSTORE CALLVALUE DUP1 ISZERO PUSH2 0x30 JUMPI PUSH0 PUSH0 REVERT JUMPDEST POP PUSH1 0x40 MLOAD PUSH2 0x2E1F CODESIZE SUB DUP1 PUSH2 0x2E1F DUP4 CODECOPY DUP2 DUP2 ADD PUSH1 0x40 MSTORE DUP2 ADD SWAP1 PUSH2 0x52 SWAP2 SWAP1 PUSH2 0x342 JUMP JUMPDEST CALLER PUSH0 PUSH20 0xFFFFFFFFFFFFFFFFFFFFFFFFFFFFFFFFFFFFFFFF AND DUP2 PUSH20 0xFFFFFFFFFFFFFFFFFFFFFFFFFFFFFFFFFFFFFFFF AND SUB PUSH2 0xC3 JUMPI PUSH0 PUSH1 0x40 MLOAD PUSH32 0x1E4FBDF700000000000000000000000000000000000000000000000000000000 DUP2 MSTORE PUSH1 0x4 ADD PUSH2 0xBA SWAP2 SWAP1 PUSH2 0x37C JUMP JUMPDEST PUSH1 0x40 MLOAD DUP1 SWAP2 SUB SWAP1 REVERT JUMPDEST PUSH2 0xD2 DUP2 PUSH2 0x19B PUSH1 0x20 SHL PUSH1 0x20 SHR JUMP JUMPDEST POP PUSH1 0x1 DUP1 DUP2 SWAP1 SSTORE POP PUSH0 PUSH20 0xFFFFFFFFFFFFFFFFFFFFFFFFFFFFFFFFFFFFFFFF AND DUP2 PUSH20 0xFFFFFFFFFFFFFFFFFFFFFFFFFFFFFFFFFFFFFFFF AND SUB PUSH2 0x148 JUMPI PUSH1 0x40 MLOAD PUSH32 0x8C379A000000000000000000000000000000000000000000000000000000000 DUP2 MSTORE PUSH1 0x4 ADD PUSH2 0x13F SWAP1 PUSH2 0x3EF JUMP JUMPDEST PUSH1 0x40 MLOAD DUP1 SWAP2 SUB SWAP1 REVERT JUMPDEST DUP1 PUSH20 0xFFFFFFFFFFFFFFFFFFFFFFFFFFFFFFFFFFFFFFFF AND PUSH1 0x80 DUP2 PUSH20 0xFFFFFFFFFFFFFFFFFFFFFFFFFFFFFFFFFFFFFFFF AND DUP2 MSTORE POP POP PUSH0 PUSH1 0x2 PUSH0 PUSH2 0x100 EXP DUP2 SLOAD DUP2 PUSH1 0xFF MUL NOT AND SWAP1 DUP4 ISZERO ISZERO MUL OR SWAP1 SSTORE POP POP PUSH2 0x40D JUMP JUMPDEST PUSH0 PUSH0 PUSH0 SWAP1 SLOAD SWAP1 PUSH2 0x100 EXP SWAP1 DIV PUSH20 0xFFFFFFFFFFFFFFFFFFFFFFFFFFFFFFFFFFFFFFFF AND SWAP1 POP DUP2 PUSH0 PUSH0 PUSH2 0x100 EXP DUP2 SLOAD DUP2 PUSH20 0xFFFFFFFFFFFFFFFFFFFFFFFFFFFFFFFFFFFFFFFF MUL NOT AND SWAP1 DUP4 PUSH20 0xFFFFFFFFFFFFFFFFFFFFFFFFFFFFFFFFFFFFFFFF AND MUL OR SWAP1 SSTORE POP DUP2 PUSH20 0xFFFFFFFFFFFFFFFFFFFFFFFFFFFFFFFFFFFFFFFF AND DUP2 PUSH20 0xFFFFFFFFFFFFFFFFFFFFFFFFFFFFFFFFFFFFFFFF AND PUSH32 0x8BE0079C531659141344CD1FD0A4F28419497F9722A3DAAFE3B4186F6B6457E0 PUSH1 0x40 MLOAD PUSH1 0x40 MLOAD DUP1 SWAP2 SUB SWAP1 LOG3 POP POP JUMP JUMPDEST PUSH0 DUP2 SWAP1 POP SWAP2 SWAP1 POP JUMP JUMPDEST PUSH32 0x4E487B7100000000000000000000000000000000000000000000000000000000 PUSH0 MSTORE PUSH1 0x11 PUSH1 0x4 MSTORE PUSH1 0x24 PUSH0 REVERT JUMPDEST PUSH0 PUSH2 0x29C DUP3 PUSH2 0x25C JUMP JUMPDEST SWAP2 POP PUSH2 0x2A7 DUP4 PUSH2 0x25C JUMP JUMPDEST SWAP3 POP DUP3 DUP3 MUL PUSH2 0x2B5 DUP2 PUSH2 0x25C JUMP JUMPDEST SWAP2 POP DUP3 DUP3 DIV DUP5 EQ DUP4 ISZERO OR PUSH2 0x2CC JUMPI PUSH2 0x2CB PUSH2 0x265 JUMP JUMPDEST JUMPDEST POP SWAP3 SWAP2 POP POP JUMP JUMPDEST PUSH0 PUSH0 REVERT JUMPDEST PUSH0 PUSH20 0xFFFFFFFFFFFFFFFFFFFFFFFFFFFFFFFFFFFFFFFF DUP3 AND SWAP1 POP SWAP2 SWAP1 POP JUMP JUMPDEST PUSH0 PUSH2 0x300 DUP3 PUSH2 0x2D7 JUMP JUMPDEST SWAP1 POP SWAP2 SWAP1 POP JUMP JUMPDEST PUSH0 PUSH2 0x311 DUP3 PUSH2 0x2F6 JUMP JUMPDEST SWAP1 POP SWAP2 SWAP1 POP JUMP JUMPDEST PUSH2 0x321 DUP2 PUSH2 0x307 JUMP JUMPDEST DUP2 EQ PUSH2 0x32B JUMPI PUSH0 PUSH0 REVERT JUMPDEST POP JUMP JUMPDEST PUSH0 DUP2 MLOAD SWAP1 POP PUSH2 0x33C DUP2 PUSH2 0x318 JUMP JUMPDEST SWAP3 SWAP2 POP POP JUMP JUMPDEST PUSH0 PUSH1 0x20 DUP3 DUP5 SUB SLT ISZERO PUSH2 0x357 JUMPI PUSH2 0x356 PUSH2 0x2D3 JUMP JUMPDEST JUMPDEST PUSH0 PUSH2 0x364 DUP5 DUP3 DUP6 ADD PUSH2 0x32E JUMP JUMPDEST SWAP2 POP POP SWAP3 SWAP2 POP POP JUMP JUMPDEST PUSH2 0x376 DUP2 PUSH2 0x2F6 JUMP JUMPDEST DUP3 MSTORE POP POP JUMP JUMPDEST PUSH0 PUSH1 0x20 DUP3 ADD SWAP1 POP PUSH2 0x38F PUSH0 DUP4 ADD DUP5 PUSH2 0x36D JUMP JUMPDEST SWAP3 SWAP2 POP POP JUMP JUMPDEST PUSH0 DUP3 DUP3 MSTORE PUSH1 0x20 DUP3 ADD SWAP1 POP SWAP3 SWAP2 POP POP JUMP JUMPDEST PUSH32 0x496E76616C696420746F6B656E00000000000000000000000000000000000000 PUSH0 DUP3 ADD MSTORE POP JUMP JUMPDEST PUSH0 PUSH2 0x3D9 PUSH1 0xD DUP4 PUSH2 0x395 JUMP JUMPDEST SWAP2 POP PUSH2 0x3E4 DUP3 PUSH2 0x3A5 JUMP JUMPDEST PUSH1 0x20 DUP3 ADD SWAP1 POP SWAP2 SWAP1 POP JUMP JUMPDEST PUSH0 PUSH1 0x20 DUP3 ADD SWAP1 POP DUP2 DUP2 SUB PUSH0 DUP4 ADD MSTORE PUSH2 0x406 DUP2 PUSH2 0x3CD JUMP JUMPDEST SWAP1 POP SWAP2 SWAP1 POP JUMP JUMPDEST PUSH1 0x80 MLOAD PUSH2 0x29D0 PUSH2 0x44F PUSH0 CODECOPY PUSH0 DUP2 DUP2 PUSH2 0xAB1 ADD MSTORE DUP2 DUP2 PUSH2 0xC24 ADD MSTORE DUP2 DUP2 PUSH2 0x133E ADD MSTORE DUP2 DUP2 PUSH2 0x147F ADD MSTORE DUP2 DUP2 PUSH2 0x1570 ADD MSTORE DUP2 DUP2 PUSH2 0x164F ADD MSTORE PUSH2 0x1850 ADD MSTORE PUSH2 0x29D0 PUSH0 RETURN INVALID PUSH1 0x80 PUSH1 0x40 MSTORE PUSH1 0x4 CALLDATASIZE LT PUSH2 0x1B6 JUMPI PUSH0 CALLDATALOAD PUSH1 0xE0 SHR DUP1 PUSH4 0x8F060DA9 GT PUSH2 0xEB JUMPI DUP1 PUSH4 0xD7BEBAC0 GT PUSH2 0x89 JUMPI DUP1 PUSH4 0xE1413163 GT PUSH2 0x63 JUMPI DUP1 PUSH4 0xE1413163 EQ PUSH2 0x5A4 JUMPI DUP1 PUSH4 0xE1FFBA62 EQ PUSH2 0x5BA JUMPI DUP1 PUSH4 0xF2FDE38B EQ PUSH2 0x5E2 JUMPI DUP1 PUSH4 0xFC0C546A EQ PUSH2 0x60A JUMPI PUSH2 0x1B6 JUMP JUMPDEST DUP1 PUSH4 0xD7BEBAC0 EQ PUSH2 0x53E JUMPI DUP1 PUSH4 0xDB2E21BC EQ PUSH2 0x566 JUMPI DUP1 PUSH4 0xDD49756E EQ PUSH2 0x57C JUMPI PUSH2 0x1B6 JUMP JUMPDEST DUP1 PUSH4 0x9E9AED62 GT PUSH2 0xC5 JUMPI DUP1 PUSH4 0x9E9AED62 EQ PUSH2 0x4A0 JUMPI DUP1 PUSH4 0xA0470CB4 EQ PUSH2 0x4CA JUMPI DUP1 PUSH4 0xBF3506C1 EQ PUSH2 0x4D4 JUMPI DUP1 PUSH4 0xC59D4847 EQ PUSH2 0x510 JUMPI PUSH2 0x1B6 JUMP JUMPDEST DUP1 PUSH4 0x8F060DA9 EQ PUSH2 0x400 JUMPI DUP1 PUSH4 0x92929A09 EQ PUSH2 0x43C JUMPI DUP1 PUSH4 0x94192B9F EQ PUSH2 0x464 JUMPI PUSH2 0x1B6 JUMP JUMPDEST DUP1 PUSH4 0x45F7F249 GT PUSH2 0x158 JUMPI DUP1 PUSH4 0x6104F4B5 GT PUSH2 0x132 JUMPI DUP1 PUSH4 0x6104F4B5 EQ PUSH2 0x36C JUMPI DUP1 PUSH4 0x715018A6 EQ PUSH2 0x396 JUMPI DUP1 PUSH4 0x86E755C6 EQ PUSH2 0x3AC JUMPI DUP1 PUSH4 0x8DA5CB5B EQ PUSH2 0x3D6 JUMPI PUSH2 0x1B6 JUMP JUMPDEST DUP1 PUSH4 0x45F7F249 EQ PUSH2 0x2F0 JUMPI DUP1 PUSH4 0x4E71D92D EQ PUSH2 0x31A JUMPI DUP1 PUSH4 0x522BF1D4 EQ PUSH2 0x330 JUMPI PUSH2 0x1B6 JUMP JUMPDEST DUP1 PUSH4 0x26155E53 GT PUSH2 0x194 JUMPI DUP1 PUSH4 0x26155E53 EQ PUSH2 0x248 JUMPI DUP1 PUSH4 0x28607BC6 EQ PUSH2 0x272 JUMPI DUP1 PUSH4 0x2866ED21 EQ PUSH2 0x29C JUMPI DUP1 PUSH4 0x2BB2ED39 EQ PUSH2 0x2C6 JUMPI PUSH2 0x1B6 JUMP JUMPDEST DUP1 PUSH4 0x6DEF802 EQ PUSH2 0x1BA JUMPI DUP1 PUSH4 0x1F322564 EQ PUSH2 0x1F6 JUMPI DUP1 PUSH4 0x2019DDF8 EQ PUSH2 0x220 JUMPI JUMPDEST PUSH0 PUSH0 REVERT JUMPDEST CALLVALUE DUP1 ISZERO PUSH2 0x1C5 JUMPI PUSH0 PUSH0 REVERT JUMPDEST POP PUSH2 0x1E0 PUSH1 0x4 DUP1 CALLDATASIZE SUB DUP2 ADD SWAP1 PUSH2 0x1DB SWAP2 SWAP1 PUSH2 0x1C17 JUMP JUMPDEST PUSH2 0x634 JUMP JUMPDEST PUSH1 0x40 MLOAD PUSH2 0x1ED SWAP2 SWAP1 PUSH2 0x1C5A JUMP JUMPDEST PUSH1 0x40 MLOAD DUP1 SWAP2 SUB SWAP1 RETURN JUMPDEST CALLVALUE DUP1 ISZERO PUSH2 0x201 JUMPI PUSH0 PUSH0 REVERT JUMPDEST POP PUSH2 0x20A PUSH2 0x67A JUMP JUMPDEST PUSH1 0x40 MLOAD PUSH2 0x217 SWAP2 SWAP1 PUSH2 0x1C5A JUMP JUMPDEST PUSH1 0x40 MLOAD DUP1 SWAP2 SUB SWAP1 RETURN JUMPDEST CALLVALUE DUP1 ISZERO PUSH2 0x22B JUMPI PUSH0 PUSH0 REVERT JUMPDEST POP PUSH2 0x246 PUSH1 0x4 DUP1 CALLDATASIZE SUB DUP2 ADD SWAP1 PUSH2 0x241 SWAP2 SWAP1 PUSH2 0x1CA8 JUMP JUMPDEST PUSH2 0x680 JUMP JUMPDEST STOP JUMPDEST CALLVALUE DUP1 ISZERO PUSH2 0x253 JUMPI PUSH0 PUSH0 REVERT JUMPDEST POP PUSH2 0x25C PUSH2 0x72E JUMP JUMPDEST PUSH1 0x40 MLOAD PUSH2 0x269 SWAP2 SWAP1 PUSH2 0x1C5A JUMP JUMPDEST PUSH1 0x40 MLOAD DUP1 SWAP2 SUB SWAP1 RETURN JUMPDEST CALLVALUE DUP1 ISZERO PUSH2 0x27D JUMPI PUSH0 PUSH0 REVERT JUMPDEST POP PUSH2 0x286 PUSH2 0x734 JUMP JUMPDEST PUSH1 0x40 MLOAD PUSH2 0x293 SWAP2 SWAP1 PUSH2 0x1C5A JUMP JUMPDEST PUSH1 0x40 MLOAD DUP1 SWAP2 SUB SWAP1 RETURN JUMPDEST CALLVALUE DUP1 ISZERO PUSH2 0x2A7 JUMPI PUSH0 PUSH0 REVERT JUMPDEST POP PUSH2 0x2B0 PUSH2 0x73A JUMP JUMPDEST PUSH1 0x40 MLOAD PUSH2 0x2BD SWAP2 SWAP1 PUSH2 0x1CF5 JUMP JUMPDEST PUSH1 0x40 MLOAD DUP1 SWAP2 SUB SWAP1 RETURN JUMPDEST CALLVALUE DUP1 ISZERO PUSH2 0x2D1 JUMPI PUSH0 PUSH0 REVERT JUMPDEST POP PUSH2 0x2DA PUSH2 0x74C JUMP JUMPDEST PUSH1 0x40 MLOAD PUSH2 0x2E7 SWAP2 SWAP1 PUSH2 0x1C5A JUMP JUMPDEST PUSH1 0x40 MLOAD DUP1 SWAP2 SUB SWAP1 RETURN JUMPDEST CALLVALUE DUP1 ISZERO PUSH2 0x2FB JUMPI PUSH0 PUSH0 REVERT JUMPDEST POP PUSH2 0x304 PUSH2 0x752 JUMP JUMPDEST PUSH1 0x40 MLOAD PUSH2 0x311 SWAP2 SWAP1 PUSH2 0x1C5A JUMP JUMPDEST PUSH1 0x40 MLOAD DUP1 SWAP2 SUB SWAP1 RETURN JUMPDEST CALLVALUE DUP1 ISZERO PUSH2 0x325 JUMPI PUSH0 PUSH0 REVERT JUMPDEST POP PUSH2 0x32E PUSH2 0x758 JUMP JUMPDEST STOP JUMPDEST CALLVALUE DUP1 ISZERO PUSH2 0x33B JUMPI PUSH0 PUSH0 REVERT JUMPDEST POP PUSH2 0x356 PUSH1 0x4 DUP1 CALLDATASIZE SUB DUP2 ADD SWAP1 PUSH2 0x351 SWAP2 SWAP1 PUSH2 0x1C17 JUMP JUMPDEST PUSH2 0xB00 JUMP JUMPDEST PUSH1 0x40 MLOAD PUSH2 0x363 SWAP2 SWAP1 PUSH2 0x1C5A JUMP JUMPDEST PUSH1 0x40 MLOAD DUP1 SWAP2 SUB SWAP1 RETURN JUMPDEST CALLVALUE DUP1 ISZERO PUSH2 0x377 JUMPI PUSH0 PUSH0 REVERT JUMPDEST POP PUSH2 0x380 PUSH2 0xB46 JUMP JUMPDEST PUSH1 0x40 MLOAD PUSH2 0x38D SWAP2 SWAP1 PUSH2 0x1C5A JUMP JUMPDEST PUSH1 0x40 MLOAD DUP1 SWAP2 SUB SWAP1 RETURN JUMPDEST CALLVALUE DUP1 ISZERO PUSH2 0x3A1 JUMPI PUSH0 PUSH0 REVERT JUMPDEST POP PUSH2 0x3AA PUSH2 0xB4C JUMP JUMPDEST STOP JUMPDEST CALLVALUE DUP1 ISZERO PUSH2 0x3B7 JUMPI PUSH0 PUSH0 REVERT JUMPDEST POP PUSH2 0x3C0 PUSH2 0xB5F JUMP JUMPDEST PUSH1 0x40 MLOAD PUSH2 0x3CD SWAP2 SWAP1 PUSH2 0x1C5A JUMP JUMPDEST PUSH1 0x40 MLOAD DUP1 SWAP2 SUB SWAP1 RETURN JUMPDEST CALLVALUE DUP1 ISZERO PUSH2 0x3E1 JUMPI PUSH0 PUSH0 REVERT JUMPDEST POP PUSH2 0x3EA PUSH2 0xB65 JUMP JUMPDEST PUSH1 0x40 MLOAD PUSH2 0x3F7 SWAP2 SWAP1 PUSH2 0x1D1D JUMP JUMPDEST PUSH1 0x40 MLOAD DUP1 SWAP2 SUB SWAP1 RETURN JUMPDEST CALLVALUE DUP1 ISZERO PUSH2 0x40B JUMPI PUSH0 PUSH0 REVERT JUMPDEST POP PUSH2 0x426 PUSH1 0x4 DUP1 CALLDATASIZE SUB DUP2 ADD SWAP1 PUSH2 0x421 SWAP2 SWAP1 PUSH2 0x1C17 JUMP JUMPDEST PUSH2 0xB8C JUMP JUMPDEST PUSH1 0x40 MLOAD PUSH2 0x433 SWAP2 SWAP1 PUSH2 0x1CF5 JUMP JUMPDEST PUSH1 0x40 MLOAD DUP1 SWAP2 SUB SWAP1 RETURN JUMPDEST CALLVALUE DUP1 ISZERO PUSH2 0x447 JUMPI PUSH0 PUSH0 REVERT JUMPDEST POP PUSH2 0x462 PUSH1 0x4 DUP1 CALLDATASIZE SUB DUP2 ADD SWAP1 PUSH2 0x45D SWAP2 SWAP1 PUSH2 0x1D36 JUMP JUMPDEST PUSH2 0xBA9 JUMP JUMPDEST STOP JUMPDEST CALLVALUE DUP1 ISZERO PUSH2 0x46F JUMPI PUSH0 PUSH0 REVERT JUMPDEST POP PUSH2 0x48A PUSH1 0x4 DUP1 CALLDATASIZE SUB DUP2 ADD SWAP1 PUSH2 0x485 SWAP2 SWAP1 PUSH2 0x1C17 JUMP JUMPDEST PUSH2 0xC04 JUMP JUMPDEST PUSH1 0x40 MLOAD PUSH2 0x497 SWAP2 SWAP1 PUSH2 0x1CF5 JUMP JUMPDEST PUSH1 0x40 MLOAD DUP1 SWAP2 SUB SWAP1 RETURN JUMPDEST CALLVALUE DUP1 ISZERO PUSH2 0x4AB JUMPI PUSH0 PUSH0 REVERT JUMPDEST POP PUSH2 0x4B4 PUSH2 0xC21 JUMP JUMPDEST PUSH1 0x40 MLOAD PUSH2 0x4C1 SWAP2 SWAP1 PUSH2 0x1C5A JUMP JUMPDEST PUSH1 0x40 MLOAD DUP1 SWAP2 SUB SWAP1 RETURN JUMPDEST PUSH2 0x4D2 PUSH2 0xCBF JUMP JUMPDEST STOP JUMPDEST CALLVALUE DUP1 ISZERO PUSH2 0x4DF JUMPI PUSH0 PUSH0 REVERT JUMPDEST POP PUSH2 0x4FA PUSH1 0x4 DUP1 CALLDATASIZE SUB DUP2 ADD SWAP1 PUSH2 0x4F5 SWAP2 SWAP1 PUSH2 0x1C17 JUMP JUMPDEST PUSH2 0xD9D JUMP JUMPDEST PUSH1 0x40 MLOAD PUSH2 0x507 SWAP2 SWAP1 PUSH2 0x1CF5 JUMP JUMPDEST PUSH1 0x40 MLOAD DUP1 SWAP2 SUB SWAP1 RETURN JUMPDEST CALLVALUE DUP1 ISZERO PUSH2 0x51B JUMPI PUSH0 PUSH0 REVERT JUMPDEST POP PUSH2 0x524 PUSH2 0xEA1 JUMP JUMPDEST PUSH1 0x40 MLOAD PUSH2 0x535 SWAP6 SWAP5 SWAP4 SWAP3 SWAP2 SWAP1 PUSH2 0x1D61 JUMP JUMPDEST PUSH1 0x40 MLOAD DUP1 SWAP2 SUB SWAP1 RETURN JUMPDEST CALLVALUE DUP1 ISZERO PUSH2 0x549 JUMPI PUSH0 PUSH0 REVERT JUMPDEST POP PUSH2 0x564 PUSH1 0x4 DUP1 CALLDATASIZE SUB DUP2 ADD SWAP1 PUSH2 0x55F SWAP2 SWAP1 PUSH2 0x1E68 JUMP JUMPDEST PUSH2 0xED7 JUMP JUMPDEST STOP JUMPDEST CALLVALUE DUP1 ISZERO PUSH2 0x571 JUMPI PUSH0 PUSH0 REVERT JUMPDEST POP PUSH2 0x57A PUSH2 0x132B JUMP JUMPDEST STOP JUMPDEST CALLVALUE DUP1 ISZERO PUSH2 0x587 JUMPI PUSH0 PUSH0 REVERT JUMPDEST POP PUSH2 0x5A2 PUSH1 0x4 DUP1 CALLDATASIZE SUB DUP2 ADD SWAP1 PUSH2 0x59D SWAP2 SWAP1 PUSH2 0x1F10 JUMP JUMPDEST PUSH2 0x1523 JUMP JUMPDEST STOP JUMPDEST CALLVALUE DUP1 ISZERO PUSH2 0x5AF JUMPI PUSH0 PUSH0 REVERT JUMPDEST POP PUSH2 0x5B8 PUSH2 0x16E5 JUMP JUMPDEST STOP JUMPDEST CALLVALUE DUP1 ISZERO PUSH2 0x5C5 JUMPI PUSH0 PUSH0 REVERT JUMPDEST POP PUSH2 0x5E0 PUSH1 0x4 DUP1 CALLDATASIZE SUB DUP2 ADD SWAP1 PUSH2 0x5DB SWAP2 SWAP1 PUSH2 0x1F10 JUMP JUMPDEST PUSH2 0x1781 JUMP JUMPDEST STOP JUMPDEST CALLVALUE DUP1 ISZERO PUSH2 0x5ED JUMPI PUSH0 PUSH0 REVERT JUMPDEST POP PUSH2 0x608 PUSH1 0x4 DUP1 CALLDATASIZE SUB DUP2 ADD SWAP1 PUSH2 0x603 SWAP2 SWAP1 PUSH2 0x1C17 JUMP JUMPDEST PUSH2 0x17CA JUMP JUMPDEST STOP JUMPDEST CALLVALUE DUP1 ISZERO PUSH2 0x615 JUMPI PUSH0 PUSH0 REVERT JUMPDEST POP PUSH2 0x61E PUSH2 0x184E JUMP JUMPDEST PUSH1 0x40 MLOAD PUSH2 0x62B SWAP2 SWAP1 PUSH2 0x1F96 JUMP JUMPDEST PUSH1 0x40 MLOAD DUP1 SWAP2 SUB SWAP1 RETURN JUMPDEST PUSH0 PUSH1 0x3 PUSH0 DUP4 PUSH20 0xFFFFFFFFFFFFFFFFFFFFFFFFFFFFFFFFFFFFFFFF AND PUSH20 0xFFFFFFFFFFFFFFFFFFFFFFFFFFFFFFFFFFFFFFFF AND DUP2 MSTORE PUSH1 0x20 ADD SWAP1 DUP2 MSTORE PUSH1 0x20 ADD PUSH0 KECCAK256 SLOAD SWAP1 POP SWAP2 SWAP1 POP JUMP JUMPDEST PUSH1 0xE SLOAD DUP2 JUMP JUMPDEST PUSH2 0x688 PUSH2 0x1872 JUMP JUMPDEST DUP1 PUSH1 0x5 PUSH0 DUP5 PUSH20 0xFFFFFFFFFFFFFFFFFFFFFFFFFFFFFFFFFFFFFFFF AND PUSH20 0xFFFFFFFFFFFFFFFFFFFFFFFFFFFFFFFFFFFFFFFF AND DUP2 MSTORE PUSH1 0x20 ADD SWAP1 DUP2 MSTORE PUSH1 0x20 ADD PUSH0 KECCAK256 PUSH0 PUSH2 0x100 EXP DUP2 SLOAD DUP2 PUSH1 0xFF MUL NOT AND SWAP1 DUP4 ISZERO ISZERO MUL OR SWAP1 SSTORE POP DUP2 PUSH20 0xFFFFFFFFFFFFFFFFFFFFFFFFFFFFFFFFFFFFFFFF AND PUSH32 0x129E15046DD77BE10C4CDAC8841646B9F3B6D22A00544B93362E9B84C05E6960 DUP3 PUSH1 0x40 MLOAD PUSH2 0x722 SWAP2 SWAP1 PUSH2 0x1CF5 JUMP JUMPDEST PUSH1 0x40 MLOAD DUP1 SWAP2 SUB SWAP1 LOG2 POP POP JUMP JUMPDEST PUSH1 0xC SLOAD DUP2 JUMP JUMPDEST PUSH1 0xD SLOAD DUP2 JUMP JUMPDEST PUSH1 0x2 PUSH0 SWAP1 SLOAD SWAP1 PUSH2 0x100 EXP SWAP1 DIV PUSH1 0xFF AND DUP2 JUMP JUMPDEST PUSH1 0x8 SLOAD DUP2 JUMP JUMPDEST PUSH1 0x9 SLOAD DUP2 JUMP JUMPDEST PUSH2 0x760 PUSH2 0x18F9 JUMP JUMPDEST PUSH1 0x2 PUSH0 SWAP1 SLOAD SWAP1 PUSH2 0x100 EXP SWAP1 DIV PUSH1 0xFF AND PUSH2 0x7AE JUMPI PUSH1 0x40 MLOAD PUSH32 0x8C379A000000000000000000000000000000000000000000000000000000000 DUP2 MSTORE PUSH1 0x4 ADD PUSH2 0x7A5 SWAP1 PUSH2 0x2009 JUMP JUMPDEST PUSH1 0x40 MLOAD DUP1 SWAP2 SUB SWAP1 REVERT JUMPDEST PUSH1 0x5 PUSH0 CALLER PUSH20 0xFFFFFFFFFFFFFFFFFFFFFFFFFFFFFFFFFFFFFFFF AND PUSH20 0xFFFFFFFFFFFFFFFFFFFFFFFFFFFFFFFFFFFFFFFF AND DUP2 MSTORE PUSH1 0x20 ADD SWAP1 DUP2 MSTORE PUSH1 0x20 ADD PUSH0 KECCAK256 PUSH0 SWAP1 SLOAD SWAP1 PUSH2 0x100 EXP SWAP1 DIV PUSH1 0xFF AND ISZERO PUSH2 0x838 JUMPI PUSH1 0x40 MLOAD PUSH32 0x8C379A000000000000000000000000000000000000000000000000000000000 DUP2 MSTORE PUSH1 0x4 ADD PUSH2 0x82F SWAP1 PUSH2 0x2071 JUMP JUMPDEST PUSH1 0x40 MLOAD DUP1 SWAP2 SUB SWAP1 REVERT JUMPDEST PUSH1 0x6 PUSH0 CALLER PUSH20 0xFFFFFFFFFFFFFFFFFFFFFFFFFFFFFFFFFFFFFFFF AND PUSH20 0xFFFFFFFFFFFFFFFFFFFFFFFFFFFFFFFFFFFFFFFF AND DUP2 MSTORE PUSH1 0x20 ADD SWAP1 DUP2 MSTORE PUSH1 0x20 ADD PUSH0 KECCAK256 PUSH0 SWAP1 SLOAD SWAP1 PUSH2 0x100 EXP SWAP1 DIV PUSH1 0xFF AND PUSH2 0x8C1 JUMPI PUSH1 0x40 MLOAD PUSH32 0x8C379A000000000000000000000000000000000000000000000000000000000 DUP2 MSTORE PUSH1 0x4 ADD PUSH2 0x8B8 SWAP1 PUSH2 0x20D9 JUMP JUMPDEST PUSH1 0x40 MLOAD DUP1 SWAP2 SUB SWAP1 REVERT JUMPDEST PUSH0 PUSH1 0x3 PUSH0 CALLER PUSH20 0xFFFFFFFFFFFFFFFFFFFFFFFFFFFFFFFFFFFFFFFF AND PUSH20 0xFFFFFFFFFFFFFFFFFFFFFFFFFFFFFFFFFFFFFFFF AND DUP2 MSTORE PUSH1 0x20 ADD SWAP1 DUP2 MSTORE PUSH1 0x20 ADD PUSH0 KECCAK256 SLOAD SWAP1 POP PUSH0 DUP2 GT PUSH2 0x944 JUMPI PUSH1 0x40 MLOAD PUSH32 0x8C379A000000000000000000000000000000000000000000000000000000000 DUP2 MSTORE PUSH1 0x4 ADD PUSH2 0x93B SWAP1 PUSH2 0x2141 JUMP JUMPDEST PUSH1 0x40 MLOAD DUP1 SWAP2 SUB SWAP1 REVERT JUMPDEST CALLER PUSH20 0xFFFFFFFFFFFFFFFFFFFFFFFFFFFFFFFFFFFFFFFF AND PUSH32 0x9E09DE4B8E45666DEB3EC2BC8225F07988E54EF533EEC97CB0B4610127183D79 DUP3 PUSH1 0x40 MLOAD PUSH2 0x98A SWAP2 SWAP1 PUSH2 0x1C5A JUMP JUMPDEST PUSH1 0x40 MLOAD DUP1 SWAP2 SUB SWAP1 LOG2 PUSH0 PUSH1 0x3 PUSH0 CALLER PUSH20 0xFFFFFFFFFFFFFFFFFFFFFFFFFFFFFFFFFFFFFFFF AND PUSH20 0xFFFFFFFFFFFFFFFFFFFFFFFFFFFFFFFFFFFFFFFF AND DUP2 MSTORE PUSH1 0x20 ADD SWAP1 DUP2 MSTORE PUSH1 0x20 ADD PUSH0 KECCAK256 DUP2 SWAP1 SSTORE POP DUP1 PUSH1 0x9 PUSH0 DUP3 DUP3 SLOAD PUSH2 0x9E5 SWAP2 SWAP1 PUSH2 0x218C JUMP JUMPDEST SWAP3 POP POP DUP2 SWAP1 SSTORE POP PUSH1 0x8 PUSH0 DUP2 SLOAD DUP1 SWAP3 SWAP2 SWAP1 PUSH2 0x9FE SWAP1 PUSH2 0x21BF JUMP JUMPDEST SWAP2 SWAP1 POP SSTORE POP DUP1 PUSH1 0x4 PUSH0 CALLER PUSH20 0xFFFFFFFFFFFFFFFFFFFFFFFFFFFFFFFFFFFFFFFF AND PUSH20 0xFFFFFFFFFFFFFFFFFFFFFFFFFFFFFFFFFFFFFFFF AND DUP2 MSTORE PUSH1 0x20 ADD SWAP1 DUP2 MSTORE PUSH1 0x20 ADD PUSH0 KECCAK256 PUSH0 DUP3 DUP3 SLOAD PUSH2 0xA4F SWAP2 SWAP1 PUSH2 0x2206 JUMP JUMPDEST SWAP3 POP POP DUP2 SWAP1 SSTORE POP PUSH0 PUSH1 0x6 PUSH0 CALLER PUSH20 0xFFFFFFFFFFFFFFFFFFFFFFFFFFFFFFFFFFFFFFFF AND PUSH20 0xFFFFFFFFFFFFFFFFFFFFFFFFFFFFFFFFFFFFFFFF AND DUP2 MSTORE PUSH1 0x20 ADD SWAP1 DUP2 MSTORE PUSH1 0x20 ADD PUSH0 KECCAK256 PUSH0 PUSH2 0x100 EXP DUP2 SLOAD DUP2 PUSH1 0xFF MUL NOT AND SWAP1 DUP4 ISZERO ISZERO MUL OR SWAP1 SSTORE POP PUSH2 0xAF5 CALLER DUP3 PUSH32 0x0 PUSH20 0xFFFFFFFFFFFFFFFFFFFFFFFFFFFFFFFFFFFFFFFF AND PUSH2 0x1948 SWAP1 SWAP3 SWAP2 SWAP1 PUSH4 0xFFFFFFFF AND JUMP JUMPDEST POP PUSH2 0xAFE PUSH2 0x19C7 JUMP JUMPDEST JUMP JUMPDEST PUSH0 PUSH1 0x4 PUSH0 DUP4 PUSH20 0xFFFFFFFFFFFFFFFFFFFFFFFFFFFFFFFFFFFFFFFF AND PUSH20 0xFFFFFFFFFFFFFFFFFFFFFFFFFFFFFFFFFFFFFFFF AND DUP2 MSTORE PUSH1 0x20 ADD SWAP1 DUP2 MSTORE PUSH1 0x20 ADD PUSH0 KECCAK256 SLOAD SWAP1 POP SWAP2 SWAP1 POP JUMP JUMPDEST PUSH1 0x7 SLOAD DUP2 JUMP JUMPDEST PUSH2 0xB54 PUSH2 0x1872 JUMP JUMPDEST PUSH2 0xB5D PUSH0 PUSH2 0x19D0 JUMP JUMPDEST JUMP JUMPDEST PUSH1 0xB SLOAD DUP2 JUMP JUMPDEST PUSH0 PUSH0 PUSH0 SWAP1 SLOAD SWAP1 PUSH2 0x100 EXP SWAP1 DIV PUSH20 0xFFFFFFFFFFFFFFFFFFFFFFFFFFFFFFFFFFFFFFFF AND SWAP1 POP SWAP1 JUMP JUMPDEST PUSH1 0x5 PUSH1 0x20 MSTORE DUP1 PUSH0 MSTORE PUSH1 0x40 PUSH0 KECCAK256 PUSH0 SWAP2 POP SLOAD SWAP1 PUSH2 0x100 EXP SWAP1 DIV PUSH1 0xFF AND DUP2 JUMP JUMPDEST PUSH2 0xBB1 PUSH2 0x1872 JUMP JUMPDEST DUP1 PUSH1 0x2 PUSH0 PUSH2 0x100 EXP DUP2 SLOAD DUP2 PUSH1 0xFF MUL NOT AND SWAP1 DUP4 ISZERO ISZERO MUL OR SWAP1 SSTORE POP PUSH32 0x1EDD4DC7F91A5992ABA0F39C0428BCF4DF13D001EEBC26EB188307D057F14A07 DUP2 PUSH1 0x40 MLOAD PUSH2 0xBF9 SWAP2 SWAP1 PUSH2 0x1CF5 JUMP JUMPDEST PUSH1 0x40 MLOAD DUP1 SWAP2 SUB SWAP1 LOG1 POP JUMP JUMPDEST PUSH1 0x6 PUSH1 0x20 MSTORE DUP1 PUSH0 MSTORE PUSH1 0x40 PUSH0 KECCAK256 PUSH0 SWAP2 POP SLOAD SWAP1 PUSH2 0x100 EXP SWAP1 DIV PUSH1 0xFF AND DUP2 JUMP JUMPDEST PUSH0 PUSH32 0x0 PUSH20 0xFFFFFFFFFFFFFFFFFFFFFFFFFFFFFFFFFFFFFFFF AND PUSH4 0x70A08231 ADDRESS PUSH1 0x40 MLOAD DUP3 PUSH4 0xFFFFFFFF AND PUSH1 0xE0 SHL DUP2 MSTORE PUSH1 0x4 ADD PUSH2 0xC7B SWAP2 SWAP1 PUSH2 0x1D1D JUMP JUMPDEST PUSH1 0x20 PUSH1 0x40 MLOAD DUP1 DUP4 SUB DUP2 DUP7 GAS STATICCALL ISZERO DUP1 ISZERO PUSH2 0xC96 JUMPI RETURNDATASIZE PUSH0 PUSH0 RETURNDATACOPY RETURNDATASIZE PUSH0 REVERT JUMPDEST POP POP POP POP PUSH1 0x40 MLOAD RETURNDATASIZE PUSH1 0x1F NOT PUSH1 0x1F DUP3 ADD AND DUP3 ADD DUP1 PUSH1 0x40 MSTORE POP DUP2 ADD SWAP1 PUSH2 0xCBA SWAP2 SWAP1 PUSH2 0x224D JUMP JUMPDEST SWAP1 POP SWAP1 JUMP JUMPDEST PUSH1 0xE SLOAD CALLVALUE EQ PUSH2 0xD03 JUMPI PUSH1 0x40 MLOAD PUSH32 0x8C379A000000000000000000000000000000000000000000000000000000000 DUP2 MSTORE PUSH1 0x4 ADD PUSH2 0xCFA SWAP1 PUSH2 0x22C2 JUMP JUMPDEST PUSH1 0x40 MLOAD DUP1 SWAP2 SUB SWAP1 REVERT JUMPDEST PUSH1 0x1 PUSH1 0x6 PUSH0 CALLER PUSH20 0xFFFFFFFFFFFFFFFFFFFFFFFFFFFFFFFFFFFFFFFF AND PUSH20 0xFFFFFFFFFFFFFFFFFFFFFFFFFFFFFFFFFFFFFFFF AND DUP2 MSTORE PUSH1 0x20 ADD SWAP1 DUP2 MSTORE PUSH1 0x20 ADD PUSH0 KECCAK256 PUSH0 PUSH2 0x100 EXP DUP2 SLOAD DUP2 PUSH1 0xFF MUL NOT AND SWAP1 DUP4 ISZERO ISZERO MUL OR SWAP1 SSTORE POP CALLER PUSH20 0xFFFFFFFFFFFFFFFFFFFFFFFFFFFFFFFFFFFFFFFF AND PUSH32 0xB7FA0F30E1EDE3196616147DFDF6C94E47523298677B4F7B0C61027A9F0EBF54 PUSH1 0x40 MLOAD PUSH1 0x40 MLOAD DUP1 SWAP2 SUB SWAP1 LOG2 JUMP JUMPDEST PUSH0 PUSH1 0x2 PUSH0 SWAP1 SLOAD SWAP1 PUSH2 0x100 EXP SWAP1 DIV PUSH1 0xFF AND DUP1 ISZERO PUSH2 0xE00 JUMPI POP PUSH1 0x5 PUSH0 DUP4 PUSH20 0xFFFFFFFFFFFFFFFFFFFFFFFFFFFFFFFFFFFFFFFF AND PUSH20 0xFFFFFFFFFFFFFFFFFFFFFFFFFFFFFFFFFFFFFFFF AND DUP2 MSTORE PUSH1 0x20 ADD SWAP1 DUP2 MSTORE PUSH1 0x20 ADD PUSH0 KECCAK256 PUSH0 SWAP1 SLOAD SWAP1 PUSH2 0x100 EXP SWAP1 DIV PUSH1 0xFF AND ISZERO JUMPDEST DUP1 ISZERO PUSH2 0xE52 JUMPI POP PUSH1 0x6 PUSH0 DUP4 PUSH20 0xFFFFFFFFFFFFFFFFFFFFFFFFFFFFFFFFFFFFFFFF AND PUSH20 0xFFFFFFFFFFFFFFFFFFFFFFFFFFFFFFFFFFFFFFFF AND DUP2 MSTORE PUSH1 0x20 ADD SWAP1 DUP2 MSTORE PUSH1 0x20 ADD PUSH0 KECCAK256 PUSH0 SWAP1 SLOAD SWAP1 PUSH2 0x100 EXP SWAP1 DIV PUSH1 0xFF AND JUMPDEST DUP1 ISZERO PUSH2 0xE9A JUMPI POP PUSH0 PUSH1 0x3 PUSH0 DUP5 PUSH20 0xFFFFFFFFFFFFFFFFFFFFFFFFFFFFFFFFFFFFFFFF AND PUSH20 0xFFFFFFFFFFFFFFFFFFFFFFFFFFFFFFFFFFFFFFFF AND DUP2 MSTORE PUSH1 0x20 ADD SWAP1 DUP2 MSTORE PUSH1 0x20 ADD PUSH0 KECCAK256 SLOAD GT JUMPDEST SWAP1 POP SWAP2 SWAP1 POP JUMP JUMPDEST PUSH0 PUSH0 PUSH0 PUSH0 PUSH0 PUSH1 0x7 SLOAD SWAP5 POP PUSH1 0x8 SLOAD SWAP4 POP PUSH2 0xEB8 PUSH2 0xC21 JUMP JUMPDEST SWAP3 POP PUSH1 0x9 SLOAD SWAP2 POP PUSH1 0x2 PUSH0 SWAP1 SLOAD SWAP1 PUSH2 0x100 EXP SWAP1 DIV PUSH1 0xFF AND SWAP1 POP SWAP1 SWAP2 SWAP3 SWAP4 SWAP5 JUMP JUMPDEST PUSH2 0xEDF PUSH2 0x1872 JUMP JUMPDEST DUP2 DUP2 SWAP1 POP DUP5 DUP5 SWAP1 POP EQ PUSH2 0xF27 JUMPI PUSH1 0x40 MLOAD PUSH32 0x8C379A000000000000000000000000000000000000000000000000000000000 DUP2 MSTORE PUSH1 0x4 ADD PUSH2 0xF1E SWAP1 PUSH2 0x232A JUMP JUMPDEST PUSH1 0x40 MLOAD DUP1 SWAP2 SUB SWAP1 REVERT JUMPDEST PUSH0 PUSH0 SWAP1 POP PUSH0 PUSH0 SWAP1 POP JUMPDEST DUP6 DUP6 SWAP1 POP DUP2 LT ISZERO PUSH2 0x1277 JUMPI PUSH0 DUP7 DUP7 DUP4 DUP2 DUP2 LT PUSH2 0xF4F JUMPI PUSH2 0xF4E PUSH2 0x2348 JUMP JUMPDEST JUMPDEST SWAP1 POP PUSH1 0x20 MUL ADD PUSH1 0x20 DUP2 ADD SWAP1 PUSH2 0xF64 SWAP2 SWAP1 PUSH2 0x1C17 JUMP JUMPDEST SWAP1 POP PUSH0 PUSH8 0xDE0B6B3A7640000 DUP7 DUP7 DUP6 DUP2 DUP2 LT PUSH2 0xF83 JUMPI PUSH2 0xF82 PUSH2 0x2348 JUMP JUMPDEST JUMPDEST SWAP1 POP PUSH1 0x20 MUL ADD CALLDATALOAD PUSH2 0xF94 SWAP2 SWAP1 PUSH2 0x2375 JUMP JUMPDEST SWAP1 POP PUSH0 DUP3 PUSH20 0xFFFFFFFFFFFFFFFFFFFFFFFFFFFFFFFFFFFFFFFF AND EXTCODESIZE EQ PUSH2 0xFEF JUMPI PUSH1 0x40 MLOAD PUSH32 0x8C379A000000000000000000000000000000000000000000000000000000000 DUP2 MSTORE PUSH1 0x4 ADD PUSH2 0xFE6 SWAP1 PUSH2 0x2400 JUMP JUMPDEST PUSH1 0x40 MLOAD DUP1 SWAP2 SUB SWAP1 REVERT JUMPDEST PUSH1 0xB SLOAD DUP2 PUSH1 0x3 PUSH0 DUP6 PUSH20 0xFFFFFFFFFFFFFFFFFFFFFFFFFFFFFFFFFFFFFFFF AND PUSH20 0xFFFFFFFFFFFFFFFFFFFFFFFFFFFFFFFFFFFFFFFF AND DUP2 MSTORE PUSH1 0x20 ADD SWAP1 DUP2 MSTORE PUSH1 0x20 ADD PUSH0 KECCAK256 SLOAD PUSH2 0x103B SWAP2 SWAP1 PUSH2 0x2206 JUMP JUMPDEST GT ISZERO PUSH2 0x107C JUMPI PUSH1 0x40 MLOAD PUSH32 0x8C379A000000000000000000000000000000000000000000000000000000000 DUP2 MSTORE PUSH1 0x4 ADD PUSH2 0x1073 SWAP1 PUSH2 0x2468 JUMP JUMPDEST PUSH1 0x40 MLOAD DUP1 SWAP2 SUB SWAP1 REVERT JUMPDEST PUSH1 0xA PUSH0 DUP4 PUSH20 0xFFFFFFFFFFFFFFFFFFFFFFFFFFFFFFFFFFFFFFFF AND PUSH20 0xFFFFFFFFFFFFFFFFFFFFFFFFFFFFFFFFFFFFFFFF AND DUP2 MSTORE PUSH1 0x20 ADD SWAP1 DUP2 MSTORE PUSH1 0x20 ADD PUSH0 KECCAK256 PUSH0 SWAP1 SLOAD SWAP1 PUSH2 0x100 EXP SWAP1 DIV PUSH1 0xFF AND PUSH2 0x117A JUMPI PUSH1 0x1 PUSH1 0xA PUSH0 DUP5 PUSH20 0xFFFFFFFFFFFFFFFFFFFFFFFFFFFFFFFFFFFFFFFF AND PUSH20 0xFFFFFFFFFFFFFFFFFFFFFFFFFFFFFFFFFFFFFFFF AND DUP2 MSTORE PUSH1 0x20 ADD SWAP1 DUP2 MSTORE PUSH1 0x20 ADD PUSH0 KECCAK256 PUSH0 PUSH2 0x100 EXP DUP2 SLOAD DUP2 PUSH1 0xFF MUL NOT AND SWAP1 DUP4 ISZERO ISZERO MUL OR SWAP1 SSTORE POP PUSH1 0x7 PUSH0 DUP2 SLOAD DUP1 SWAP3 SWAP2 SWAP1 PUSH2 0x1131 SWAP1 PUSH2 0x21BF JUMP JUMPDEST SWAP2 SWAP1 POP SSTORE POP DUP2 PUSH20 0xFFFFFFFFFFFFFFFFFFFFFFFFFFFFFFFFFFFFFFFF AND PUSH32 0x1837DB44F707818DFCE8415EF80A201E86882BC1BFFABDDED272512A96C0799E PUSH1 0x40 MLOAD PUSH1 0x40 MLOAD DUP1 SWAP2 SUB SWAP1 LOG2 JUMPDEST DUP1 PUSH1 0x3 PUSH0 DUP5 PUSH20 0xFFFFFFFFFFFFFFFFFFFFFFFFFFFFFFFFFFFFFFFF AND PUSH20 0xFFFFFFFFFFFFFFFFFFFFFFFFFFFFFFFFFFFFFFFF AND DUP2 MSTORE PUSH1 0x20 ADD SWAP1 DUP2 MSTORE PUSH1 0x20 ADD PUSH0 KECCAK256 PUSH0 DUP3 DUP3 SLOAD PUSH2 0x11C6 SWAP2 SWAP1 PUSH2 0x2206 JUMP JUMPDEST SWAP3 POP POP DUP2 SWAP1 SSTORE POP DUP1 DUP5 PUSH2 0x11D9 SWAP2 SWAP1 PUSH2 0x2206 JUMP JUMPDEST SWAP4 POP DUP2 PUSH20 0xFFFFFFFFFFFFFFFFFFFFFFFFFFFFFFFFFFFFFFFF AND PUSH32 0x4885D73252B9E2C420B677D64D50E8A5798773DBB4CB99C5A2AB2824F725D9A8 DUP3 PUSH1 0x3 PUSH0 DUP7 PUSH20 0xFFFFFFFFFFFFFFFFFFFFFFFFFFFFFFFFFFFFFFFF AND PUSH20 0xFFFFFFFFFFFFFFFFFFFFFFFFFFFFFFFFFFFFFFFF AND DUP2 MSTORE PUSH1 0x20 ADD SWAP1 DUP2 MSTORE PUSH1 0x20 ADD PUSH0 KECCAK256 SLOAD PUSH1 0x40 MLOAD PUSH2 0x1260 SWAP3 SWAP2 SWAP1 PUSH2 0x2486 JUMP JUMPDEST PUSH1 0x40 MLOAD DUP1 SWAP2 SUB SWAP1 LOG2 POP POP DUP1 DUP1 PUSH1 0x1 ADD SWAP2 POP POP PUSH2 0xF30 JUMP JUMPDEST POP DUP1 PUSH1 0x9 SLOAD PUSH2 0x1286 SWAP2 SWAP1 PUSH2 0x2206 JUMP JUMPDEST PUSH2 0x128E PUSH2 0xC21 JUMP JUMPDEST LT ISZERO PUSH2 0x12CF JUMPI PUSH1 0x40 MLOAD PUSH32 0x8C379A000000000000000000000000000000000000000000000000000000000 DUP2 MSTORE PUSH1 0x4 ADD PUSH2 0x12C6 SWAP1 PUSH2 0x251D JUMP JUMPDEST PUSH1 0x40 MLOAD DUP1 SWAP2 SUB SWAP1 REVERT JUMPDEST DUP1 PUSH1 0x9 PUSH0 DUP3 DUP3 SLOAD PUSH2 0x12E0 SWAP2 SWAP1 PUSH2 0x2206 JUMP JUMPDEST SWAP3 POP POP DUP2 SWAP1 SSTORE POP PUSH32 0xF14D1C8E59D4CD079B88D0E19CF0DE41C86B7A761D5032C0947977002B3AD93A DUP6 DUP6 DUP6 DUP6 PUSH1 0x40 MLOAD PUSH2 0x131C SWAP5 SWAP4 SWAP3 SWAP2 SWAP1 PUSH2 0x266F JUMP JUMPDEST PUSH1 0x40 MLOAD DUP1 SWAP2 SUB SWAP1 LOG1 POP POP POP POP POP JUMP JUMPDEST PUSH2 0x1333 PUSH2 0x1872 JUMP JUMPDEST PUSH2 0x133B PUSH2 0x18F9 JUMP JUMPDEST PUSH0 PUSH32 0x0 PUSH20 0xFFFFFFFFFFFFFFFFFFFFFFFFFFFFFFFFFFFFFFFF AND PUSH4 0x70A08231 ADDRESS PUSH1 0x40 MLOAD DUP3 PUSH4 0xFFFFFFFF AND PUSH1 0xE0 SHL DUP2 MSTORE PUSH1 0x4 ADD PUSH2 0x1395 SWAP2 SWAP1 PUSH2 0x1D1D JUMP JUMPDEST PUSH1 0x20 PUSH1 0x40 MLOAD DUP1 DUP4 SUB DUP2 DUP7 GAS STATICCALL ISZERO DUP1 ISZERO PUSH2 0x13B0 JUMPI RETURNDATASIZE PUSH0 PUSH0 RETURNDATACOPY RETURNDATASIZE PUSH0 REVERT JUMPDEST POP POP POP POP PUSH1 0x40 MLOAD RETURNDATASIZE PUSH1 0x1F NOT PUSH1 0x1F DUP3 ADD AND DUP3 ADD DUP1 PUSH1 0x40 MSTORE POP DUP2 ADD SWAP1 PUSH2 0x13D4 SWAP2 SWAP1 PUSH2 0x224D JUMP JUMPDEST SWAP1 POP PUSH0 DUP2 GT PUSH2 0x1418 JUMPI PUSH1 0x40 MLOAD PUSH32 0x8C379A000000000000000000000000000000000000000000000000000000000 DUP2 MSTORE PUSH1 0x4 ADD PUSH2 0x140F SWAP1 PUSH2 0x26F2 JUMP JUMPDEST PUSH1 0x40 MLOAD DUP1 SWAP2 SUB SWAP1 REVERT JUMPDEST PUSH1 0xD SLOAD PUSH1 0xC SLOAD PUSH2 0x1428 SWAP2 SWAP1 PUSH2 0x2206 JUMP JUMPDEST TIMESTAMP LT ISZERO PUSH2 0x146A JUMPI PUSH1 0x40 MLOAD PUSH32 0x8C379A000000000000000000000000000000000000000000000000000000000 DUP2 MSTORE PUSH1 0x4 ADD PUSH2 0x1461 SWAP1 PUSH2 0x275A JUMP JUMPDEST PUSH1 0x40 MLOAD DUP1 SWAP2 SUB SWAP1 REVERT JUMPDEST TIMESTAMP PUSH1 0xC DUP2 SWAP1 SSTORE POP PUSH2 0x14C3 PUSH2 0x147C PUSH2 0xB65 JUMP JUMPDEST DUP3 PUSH32 0x0 PUSH20 0xFFFFFFFFFFFFFFFFFFFFFFFFFFFFFFFFFFFFFFFF AND PUSH2 0x1948 SWAP1 SWAP3 SWAP2 SWAP1 PUSH4 0xFFFFFFFF AND JUMP JUMPDEST PUSH2 0x14CB PUSH2 0xB65 JUMP JUMPDEST PUSH20 0xFFFFFFFFFFFFFFFFFFFFFFFFFFFFFFFFFFFFFFFF AND PUSH32 0x5FAFA99D0643513820BE26656B45130B01E1C03062E1266BF36F88CBD3BD9695 DUP3 PUSH1 0x40 MLOAD PUSH2 0x1510 SWAP2 SWAP1 PUSH2 0x1C5A JUMP JUMPDEST PUSH1 0x40 MLOAD DUP1 SWAP2 SUB SWAP1 LOG2 POP PUSH2 0x1521 PUSH2 0x19C7 JUMP JUMPDEST JUMP JUMPDEST PUSH2 0x152B PUSH2 0x1872 JUMP JUMPDEST PUSH0 DUP2 GT PUSH2 0x156D JUMPI PUSH1 0x40 MLOAD PUSH32 0x8C379A000000000000000000000000000000000000000000000000000000000 DUP2 MSTORE PUSH1 0x4 ADD PUSH2 0x1564 SWAP1 PUSH2 0x27E8 JUMP JUMPDEST PUSH1 0x40 MLOAD DUP1 SWAP2 SUB SWAP1 REVERT JUMPDEST DUP1 PUSH32 0x0 PUSH20 0xFFFFFFFFFFFFFFFFFFFFFFFFFFFFFFFFFFFFFFFF AND PUSH4 0x70A08231 CALLER PUSH1 0x40 MLOAD DUP3 PUSH4 0xFFFFFFFF AND PUSH1 0xE0 SHL DUP2 MSTORE PUSH1 0x4 ADD PUSH2 0x15C7 SWAP2 SWAP1 PUSH2 0x1D1D JUMP JUMPDEST PUSH1 0x20 PUSH1 0x40 MLOAD DUP1 DUP4 SUB DUP2 DUP7 GAS STATICCALL ISZERO DUP1 ISZERO PUSH2 0x15E2 JUMPI RETURNDATASIZE PUSH0 PUSH0 RETURNDATACOPY RETURNDATASIZE PUSH0 REVERT JUMPDEST POP POP POP POP PUSH1 0x40 MLOAD RETURNDATASIZE PUSH1 0x1F NOT PUSH1 0x1F DUP3 ADD AND DUP3 ADD DUP1 PUSH1 0x40 MSTORE POP DUP2 ADD SWAP1 PUSH2 0x1606 SWAP2 SWAP1 PUSH2 0x224D JUMP JUMPDEST LT ISZERO PUSH2 0x1647 JUMPI PUSH1 0x40 MLOAD PUSH32 0x8C379A000000000000000000000000000000000000000000000000000000000 DUP2 MSTORE PUSH1 0x4 ADD PUSH2 0x163E SWAP1 PUSH2 0x2850 JUMP JUMPDEST PUSH1 0x40 MLOAD DUP1 SWAP2 SUB SWAP1 REVERT JUMPDEST PUSH2 0x1694 CALLER ADDRESS DUP4 PUSH32 0x0 PUSH20 0xFFFFFFFFFFFFFFFFFFFFFFFFFFFFFFFFFFFFFFFF AND PUSH2 0x1A91 SWAP1 SWAP4 SWAP3 SWAP2 SWAP1 PUSH4 0xFFFFFFFF AND JUMP JUMPDEST CALLER PUSH20 0xFFFFFFFFFFFFFFFFFFFFFFFFFFFFFFFFFFFFFFFF AND PUSH32 0xBC7C8A4D8049A3F99A02F2A20640C206A2E4D3F2FA54FD20DA9F01FDA3620CDA DUP3 PUSH1 0x40 MLOAD PUSH2 0x16DA SWAP2 SWAP1 PUSH2 0x1C5A JUMP JUMPDEST PUSH1 0x40 MLOAD DUP1 SWAP2 SUB SWAP1 LOG2 POP JUMP JUMPDEST PUSH2 0x16ED PUSH2 0x1872 JUMP JUMPDEST PUSH0 SELFBALANCE SWAP1 POP PUSH0 DUP2 GT PUSH2 0x1733 JUMPI PUSH1 0x40 MLOAD PUSH32 0x8C379A000000000000000000000000000000000000000000000000000000000 DUP2 MSTORE PUSH1 0x4 ADD PUSH2 0x172A SWAP1 PUSH2 0x28B8 JUMP JUMPDEST PUSH1 0x40 MLOAD DUP1 SWAP2 SUB SWAP1 REVERT JUMPDEST PUSH2 0x173B PUSH2 0xB65 JUMP JUMPDEST PUSH20 0xFFFFFFFFFFFFFFFFFFFFFFFFFFFFFFFFFFFFFFFF AND PUSH2 0x8FC DUP3 SWAP1 DUP2 ISZERO MUL SWAP1 PUSH1 0x40 MLOAD PUSH0 PUSH1 0x40 MLOAD DUP1 DUP4 SUB DUP2 DUP6 DUP9 DUP9 CALL SWAP4 POP POP POP POP ISZERO DUP1 ISZERO PUSH2 0x177D JUMPI RETURNDATASIZE PUSH0 PUSH0 RETURNDATACOPY RETURNDATASIZE PUSH0 REVERT JUMPDEST POP POP JUMP JUMPDEST PUSH2 0x1789 PUSH2 0x1872 JUMP JUMPDEST DUP1 PUSH1 0xE DUP2 SWAP1 SSTORE POP PUSH32 0x46767AA5821BA6F1A985F8CF0134CB534CBA0B26FF165803D3602C7FF046CD4 DUP2 PUSH1 0x40 MLOAD PUSH2 0x17BF SWAP2 SWAP1 PUSH2 0x1C5A JUMP JUMPDEST PUSH1 0x40 MLOAD DUP1 SWAP2 SUB SWAP1 LOG1 POP JUMP JUMPDEST PUSH2 0x17D2 PUSH2 0x1872 JUMP JUMPDEST PUSH0 PUSH20 0xFFFFFFFFFFFFFFFFFFFFFFFFFFFFFFFFFFFFFFFF AND DUP2 PUSH20 0xFFFFFFFFFFFFFFFFFFFFFFFFFFFFFFFFFFFFFFFF AND SUB PUSH2 0x1842 JUMPI PUSH0 PUSH1 0x40 MLOAD PUSH32 0x1E4FBDF700000000000000000000000000000000000000000000000000000000 DUP2 MSTORE PUSH1 0x4 ADD PUSH2 0x1839 SWAP2 SWAP1 PUSH2 0x1D1D JUMP JUMPDEST PUSH1 0x40 MLOAD DUP1 SWAP2 SUB SWAP1 REVERT JUMPDEST PUSH2 0x184B DUP2 PUSH2 0x19D0 JUMP JUMPDEST POP JUMP JUMPDEST PUSH32 0x0 DUP2 JUMP JUMPDEST PUSH2 0x187A PUSH2 0x1B13 JUMP JUMPDEST PUSH20 0xFFFFFFFFFFFFFFFFFFFFFFFFFFFFFFFFFFFFFFFF AND PUSH2 0x1898 PUSH2 0xB65 JUMP JUMPDEST PUSH20 0xFFFFFFFFFFFFFFFFFFFFFFFFFFFFFFFFFFFFFFFF AND EQ PUSH2 0x18F7 JUMPI PUSH2 0x18BB PUSH2 0x1B13 JUMP JUMPDEST PUSH1 0x40 MLOAD PUSH32 0x118CDAA700000000000000000000000000000000000000000000000000000000 DUP2 MSTORE PUSH1 0x4 ADD PUSH2 0x18EE SWAP2 SWAP1 PUSH2 0x1D1D JUMP JUMPDEST PUSH1 0x40 MLOAD DUP1 SWAP2 SUB SWAP1 REVERT JUMPDEST JUMP JUMPDEST PUSH1 0x2 PUSH1 0x1 SLOAD SUB PUSH2 0x193E JUMPI PUSH1 0x40 MLOAD PUSH32 0x8C379A000000000000000000000000000000000000000000000000000000000 DUP2 MSTORE PUSH1 0x4 ADD PUSH2 0x1935 SWAP1 PUSH2 0x2920 JUMP JUMPDEST PUSH1 0x40 MLOAD DUP1 SWAP2 SUB SWAP1 REVERT JUMPDEST PUSH1 0x2 PUSH1 0x1 DUP2 SWAP1 SSTORE POP JUMP JUMPDEST PUSH2 0x19C2 DUP4 DUP5 PUSH20 0xFFFFFFFFFFFFFFFFFFFFFFFFFFFFFFFFFFFFFFFF AND PUSH4 0xA9059CBB DUP6 DUP6 PUSH1 0x40 MLOAD PUSH1 0x24 ADD PUSH2 0x197B SWAP3 SWAP2 SWAP1 PUSH2 0x293E JUMP JUMPDEST PUSH1 0x40 MLOAD PUSH1 0x20 DUP2 DUP4 SUB SUB DUP2 MSTORE SWAP1 PUSH1 0x40 MSTORE SWAP2 POP PUSH1 0xE0 SHL PUSH1 0x20 DUP3 ADD DUP1 MLOAD PUSH28 0xFFFFFFFFFFFFFFFFFFFFFFFFFFFFFFFFFFFFFFFFFFFFFFFFFFFFFFFF DUP4 DUP2 DUP4 AND OR DUP4 MSTORE POP POP POP POP PUSH2 0x1B1A JUMP JUMPDEST POP POP POP JUMP JUMPDEST PUSH1 0x1 DUP1 DUP2 SWAP1 SSTORE POP JUMP JUMPDEST PUSH0 PUSH0 PUSH0 SWAP1 SLOAD SWAP1 PUSH2 0x100 EXP SWAP1 DIV PUSH20 0xFFFFFFFFFFFFFFFFFFFFFFFFFFFFFFFFFFFFFFFF AND SWAP1 POP DUP2 PUSH0 PUSH0 PUSH2 0x100 EXP DUP2 SLOAD DUP2 PUSH20 0xFFFFFFFFFFFFFFFFFFFFFFFFFFFFFFFFFFFFFFFF MUL NOT AND SWAP1 DUP4 PUSH20 0xFFFFFFFFFFFFFFFFFFFFFFFFFFFFFFFFFFFFFFFF AND MUL OR SWAP1 SSTORE POP DUP2 PUSH20 0xFFFFFFFFFFFFFFFFFFFFFFFFFFFFFFFFFFFFFFFF AND DUP2 PUSH20 0xFFFFFFFFFFFFFFFFFFFFFFFFFFFFFFFFFFFFFFFF AND PUSH32 0x8BE0079C531659141344CD1FD0A4F28419497F9722A3DAAFE3B4186F6B6457E0 PUSH1 0x40 MLOAD PUSH1 0x40 MLOAD DUP1 SWAP2 SUB SWAP1 LOG3 POP POP JUMP JUMPDEST PUSH2 0x1B0D DUP5 DUP6 PUSH20 0xFFFFFFFFFFFFFFFFFFFFFFFFFFFFFFFFFFFFFFFF AND PUSH4 0x23B872DD DUP7 DUP7 DUP7 PUSH1 0x40 MLOAD PUSH1 0x24 ADD PUSH2 0x1AC6 SWAP4 SWAP3 SWAP2 SWAP1 PUSH2 0x2965 JUMP JUMPDEST PUSH1 0x40 MLOAD PUSH1 0x20 DUP2 DUP4 SUB SUB DUP2 MSTORE SWAP1 PUSH1 0x40 MSTORE SWAP2 POP PUSH1 0xE0 SHL PUSH1 0x20 DUP3 ADD DUP1 MLOAD PUSH28 0xFFFFFFFFFFFFFFFFFFFFFFFFFFFFFFFFFFFFFFFFFFFFFFFFFFFFFFFF DUP4 DUP2 DUP4 AND OR DUP4 MSTORE POP POP POP POP PUSH2 0x1B1A JUMP JUMPDEST POP POP POP POP JUMP JUMPDEST PUSH0 CALLER SWAP1 POP SWAP1 JUMP JUMPDEST PUSH0 PUSH0 PUSH1 0x20 PUSH0 DUP5 MLOAD PUSH1 0x20 DUP7 ADD PUSH0 DUP9 GAS CALL DUP1 PUSH2 0x1B39 JUMPI PUSH1 0x40 MLOAD RETURNDATASIZE PUSH0 DUP3 RETURNDATACOPY RETURNDATASIZE DUP2 REVERT JUMPDEST RETURNDATASIZE SWAP3 POP PUSH0 MLOAD SWAP2 POP POP PUSH0 DUP3 EQ PUSH2 0x1B52 JUMPI PUSH1 0x1 DUP2 EQ ISZERO PUSH2 0x1B6D JUMP JUMPDEST PUSH0 DUP5 PUSH20 0xFFFFFFFFFFFFFFFFFFFFFFFFFFFFFFFFFFFFFFFF AND EXTCODESIZE EQ JUMPDEST ISZERO PUSH2 0x1BAF JUMPI DUP4 PUSH1 0x40 MLOAD PUSH32 0x5274AFE700000000000000000000000000000000000000000000000000000000 DUP2 MSTORE PUSH1 0x4 ADD PUSH2 0x1BA6 SWAP2 SWAP1 PUSH2 0x1D1D JUMP JUMPDEST PUSH1 0x40 MLOAD DUP1 SWAP2 SUB SWAP1 REVERT JUMPDEST POP POP POP POP JUMP JUMPDEST PUSH0 PUSH0 REVERT JUMPDEST PUSH0 PUSH0 REVERT JUMPDEST PUSH0 PUSH20 0xFFFFFFFFFFFFFFFFFFFFFFFFFFFFFFFFFFFFFFFF DUP3 AND SWAP1 POP SWAP2 SWAP1 POP JUMP JUMPDEST PUSH0 PUSH2 0x1BE6 DUP3 PUSH2 0x1BBD JUMP JUMPDEST SWAP1 POP SWAP2 SWAP1 POP JUMP JUMPDEST PUSH2 0x1BF6 DUP2 PUSH2 0x1BDC JUMP JUMPDEST DUP2 EQ PUSH2 0x1C00 JUMPI PUSH0 PUSH0 REVERT JUMPDEST POP JUMP JUMPDEST PUSH0 DUP2 CALLDATALOAD SWAP1 POP PUSH2 0x1C11 DUP2 PUSH2 0x1BED JUMP JUMPDEST SWAP3 SWAP2 POP POP JUMP JUMPDEST PUSH0 PUSH1 0x20 DUP3 DUP5 SUB SLT ISZERO PUSH2 0x1C2C JUMPI PUSH2 0x1C2B PUSH2 0x1BB5 JUMP JUMPDEST JUMPDEST PUSH0 PUSH2 0x1C39 DUP5 DUP3 DUP6 ADD PUSH2 0x1C03 JUMP JUMPDEST SWAP2 POP POP SWAP3 SWAP2 POP POP JUMP JUMPDEST PUSH0 DUP2 SWAP1 POP SWAP2 SWAP1 POP JUMP JUMPDEST PUSH2 0x1C54 DUP2 PUSH2 0x1C42 JUMP JUMPDEST DUP3 MSTORE POP POP JUMP JUMPDEST PUSH0 PUSH1 0x20 DUP3 ADD SWAP1 POP PUSH2 0x1C6D PUSH0 DUP4 ADD DUP5 PUSH2 0x1C4B JUMP JUMPDEST SWAP3 SWAP2 POP POP JUMP JUMPDEST PUSH0 DUP2 ISZERO ISZERO SWAP1 POP SWAP2 SWAP1 POP JUMP JUMPDEST PUSH2 0x1C87 DUP2 PUSH2 0x1C73 JUMP JUMPDEST DUP2 EQ PUSH2 0x1C91 JUMPI PUSH0 PUSH0 REVERT JUMPDEST POP JUMP JUMPDEST PUSH0 DUP2 CALLDATALOAD SWAP1 POP PUSH2 0x1CA2 DUP2 PUSH2 0x1C7E JUMP JUMPDEST SWAP3 SWAP2 POP POP JUMP JUMPDEST PUSH0 PUSH0 PUSH1 0x40 DUP4 DUP6 SUB SLT ISZERO PUSH2 0x1CBE JUMPI PUSH2 0x1CBD PUSH2 0x1BB5 JUMP JUMPDEST JUMPDEST PUSH0 PUSH2 0x1CCB DUP6 DUP3 DUP7 ADD PUSH2 0x1C03 JUMP JUMPDEST SWAP3 POP POP PUSH1 0x20 PUSH2 0x1CDC DUP6 DUP3 DUP7 ADD PUSH2 0x1C94 JUMP JUMPDEST SWAP2 POP POP SWAP3 POP SWAP3 SWAP1 POP JUMP JUMPDEST PUSH2 0x1CEF DUP2 PUSH2 0x1C73 JUMP JUMPDEST DUP3 MSTORE POP POP JUMP JUMPDEST PUSH0 PUSH1 0x20 DUP3 ADD SWAP1 POP PUSH2 0x1D08 PUSH0 DUP4 ADD DUP5 PUSH2 0x1CE6 JUMP JUMPDEST SWAP3 SWAP2 POP POP JUMP JUMPDEST PUSH2 0x1D17 DUP2 PUSH2 0x1BDC JUMP JUMPDEST DUP3 MSTORE POP POP JUMP JUMPDEST PUSH0 PUSH1 0x20 DUP3 ADD SWAP1 POP PUSH2 0x1D30 PUSH0 DUP4 ADD DUP5 PUSH2 0x1D0E JUMP JUMPDEST SWAP3 SWAP2 POP POP JUMP JUMPDEST PUSH0 PUSH1 0x20 DUP3 DUP5 SUB SLT ISZERO PUSH2 0x1D4B JUMPI PUSH2 0x1D4A PUSH2 0x1BB5 JUMP JUMPDEST JUMPDEST PUSH0 PUSH2 0x1D58 DUP5 DUP3 DUP6 ADD PUSH2 0x1C94 JUMP JUMPDEST SWAP2 POP POP SWAP3 SWAP2 POP POP JUMP JUMPDEST PUSH0 PUSH1 0xA0 DUP3 ADD SWAP1 POP PUSH2 0x1D74 PUSH0 DUP4 ADD DUP9 PUSH2 0x1C4B JUMP JUMPDEST PUSH2 0x1D81 PUSH1 0x20 DUP4 ADD DUP8 PUSH2 0x1C4B JUMP JUMPDEST PUSH2 0x1D8E PUSH1 0x40 DUP4 ADD DUP7 PUSH2 0x1C4B JUMP JUMPDEST PUSH2 0x1D9B PUSH1 0x60 DUP4 ADD DUP6 PUSH2 0x1C4B JUMP JUMPDEST PUSH2 0x1DA8 PUSH1 0x80 DUP4 ADD DUP5 PUSH2 0x1CE6 JUMP JUMPDEST SWAP7 SWAP6 POP POP POP POP POP POP JUMP JUMPDEST PUSH0 PUSH0 REVERT JUMPDEST PUSH0 PUSH0 REVERT JUMPDEST PUSH0 PUSH0 REVERT JUMPDEST PUSH0 PUSH0 DUP4 PUSH1 0x1F DUP5 ADD SLT PUSH2 0x1DD3 JUMPI PUSH2 0x1DD2 PUSH2 0x1DB2 JUMP JUMPDEST JUMPDEST DUP3 CALLDATALOAD SWAP1 POP PUSH8 0xFFFFFFFFFFFFFFFF DUP2 GT ISZERO PUSH2 0x1DF0 JUMPI PUSH2 0x1DEF PUSH2 0x1DB6 JUMP JUMPDEST JUMPDEST PUSH1 0x20 DUP4 ADD SWAP2 POP DUP4 PUSH1 0x20 DUP3 MUL DUP4 ADD GT ISZERO PUSH2 0x1E0C JUMPI PUSH2 0x1E0B PUSH2 0x1DBA JUMP JUMPDEST JUMPDEST SWAP3 POP SWAP3 SWAP1 POP JUMP JUMPDEST PUSH0 PUSH0 DUP4 PUSH1 0x1F DUP5 ADD SLT PUSH2 0x1E28 JUMPI PUSH2 0x1E27 PUSH2 0x1DB2 JUMP JUMPDEST JUMPDEST DUP3 CALLDATALOAD SWAP1 POP PUSH8 0xFFFFFFFFFFFFFFFF DUP2 GT ISZERO PUSH2 0x1E45 JUMPI PUSH2 0x1E44 PUSH2 0x1DB6 JUMP JUMPDEST JUMPDEST PUSH1 0x20 DUP4 ADD SWAP2 POP DUP4 PUSH1 0x20 DUP3 MUL DUP4 ADD GT ISZERO PUSH2 0x1E61 JUMPI PUSH2 0x1E60 PUSH2 0x1DBA JUMP JUMPDEST JUMPDEST SWAP3 POP SWAP3 SWAP1 POP JUMP JUMPDEST PUSH0 PUSH0 PUSH0 PUSH0 PUSH1 0x40 DUP6 DUP8 SUB SLT ISZERO PUSH2 0x1E80 JUMPI PUSH2 0x1E7F PUSH2 0x1BB5 JUMP JUMPDEST JUMPDEST PUSH0 DUP6 ADD CALLDATALOAD PUSH8 0xFFFFFFFFFFFFFFFF DUP2 GT ISZERO PUSH2 0x1E9D JUMPI PUSH2 0x1E9C PUSH2 0x1BB9 JUMP JUMPDEST JUMPDEST PUSH2 0x1EA9 DUP8 DUP3 DUP9 ADD PUSH2 0x1DBE JUMP JUMPDEST SWAP5 POP SWAP5 POP POP PUSH1 0x20 DUP6 ADD CALLDATALOAD PUSH8 0xFFFFFFFFFFFFFFFF DUP2 GT ISZERO PUSH2 0x1ECC JUMPI PUSH2 0x1ECB PUSH2 0x1BB9 JUMP JUMPDEST JUMPDEST PUSH2 0x1ED8 DUP8 DUP3 DUP9 ADD PUSH2 0x1E13 JUMP JUMPDEST SWAP3 POP SWAP3 POP POP SWAP3 SWAP6 SWAP2 SWAP5 POP SWAP3 POP JUMP JUMPDEST PUSH2 0x1EEF DUP2 PUSH2 0x1C42 JUMP JUMPDEST DUP2 EQ PUSH2 0x1EF9 JUMPI PUSH0 PUSH0 REVERT JUMPDEST POP JUMP JUMPDEST PUSH0 DUP2 CALLDATALOAD SWAP1 POP PUSH2 0x1F0A DUP2 PUSH2 0x1EE6 JUMP JUMPDEST SWAP3 SWAP2 POP POP JUMP JUMPDEST PUSH0 PUSH1 0x20 DUP3 DUP5 SUB SLT ISZERO PUSH2 0x1F25 JUMPI PUSH2 0x1F24 PUSH2 0x1BB5 JUMP JUMPDEST JUMPDEST PUSH0 PUSH2 0x1F32 DUP5 DUP3 DUP6 ADD PUSH2 0x1EFC JUMP JUMPDEST SWAP2 POP POP SWAP3 SWAP2 POP POP JUMP JUMPDEST PUSH0 DUP2 SWAP1 POP SWAP2 SWAP1 POP JUMP JUMPDEST PUSH0 PUSH2 0x1F5E PUSH2 0x1F59 PUSH2 0x1F54 DUP5 PUSH2 0x1BBD JUMP JUMPDEST PUSH2 0x1F3B JUMP JUMPDEST PUSH2 0x1BBD JUMP JUMPDEST SWAP1 POP SWAP2 SWAP1 POP JUMP JUMPDEST PUSH0 PUSH2 0x1F6F DUP3 PUSH2 0x1F44 JUMP JUMPDEST SWAP1 POP SWAP2 SWAP1 POP JUMP JUMPDEST PUSH0 PUSH2 0x1F80 DUP3 PUSH2 0x1F65 JUMP JUMPDEST SWAP1 POP SWAP2 SWAP1 POP JUMP JUMPDEST PUSH2 0x1F90 DUP2 PUSH2 0x1F76 JUMP JUMPDEST DUP3 MSTORE POP POP JUMP JUMPDEST PUSH0 PUSH1 0x20 DUP3 ADD SWAP1 POP PUSH2 0x1FA9 PUSH0 DUP4 ADD DUP5 PUSH2 0x1F87 JUMP JUMPDEST SWAP3 SWAP2 POP POP JUMP JUMPDEST PUSH0 DUP3 DUP3 MSTORE PUSH1 0x20 DUP3 ADD SWAP1 POP SWAP3 SWAP2 POP POP JUMP JUMPDEST PUSH32 0x436C61696D206E6F7420656E61626C6564000000000000000000000000000000 PUSH0 DUP3 ADD MSTORE POP JUMP JUMPDEST PUSH0 PUSH2 0x1FF3 PUSH1 0x11 DUP4 PUSH2 0x1FAF JUMP JUMPDEST SWAP2 POP PUSH2 0x1FFE DUP3 PUSH2 0x1FBF JUMP JUMPDEST PUSH1 0x20 DUP3 ADD SWAP1 POP SWAP2 SWAP1 POP JUMP JUMPDEST PUSH0 PUSH1 0x20 DUP3 ADD SWAP1 POP DUP2 DUP2 SUB PUSH0 DUP4 ADD MSTORE PUSH2 0x2020 DUP2 PUSH2 0x1FE7 JUMP JUMPDEST SWAP1 POP SWAP2 SWAP1 POP JUMP JUMPDEST PUSH32 0x436C61696D20626C6F636B656420666F72207468697320616464726573730000 PUSH0 DUP3 ADD MSTORE POP JUMP JUMPDEST PUSH0 PUSH2 0x205B PUSH1 0x1E DUP4 PUSH2 0x1FAF JUMP JUMPDEST SWAP2 POP PUSH2 0x2066 DUP3 PUSH2 0x2027 JUMP JUMPDEST PUSH1 0x20 DUP3 ADD SWAP1 POP SWAP2 SWAP1 POP JUMP JUMPDEST PUSH0 PUSH1 0x20 DUP3 ADD SWAP1 POP DUP2 DUP2 SUB PUSH0 DUP4 ADD MSTORE PUSH2 0x2088 DUP2 PUSH2 0x204F JUMP JUMPDEST SWAP1 POP SWAP2 SWAP1 POP JUMP JUMPDEST PUSH32 0x417070726F76616C20666565206E6F7420706169640000000000000000000000 PUSH0 DUP3 ADD MSTORE POP JUMP JUMPDEST PUSH0 PUSH2 0x20C3 PUSH1 0x15 DUP4 PUSH2 0x1FAF JUMP JUMPDEST SWAP2 POP PUSH2 0x20CE DUP3 PUSH2 0x208F JUMP JUMPDEST PUSH1 0x20 DUP3 ADD SWAP1 POP SWAP2 SWAP1 POP JUMP JUMPDEST PUSH0 PUSH1 0x20 DUP3 ADD SWAP1 POP DUP2 DUP2 SUB PUSH0 DUP4 ADD MSTORE PUSH2 0x20F0 DUP2 PUSH2 0x20B7 JUMP JUMPDEST SWAP1 POP SWAP2 SWAP1 POP JUMP JUMPDEST PUSH32 0x596F752068617665206E6F2062616C616E636520746F20636C61696D00000000 PUSH0 DUP3 ADD MSTORE POP JUMP JUMPDEST PUSH0 PUSH2 0x212B PUSH1 0x1C DUP4 PUSH2 0x1FAF JUMP JUMPDEST SWAP2 POP PUSH2 0x2136 DUP3 PUSH2 0x20F7 JUMP JUMPDEST PUSH1 0x20 DUP3 ADD SWAP1 POP SWAP2 SWAP1 POP JUMP JUMPDEST PUSH0 PUSH1 0x20 DUP3 ADD SWAP1 POP DUP2 DUP2 SUB PUSH0 DUP4 ADD MSTORE PUSH2 0x2158 DUP2 PUSH2 0x211F JUMP JUMPDEST SWAP1 POP SWAP2 SWAP1 POP JUMP JUMPDEST PUSH32 0x4E487B7100000000000000000000000000000000000000000000000000000000 PUSH0 MSTORE PUSH1 0x11 PUSH1 0x4 MSTORE PUSH1 0x24 PUSH0 REVERT JUMPDEST PUSH0 PUSH2 0x2196 DUP3 PUSH2 0x1C42 JUMP JUMPDEST SWAP2 POP PUSH2 0x21A1 DUP4 PUSH2 0x1C42 JUMP JUMPDEST SWAP3 POP DUP3 DUP3 SUB SWAP1 POP DUP2 DUP2 GT ISZERO PUSH2 0x21B9 JUMPI PUSH2 0x21B8 PUSH2 0x215F JUMP JUMPDEST JUMPDEST SWAP3 SWAP2 POP POP JUMP JUMPDEST PUSH0 PUSH2 0x21C9 DUP3 PUSH2 0x1C42 JUMP JUMPDEST SWAP2 POP PUSH32 0xFFFFFFFFFFFFFFFFFFFFFFFFFFFFFFFFFFFFFFFFFFFFFFFFFFFFFFFFFFFFFFFF DUP3 SUB PUSH2 0x21FB JUMPI PUSH2 0x21FA PUSH2 0x215F JUMP JUMPDEST JUMPDEST PUSH1 0x1 DUP3 ADD SWAP1 POP SWAP2 SWAP1 POP JUMP JUMPDEST PUSH0 PUSH2 0x2210 DUP3 PUSH2 0x1C42 JUMP JUMPDEST SWAP2 POP PUSH2 0x221B DUP4 PUSH2 0x1C42 JUMP JUMPDEST SWAP3 POP DUP3 DUP3 ADD SWAP1 POP DUP1 DUP3 GT ISZERO PUSH2 0x2233 JUMPI PUSH2 0x2232 PUSH2 0x215F JUMP JUMPDEST JUMPDEST SWAP3 SWAP2 POP POP JUMP JUMPDEST PUSH0 DUP2 MLOAD SWAP1 POP PUSH2 0x2247 DUP2 PUSH2 0x1EE6 JUMP JUMPDEST SWAP3 SWAP2 POP POP JUMP JUMPDEST PUSH0 PUSH1 0x20 DUP3 DUP5 SUB SLT ISZERO PUSH2 0x2262 JUMPI PUSH2 0x2261 PUSH2 0x1BB5 JUMP JUMPDEST JUMPDEST PUSH0 PUSH2 0x226F DUP5 DUP3 DUP6 ADD PUSH2 0x2239 JUMP JUMPDEST SWAP2 POP POP SWAP3 SWAP2 POP POP JUMP JUMPDEST PUSH32 0x496E636F72726563742066656520616D6F756E74000000000000000000000000 PUSH0 DUP3 ADD MSTORE POP JUMP JUMPDEST PUSH0 PUSH2 0x22AC PUSH1 0x14 DUP4 PUSH2 0x1FAF JUMP JUMPDEST SWAP2 POP PUSH2 0x22B7 DUP3 PUSH2 0x2278 JUMP JUMPDEST PUSH1 0x20 DUP3 ADD SWAP1 POP SWAP2 SWAP1 POP JUMP JUMPDEST PUSH0 PUSH1 0x20 DUP3 ADD SWAP1 POP DUP2 DUP2 SUB PUSH0 DUP4 ADD MSTORE PUSH2 0x22D9 DUP2 PUSH2 0x22A0 JUMP JUMPDEST SWAP1 POP SWAP2 SWAP1 POP JUMP JUMPDEST PUSH32 0x4172726179206C656E6774687320646F206E6F74206D61746368000000000000 PUSH0 DUP3 ADD MSTORE POP JUMP JUMPDEST PUSH0 PUSH2 0x2314 PUSH1 0x1A DUP4 PUSH2 0x1FAF JUMP JUMPDEST SWAP2 POP PUSH2 0x231F DUP3 PUSH2 0x22E0 JUMP JUMPDEST PUSH1 0x20 DUP3 ADD SWAP1 POP SWAP2 SWAP1 POP JUMP JUMPDEST PUSH0 PUSH1 0x20 DUP3 ADD SWAP1 POP DUP2 DUP2 SUB PUSH0 DUP4 ADD MSTORE PUSH2 0x2341 DUP2 PUSH2 0x2308 JUMP JUMPDEST SWAP1 POP SWAP2 SWAP1 POP JUMP JUMPDEST PUSH32 0x4E487B7100000000000000000000000000000000000000000000000000000000 PUSH0 MSTORE PUSH1 0x32 PUSH1 0x4 MSTORE PUSH1 0x24 PUSH0 REVERT JUMPDEST PUSH0 PUSH2 0x237F DUP3 PUSH2 0x1C42 JUMP JUMPDEST SWAP2 POP PUSH2 0x238A DUP4 PUSH2 0x1C42 JUMP JUMPDEST SWAP3 POP DUP3 DUP3 MUL PUSH2 0x2398 DUP2 PUSH2 0x1C42 JUMP JUMPDEST SWAP2 POP DUP3 DUP3 DIV DUP5 EQ DUP4 ISZERO OR PUSH2 0x23AF JUMPI PUSH2 0x23AE PUSH2 0x215F JUMP JUMPDEST JUMPDEST POP SWAP3 SWAP2 POP POP JUMP JUMPDEST PUSH32 0x43616E6E6F74206265206120636F6E7472616374000000000000000000000000 PUSH0 DUP3 ADD MSTORE POP JUMP JUMPDEST PUSH0 PUSH2 0x23EA PUSH1 0x14 DUP4 PUSH2 0x1FAF JUMP JUMPDEST SWAP2 POP PUSH2 0x23F5 DUP3 PUSH2 0x23B6 JUMP JUMPDEST PUSH1 0x20 DUP3 ADD SWAP1 POP SWAP2 SWAP1 POP JUMP JUMPDEST PUSH0 PUSH1 0x20 DUP3 ADD SWAP1 POP DUP2 DUP2 SUB PUSH0 DUP4 ADD MSTORE PUSH2 0x2417 DUP2 PUSH2 0x23DE JUMP JUMPDEST SWAP1 POP SWAP2 SWAP1 POP JUMP JUMPDEST PUSH32 0x416C6C6F636174696F6E206578636565647320616C6C6F776564206C696D6974 PUSH0 DUP3 ADD MSTORE POP JUMP JUMPDEST PUSH0 PUSH2 0x2452 PUSH1 0x20 DUP4 PUSH2 0x1FAF JUMP JUMPDEST SWAP2 POP PUSH2 0x245D DUP3 PUSH2 0x241E JUMP JUMPDEST PUSH1 0x20 DUP3 ADD SWAP1 POP SWAP2 SWAP1 POP JUMP JUMPDEST PUSH0 PUSH1 0x20 DUP3 ADD SWAP1 POP DUP2 DUP2 SUB PUSH0 DUP4 ADD MSTORE PUSH2 0x247F DUP2 PUSH2 0x2446 JUMP JUMPDEST SWAP1 POP SWAP2 SWAP1 POP JUMP JUMPDEST PUSH0 PUSH1 0x40 DUP3 ADD SWAP1 POP PUSH2 0x2499 PUSH0 DUP4 ADD DUP6 PUSH2 0x1C4B JUMP JUMPDEST PUSH2 0x24A6 PUSH1 0x20 DUP4 ADD DUP5 PUSH2 0x1C4B JUMP JUMPDEST SWAP4 SWAP3 POP POP POP JUMP JUMPDEST PUSH32 0x496E73756666696369656E7420636F6E74726163742062616C616E636520666F PUSH0 DUP3 ADD MSTORE PUSH32 0x7220616C6C6F636174696F6E0000000000000000000000000000000000000000 PUSH1 0x20 DUP3 ADD MSTORE POP JUMP JUMPDEST PUSH0 PUSH2 0x2507 PUSH1 0x2C DUP4 PUSH2 0x1FAF JUMP JUMPDEST SWAP2 POP PUSH2 0x2512 DUP3 PUSH2 0x24AD JUMP JUMPDEST PUSH1 0x40 DUP3 ADD SWAP1 POP SWAP2 SWAP1 POP JUMP JUMPDEST PUSH0 PUSH1 0x20 DUP3 ADD SWAP1 POP DUP2 DUP2 SUB PUSH0 DUP4 ADD MSTORE PUSH2 0x2534 DUP2 PUSH2 0x24FB JUMP JUMPDEST SWAP1 POP SWAP2 SWAP1 POP JUMP JUMPDEST PUSH0 DUP3 DUP3 MSTORE PUSH1 0x20 DUP3 ADD SWAP1 POP SWAP3 SWAP2 POP POP JUMP JUMPDEST PUSH0 DUP2 SWAP1 POP SWAP2 SWAP1 POP JUMP JUMPDEST PUSH2 0x255D DUP2 PUSH2 0x1BDC JUMP JUMPDEST DUP3 MSTORE POP POP JUMP JUMPDEST PUSH0 PUSH2 0x256E DUP4 DUP4 PUSH2 0x2554 JUMP JUMPDEST PUSH1 0x20 DUP4 ADD SWAP1 POP SWAP3 SWAP2 POP POP JUMP JUMPDEST PUSH0 PUSH2 0x2588 PUSH1 0x20 DUP5 ADD DUP5 PUSH2 0x1C03 JUMP JUMPDEST SWAP1 POP SWAP3 SWAP2 POP POP JUMP JUMPDEST PUSH0 PUSH1 0x20 DUP3 ADD SWAP1 POP SWAP2 SWAP1 POP JUMP JUMPDEST PUSH0 PUSH2 0x25A7 DUP4 DUP6 PUSH2 0x253B JUMP JUMPDEST SWAP4 POP PUSH2 0x25B2 DUP3 PUSH2 0x254B JUMP JUMPDEST DUP1 PUSH0 JUMPDEST DUP6 DUP2 LT ISZERO PUSH2 0x25EA JUMPI PUSH2 0x25C7 DUP3 DUP5 PUSH2 0x257A JUMP JUMPDEST PUSH2 0x25D1 DUP9 DUP3 PUSH2 0x2563 JUMP JUMPDEST SWAP8 POP PUSH2 0x25DC DUP4 PUSH2 0x2590 JUMP JUMPDEST SWAP3 POP POP PUSH1 0x1 DUP2 ADD SWAP1 POP PUSH2 0x25B5 JUMP JUMPDEST POP DUP6 SWAP3 POP POP POP SWAP4 SWAP3 POP POP POP JUMP JUMPDEST PUSH0 DUP3 DUP3 MSTORE PUSH1 0x20 DUP3 ADD SWAP1 POP SWAP3 SWAP2 POP POP JUMP JUMPDEST PUSH0 PUSH0 REVERT JUMPDEST DUP3 DUP2 DUP4 CALLDATACOPY POP POP POP JUMP JUMPDEST PUSH0 PUSH2 0x261F DUP4 DUP6 PUSH2 0x25F7 JUMP JUMPDEST SWAP4 POP PUSH32 0x7FFFFFFFFFFFFFFFFFFFFFFFFFFFFFFFFFFFFFFFFFFFFFFFFFFFFFFFFFFFFFF DUP4 GT ISZERO PUSH2 0x2652 JUMPI PUSH2 0x2651 PUSH2 0x2607 JUMP JUMPDEST JUMPDEST PUSH1 0x20 DUP4 MUL SWAP3 POP PUSH2 0x2663 DUP4 DUP6 DUP5 PUSH2 0x260B JUMP JUMPDEST DUP3 DUP5 ADD SWAP1 POP SWAP4 SWAP3 POP POP POP JUMP JUMPDEST PUSH0 PUSH1 0x40 DUP3 ADD SWAP1 POP DUP2 DUP2 SUB PUSH0 DUP4 ADD MSTORE PUSH2 0x2688 DUP2 DUP7 DUP9 PUSH2 0x259C JUMP JUMPDEST SWAP1 POP DUP2 DUP2 SUB PUSH1 0x20 DUP4 ADD MSTORE PUSH2 0x269D DUP2 DUP5 DUP7 PUSH2 0x2614 JUMP JUMPDEST SWAP1 POP SWAP6 SWAP5 POP POP POP POP POP JUMP JUMPDEST PUSH32 0x436F6E747261637420686173206E6F2062616C616E6365000000000000000000 PUSH0 DUP3 ADD MSTORE POP JUMP JUMPDEST PUSH0 PUSH2 0x26DC PUSH1 0x17 DUP4 PUSH2 0x1FAF JUMP JUMPDEST SWAP2 POP PUSH2 0x26E7 DUP3 PUSH2 0x26A8 JUMP JUMPDEST PUSH1 0x20 DUP3 ADD SWAP1 POP SWAP2 SWAP1 POP JUMP JUMPDEST PUSH0 PUSH1 0x20 DUP3 ADD SWAP1 POP DUP2 DUP2 SUB PUSH0 DUP4 ADD MSTORE PUSH2 0x2709 DUP2 PUSH2 0x26D0 JUMP JUMPDEST SWAP1 POP SWAP2 SWAP1 POP JUMP JUMPDEST PUSH32 0x436F6F6C646F776E20696E2070726F6772657373000000000000000000000000 PUSH0 DUP3 ADD MSTORE POP JUMP JUMPDEST PUSH0 PUSH2 0x2744 PUSH1 0x14 DUP4 PUSH2 0x1FAF JUMP JUMPDEST SWAP2 POP PUSH2 0x274F DUP3 PUSH2 0x2710 JUMP JUMPDEST PUSH1 0x20 DUP3 ADD SWAP1 POP SWAP2 SWAP1 POP JUMP JUMPDEST PUSH0 PUSH1 0x20 DUP3 ADD SWAP1 POP DUP2 DUP2 SUB PUSH0 DUP4 ADD MSTORE PUSH2 0x2771 DUP2 PUSH2 0x2738 JUMP JUMPDEST SWAP1 POP SWAP2 SWAP1 POP JUMP JUMPDEST PUSH32 0x4465706F73697420616D6F756E74206D75737420626520677265617465722074 PUSH0 DUP3 ADD MSTORE PUSH32 0x68616E207A65726F000000000000000000000000000000000000000000000000 PUSH1 0x20 DUP3 ADD MSTORE POP JUMP JUMPDEST PUSH0 PUSH2 0x27D2 PUSH1 0x28 DUP4 PUSH2 0x1FAF JUMP JUMPDEST SWAP2 POP PUSH2 0x27DD DUP3 PUSH2 0x2778 JUMP JUMPDEST PUSH1 0x40 DUP3 ADD SWAP1 POP SWAP2 SWAP1 POP JUMP JUMPDEST PUSH0 PUSH1 0x20 DUP3 ADD SWAP1 POP DUP2 DUP2 SUB PUSH0 DUP4 ADD MSTORE PUSH2 0x27FF DUP2 PUSH2 0x27C6 JUMP JUMPDEST SWAP1 POP SWAP2 SWAP1 POP JUMP JUMPDEST PUSH32 0x496E73756666696369656E742062616C616E6365000000000000000000000000 PUSH0 DUP3 ADD MSTORE POP JUMP JUMPDEST PUSH0 PUSH2 0x283A PUSH1 0x14 DUP4 PUSH2 0x1FAF JUMP JUMPDEST SWAP2 POP PUSH2 0x2845 DUP3 PUSH2 0x2806 JUMP JUMPDEST PUSH1 0x20 DUP3 ADD SWAP1 POP SWAP2 SWAP1 POP JUMP JUMPDEST PUSH0 PUSH1 0x20 DUP3 ADD SWAP1 POP DUP2 DUP2 SUB PUSH0 DUP4 ADD MSTORE PUSH2 0x2867 DUP2 PUSH2 0x282E JUMP JUMPDEST SWAP1 POP SWAP2 SWAP1 POP JUMP JUMPDEST PUSH32 0x4E6F206665657320746F20776974686472617700000000000000000000000000 PUSH0 DUP3 ADD MSTORE POP JUMP JUMPDEST PUSH0 PUSH2 0x28A2 PUSH1 0x13 DUP4 PUSH2 0x1FAF JUMP JUMPDEST SWAP2 POP PUSH2 0x28AD DUP3 PUSH2 0x286E JUMP JUMPDEST PUSH1 0x20 DUP3 ADD SWAP1 POP SWAP2 SWAP1 POP JUMP JUMPDEST PUSH0 PUSH1 0x20 DUP3 ADD SWAP1 POP DUP2 DUP2 SUB PUSH0 DUP4 ADD MSTORE PUSH2 0x28CF DUP2 PUSH2 0x2896 JUMP JUMPDEST SWAP1 POP SWAP2 SWAP1 POP JUMP JUMPDEST PUSH32 0x5265656E7472616E637947756172643A207265656E7472616E742063616C6C00 PUSH0 DUP3 ADD MSTORE POP JUMP JUMPDEST PUSH0 PUSH2 0x290A PUSH1 0x1F DUP4 PUSH2 0x1FAF JUMP JUMPDEST SWAP2 POP PUSH2 0x2915 DUP3 PUSH2 0x28D6 JUMP JUMPDEST PUSH1 0x20 DUP3 ADD SWAP1 POP SWAP2 SWAP1 POP JUMP JUMPDEST PUSH0 PUSH1 0x20 DUP3 ADD SWAP1 POP DUP2 DUP2 SUB PUSH0 DUP4 ADD MSTORE PUSH2 0x2937 DUP2 PUSH2 0x28FE JUMP JUMPDEST SWAP1 POP SWAP2 SWAP1 POP JUMP JUMPDEST PUSH0 PUSH1 0x40 DUP3 ADD SWAP1 POP PUSH2 0x2951 PUSH0 DUP4 ADD DUP6 PUSH2 0x1D0E JUMP JUMPDEST PUSH2 0x295E PUSH1 0x20 DUP4 ADD DUP5 PUSH2 0x1C4B JUMP JUMPDEST SWAP4 SWAP3 POP POP POP JUMP JUMPDEST PUSH0 PUSH1 0x60 DUP3 ADD SWAP1 POP PUSH2 0x2978 PUSH0 DUP4 ADD DUP7 PUSH2 0x1D0E JUMP JUMPDEST PUSH2 0x2985 PUSH1 0x20 DUP4 ADD DUP6 PUSH2 0x1D0E JUMP JUMPDEST PUSH2 0x2992 PUSH1 0x40 DUP4 ADD DUP5 PUSH2 0x1C4B JUMP JUMPDEST SWAP5 SWAP4 POP POP POP POP JUMP INVALID LOG2 PUSH5 0x6970667358 0x22 SLT KECCAK256 0x2A 0x25 PUSH18 0x7E71A72FEEEB25501009F7F37041042B2670 DUP1 PUSH24 0xAD90B40A0FE200793564736F6C634300081C003300000000 "
				},
				"gasEstimates": {
					"creation": {
						"codeDepositCost": "2140800",
						"executionCost": "infinite",
						"totalCost": "infinite"
					},
					"external": {
						"addClaimableBatch(address[],uint256[])": "infinite",
						"approveClaim()": "27821",
						"approvedForClaim(address)": "2923",
						"canClaim(address)": "9588",
						"claim()": "infinite",
						"claimApprovalFee()": "2494",
						"claimBlocked(address)": "2879",
						"claimEnabled()": "2556",
						"contractTokenBalance()": "infinite",
						"depositTokens(uint256)": "infinite",
						"emergencyWithdraw()": "infinite",
						"emergencyWithdrawCooldown()": "2493",
						"getClaimableBalance(address)": "2876",
						"getStats()": "infinite",
						"getTotalClaimed(address)": "2919",
						"lastEmergencyWithdraw()": "2471",
						"maxAllocationPerAddress()": "2514",
						"owner()": "2625",
						"renounceOwnership()": "infinite",
						"setClaimApprovalFee(uint256)": "infinite",
						"setClaimBlockedForAddress(address,bool)": "infinite",
						"setClaimEnabled(bool)": "infinite",
						"token()": "infinite",
						"totalAddressesClaimed()": "2537",
						"totalAllocated()": "2471",
						"totalRegisteredAddresses()": "2470",
						"transferOwnership(address)": "infinite",
						"withdrawApprovalFees()": "infinite"
					}
				},
				"methodIdentifiers": {
					"addClaimableBatch(address[],uint256[])": "d7bebac0",
					"approveClaim()": "a0470cb4",
					"approvedForClaim(address)": "94192b9f",
					"canClaim(address)": "bf3506c1",
					"claim()": "4e71d92d",
					"claimApprovalFee()": "1f322564",
					"claimBlocked(address)": "8f060da9",
					"claimEnabled()": "2866ed21",
					"contractTokenBalance()": "9e9aed62",
					"depositTokens(uint256)": "dd49756e",
					"emergencyWithdraw()": "db2e21bc",
					"emergencyWithdrawCooldown()": "28607bc6",
					"getClaimableBalance(address)": "06def802",
					"getStats()": "c59d4847",
					"getTotalClaimed(address)": "522bf1d4",
					"lastEmergencyWithdraw()": "26155e53",
					"maxAllocationPerAddress()": "86e755c6",
					"owner()": "8da5cb5b",
					"renounceOwnership()": "715018a6",
					"setClaimApprovalFee(uint256)": "e1ffba62",
					"setClaimBlockedForAddress(address,bool)": "2019ddf8",
					"setClaimEnabled(bool)": "92929a09",
					"token()": "fc0c546a",
					"totalAddressesClaimed()": "2bb2ed39",
					"totalAllocated()": "45f7f249",
					"totalRegisteredAddresses()": "6104f4b5",
					"transferOwnership(address)": "f2fde38b",
					"withdrawApprovalFees()": "e1413163"
				}
			},
			"storageLayout": {
				"storage": [
					{
						"astId": 8,
						"contract": "ClaimFVCK.sol:FvckClaim",
						"label": "_owner",
						"offset": 0,
						"slot": "0",
						"type": "t_address"
					},
					{
						"astId": 248,
						"contract": "ClaimFVCK.sol:FvckClaim",
						"label": "_status",
						"offset": 0,
						"slot": "1",
						"type": "t_uint256"
					},
					{
						"astId": 1133,
						"contract": "ClaimFVCK.sol:FvckClaim",
						"label": "claimEnabled",
						"offset": 0,
						"slot": "2",
						"type": "t_bool"
					},
					{
						"astId": 1137,
						"contract": "ClaimFVCK.sol:FvckClaim",
						"label": "claimableBalances",
						"offset": 0,
						"slot": "3",
						"type": "t_mapping(t_address,t_uint256)"
					},
					{
						"astId": 1141,
						"contract": "ClaimFVCK.sol:FvckClaim",
						"label": "claimedBalances",
						"offset": 0,
						"slot": "4",
						"type": "t_mapping(t_address,t_uint256)"
					},
					{
						"astId": 1145,
						"contract": "ClaimFVCK.sol:FvckClaim",
						"label": "claimBlocked",
						"offset": 0,
						"slot": "5",
						"type": "t_mapping(t_address,t_bool)"
					},
					{
						"astId": 1149,
						"contract": "ClaimFVCK.sol:FvckClaim",
						"label": "approvedForClaim",
						"offset": 0,
						"slot": "6",
						"type": "t_mapping(t_address,t_bool)"
					},
					{
						"astId": 1151,
						"contract": "ClaimFVCK.sol:FvckClaim",
						"label": "totalRegisteredAddresses",
						"offset": 0,
						"slot": "7",
						"type": "t_uint256"
					},
					{
						"astId": 1153,
						"contract": "ClaimFVCK.sol:FvckClaim",
						"label": "totalAddressesClaimed",
						"offset": 0,
						"slot": "8",
						"type": "t_uint256"
					},
					{
						"astId": 1155,
						"contract": "ClaimFVCK.sol:FvckClaim",
						"label": "totalAllocated",
						"offset": 0,
						"slot": "9",
						"type": "t_uint256"
					},
					{
						"astId": 1159,
						"contract": "ClaimFVCK.sol:FvckClaim",
						"label": "_isRegistered",
						"offset": 0,
						"slot": "10",
						"type": "t_mapping(t_address,t_bool)"
					},
					{
						"astId": 1169,
						"contract": "ClaimFVCK.sol:FvckClaim",
						"label": "maxAllocationPerAddress",
						"offset": 0,
						"slot": "11",
						"type": "t_uint256"
					},
					{
						"astId": 1171,
						"contract": "ClaimFVCK.sol:FvckClaim",
						"label": "lastEmergencyWithdraw",
						"offset": 0,
						"slot": "12",
						"type": "t_uint256"
					},
					{
						"astId": 1174,
						"contract": "ClaimFVCK.sol:FvckClaim",
						"label": "emergencyWithdrawCooldown",
						"offset": 0,
						"slot": "13",
						"type": "t_uint256"
					},
					{
						"astId": 1176,
						"contract": "ClaimFVCK.sol:FvckClaim",
						"label": "claimApprovalFee",
						"offset": 0,
						"slot": "14",
						"type": "t_uint256"
					}
				],
				"types": {
					"t_address": {
						"encoding": "inplace",
						"label": "address",
						"numberOfBytes": "20"
					},
					"t_bool": {
						"encoding": "inplace",
						"label": "bool",
						"numberOfBytes": "1"
					},
					"t_mapping(t_address,t_bool)": {
						"encoding": "mapping",
						"key": "t_address",
						"label": "mapping(address => bool)",
						"numberOfBytes": "32",
						"value": "t_bool"
					},
					"t_mapping(t_address,t_uint256)": {
						"encoding": "mapping",
						"key": "t_address",
						"label": "mapping(address => uint256)",
						"numberOfBytes": "32",
						"value": "t_uint256"
					},
					"t_uint256": {
						"encoding": "inplace",
						"label": "uint256",
						"numberOfBytes": "32"
					}
				}
			},
			"userdoc": {
				"kind": "user",
				"methods": {
					"addClaimableBatch(address[],uint256[])": {
						"notice": "Adds (or sums) claimable balances for multiple addresses in a single batch operation."
					},
					"approveClaim()": {
						"notice": "Allows a user to pay the approval fee and enable claim eligibility."
					},
					"canClaim(address)": {
						"notice": "Checks whether a wallet can currently claim tokens."
					},
					"claim()": {
						"notice": "Allows a user to claim their allocated tokens. The claim can be made only once."
					},
					"contractTokenBalance()": {
						"notice": "Returns the total token balance of the contract."
					},
					"depositTokens(uint256)": {
						"notice": "Allows the owner to deposit tokens into the contract for distribution."
					},
					"emergencyWithdraw()": {
						"notice": "Allows the owner to withdraw all tokens in case of an emergency."
					},
					"getClaimableBalance(address)": {
						"notice": "Retrieves the specific claimable balance for a given address."
					},
					"getStats()": {
						"notice": "Retrieves statistics for the frontend interface."
					},
					"getTotalClaimed(address)": {
						"notice": "Retrieves the total tokens already claimed by a given address."
					},
					"setClaimApprovalFee(uint256)": {
						"notice": "Allows the owner to set the claim approval fee."
					},
					"setClaimBlockedForAddress(address,bool)": {
						"notice": "Allows the owner to block or unblock the claim functionality for a specific address."
					},
					"setClaimEnabled(bool)": {
						"notice": "Allows the owner to enable or disable the claim functionality globally."
					},
					"withdrawApprovalFees()": {
						"notice": "Allows the owner to withdraw all collected approval fees."
					}
				},
				"notice": "Contract to lock BEP20/ERC20 tokens received externally (via transfer),         manage a mapping of wallets authorized to claim specific balances,         and allow withdrawal of these tokens only once.",
				"version": 1
			}
		}
	}
}